{
  "address": "0x06eC928F7bb931Ca109b8f563ef2b81705518a8d",
  "abi": [
    {
      "inputs": [
        {
          "internalType": "address",
          "name": "leaderboard_",
          "type": "address"
        }
      ],
      "stateMutability": "nonpayable",
      "type": "constructor"
    },
    {
      "inputs": [],
      "name": "AccessControlBadConfirmation",
      "type": "error"
    },
    {
      "inputs": [
        {
          "internalType": "address",
          "name": "account",
          "type": "address"
        },
        {
          "internalType": "bytes32",
          "name": "neededRole",
          "type": "bytes32"
        }
      ],
      "name": "AccessControlUnauthorizedAccount",
      "type": "error"
    },
    {
      "inputs": [],
      "name": "EnforcedPause",
      "type": "error"
    },
    {
      "inputs": [],
      "name": "ExpectedPause",
      "type": "error"
    },
    {
      "anonymous": false,
      "inputs": [
        {
          "indexed": false,
          "internalType": "uint256",
          "name": "betAmount",
          "type": "uint256"
        },
        {
          "indexed": false,
          "internalType": "uint256",
          "name": "fee",
          "type": "uint256"
        },
        {
          "indexed": false,
          "internalType": "address",
          "name": "user",
          "type": "address"
        },
        {
          "indexed": false,
          "internalType": "bool",
          "name": "isWin",
          "type": "bool"
        }
      ],
      "name": "Game",
      "type": "event"
    },
    {
      "anonymous": false,
      "inputs": [
        {
          "indexed": false,
          "internalType": "address",
          "name": "account",
          "type": "address"
        }
      ],
      "name": "Paused",
      "type": "event"
    },
    {
      "anonymous": false,
      "inputs": [
        {
          "indexed": true,
          "internalType": "bytes32",
          "name": "role",
          "type": "bytes32"
        },
        {
          "indexed": true,
          "internalType": "bytes32",
          "name": "previousAdminRole",
          "type": "bytes32"
        },
        {
          "indexed": true,
          "internalType": "bytes32",
          "name": "newAdminRole",
          "type": "bytes32"
        }
      ],
      "name": "RoleAdminChanged",
      "type": "event"
    },
    {
      "anonymous": false,
      "inputs": [
        {
          "indexed": true,
          "internalType": "bytes32",
          "name": "role",
          "type": "bytes32"
        },
        {
          "indexed": true,
          "internalType": "address",
          "name": "account",
          "type": "address"
        },
        {
          "indexed": true,
          "internalType": "address",
          "name": "sender",
          "type": "address"
        }
      ],
      "name": "RoleGranted",
      "type": "event"
    },
    {
      "anonymous": false,
      "inputs": [
        {
          "indexed": true,
          "internalType": "bytes32",
          "name": "role",
          "type": "bytes32"
        },
        {
          "indexed": true,
          "internalType": "address",
          "name": "account",
          "type": "address"
        },
        {
          "indexed": true,
          "internalType": "address",
          "name": "sender",
          "type": "address"
        }
      ],
      "name": "RoleRevoked",
      "type": "event"
    },
    {
      "anonymous": false,
      "inputs": [
        {
          "indexed": false,
          "internalType": "address",
          "name": "account",
          "type": "address"
        }
      ],
      "name": "Unpaused",
      "type": "event"
    },
    {
      "inputs": [],
      "name": "DEFAULT_ADMIN_ROLE",
      "outputs": [
        {
          "internalType": "bytes32",
          "name": "",
          "type": "bytes32"
        }
      ],
      "stateMutability": "view",
      "type": "function"
    },
    {
      "inputs": [],
      "name": "GAME_ID",
      "outputs": [
        {
          "internalType": "uint256",
          "name": "",
          "type": "uint256"
        }
      ],
      "stateMutability": "view",
      "type": "function"
    },
    {
      "inputs": [],
      "name": "betFee",
      "outputs": [
        {
          "internalType": "uint256",
          "name": "",
          "type": "uint256"
        }
      ],
      "stateMutability": "view",
      "type": "function"
    },
    {
      "inputs": [],
      "name": "feeReceiver",
      "outputs": [
        {
          "internalType": "address",
          "name": "",
          "type": "address"
        }
      ],
      "stateMutability": "view",
      "type": "function"
    },
    {
      "inputs": [
        {
          "internalType": "bool",
          "name": "gtSide",
          "type": "bool"
        }
      ],
      "name": "flip",
      "outputs": [],
      "stateMutability": "payable",
      "type": "function"
    },
    {
      "inputs": [
        {
          "internalType": "bytes32",
          "name": "role",
          "type": "bytes32"
        }
      ],
      "name": "getRoleAdmin",
      "outputs": [
        {
          "internalType": "bytes32",
          "name": "",
          "type": "bytes32"
        }
      ],
      "stateMutability": "view",
      "type": "function"
    },
    {
      "inputs": [],
      "name": "govAddress",
      "outputs": [
        {
          "internalType": "address",
          "name": "",
          "type": "address"
        }
      ],
      "stateMutability": "view",
      "type": "function"
    },
    {
      "inputs": [],
      "name": "govFee",
      "outputs": [
        {
          "internalType": "uint256",
          "name": "",
          "type": "uint256"
        }
      ],
      "stateMutability": "view",
      "type": "function"
    },
    {
      "inputs": [
        {
          "internalType": "bytes32",
          "name": "role",
          "type": "bytes32"
        },
        {
          "internalType": "address",
          "name": "account",
          "type": "address"
        }
      ],
      "name": "grantRole",
      "outputs": [],
      "stateMutability": "nonpayable",
      "type": "function"
    },
    {
      "inputs": [
        {
          "internalType": "bytes32",
          "name": "role",
          "type": "bytes32"
        },
        {
          "internalType": "address",
          "name": "account",
          "type": "address"
        }
      ],
      "name": "hasRole",
      "outputs": [
        {
          "internalType": "bool",
          "name": "",
          "type": "bool"
        }
      ],
      "stateMutability": "view",
      "type": "function"
    },
    {
      "inputs": [],
      "name": "leaderboard",
      "outputs": [
        {
          "internalType": "address",
          "name": "",
          "type": "address"
        }
      ],
      "stateMutability": "view",
      "type": "function"
    },
    {
      "inputs": [],
      "name": "maxBet",
      "outputs": [
        {
          "internalType": "uint256",
          "name": "",
          "type": "uint256"
        }
      ],
      "stateMutability": "view",
      "type": "function"
    },
    {
      "inputs": [],
      "name": "minBet",
      "outputs": [
        {
          "internalType": "uint256",
          "name": "",
          "type": "uint256"
        }
      ],
      "stateMutability": "view",
      "type": "function"
    },
    {
      "inputs": [],
      "name": "pause",
      "outputs": [],
      "stateMutability": "nonpayable",
      "type": "function"
    },
    {
      "inputs": [],
      "name": "paused",
      "outputs": [
        {
          "internalType": "bool",
          "name": "",
          "type": "bool"
        }
      ],
      "stateMutability": "view",
      "type": "function"
    },
    {
      "inputs": [
        {
          "internalType": "bytes32",
          "name": "role",
          "type": "bytes32"
        },
        {
          "internalType": "address",
          "name": "callerConfirmation",
          "type": "address"
        }
      ],
      "name": "renounceRole",
      "outputs": [],
      "stateMutability": "nonpayable",
      "type": "function"
    },
    {
      "inputs": [
        {
          "internalType": "bytes32",
          "name": "role",
          "type": "bytes32"
        },
        {
          "internalType": "address",
          "name": "account",
          "type": "address"
        }
      ],
      "name": "revokeRole",
      "outputs": [],
      "stateMutability": "nonpayable",
      "type": "function"
    },
    {
      "inputs": [
        {
          "internalType": "uint256",
          "name": "val",
          "type": "uint256"
        }
      ],
      "name": "setBetFee",
      "outputs": [],
      "stateMutability": "nonpayable",
      "type": "function"
    },
    {
      "inputs": [
        {
          "internalType": "address",
          "name": "receiver",
          "type": "address"
        }
      ],
      "name": "setFeeReceiver",
      "outputs": [],
      "stateMutability": "nonpayable",
      "type": "function"
    },
    {
      "inputs": [
        {
          "internalType": "address",
          "name": "gov",
          "type": "address"
        }
      ],
      "name": "setGovAddress",
      "outputs": [],
      "stateMutability": "nonpayable",
      "type": "function"
    },
    {
      "inputs": [
        {
          "internalType": "uint256",
          "name": "val",
          "type": "uint256"
        }
      ],
      "name": "setGovFee",
      "outputs": [],
      "stateMutability": "nonpayable",
      "type": "function"
    },
    {
      "inputs": [
        {
          "internalType": "address",
          "name": "leaderboard_",
          "type": "address"
        }
      ],
      "name": "setLeaderboard",
      "outputs": [],
      "stateMutability": "nonpayable",
      "type": "function"
    },
    {
      "inputs": [
        {
          "internalType": "uint256",
          "name": "val",
          "type": "uint256"
        }
      ],
      "name": "setMaxBet",
      "outputs": [],
      "stateMutability": "nonpayable",
      "type": "function"
    },
    {
      "inputs": [
        {
          "internalType": "uint256",
          "name": "val",
          "type": "uint256"
        }
      ],
      "name": "setMinBet",
      "outputs": [],
      "stateMutability": "nonpayable",
      "type": "function"
    },
    {
      "inputs": [
        {
          "internalType": "bytes4",
          "name": "interfaceId",
          "type": "bytes4"
        }
      ],
      "name": "supportsInterface",
      "outputs": [
        {
          "internalType": "bool",
          "name": "",
          "type": "bool"
        }
      ],
      "stateMutability": "view",
      "type": "function"
    },
    {
      "inputs": [],
      "name": "totalGame",
      "outputs": [
        {
          "internalType": "uint256",
          "name": "",
          "type": "uint256"
        }
      ],
      "stateMutability": "view",
      "type": "function"
    },
    {
      "inputs": [],
      "name": "unpause",
      "outputs": [],
      "stateMutability": "nonpayable",
      "type": "function"
    },
    {
      "inputs": [
        {
          "internalType": "address",
          "name": "addr",
          "type": "address"
        },
        {
          "internalType": "uint256",
          "name": "amount",
          "type": "uint256"
        }
      ],
      "name": "withdraw",
      "outputs": [],
      "stateMutability": "nonpayable",
      "type": "function"
    },
    {
      "inputs": [
        {
          "internalType": "address",
          "name": "addr",
          "type": "address"
        }
      ],
      "name": "withdrawAll",
      "outputs": [],
      "stateMutability": "nonpayable",
      "type": "function"
    },
    {
      "stateMutability": "payable",
      "type": "receive"
    }
  ],
  "transactionHash": "0x3ba0d6fc3249006458834505547547760d6620fb3a983de5ff0d611e93b90109",
  "args": [
    "0xE06C31F080dFe1f4f9364dA9A8C5d10C0cb7d1c9"
  ],
  "numDeployments": 1,
  "solcInputHash": "7d8bc4cd9e89a8d62000ce8d47f49ff0",
  "bytecode": "0x608060405234801561001057600080fd5b506040516200137a3803806200137a83398101604081905261003191610186565b6001805460ff19169055336100476000826100da565b506100727fa49807205ce4d355092ef5a8a18f56e8913cf4a201fbe287825b095693c21775826100da565b5061015e6003556608e1bc9bf040006004556702c68af0bb14000060055564e8d4a51000600755600680546001600160a01b039283166001600160a01b03199182168117909255600880548216909217909155600980549390921692169190911790556101b6565b6000828152602081815260408083206001600160a01b038516845290915281205460ff1661017c576000838152602081815260408083206001600160a01b03861684529091529020805460ff191660011790556101343390565b6001600160a01b0316826001600160a01b0316847f2f8788117e7eff1d82e926ec794901d17c78024a50270940304540a733656f0d60405160405180910390a4506001610180565b5060005b92915050565b60006020828403121561019857600080fd5b81516001600160a01b03811681146101af57600080fd5b9392505050565b6111b480620001c66000396000f3fe6080604052600436106101c65760003560e01c80638456cb59116100f7578063d272e57e11610095578063f1a2de7211610064578063f1a2de72146104fb578063f3fef3a31461051b578063fa09e6301461053b578063fdcdb06b1461055b57600080fd5b8063d272e57e14610485578063d547741f1461049b578063eb56b740146104bb578063efdcd974146104db57600080fd5b806391d14854116100d157806391d14854146103f65780639619367d1461043a578063a217fddf14610450578063b3f006741461046557600080fd5b80638456cb59146103a1578063881eff1e146103b657806388ea41b9146103d657600080fd5b80633f4ba83a116101645780635e7c5af51161013e5780635e7c5af51461033557806364ae4ca61461034b57806372229abf1461036b578063841e6ce91461038b57600080fd5b80633f4ba83a146102d057806346008a07146102e55780635c975abb1461031d57600080fd5b8063278473fd116101a0578063278473fd1461025a5780632e5b21681461027a5780632f2ff15d1461029057806336568abe146102b057600080fd5b806301ffc9a7146101d25780631d263f6714610207578063248a9ca31461021c57600080fd5b366101cd57005b600080fd5b3480156101de57600080fd5b506101f26101ed366004610fbc565b610570565b60405190151581526020015b60405180910390f35b61021a610215366004611005565b610609565b005b34801561022857600080fd5b5061024c610237366004611027565b60009081526020819052604090206001015490565b6040519081526020016101fe565b34801561026657600080fd5b5061021a610275366004611027565b6108e8565b34801561028657600080fd5b5061024c60055481565b34801561029c57600080fd5b5061021a6102ab36600461105c565b610906565b3480156102bc57600080fd5b5061021a6102cb36600461105c565b610931565b3480156102dc57600080fd5b5061021a610982565b3480156102f157600080fd5b50600854610305906001600160a01b031681565b6040516001600160a01b0390911681526020016101fe565b34801561032957600080fd5b5060015460ff166101f2565b34801561034157600080fd5b5061024c60075481565b34801561035757600080fd5b5061021a610366366004611088565b6109ad565b34801561037757600080fd5b5061021a610386366004611027565b6109f5565b34801561039757600080fd5b5061024c60035481565b3480156103ad57600080fd5b5061021a610a13565b3480156103c257600080fd5b5061021a6103d1366004611027565b610a3b565b3480156103e257600080fd5b5061021a6103f1366004611027565b610a99565b34801561040257600080fd5b506101f261041136600461105c565b6000918252602082815260408084206001600160a01b0393909316845291905290205460ff1690565b34801561044657600080fd5b5061024c60045481565b34801561045c57600080fd5b5061024c600081565b34801561047157600080fd5b50600654610305906001600160a01b031681565b34801561049157600080fd5b5061024c60025481565b3480156104a757600080fd5b5061021a6104b636600461105c565b610af7565b3480156104c757600080fd5b50600954610305906001600160a01b031681565b3480156104e757600080fd5b5061021a6104f6366004611088565b610b1c565b34801561050757600080fd5b5061021a610516366004611088565b610b64565b34801561052757600080fd5b5061021a6105363660046110a3565b610bac565b34801561054757600080fd5b5061021a610556366004611088565b610c55565b34801561056757600080fd5b5061024c600181565b60007fffffffff0000000000000000000000000000000000000000000000000000000082167f7965db0b00000000000000000000000000000000000000000000000000000000148061060357507f01ffc9a7000000000000000000000000000000000000000000000000000000007fffffffff000000000000000000000000000000000000000000000000000000008316145b92915050565b610611610ca4565b600754339060009061062390346110e3565b9050600060035461271061063791906110f6565b61064361271084611109565b61064d9190611136565b9050600454811015801561066357506005548111155b6106a25760405162461bcd60e51b815260206004820152600b60248201526a1a5b9d985b1a590818995d60aa1b60448201526064015b60405180910390fd5b60006106af826002611109565b9050804710156107015760405162461bcd60e51b815260206004820152601460248201527f686f757365206f7574206f662062616c616e63650000000000000000000000006044820152606401610699565b600061070d83856110e3565b9050600254600161071e91906110f6565b6002556008546007546040516001600160a01b039092169181156108fc0291906000818181858888f1935050505015801561075d573d6000803e3d6000fd5b506006546040516001600160a01b039091169082156108fc029083906000818181858888f19350505050158015610798573d6000803e3d6000fd5b5060006107a3610ce3565b90508015158715151480156107ea576040516001600160a01b0388169085156108fc029086906000818181858888f193505050501580156107e8573d6000803e3d6000fd5b505b600034851115610801576107fe34866110e3565b90505b6009546040517f5f4717fe0000000000000000000000000000000000000000000000000000000081526001600482015233602482015260448101839052606481018890526001600160a01b0390911690635f4717fe90608401600060405180830381600087803b15801561087457600080fd5b505af1158015610888573d6000803e3d6000fd5b505060408051898152602081018890526001600160a01b038c1681830152851515606082015290517fcc5cf3d528e4b3b09beb3b4be3d58bfee685d4b6099aacb6fb4ce84898ed55619350908190036080019150a1505050505050505050565b60008051602061115f83398151915261090081610d4c565b50600755565b60008281526020819052604090206001015461092181610d4c565b61092b8383610d56565b50505050565b6001600160a01b0381163314610973576040517f6697b23200000000000000000000000000000000000000000000000000000000815260040160405180910390fd5b61097d8282610e00565b505050565b60008051602061115f83398151915261099a81610d4c565b6109a2610e83565b6109aa610ebf565b50565b60008051602061115f8339815191526109c581610d4c565b506008805473ffffffffffffffffffffffffffffffffffffffff19166001600160a01b0392909216919091179055565b60008051602061115f833981519152610a0d81610d4c565b50600355565b60008051602061115f833981519152610a2b81610d4c565b610a33610ca4565b6109aa610f11565b60008051602061115f833981519152610a5381610d4c565b600454821015610a935760405162461bcd60e51b815260206004820152600b60248201526a1a5b9d985b1a590818995d60aa1b6044820152606401610699565b50600555565b60008051602061115f833981519152610ab181610d4c565b600554821115610af15760405162461bcd60e51b815260206004820152600b60248201526a1a5b9d985b1a590818995d60aa1b6044820152606401610699565b50600455565b600082815260208190526040902060010154610b1281610d4c565b61092b8383610e00565b60008051602061115f833981519152610b3481610d4c565b506006805473ffffffffffffffffffffffffffffffffffffffff19166001600160a01b0392909216919091179055565b60008051602061115f833981519152610b7c81610d4c565b506009805473ffffffffffffffffffffffffffffffffffffffff19166001600160a01b0392909216919091179055565b60008051602061115f833981519152610bc481610d4c565b4780831115610c155760405162461bcd60e51b815260206004820152600e60248201527f696e76616c696420616d6f756e740000000000000000000000000000000000006044820152606401610699565b60405184906001600160a01b0382169085156108fc029086906000818181858888f19350505050158015610c4d573d6000803e3d6000fd5b505050505050565b60008051602061115f833981519152610c6d81610d4c565b60405182906001600160a01b038216904780156108fc02916000818181858888f1935050505015801561092b573d6000803e3d6000fd5b60015460ff1615610ce1576040517fd93c066500000000000000000000000000000000000000000000000000000000815260040160405180910390fd5b565b6000804360025433604051602001610d2093929190928352602083019190915260601b6bffffffffffffffffffffffff1916604082015260540190565b60408051601f1981840301815291905280516020909101209050610d4560028261114a565b1592915050565b6109aa8133610f4c565b6000828152602081815260408083206001600160a01b038516845290915281205460ff16610df8576000838152602081815260408083206001600160a01b03861684529091529020805460ff19166001179055610db03390565b6001600160a01b0316826001600160a01b0316847f2f8788117e7eff1d82e926ec794901d17c78024a50270940304540a733656f0d60405160405180910390a4506001610603565b506000610603565b6000828152602081815260408083206001600160a01b038516845290915281205460ff1615610df8576000838152602081815260408083206001600160a01b0386168085529252808320805460ff1916905551339286917ff6391f5c32d9c69d2a47ea670b442974b53935d1edc7fd64eb21e047a839171b9190a4506001610603565b60015460ff16610ce1576040517f8dfc202b00000000000000000000000000000000000000000000000000000000815260040160405180910390fd5b610ec7610e83565b6001805460ff191690557f5db9ee0a495bf2e6ff9c91a7834c1ba4fdd244a5e8aa4e537bd38aeae4b073aa335b6040516001600160a01b03909116815260200160405180910390a1565b610f19610ca4565b6001805460ff1916811790557f62e78cea01bee320cd4e420270b5ea74000d11b0c9f74754ebdbfc544b05a25833610ef4565b6000828152602081815260408083206001600160a01b038516845290915290205460ff16610fb8576040517fe2517d3f0000000000000000000000000000000000000000000000000000000081526001600160a01b038216600482015260248101839052604401610699565b5050565b600060208284031215610fce57600080fd5b81357fffffffff0000000000000000000000000000000000000000000000000000000081168114610ffe57600080fd5b9392505050565b60006020828403121561101757600080fd5b81358015158114610ffe57600080fd5b60006020828403121561103957600080fd5b5035919050565b80356001600160a01b038116811461105757600080fd5b919050565b6000806040838503121561106f57600080fd5b8235915061107f60208401611040565b90509250929050565b60006020828403121561109a57600080fd5b610ffe82611040565b600080604083850312156110b657600080fd5b6110bf83611040565b946020939093013593505050565b634e487b7160e01b600052601160045260246000fd5b81810381811115610603576106036110cd565b80820180821115610603576106036110cd565b8082028115828204841417610603576106036110cd565b634e487b7160e01b600052601260045260246000fd5b60008261114557611145611120565b500490565b60008261115957611159611120565b50069056fea49807205ce4d355092ef5a8a18f56e8913cf4a201fbe287825b095693c21775a264697066735822122043b72da5ff29dc3eee013b1dfc71a7fccda9bd00524013c41b2c84c3d2ac4d8464736f6c63430008140033",
  "devdoc": {
    "errors": {
      "AccessControlBadConfirmation()": [
        {
          "details": "The caller of a function is not the expected one. NOTE: Don't confuse with {AccessControlUnauthorizedAccount}."
        }
      ],
      "AccessControlUnauthorizedAccount(address,bytes32)": [
        {
          "details": "The `account` is missing a role."
        }
      ],
      "EnforcedPause()": [
        {
          "details": "The operation failed because the contract is paused."
        }
      ],
      "ExpectedPause()": [
        {
          "details": "The operation failed because the contract is not paused."
        }
      ]
    },
    "events": {
      "Paused(address)": {
        "details": "Emitted when the pause is triggered by `account`."
      },
      "RoleAdminChanged(bytes32,bytes32,bytes32)": {
        "details": "Emitted when `newAdminRole` is set as ``role``'s admin role, replacing `previousAdminRole` `DEFAULT_ADMIN_ROLE` is the starting admin for all roles, despite {RoleAdminChanged} not being emitted signaling this."
      },
      "RoleGranted(bytes32,address,address)": {
        "details": "Emitted when `account` is granted `role`. `sender` is the account that originated the contract call. This account bears the admin role (for the granted role). Expected in cases where the role was granted using the internal {AccessControl-_grantRole}."
      },
      "RoleRevoked(bytes32,address,address)": {
        "details": "Emitted when `account` is revoked `role`. `sender` is the account that originated the contract call:   - if using `revokeRole`, it is the admin role bearer   - if using `renounceRole`, it is the role bearer (i.e. `account`)"
      },
      "Unpaused(address)": {
        "details": "Emitted when the pause is lifted by `account`."
      }
    },
    "kind": "dev",
    "methods": {
      "getRoleAdmin(bytes32)": {
        "details": "Returns the admin role that controls `role`. See {grantRole} and {revokeRole}. To change a role's admin, use {_setRoleAdmin}."
      },
      "grantRole(bytes32,address)": {
        "details": "Grants `role` to `account`. If `account` had not been already granted `role`, emits a {RoleGranted} event. Requirements: - the caller must have ``role``'s admin role. May emit a {RoleGranted} event."
      },
      "hasRole(bytes32,address)": {
        "details": "Returns `true` if `account` has been granted `role`."
      },
      "pause()": {
        "details": "called by the owner to pause, triggers stopped state"
      },
      "paused()": {
        "details": "Returns true if the contract is paused, and false otherwise."
      },
      "renounceRole(bytes32,address)": {
        "details": "Revokes `role` from the calling account. Roles are often managed via {grantRole} and {revokeRole}: this function's purpose is to provide a mechanism for accounts to lose their privileges if they are compromised (such as when a trusted device is misplaced). If the calling account had been revoked `role`, emits a {RoleRevoked} event. Requirements: - the caller must be `callerConfirmation`. May emit a {RoleRevoked} event."
      },
      "revokeRole(bytes32,address)": {
        "details": "Revokes `role` from `account`. If `account` had been granted `role`, emits a {RoleRevoked} event. Requirements: - the caller must have ``role``'s admin role. May emit a {RoleRevoked} event."
      },
      "supportsInterface(bytes4)": {
        "details": "See {IERC165-supportsInterface}."
      },
      "unpause()": {
        "details": "called by the owner to unpause, returns to normal state"
      }
    },
    "version": 1
  },
  "userdoc": {
    "kind": "user",
    "methods": {
      "totalGame()": {
        "notice": "Storages"
      }
    },
    "version": 1
  },
  "storageLayout": {
    "storage": [
      {
        "astId": 26,
        "contract": "contracts/CoinFlip/CoinFlip.sol:CoinFlip",
        "label": "_roles",
        "offset": 0,
        "slot": "0",
        "type": "t_mapping(t_bytes32,t_struct(RoleData)21_storage)"
      },
      {
        "astId": 417,
        "contract": "contracts/CoinFlip/CoinFlip.sol:CoinFlip",
        "label": "_paused",
        "offset": 0,
        "slot": "1",
        "type": "t_bool"
      },
      {
        "astId": 585,
        "contract": "contracts/CoinFlip/CoinFlip.sol:CoinFlip",
        "label": "totalGame",
        "offset": 0,
        "slot": "2",
        "type": "t_uint256"
      },
      {
        "astId": 587,
        "contract": "contracts/CoinFlip/CoinFlip.sol:CoinFlip",
        "label": "betFee",
        "offset": 0,
        "slot": "3",
        "type": "t_uint256"
      },
      {
        "astId": 589,
        "contract": "contracts/CoinFlip/CoinFlip.sol:CoinFlip",
        "label": "minBet",
        "offset": 0,
        "slot": "4",
        "type": "t_uint256"
      },
      {
        "astId": 591,
        "contract": "contracts/CoinFlip/CoinFlip.sol:CoinFlip",
        "label": "maxBet",
        "offset": 0,
        "slot": "5",
        "type": "t_uint256"
      },
      {
        "astId": 593,
        "contract": "contracts/CoinFlip/CoinFlip.sol:CoinFlip",
        "label": "feeReceiver",
        "offset": 0,
        "slot": "6",
        "type": "t_address"
      },
      {
        "astId": 595,
        "contract": "contracts/CoinFlip/CoinFlip.sol:CoinFlip",
        "label": "govFee",
        "offset": 0,
        "slot": "7",
        "type": "t_uint256"
      },
      {
        "astId": 597,
        "contract": "contracts/CoinFlip/CoinFlip.sol:CoinFlip",
        "label": "govAddress",
        "offset": 0,
        "slot": "8",
        "type": "t_address"
      },
      {
        "astId": 599,
        "contract": "contracts/CoinFlip/CoinFlip.sol:CoinFlip",
        "label": "leaderboard",
        "offset": 0,
        "slot": "9",
        "type": "t_address"
      }
    ],
    "types": {
      "t_address": {
        "encoding": "inplace",
        "label": "address",
        "numberOfBytes": "20"
      },
      "t_bool": {
        "encoding": "inplace",
        "label": "bool",
        "numberOfBytes": "1"
      },
      "t_bytes32": {
        "encoding": "inplace",
        "label": "bytes32",
        "numberOfBytes": "32"
      },
      "t_mapping(t_address,t_bool)": {
        "encoding": "mapping",
        "key": "t_address",
        "label": "mapping(address => bool)",
        "numberOfBytes": "32",
        "value": "t_bool"
      },
      "t_mapping(t_bytes32,t_struct(RoleData)21_storage)": {
        "encoding": "mapping",
        "key": "t_bytes32",
        "label": "mapping(bytes32 => struct AccessControl.RoleData)",
        "numberOfBytes": "32",
        "value": "t_struct(RoleData)21_storage"
      },
      "t_struct(RoleData)21_storage": {
        "encoding": "inplace",
        "label": "struct AccessControl.RoleData",
        "members": [
          {
            "astId": 18,
            "contract": "contracts/CoinFlip/CoinFlip.sol:CoinFlip",
            "label": "hasRole",
            "offset": 0,
            "slot": "0",
            "type": "t_mapping(t_address,t_bool)"
          },
          {
            "astId": 20,
            "contract": "contracts/CoinFlip/CoinFlip.sol:CoinFlip",
            "label": "adminRole",
            "offset": 0,
            "slot": "1",
            "type": "t_bytes32"
          }
        ],
        "numberOfBytes": "64"
      },
      "t_uint256": {
        "encoding": "inplace",
        "label": "uint256",
        "numberOfBytes": "32"
      }
    }
  }
}