{
  "address": "0x48F13229686a56084c3FE9189D1Ce6a1315b7984",
  "abi": [
    {
      "inputs": [
        {
          "internalType": "address",
          "name": "leaderboard_",
          "type": "address"
        }
      ],
      "stateMutability": "nonpayable",
      "type": "constructor"
    },
    {
      "inputs": [],
      "name": "AccessControlBadConfirmation",
      "type": "error"
    },
    {
      "inputs": [
        {
          "internalType": "address",
          "name": "account",
          "type": "address"
        },
        {
          "internalType": "bytes32",
          "name": "neededRole",
          "type": "bytes32"
        }
      ],
      "name": "AccessControlUnauthorizedAccount",
      "type": "error"
    },
    {
      "inputs": [],
      "name": "EnforcedPause",
      "type": "error"
    },
    {
      "inputs": [],
      "name": "ExpectedPause",
      "type": "error"
    },
    {
      "anonymous": false,
      "inputs": [
        {
          "indexed": false,
          "internalType": "uint256",
          "name": "betAmount",
          "type": "uint256"
        },
        {
          "indexed": false,
          "internalType": "uint256",
          "name": "fee",
          "type": "uint256"
        },
        {
          "indexed": false,
          "internalType": "address",
          "name": "user",
          "type": "address"
        },
        {
          "indexed": false,
          "internalType": "bool",
          "name": "isWin",
          "type": "bool"
        }
      ],
      "name": "Game",
      "type": "event"
    },
    {
      "anonymous": false,
      "inputs": [
        {
          "indexed": false,
          "internalType": "address",
          "name": "account",
          "type": "address"
        }
      ],
      "name": "Paused",
      "type": "event"
    },
    {
      "anonymous": false,
      "inputs": [
        {
          "indexed": true,
          "internalType": "bytes32",
          "name": "role",
          "type": "bytes32"
        },
        {
          "indexed": true,
          "internalType": "bytes32",
          "name": "previousAdminRole",
          "type": "bytes32"
        },
        {
          "indexed": true,
          "internalType": "bytes32",
          "name": "newAdminRole",
          "type": "bytes32"
        }
      ],
      "name": "RoleAdminChanged",
      "type": "event"
    },
    {
      "anonymous": false,
      "inputs": [
        {
          "indexed": true,
          "internalType": "bytes32",
          "name": "role",
          "type": "bytes32"
        },
        {
          "indexed": true,
          "internalType": "address",
          "name": "account",
          "type": "address"
        },
        {
          "indexed": true,
          "internalType": "address",
          "name": "sender",
          "type": "address"
        }
      ],
      "name": "RoleGranted",
      "type": "event"
    },
    {
      "anonymous": false,
      "inputs": [
        {
          "indexed": true,
          "internalType": "bytes32",
          "name": "role",
          "type": "bytes32"
        },
        {
          "indexed": true,
          "internalType": "address",
          "name": "account",
          "type": "address"
        },
        {
          "indexed": true,
          "internalType": "address",
          "name": "sender",
          "type": "address"
        }
      ],
      "name": "RoleRevoked",
      "type": "event"
    },
    {
      "anonymous": false,
      "inputs": [
        {
          "indexed": false,
          "internalType": "address",
          "name": "account",
          "type": "address"
        }
      ],
      "name": "Unpaused",
      "type": "event"
    },
    {
      "inputs": [],
      "name": "DEFAULT_ADMIN_ROLE",
      "outputs": [
        {
          "internalType": "bytes32",
          "name": "",
          "type": "bytes32"
        }
      ],
      "stateMutability": "view",
      "type": "function"
    },
    {
      "inputs": [],
      "name": "GAME_ID",
      "outputs": [
        {
          "internalType": "uint256",
          "name": "",
          "type": "uint256"
        }
      ],
      "stateMutability": "view",
      "type": "function"
    },
    {
      "inputs": [
        {
          "internalType": "uint256",
          "name": "multiplier",
          "type": "uint256"
        }
      ],
      "name": "_calculateBetArray",
      "outputs": [
        {
          "internalType": "uint256",
          "name": "winRate",
          "type": "uint256"
        },
        {
          "internalType": "uint256",
          "name": "totalRate",
          "type": "uint256"
        }
      ],
      "stateMutability": "pure",
      "type": "function"
    },
    {
      "inputs": [],
      "name": "betFee",
      "outputs": [
        {
          "internalType": "uint256",
          "name": "",
          "type": "uint256"
        }
      ],
      "stateMutability": "view",
      "type": "function"
    },
    {
      "inputs": [
        {
          "internalType": "uint256",
          "name": "multiplier",
          "type": "uint256"
        }
      ],
      "name": "crash",
      "outputs": [],
      "stateMutability": "payable",
      "type": "function"
    },
    {
      "inputs": [],
      "name": "feeReceiver",
      "outputs": [
        {
          "internalType": "address",
          "name": "",
          "type": "address"
        }
      ],
      "stateMutability": "view",
      "type": "function"
    },
    {
      "inputs": [
        {
          "internalType": "bytes32",
          "name": "role",
          "type": "bytes32"
        }
      ],
      "name": "getRoleAdmin",
      "outputs": [
        {
          "internalType": "bytes32",
          "name": "",
          "type": "bytes32"
        }
      ],
      "stateMutability": "view",
      "type": "function"
    },
    {
      "inputs": [],
      "name": "govAddress",
      "outputs": [
        {
          "internalType": "address",
          "name": "",
          "type": "address"
        }
      ],
      "stateMutability": "view",
      "type": "function"
    },
    {
      "inputs": [],
      "name": "govFee",
      "outputs": [
        {
          "internalType": "uint256",
          "name": "",
          "type": "uint256"
        }
      ],
      "stateMutability": "view",
      "type": "function"
    },
    {
      "inputs": [
        {
          "internalType": "bytes32",
          "name": "role",
          "type": "bytes32"
        },
        {
          "internalType": "address",
          "name": "account",
          "type": "address"
        }
      ],
      "name": "grantRole",
      "outputs": [],
      "stateMutability": "nonpayable",
      "type": "function"
    },
    {
      "inputs": [
        {
          "internalType": "bytes32",
          "name": "role",
          "type": "bytes32"
        },
        {
          "internalType": "address",
          "name": "account",
          "type": "address"
        }
      ],
      "name": "hasRole",
      "outputs": [
        {
          "internalType": "bool",
          "name": "",
          "type": "bool"
        }
      ],
      "stateMutability": "view",
      "type": "function"
    },
    {
      "inputs": [],
      "name": "leaderboard",
      "outputs": [
        {
          "internalType": "address",
          "name": "",
          "type": "address"
        }
      ],
      "stateMutability": "view",
      "type": "function"
    },
    {
      "inputs": [],
      "name": "maxBet",
      "outputs": [
        {
          "internalType": "uint256",
          "name": "",
          "type": "uint256"
        }
      ],
      "stateMutability": "view",
      "type": "function"
    },
    {
      "inputs": [],
      "name": "minBet",
      "outputs": [
        {
          "internalType": "uint256",
          "name": "",
          "type": "uint256"
        }
      ],
      "stateMutability": "view",
      "type": "function"
    },
    {
      "inputs": [],
      "name": "pause",
      "outputs": [],
      "stateMutability": "nonpayable",
      "type": "function"
    },
    {
      "inputs": [],
      "name": "paused",
      "outputs": [
        {
          "internalType": "bool",
          "name": "",
          "type": "bool"
        }
      ],
      "stateMutability": "view",
      "type": "function"
    },
    {
      "inputs": [
        {
          "internalType": "bytes32",
          "name": "role",
          "type": "bytes32"
        },
        {
          "internalType": "address",
          "name": "callerConfirmation",
          "type": "address"
        }
      ],
      "name": "renounceRole",
      "outputs": [],
      "stateMutability": "nonpayable",
      "type": "function"
    },
    {
      "inputs": [
        {
          "internalType": "bytes32",
          "name": "role",
          "type": "bytes32"
        },
        {
          "internalType": "address",
          "name": "account",
          "type": "address"
        }
      ],
      "name": "revokeRole",
      "outputs": [],
      "stateMutability": "nonpayable",
      "type": "function"
    },
    {
      "inputs": [
        {
          "internalType": "uint256",
          "name": "val",
          "type": "uint256"
        }
      ],
      "name": "setBetFee",
      "outputs": [],
      "stateMutability": "nonpayable",
      "type": "function"
    },
    {
      "inputs": [
        {
          "internalType": "address",
          "name": "receiver",
          "type": "address"
        }
      ],
      "name": "setFeeReceiver",
      "outputs": [],
      "stateMutability": "nonpayable",
      "type": "function"
    },
    {
      "inputs": [
        {
          "internalType": "address",
          "name": "gov",
          "type": "address"
        }
      ],
      "name": "setGovAddress",
      "outputs": [],
      "stateMutability": "nonpayable",
      "type": "function"
    },
    {
      "inputs": [
        {
          "internalType": "uint256",
          "name": "val",
          "type": "uint256"
        }
      ],
      "name": "setGovFee",
      "outputs": [],
      "stateMutability": "nonpayable",
      "type": "function"
    },
    {
      "inputs": [
        {
          "internalType": "address",
          "name": "leaderboard_",
          "type": "address"
        }
      ],
      "name": "setLeaderboard",
      "outputs": [],
      "stateMutability": "nonpayable",
      "type": "function"
    },
    {
      "inputs": [
        {
          "internalType": "uint256",
          "name": "val",
          "type": "uint256"
        }
      ],
      "name": "setMaxBet",
      "outputs": [],
      "stateMutability": "nonpayable",
      "type": "function"
    },
    {
      "inputs": [
        {
          "internalType": "uint256",
          "name": "val",
          "type": "uint256"
        }
      ],
      "name": "setMinBet",
      "outputs": [],
      "stateMutability": "nonpayable",
      "type": "function"
    },
    {
      "inputs": [
        {
          "internalType": "bytes4",
          "name": "interfaceId",
          "type": "bytes4"
        }
      ],
      "name": "supportsInterface",
      "outputs": [
        {
          "internalType": "bool",
          "name": "",
          "type": "bool"
        }
      ],
      "stateMutability": "view",
      "type": "function"
    },
    {
      "inputs": [],
      "name": "totalGame",
      "outputs": [
        {
          "internalType": "uint256",
          "name": "",
          "type": "uint256"
        }
      ],
      "stateMutability": "view",
      "type": "function"
    },
    {
      "inputs": [],
      "name": "unpause",
      "outputs": [],
      "stateMutability": "nonpayable",
      "type": "function"
    },
    {
      "inputs": [
        {
          "internalType": "address",
          "name": "addr",
          "type": "address"
        },
        {
          "internalType": "uint256",
          "name": "amount",
          "type": "uint256"
        }
      ],
      "name": "withdraw",
      "outputs": [],
      "stateMutability": "nonpayable",
      "type": "function"
    },
    {
      "inputs": [
        {
          "internalType": "address",
          "name": "addr",
          "type": "address"
        }
      ],
      "name": "withdrawAll",
      "outputs": [],
      "stateMutability": "nonpayable",
      "type": "function"
    },
    {
      "stateMutability": "payable",
      "type": "receive"
    }
  ],
  "transactionHash": "0xb9404a76d9b551157b124b963d8755aeec94b57796857a9e9cf9c1746ef9a54f",
  "args": [
    "0xE06C31F080dFe1f4f9364dA9A8C5d10C0cb7d1c9"
  ],
  "numDeployments": 1,
  "solcInputHash": "7d8bc4cd9e89a8d62000ce8d47f49ff0",
  "bytecode": "0x60806040523480156200001157600080fd5b50604051620014a3380380620014a3833981016040819052620000349162000191565b6001805460ff19169055336200004c600082620000e2565b50620000797fa49807205ce4d355092ef5a8a18f56e8913cf4a201fbe287825b095693c2177582620000e2565b5061015e6003556608e1bc9bf040006004556702c68af0bb14000060055564e8d4a51000600755600680546001600160a01b039283166001600160a01b0319918216811790925560088054821690921790915560098054939092169216919091179055620001c3565b6000828152602081815260408083206001600160a01b038516845290915281205460ff1662000187576000838152602081815260408083206001600160a01b03861684529091529020805460ff191660011790556200013e3390565b6001600160a01b0316826001600160a01b0316847f2f8788117e7eff1d82e926ec794901d17c78024a50270940304540a733656f0d60405160405180910390a45060016200018b565b5060005b92915050565b600060208284031215620001a457600080fd5b81516001600160a01b0381168114620001bc57600080fd5b9392505050565b6112d080620001d36000396000f3fe6080604052600436106101d15760003560e01c8063881eff1e116100f7578063d272e57e11610095578063f1a2de7211610064578063f1a2de721461053b578063f3fef3a31461055b578063fa09e6301461057b578063fdcdb06b1461059b57600080fd5b8063d272e57e146104c5578063d547741f146104db578063eb56b740146104fb578063efdcd9741461051b57600080fd5b80639619367d116100d15780639619367d14610445578063a217fddf1461045b578063a812b6e614610470578063b3f00674146104a557600080fd5b8063881eff1e146103c157806388ea41b9146103e157806391d148541461040157600080fd5b806346008a071161016f57806364ae4ca61161013e57806364ae4ca61461035657806372229abf14610376578063841e6ce9146103965780638456cb59146103ac57600080fd5b806346008a07146102dd57806355490ba1146103155780635c975abb146103285780635e7c5af51461034057600080fd5b80632e5b2168116101ab5780632e5b2168146102725780632f2ff15d1461028857806336568abe146102a85780633f4ba83a146102c857600080fd5b806301ffc9a7146101dd578063248a9ca314610212578063278473fd1461025057600080fd5b366101d857005b600080fd5b3480156101e957600080fd5b506101fd6101f83660046110fa565b6105b0565b60405190151581526020015b60405180910390f35b34801561021e57600080fd5b5061024261022d366004611143565b60009081526020819052604090206001015490565b604051908152602001610209565b34801561025c57600080fd5b5061027061026b366004611143565b610649565b005b34801561027e57600080fd5b5061024260055481565b34801561029457600080fd5b506102706102a3366004611178565b610667565b3480156102b457600080fd5b506102706102c3366004611178565b610692565b3480156102d457600080fd5b506102706106e3565b3480156102e957600080fd5b506008546102fd906001600160a01b031681565b6040516001600160a01b039091168152602001610209565b610270610323366004611143565b61070e565b34801561033457600080fd5b5060015460ff166101fd565b34801561034c57600080fd5b5061024260075481565b34801561036257600080fd5b506102706103713660046111a4565b610a83565b34801561038257600080fd5b50610270610391366004611143565b610acb565b3480156103a257600080fd5b5061024260035481565b3480156103b857600080fd5b50610270610ae9565b3480156103cd57600080fd5b506102706103dc366004611143565b610b11565b3480156103ed57600080fd5b506102706103fc366004611143565b610b6f565b34801561040d57600080fd5b506101fd61041c366004611178565b6000918252602082815260408084206001600160a01b0393909316845291905290205460ff1690565b34801561045157600080fd5b5061024260045481565b34801561046757600080fd5b50610242600081565b34801561047c57600080fd5b5061049061048b366004611143565b610bcd565b60408051928352602083019190915201610209565b3480156104b157600080fd5b506006546102fd906001600160a01b031681565b3480156104d157600080fd5b5061024260025481565b3480156104e757600080fd5b506102706104f6366004611178565b610c44565b34801561050757600080fd5b506009546102fd906001600160a01b031681565b34801561052757600080fd5b506102706105363660046111a4565b610c69565b34801561054757600080fd5b506102706105563660046111a4565b610cb1565b34801561056757600080fd5b506102706105763660046111bf565b610cf9565b34801561058757600080fd5b506102706105963660046111a4565b610da2565b3480156105a757600080fd5b50610242600281565b60007fffffffff0000000000000000000000000000000000000000000000000000000082167f7965db0b00000000000000000000000000000000000000000000000000000000148061064357507f01ffc9a7000000000000000000000000000000000000000000000000000000007fffffffff000000000000000000000000000000000000000000000000000000008316145b92915050565b60008051602061127b83398151915261066181610df1565b50600755565b60008281526020819052604090206001015461068281610df1565b61068c8383610dfb565b50505050565b6001600160a01b03811633146106d4576040517f6697b23200000000000000000000000000000000000000000000000000000000815260040160405180910390fd5b6106de8282610ea5565b505050565b60008051602061127b8339815191526106fb81610df1565b610703610f28565b61070b610f66565b50565b610716610fb8565b606481118015610727575061271081105b801561073b57506107396019826111ff565b155b61078c5760405162461bcd60e51b815260206004820152601260248201527f696e76616c6964206d756c7469706c696572000000000000000000000000000060448201526064015b60405180910390fd5b600754339060009061079e9034611229565b905060006003546127106107b2919061123c565b6107be6127108461124f565b6107c89190611266565b905060045481101580156107de57506005548111155b6108185760405162461bcd60e51b815260206004820152600b60248201526a1a5b9d985b1a590818995d60aa1b6044820152606401610783565b60006108248284611229565b90506002546001610835919061123c565b6002556008546007546040516001600160a01b039092169181156108fc0291906000818181858888f19350505050158015610874573d6000803e3d6000fd5b506006546040516001600160a01b039091169082156108fc029083906000818181858888f193505050501580156108af573d6000803e3d6000fd5b50600060646108be848861124f565b6108c89190611266565b90508047101561091a5760405162461bcd60e51b815260206004820152601460248201527f686f757365206f7574206f662062616c616e63650000000000000000000000006044820152606401610783565b60008061092688610bcd565b915091506000610934610ff5565b905061094082826111ff565b90508281108015610983576040516001600160a01b038a169086156108fc029087906000818181858888f19350505050158015610981573d6000803e3d6000fd5b505b60003486111561099a576109973487611229565b90505b6009546040517f5f4717fe0000000000000000000000000000000000000000000000000000000081526002600482015233602482015260448101839052606481018a90526001600160a01b0390911690635f4717fe90608401600060405180830381600087803b158015610a0d57600080fd5b505af1158015610a21573d6000803e3d6000fd5b5050604080518b8152602081018b90526001600160a01b038e1681830152851515606082015290517fcc5cf3d528e4b3b09beb3b4be3d58bfee685d4b6099aacb6fb4ce84898ed55619350908190036080019150a15050505050505050505050565b60008051602061127b833981519152610a9b81610df1565b506008805473ffffffffffffffffffffffffffffffffffffffff19166001600160a01b0392909216919091179055565b60008051602061127b833981519152610ae381610df1565b50600355565b60008051602061127b833981519152610b0181610df1565b610b09610fb8565b61070b61104f565b60008051602061127b833981519152610b2981610df1565b600454821015610b695760405162461bcd60e51b815260206004820152600b60248201526a1a5b9d985b1a590818995d60aa1b6044820152606401610783565b50600555565b60008051602061127b833981519152610b8781610df1565b600554821115610bc75760405162461bcd60e51b815260206004820152600b60248201526a1a5b9d985b1a590818995d60aa1b6044820152606401610783565b50600455565b60008080610bdc6064856111ff565b905080601903610bef5760049250610c16565b80603203610c005760029250610c16565b80604b03610c115760049250610c16565b600192505b6000610c22848661124f565b90506064610c3182606361123c565b610c3b9190611266565b92505050915091565b600082815260208190526040902060010154610c5f81610df1565b61068c8383610ea5565b60008051602061127b833981519152610c8181610df1565b506006805473ffffffffffffffffffffffffffffffffffffffff19166001600160a01b0392909216919091179055565b60008051602061127b833981519152610cc981610df1565b506009805473ffffffffffffffffffffffffffffffffffffffff19166001600160a01b0392909216919091179055565b60008051602061127b833981519152610d1181610df1565b4780831115610d625760405162461bcd60e51b815260206004820152600e60248201527f696e76616c696420616d6f756e740000000000000000000000000000000000006044820152606401610783565b60405184906001600160a01b0382169085156108fc029086906000818181858888f19350505050158015610d9a573d6000803e3d6000fd5b505050505050565b60008051602061127b833981519152610dba81610df1565b60405182906001600160a01b038216904780156108fc02916000818181858888f1935050505015801561068c573d6000803e3d6000fd5b61070b813361108a565b6000828152602081815260408083206001600160a01b038516845290915281205460ff16610e9d576000838152602081815260408083206001600160a01b03861684529091529020805460ff19166001179055610e553390565b6001600160a01b0316826001600160a01b0316847f2f8788117e7eff1d82e926ec794901d17c78024a50270940304540a733656f0d60405160405180910390a4506001610643565b506000610643565b6000828152602081815260408083206001600160a01b038516845290915281205460ff1615610e9d576000838152602081815260408083206001600160a01b0386168085529252808320805460ff1916905551339286917ff6391f5c32d9c69d2a47ea670b442974b53935d1edc7fd64eb21e047a839171b9190a4506001610643565b60015460ff16610f64576040517f8dfc202b00000000000000000000000000000000000000000000000000000000815260040160405180910390fd5b565b610f6e610f28565b6001805460ff191690557f5db9ee0a495bf2e6ff9c91a7834c1ba4fdd244a5e8aa4e537bd38aeae4b073aa335b6040516001600160a01b03909116815260200160405180910390a1565b60015460ff1615610f64576040517fd93c066500000000000000000000000000000000000000000000000000000000815260040160405180910390fd5b6000436002543360405160200161103193929190928352602083019190915260601b6bffffffffffffffffffffffff1916604082015260540190565b6040516020818303038152906040528051906020012060001c905090565b611057610fb8565b6001805460ff1916811790557f62e78cea01bee320cd4e420270b5ea74000d11b0c9f74754ebdbfc544b05a25833610f9b565b6000828152602081815260408083206001600160a01b038516845290915290205460ff166110f6576040517fe2517d3f0000000000000000000000000000000000000000000000000000000081526001600160a01b038216600482015260248101839052604401610783565b5050565b60006020828403121561110c57600080fd5b81357fffffffff000000000000000000000000000000000000000000000000000000008116811461113c57600080fd5b9392505050565b60006020828403121561115557600080fd5b5035919050565b80356001600160a01b038116811461117357600080fd5b919050565b6000806040838503121561118b57600080fd5b8235915061119b6020840161115c565b90509250929050565b6000602082840312156111b657600080fd5b61113c8261115c565b600080604083850312156111d257600080fd5b6111db8361115c565b946020939093013593505050565b634e487b7160e01b600052601260045260246000fd5b60008261120e5761120e6111e9565b500690565b634e487b7160e01b600052601160045260246000fd5b8181038181111561064357610643611213565b8082018082111561064357610643611213565b808202811582820484141761064357610643611213565b600082611275576112756111e9565b50049056fea49807205ce4d355092ef5a8a18f56e8913cf4a201fbe287825b095693c21775a26469706673582212201055512d5d5ca8d6c24bdda8c767ae02d9b4809c82d891977ba2e811250a9fbf64736f6c63430008140033",
  "devdoc": {
    "errors": {
      "AccessControlBadConfirmation()": [
        {
          "details": "The caller of a function is not the expected one. NOTE: Don't confuse with {AccessControlUnauthorizedAccount}."
        }
      ],
      "AccessControlUnauthorizedAccount(address,bytes32)": [
        {
          "details": "The `account` is missing a role."
        }
      ],
      "EnforcedPause()": [
        {
          "details": "The operation failed because the contract is paused."
        }
      ],
      "ExpectedPause()": [
        {
          "details": "The operation failed because the contract is not paused."
        }
      ]
    },
    "events": {
      "Paused(address)": {
        "details": "Emitted when the pause is triggered by `account`."
      },
      "RoleAdminChanged(bytes32,bytes32,bytes32)": {
        "details": "Emitted when `newAdminRole` is set as ``role``'s admin role, replacing `previousAdminRole` `DEFAULT_ADMIN_ROLE` is the starting admin for all roles, despite {RoleAdminChanged} not being emitted signaling this."
      },
      "RoleGranted(bytes32,address,address)": {
        "details": "Emitted when `account` is granted `role`. `sender` is the account that originated the contract call. This account bears the admin role (for the granted role). Expected in cases where the role was granted using the internal {AccessControl-_grantRole}."
      },
      "RoleRevoked(bytes32,address,address)": {
        "details": "Emitted when `account` is revoked `role`. `sender` is the account that originated the contract call:   - if using `revokeRole`, it is the admin role bearer   - if using `renounceRole`, it is the role bearer (i.e. `account`)"
      },
      "Unpaused(address)": {
        "details": "Emitted when the pause is lifted by `account`."
      }
    },
    "kind": "dev",
    "methods": {
      "getRoleAdmin(bytes32)": {
        "details": "Returns the admin role that controls `role`. See {grantRole} and {revokeRole}. To change a role's admin, use {_setRoleAdmin}."
      },
      "grantRole(bytes32,address)": {
        "details": "Grants `role` to `account`. If `account` had not been already granted `role`, emits a {RoleGranted} event. Requirements: - the caller must have ``role``'s admin role. May emit a {RoleGranted} event."
      },
      "hasRole(bytes32,address)": {
        "details": "Returns `true` if `account` has been granted `role`."
      },
      "pause()": {
        "details": "called by the owner to pause, triggers stopped state"
      },
      "paused()": {
        "details": "Returns true if the contract is paused, and false otherwise."
      },
      "renounceRole(bytes32,address)": {
        "details": "Revokes `role` from the calling account. Roles are often managed via {grantRole} and {revokeRole}: this function's purpose is to provide a mechanism for accounts to lose their privileges if they are compromised (such as when a trusted device is misplaced). If the calling account had been revoked `role`, emits a {RoleRevoked} event. Requirements: - the caller must be `callerConfirmation`. May emit a {RoleRevoked} event."
      },
      "revokeRole(bytes32,address)": {
        "details": "Revokes `role` from `account`. If `account` had been granted `role`, emits a {RoleRevoked} event. Requirements: - the caller must have ``role``'s admin role. May emit a {RoleRevoked} event."
      },
      "supportsInterface(bytes4)": {
        "details": "See {IERC165-supportsInterface}."
      },
      "unpause()": {
        "details": "called by the owner to unpause, returns to normal state"
      }
    },
    "version": 1
  },
  "userdoc": {
    "kind": "user",
    "methods": {
      "totalGame()": {
        "notice": "Storages"
      }
    },
    "version": 1
  },
  "storageLayout": {
    "storage": [
      {
        "astId": 26,
        "contract": "contracts/Crash/Crash.sol:Crash",
        "label": "_roles",
        "offset": 0,
        "slot": "0",
        "type": "t_mapping(t_bytes32,t_struct(RoleData)21_storage)"
      },
      {
        "astId": 417,
        "contract": "contracts/Crash/Crash.sol:Crash",
        "label": "_paused",
        "offset": 0,
        "slot": "1",
        "type": "t_bool"
      },
      {
        "astId": 1062,
        "contract": "contracts/Crash/Crash.sol:Crash",
        "label": "totalGame",
        "offset": 0,
        "slot": "2",
        "type": "t_uint256"
      },
      {
        "astId": 1064,
        "contract": "contracts/Crash/Crash.sol:Crash",
        "label": "betFee",
        "offset": 0,
        "slot": "3",
        "type": "t_uint256"
      },
      {
        "astId": 1066,
        "contract": "contracts/Crash/Crash.sol:Crash",
        "label": "minBet",
        "offset": 0,
        "slot": "4",
        "type": "t_uint256"
      },
      {
        "astId": 1068,
        "contract": "contracts/Crash/Crash.sol:Crash",
        "label": "maxBet",
        "offset": 0,
        "slot": "5",
        "type": "t_uint256"
      },
      {
        "astId": 1070,
        "contract": "contracts/Crash/Crash.sol:Crash",
        "label": "feeReceiver",
        "offset": 0,
        "slot": "6",
        "type": "t_address"
      },
      {
        "astId": 1072,
        "contract": "contracts/Crash/Crash.sol:Crash",
        "label": "govFee",
        "offset": 0,
        "slot": "7",
        "type": "t_uint256"
      },
      {
        "astId": 1074,
        "contract": "contracts/Crash/Crash.sol:Crash",
        "label": "govAddress",
        "offset": 0,
        "slot": "8",
        "type": "t_address"
      },
      {
        "astId": 1076,
        "contract": "contracts/Crash/Crash.sol:Crash",
        "label": "leaderboard",
        "offset": 0,
        "slot": "9",
        "type": "t_address"
      }
    ],
    "types": {
      "t_address": {
        "encoding": "inplace",
        "label": "address",
        "numberOfBytes": "20"
      },
      "t_bool": {
        "encoding": "inplace",
        "label": "bool",
        "numberOfBytes": "1"
      },
      "t_bytes32": {
        "encoding": "inplace",
        "label": "bytes32",
        "numberOfBytes": "32"
      },
      "t_mapping(t_address,t_bool)": {
        "encoding": "mapping",
        "key": "t_address",
        "label": "mapping(address => bool)",
        "numberOfBytes": "32",
        "value": "t_bool"
      },
      "t_mapping(t_bytes32,t_struct(RoleData)21_storage)": {
        "encoding": "mapping",
        "key": "t_bytes32",
        "label": "mapping(bytes32 => struct AccessControl.RoleData)",
        "numberOfBytes": "32",
        "value": "t_struct(RoleData)21_storage"
      },
      "t_struct(RoleData)21_storage": {
        "encoding": "inplace",
        "label": "struct AccessControl.RoleData",
        "members": [
          {
            "astId": 18,
            "contract": "contracts/Crash/Crash.sol:Crash",
            "label": "hasRole",
            "offset": 0,
            "slot": "0",
            "type": "t_mapping(t_address,t_bool)"
          },
          {
            "astId": 20,
            "contract": "contracts/Crash/Crash.sol:Crash",
            "label": "adminRole",
            "offset": 0,
            "slot": "1",
            "type": "t_bytes32"
          }
        ],
        "numberOfBytes": "64"
      },
      "t_uint256": {
        "encoding": "inplace",
        "label": "uint256",
        "numberOfBytes": "32"
      }
    }
  }
}