{
  "address": "0x529FaDA6211e63efc487Ec0B53166D6760967A55",
  "abi": [
    {
      "inputs": [],
      "name": "AccessControlBadConfirmation",
      "type": "error"
    },
    {
      "inputs": [
        {
          "internalType": "address",
          "name": "account",
          "type": "address"
        },
        {
          "internalType": "bytes32",
          "name": "neededRole",
          "type": "bytes32"
        }
      ],
      "name": "AccessControlUnauthorizedAccount",
      "type": "error"
    },
    {
      "inputs": [
        {
          "internalType": "address",
          "name": "target",
          "type": "address"
        }
      ],
      "name": "AddressEmptyCode",
      "type": "error"
    },
    {
      "inputs": [
        {
          "internalType": "address",
          "name": "implementation",
          "type": "address"
        }
      ],
      "name": "ERC1967InvalidImplementation",
      "type": "error"
    },
    {
      "inputs": [],
      "name": "ERC1967NonPayable",
      "type": "error"
    },
    {
      "inputs": [],
      "name": "EnforcedPause",
      "type": "error"
    },
    {
      "inputs": [],
      "name": "ExpectedPause",
      "type": "error"
    },
    {
      "inputs": [],
      "name": "FailedCall",
      "type": "error"
    },
    {
      "inputs": [],
      "name": "InvalidInitialization",
      "type": "error"
    },
    {
      "inputs": [],
      "name": "NotInitializing",
      "type": "error"
    },
    {
      "inputs": [],
      "name": "UUPSUnauthorizedCallContext",
      "type": "error"
    },
    {
      "inputs": [
        {
          "internalType": "bytes32",
          "name": "slot",
          "type": "bytes32"
        }
      ],
      "name": "UUPSUnsupportedProxiableUUID",
      "type": "error"
    },
    {
      "anonymous": false,
      "inputs": [
        {
          "indexed": true,
          "internalType": "address",
          "name": "user",
          "type": "address"
        },
        {
          "indexed": true,
          "internalType": "uint256",
          "name": "gameId",
          "type": "uint256"
        },
        {
          "indexed": false,
          "internalType": "uint256",
          "name": "betAmount",
          "type": "uint256"
        },
        {
          "indexed": false,
          "internalType": "uint256",
          "name": "multiplier",
          "type": "uint256"
        },
        {
          "indexed": false,
          "internalType": "uint256",
          "name": "payout",
          "type": "uint256"
        }
      ],
      "name": "Game",
      "type": "event"
    },
    {
      "anonymous": false,
      "inputs": [
        {
          "indexed": false,
          "internalType": "uint64",
          "name": "version",
          "type": "uint64"
        }
      ],
      "name": "Initialized",
      "type": "event"
    },
    {
      "anonymous": false,
      "inputs": [
        {
          "indexed": true,
          "internalType": "address",
          "name": "user",
          "type": "address"
        },
        {
          "indexed": true,
          "internalType": "uint256",
          "name": "gameId",
          "type": "uint256"
        },
        {
          "indexed": false,
          "internalType": "uint256",
          "name": "betAmount",
          "type": "uint256"
        },
        {
          "indexed": false,
          "internalType": "uint256",
          "name": "multiplier",
          "type": "uint256"
        },
        {
          "indexed": false,
          "internalType": "uint256",
          "name": "fee",
          "type": "uint256"
        }
      ],
      "name": "NewBet",
      "type": "event"
    },
    {
      "anonymous": false,
      "inputs": [
        {
          "indexed": false,
          "internalType": "address",
          "name": "account",
          "type": "address"
        }
      ],
      "name": "Paused",
      "type": "event"
    },
    {
      "anonymous": false,
      "inputs": [
        {
          "indexed": false,
          "internalType": "uint256",
          "name": "sequence",
          "type": "uint256"
        }
      ],
      "name": "RandomRequested",
      "type": "event"
    },
    {
      "anonymous": false,
      "inputs": [
        {
          "indexed": true,
          "internalType": "bytes32",
          "name": "role",
          "type": "bytes32"
        },
        {
          "indexed": true,
          "internalType": "bytes32",
          "name": "previousAdminRole",
          "type": "bytes32"
        },
        {
          "indexed": true,
          "internalType": "bytes32",
          "name": "newAdminRole",
          "type": "bytes32"
        }
      ],
      "name": "RoleAdminChanged",
      "type": "event"
    },
    {
      "anonymous": false,
      "inputs": [
        {
          "indexed": true,
          "internalType": "bytes32",
          "name": "role",
          "type": "bytes32"
        },
        {
          "indexed": true,
          "internalType": "address",
          "name": "account",
          "type": "address"
        },
        {
          "indexed": true,
          "internalType": "address",
          "name": "sender",
          "type": "address"
        }
      ],
      "name": "RoleGranted",
      "type": "event"
    },
    {
      "anonymous": false,
      "inputs": [
        {
          "indexed": true,
          "internalType": "bytes32",
          "name": "role",
          "type": "bytes32"
        },
        {
          "indexed": true,
          "internalType": "address",
          "name": "account",
          "type": "address"
        },
        {
          "indexed": true,
          "internalType": "address",
          "name": "sender",
          "type": "address"
        }
      ],
      "name": "RoleRevoked",
      "type": "event"
    },
    {
      "anonymous": false,
      "inputs": [
        {
          "indexed": false,
          "internalType": "address",
          "name": "account",
          "type": "address"
        }
      ],
      "name": "Unpaused",
      "type": "event"
    },
    {
      "anonymous": false,
      "inputs": [
        {
          "indexed": true,
          "internalType": "address",
          "name": "implementation",
          "type": "address"
        }
      ],
      "name": "Upgraded",
      "type": "event"
    },
    {
      "inputs": [],
      "name": "DEFAULT_ADMIN_ROLE",
      "outputs": [
        {
          "internalType": "bytes32",
          "name": "",
          "type": "bytes32"
        }
      ],
      "stateMutability": "view",
      "type": "function"
    },
    {
      "inputs": [],
      "name": "GAME_ID",
      "outputs": [
        {
          "internalType": "uint256",
          "name": "",
          "type": "uint256"
        }
      ],
      "stateMutability": "view",
      "type": "function"
    },
    {
      "inputs": [],
      "name": "UPGRADE_INTERFACE_VERSION",
      "outputs": [
        {
          "internalType": "string",
          "name": "",
          "type": "string"
        }
      ],
      "stateMutability": "view",
      "type": "function"
    },
    {
      "inputs": [
        {
          "internalType": "uint256",
          "name": "multiplier",
          "type": "uint256"
        }
      ],
      "name": "_calculateBetArray",
      "outputs": [
        {
          "internalType": "uint256",
          "name": "winRate",
          "type": "uint256"
        },
        {
          "internalType": "uint256",
          "name": "totalRate",
          "type": "uint256"
        }
      ],
      "stateMutability": "pure",
      "type": "function"
    },
    {
      "inputs": [
        {
          "internalType": "uint256",
          "name": "multiplier",
          "type": "uint256"
        }
      ],
      "name": "crash",
      "outputs": [],
      "stateMutability": "payable",
      "type": "function"
    },
    {
      "inputs": [
        {
          "internalType": "uint256",
          "name": "",
          "type": "uint256"
        }
      ],
      "name": "gameIdToBetInfo",
      "outputs": [
        {
          "internalType": "address",
          "name": "user",
          "type": "address"
        },
        {
          "internalType": "uint256",
          "name": "betAmount",
          "type": "uint256"
        },
        {
          "internalType": "uint256",
          "name": "multiplier",
          "type": "uint256"
        }
      ],
      "stateMutability": "view",
      "type": "function"
    },
    {
      "inputs": [
        {
          "internalType": "bytes32",
          "name": "role",
          "type": "bytes32"
        }
      ],
      "name": "getRoleAdmin",
      "outputs": [
        {
          "internalType": "bytes32",
          "name": "",
          "type": "bytes32"
        }
      ],
      "stateMutability": "view",
      "type": "function"
    },
    {
      "inputs": [
        {
          "internalType": "bytes32",
          "name": "role",
          "type": "bytes32"
        },
        {
          "internalType": "address",
          "name": "account",
          "type": "address"
        }
      ],
      "name": "grantRole",
      "outputs": [],
      "stateMutability": "nonpayable",
      "type": "function"
    },
    {
      "inputs": [
        {
          "internalType": "bytes32",
          "name": "role",
          "type": "bytes32"
        },
        {
          "internalType": "address",
          "name": "account",
          "type": "address"
        }
      ],
      "name": "hasRole",
      "outputs": [
        {
          "internalType": "bool",
          "name": "",
          "type": "bool"
        }
      ],
      "stateMutability": "view",
      "type": "function"
    },
    {
      "inputs": [
        {
          "internalType": "address",
          "name": "leaderboard_",
          "type": "address"
        },
        {
          "internalType": "address",
          "name": "switchboard_",
          "type": "address"
        },
        {
          "internalType": "bytes32",
          "name": "swQueue_",
          "type": "bytes32"
        }
      ],
      "name": "initialize",
      "outputs": [],
      "stateMutability": "nonpayable",
      "type": "function"
    },
    {
      "inputs": [],
      "name": "leaderboard",
      "outputs": [
        {
          "internalType": "address",
          "name": "",
          "type": "address"
        }
      ],
      "stateMutability": "view",
      "type": "function"
    },
    {
      "inputs": [],
      "name": "pause",
      "outputs": [],
      "stateMutability": "nonpayable",
      "type": "function"
    },
    {
      "inputs": [],
      "name": "paused",
      "outputs": [
        {
          "internalType": "bool",
          "name": "",
          "type": "bool"
        }
      ],
      "stateMutability": "view",
      "type": "function"
    },
    {
      "inputs": [],
      "name": "proxiableUUID",
      "outputs": [
        {
          "internalType": "bytes32",
          "name": "",
          "type": "bytes32"
        }
      ],
      "stateMutability": "view",
      "type": "function"
    },
    {
      "inputs": [],
      "name": "queue",
      "outputs": [
        {
          "internalType": "bytes32",
          "name": "",
          "type": "bytes32"
        }
      ],
      "stateMutability": "view",
      "type": "function"
    },
    {
      "inputs": [
        {
          "internalType": "bytes32",
          "name": "role",
          "type": "bytes32"
        },
        {
          "internalType": "address",
          "name": "callerConfirmation",
          "type": "address"
        }
      ],
      "name": "renounceRole",
      "outputs": [],
      "stateMutability": "nonpayable",
      "type": "function"
    },
    {
      "inputs": [
        {
          "internalType": "bytes[]",
          "name": "switchboardUpdateFeeds",
          "type": "bytes[]"
        },
        {
          "internalType": "uint256",
          "name": "targetSeq",
          "type": "uint256"
        }
      ],
      "name": "resolve",
      "outputs": [],
      "stateMutability": "nonpayable",
      "type": "function"
    },
    {
      "inputs": [
        {
          "internalType": "bytes32",
          "name": "role",
          "type": "bytes32"
        },
        {
          "internalType": "address",
          "name": "account",
          "type": "address"
        }
      ],
      "name": "revokeRole",
      "outputs": [],
      "stateMutability": "nonpayable",
      "type": "function"
    },
    {
      "inputs": [
        {
          "internalType": "uint256",
          "name": "",
          "type": "uint256"
        }
      ],
      "name": "seq2GameId",
      "outputs": [
        {
          "internalType": "uint256",
          "name": "",
          "type": "uint256"
        }
      ],
      "stateMutability": "view",
      "type": "function"
    },
    {
      "inputs": [],
      "name": "sequence",
      "outputs": [
        {
          "internalType": "uint256",
          "name": "",
          "type": "uint256"
        }
      ],
      "stateMutability": "view",
      "type": "function"
    },
    {
      "inputs": [
        {
          "internalType": "address",
          "name": "leaderboard_",
          "type": "address"
        }
      ],
      "name": "setLeaderboard",
      "outputs": [],
      "stateMutability": "nonpayable",
      "type": "function"
    },
    {
      "inputs": [],
      "name": "solvedSeq",
      "outputs": [
        {
          "internalType": "uint256",
          "name": "",
          "type": "uint256"
        }
      ],
      "stateMutability": "view",
      "type": "function"
    },
    {
      "inputs": [
        {
          "internalType": "bytes4",
          "name": "interfaceId",
          "type": "bytes4"
        }
      ],
      "name": "supportsInterface",
      "outputs": [
        {
          "internalType": "bool",
          "name": "",
          "type": "bool"
        }
      ],
      "stateMutability": "view",
      "type": "function"
    },
    {
      "inputs": [],
      "name": "totalGame",
      "outputs": [
        {
          "internalType": "uint256",
          "name": "",
          "type": "uint256"
        }
      ],
      "stateMutability": "view",
      "type": "function"
    },
    {
      "inputs": [],
      "name": "unpause",
      "outputs": [],
      "stateMutability": "nonpayable",
      "type": "function"
    },
    {
      "inputs": [
        {
          "internalType": "address",
          "name": "newImplementation",
          "type": "address"
        },
        {
          "internalType": "bytes",
          "name": "data",
          "type": "bytes"
        }
      ],
      "name": "upgradeToAndCall",
      "outputs": [],
      "stateMutability": "payable",
      "type": "function"
    },
    {
      "stateMutability": "payable",
      "type": "receive"
    }
  ],
  "transactionHash": "0x4af568e8b554ff8e9349996ec1069868329e2c399a3dbb3521958b63959369bf",
  "args": [],
  "numDeployments": 1,
  "solcInputHash": "5df8f8591c65294c77eb8b2289341104",
  "bytecode": "0x60a06040523060805234801561001457600080fd5b5060805161207c61003e600039600081816110c1015281816110ea015261128a015261207c6000f3fe6080604052600436106101a55760003560e01c80637f6a0cba116100e1578063d272e57e1161008a578063e10d29ee11610064578063e10d29ee14610560578063eb56b74014610576578063f1a2de72146105ae578063fdcdb06b146105ce57600080fd5b8063d272e57e146104bf578063d547741f146104d5578063dfad729a146104f557600080fd5b8063a217fddf116100bb578063a217fddf1461041f578063a812b6e614610434578063ad3cb1cc1461046957600080fd5b80637f6a0cba146103785780638456cb59146103a557806391d14854146103ba57600080fd5b80634f1ef2861161014e57806355490ba11161012857806355490ba1146102ee5780635c975abb146103015780636133f985146103385780636d48b1181461035857600080fd5b80634f1ef286146102b0578063529d15cc146102c357806352d1902d146102d957600080fd5b80632f2ff15d1161017f5780632f2ff15d1461025957806336568abe1461027b5780633f4ba83a1461029b57600080fd5b806301ffc9a7146101b157806323ffc779146101e6578063248a9ca31461020a57600080fd5b366101ac57005b600080fd5b3480156101bd57600080fd5b506101d16101cc366004611aaf565b6105e3565b60405190151581526020015b60405180910390f35b3480156101f257600080fd5b506101fc60035481565b6040519081526020016101dd565b34801561021657600080fd5b506101fc610225366004611af1565b60009081527f02dd7bc7dec4dceedda775e58dd541e08a116c6c53815c0bd028192f7b626800602052604090206001015490565b34801561026557600080fd5b50610279610274366004611b1f565b61067c565b005b34801561028757600080fd5b50610279610296366004611b1f565b6106c6565b3480156102a757600080fd5b50610279610717565b6102796102be366004611bbf565b610754565b3480156102cf57600080fd5b506101fc60025481565b3480156102e557600080fd5b506101fc610773565b6102796102fc366004611af1565b6107a2565b34801561030d57600080fd5b507fcd5ed15c6e187e77e9aee88184c21f4f2182ab5827cb3b7e07fbedcd63f033005460ff166101d1565b34801561034457600080fd5b50610279610353366004611c67565b610978565b34801561036457600080fd5b50610279610373366004611ca8565b610afd565b34801561038457600080fd5b506101fc610393366004611af1565b60046020526000908152604090205481565b3480156103b157600080fd5b50610279610d25565b3480156103c657600080fd5b506101d16103d5366004611b1f565b60009182527f02dd7bc7dec4dceedda775e58dd541e08a116c6c53815c0bd028192f7b626800602090815260408084206001600160a01b0393909316845291905290205460ff1690565b34801561042b57600080fd5b506101fc600081565b34801561044057600080fd5b5061045461044f366004611af1565b610d5f565b604080519283526020830191909152016101dd565b34801561047557600080fd5b506104b26040518060400160405280600581526020017f352e302e3000000000000000000000000000000000000000000000000000000081525081565b6040516101dd9190611d47565b3480156104cb57600080fd5b506101fc60055481565b3480156104e157600080fd5b506102796104f0366004611b1f565b610dd6565b34801561050157600080fd5b5061053b610510366004611af1565b6007602052600090815260409020805460018201546002909201546001600160a01b03909116919083565b604080516001600160a01b0390941684526020840192909252908201526060016101dd565b34801561056c57600080fd5b506101fc60015481565b34801561058257600080fd5b50600654610596906001600160a01b031681565b6040516001600160a01b0390911681526020016101dd565b3480156105ba57600080fd5b506102796105c9366004611d7a565b610e1a565b3480156105da57600080fd5b506101fc600281565b60007fffffffff0000000000000000000000000000000000000000000000000000000082167f7965db0b00000000000000000000000000000000000000000000000000000000148061067657507f01ffc9a7000000000000000000000000000000000000000000000000000000007fffffffff000000000000000000000000000000000000000000000000000000008316145b92915050565b60008281527f02dd7bc7dec4dceedda775e58dd541e08a116c6c53815c0bd028192f7b62680060205260409020600101546106b681610e67565b6106c08383610e71565b50505050565b6001600160a01b0381163314610708576040517f6697b23200000000000000000000000000000000000000000000000000000000815260040160405180910390fd5b6107128282610f40565b505050565b7fa49807205ce4d355092ef5a8a18f56e8913cf4a201fbe287825b095693c2177561074181610e67565b610749610fe6565b610751611043565b50565b61075c6110b6565b6107658261116d565b61076f8282611197565b5050565b600061077d61127f565b507f360894a13ba1a3210667c828492db98dca3e2076cc3735a920a3ca505d382bbc90565b6107aa6112c8565b6064811180156107bb575061271081105b80156107cf57506107cd601982611dad565b155b6108205760405162461bcd60e51b815260206004820152600f60248201527f696e76616c696420636173684f7574000000000000000000000000000000000060448201526064015b60405180910390fd5b600033600654604080517f181aa1fd000000000000000000000000000000000000000000000000000000008152815193945060009384936001600160a01b03169263181aa1fd92349260048083019392829003018185885af115801561088a573d6000803e3d6000fd5b50505050506040513d601f19601f820116820180604052508101906108af9190611dc1565b91509150600060055460016108c49190611dfb565b90506108cf81611324565b60408051606080820183526001600160a01b0387811680845260208085018981528587018c8152600089815260078452889020875181546001600160a01b03191696169590951785559051600185015551600290930192909255600586905584518881529182018a90529381018690529192849290917f4fa11c75379b17cc9056d50bf3bf6c483007435626712395a1accf779e91d3be910160405180910390a3505050505050565b6000610982611471565b805490915060ff68010000000000000000820416159067ffffffffffffffff166000811580156109af5750825b905060008267ffffffffffffffff1660011480156109cc5750303b155b9050811580156109da575080155b156109f85760405163f92ee8a960e01b815260040160405180910390fd5b845467ffffffffffffffff191660011785558315610a2c57845468ff00000000000000001916680100000000000000001785555b610a3461149a565b610a3c61149a565b610a4461149a565b610a4c61149a565b610a57600033610e71565b50610a827fa49807205ce4d355092ef5a8a18f56e8913cf4a201fbe287825b095693c2177533610e71565b50600680546001600160a01b0319166001600160a01b038a16179055610aa887876114a2565b8315610af357845468ff000000000000000019168555604051600181527fc7f505b2f371ae2175ee4913f4499e1f2633a7b5936321eed1cdaeb6115181d29060200160405180910390a15b5050505050505050565b60008181526004602052604090205460035482118015610b1c57508015155b610b685760405162461bcd60e51b815260206004820152600b60248201527f696e76616c6964207365710000000000000000000000000000000000000000006044820152606401610817565b60038054908390556000546040517fbc36c0a90000000000000000000000000000000000000000000000000000000081526001600160a01b039091169063bc36c0a990610bbb9088908890600401611e37565b600060405180830381600087803b158015610bd557600080fd5b505af1158015610be9573d6000803e3d6000fd5b505050506000816001610bfc9190611dfb565b90505b838111610d1d57600080546040517f05b19402000000000000000000000000000000000000000000000000000000008152600481018490526001600160a01b03909116906305b194029060240161014060405180830381865afa158015610c6a573d6000803e3d6000fd5b505050506040513d601f19601f82011682018060405250810190610c8e9190611f44565b60c0015190508060600151600003610ce85760405162461bcd60e51b815260206004820152601b60248201527f52616e646f6d6e657373206661696c656420746f20536574746c6500000000006044820152606401610817565b600082815260046020526040908190205490820151610d089082906115ca565b50508080610d1590611fcd565b915050610bff565b505050505050565b7fa49807205ce4d355092ef5a8a18f56e8913cf4a201fbe287825b095693c21775610d4f81610e67565b610d576112c8565b610751611735565b60008080610d6e606485611dad565b905080601903610d815760049250610da8565b80603203610d925760029250610da8565b80604b03610da35760049250610da8565b600192505b6000610db48486611fe6565b90506064610dc3826063611dfb565b610dcd9190611ffd565b92505050915091565b60008281527f02dd7bc7dec4dceedda775e58dd541e08a116c6c53815c0bd028192f7b6268006020526040902060010154610e1081610e67565b6106c08383610f40565b7fa49807205ce4d355092ef5a8a18f56e8913cf4a201fbe287825b095693c21775610e4481610e67565b50600680546001600160a01b0319166001600160a01b0392909216919091179055565b6107518133611790565b60008281527f02dd7bc7dec4dceedda775e58dd541e08a116c6c53815c0bd028192f7b626800602081815260408084206001600160a01b038616855290915282205460ff16610f36576000848152602082815260408083206001600160a01b03871684529091529020805460ff19166001179055610eec3390565b6001600160a01b0316836001600160a01b0316857f2f8788117e7eff1d82e926ec794901d17c78024a50270940304540a733656f0d60405160405180910390a46001915050610676565b6000915050610676565b60008281527f02dd7bc7dec4dceedda775e58dd541e08a116c6c53815c0bd028192f7b626800602081815260408084206001600160a01b038616855290915282205460ff1615610f36576000848152602082815260408083206001600160a01b0387168085529252808320805460ff1916905551339287917ff6391f5c32d9c69d2a47ea670b442974b53935d1edc7fd64eb21e047a839171b9190a46001915050610676565b7fcd5ed15c6e187e77e9aee88184c21f4f2182ab5827cb3b7e07fbedcd63f033005460ff16611041576040517f8dfc202b00000000000000000000000000000000000000000000000000000000815260040160405180910390fd5b565b61104b610fe6565b7fcd5ed15c6e187e77e9aee88184c21f4f2182ab5827cb3b7e07fbedcd63f03300805460ff191681557f5db9ee0a495bf2e6ff9c91a7834c1ba4fdd244a5e8aa4e537bd38aeae4b073aa335b6040516001600160a01b0390911681526020015b60405180910390a150565b306001600160a01b037f000000000000000000000000000000000000000000000000000000000000000016148061114f57507f00000000000000000000000000000000000000000000000000000000000000006001600160a01b03166111437f360894a13ba1a3210667c828492db98dca3e2076cc3735a920a3ca505d382bbc546001600160a01b031690565b6001600160a01b031614155b156110415760405163703e46dd60e11b815260040160405180910390fd5b7fa49807205ce4d355092ef5a8a18f56e8913cf4a201fbe287825b095693c2177561076f81610e67565b816001600160a01b03166352d1902d6040518163ffffffff1660e01b8152600401602060405180830381865afa9250505080156111f1575060408051601f3d908101601f191682019092526111ee91810190612011565b60015b61121957604051634c9c8ce360e01b81526001600160a01b0383166004820152602401610817565b7f360894a13ba1a3210667c828492db98dca3e2076cc3735a920a3ca505d382bbc8114611275576040517faa1d49a400000000000000000000000000000000000000000000000000000000815260048101829052602401610817565b610712838361181d565b306001600160a01b037f000000000000000000000000000000000000000000000000000000000000000016146110415760405163703e46dd60e11b815260040160405180910390fd5b7fcd5ed15c6e187e77e9aee88184c21f4f2182ab5827cb3b7e07fbedcd63f033005460ff1615611041576040517fd93c066500000000000000000000000000000000000000000000000000000000815260040160405180910390fd5b600081815260046020526040902054156113805760405162461bcd60e51b815260206004820152600b60248201527f47616d65206578697374730000000000000000000000000000000000000000006044820152606401610817565b6001600260008282546113939190611dfb565b9091555050600054600254600180546040517ff4bc77f70000000000000000000000000000000000000000000000000000000081526004810193909352306024840152604483015260648201526001600160a01b039091169063f4bc77f790608401600060405180830381600087803b15801561140f57600080fd5b505af1158015611423573d6000803e3d6000fd5b50506002805460009081526004602052604090819020859055905490517ff81446731d23d202ea16cf590daf64c6087251171612b2adde6acbef4b37580293506110ab925090815260200190565b6000807ff0c57e16840df040f15088dc2f81fe391c3923bec73e23a9662efc9c229c6a00610676565b611041611873565b60006114ac611471565b805490915060ff68010000000000000000820416159067ffffffffffffffff166000811580156114d95750825b905060008267ffffffffffffffff1660011480156114f65750303b155b905081158015611504575080155b156115225760405163f92ee8a960e01b815260040160405180910390fd5b845467ffffffffffffffff19166001178555831561155657845468ff00000000000000001916680100000000000000001785555b6001869055600080546001600160a01b0319166001600160a01b03891617905583156115c157845468ff000000000000000019168555604051600181527fc7f505b2f371ae2175ee4913f4499e1f2633a7b5936321eed1cdaeb6115181d29060200160405180910390a15b50505050505050565b6115d26112c8565b60008281526007602052604081206002810154600182015482549293919290916001600160a01b039091169082900361160d57505050505050565b6000600185018190558061162085610d5f565b909250905060006116318289611dad565b905082811060006116428888611fe6565b90508161164d575060005b6006546040517f83fbaae2000000000000000000000000000000000000000000000000000000008152600260048201526001600160a01b03888116602483015260448201849052606482018a9052909116906383fbaae290608401600060405180830381600087803b1580156116c257600080fd5b505af11580156116d6573d6000803e3d6000fd5b5050604080518a8152602081018c90529081018490528d92506001600160a01b03891691507f8d6f739ebabe97de0fcfa22e9634fd6ec7f4b401fa2f959b3386299e635207be9060600160405180910390a35050505050505050505050565b61173d6112c8565b7fcd5ed15c6e187e77e9aee88184c21f4f2182ab5827cb3b7e07fbedcd63f03300805460ff191660011781557f62e78cea01bee320cd4e420270b5ea74000d11b0c9f74754ebdbfc544b05a25833611097565b60008281527f02dd7bc7dec4dceedda775e58dd541e08a116c6c53815c0bd028192f7b626800602090815260408083206001600160a01b038516845290915290205460ff1661076f576040517fe2517d3f0000000000000000000000000000000000000000000000000000000081526001600160a01b038216600482015260248101839052604401610817565b611826826118b1565b6040516001600160a01b038316907fbc7cd75a20ee27fd9adebab32041f755214dbc6bffa90cc0225b39da2e5c2d3b90600090a280511561186b576107128282611928565b61076f61199e565b61187b6119d6565b611041576040517fd7e6bcf800000000000000000000000000000000000000000000000000000000815260040160405180910390fd5b806001600160a01b03163b6000036118e757604051634c9c8ce360e01b81526001600160a01b0382166004820152602401610817565b7f360894a13ba1a3210667c828492db98dca3e2076cc3735a920a3ca505d382bbc80546001600160a01b0319166001600160a01b0392909216919091179055565b6060600080846001600160a01b031684604051611945919061202a565b600060405180830381855af49150503d8060008114611980576040519150601f19603f3d011682016040523d82523d6000602084013e611985565b606091505b50915091506119958583836119f5565b95945050505050565b3415611041576040517fb398979f00000000000000000000000000000000000000000000000000000000815260040160405180910390fd5b60006119e0611471565b5468010000000000000000900460ff16919050565b606082611a0a57611a0582611a6d565b611a66565b8151158015611a2157506001600160a01b0384163b155b15611a63576040517f9996b3150000000000000000000000000000000000000000000000000000000081526001600160a01b0385166004820152602401610817565b50805b9392505050565b805115611a7d5780518082602001fd5b6040517fd6bda27500000000000000000000000000000000000000000000000000000000815260040160405180910390fd5b600060208284031215611ac157600080fd5b81357fffffffff0000000000000000000000000000000000000000000000000000000081168114611a6657600080fd5b600060208284031215611b0357600080fd5b5035919050565b6001600160a01b038116811461075157600080fd5b60008060408385031215611b3257600080fd5b823591506020830135611b4481611b0a565b809150509250929050565b634e487b7160e01b600052604160045260246000fd5b60405160e0810167ffffffffffffffff81118282101715611b8857611b88611b4f565b60405290565b604051601f8201601f1916810167ffffffffffffffff81118282101715611bb757611bb7611b4f565b604052919050565b60008060408385031215611bd257600080fd5b8235611bdd81611b0a565b915060208381013567ffffffffffffffff80821115611bfb57600080fd5b818601915086601f830112611c0f57600080fd5b813581811115611c2157611c21611b4f565b611c33601f8201601f19168501611b8e565b91508082528784828501011115611c4957600080fd5b80848401858401376000848284010152508093505050509250929050565b600080600060608486031215611c7c57600080fd5b8335611c8781611b0a565b92506020840135611c9781611b0a565b929592945050506040919091013590565b600080600060408486031215611cbd57600080fd5b833567ffffffffffffffff80821115611cd557600080fd5b818601915086601f830112611ce957600080fd5b813581811115611cf857600080fd5b8760208260051b8501011115611d0d57600080fd5b6020928301989097509590910135949350505050565b60005b83811015611d3e578181015183820152602001611d26565b50506000910152565b6020815260008251806020840152611d66816040850160208701611d23565b601f01601f19169190910160400192915050565b600060208284031215611d8c57600080fd5b8135611a6681611b0a565b634e487b7160e01b600052601260045260246000fd5b600082611dbc57611dbc611d97565b500690565b60008060408385031215611dd457600080fd5b505080516020909101519092909150565b634e487b7160e01b600052601160045260246000fd5b8082018082111561067657610676611de5565b81835281816020850137506000828201602090810191909152601f909101601f19169091010190565b60208082528181018390526000906040600585901b8401810190840186845b87811015611ec657868403603f190183528135368a9003601e19018112611e7c57600080fd5b8901858101903567ffffffffffffffff811115611e9857600080fd5b803603821315611ea757600080fd5b611eb2868284611e0e565b955050509184019190840190600101611e56565b5091979650505050505050565b600060808284031215611ee557600080fd5b6040516080810181811067ffffffffffffffff82111715611f0857611f08611b4f565b8060405250809150825181526020830151611f2281611b0a565b8060208301525060408301516040820152606083015160608201525092915050565b60006101408284031215611f5757600080fd5b611f5f611b65565b8251815260208301516020820152604083015160408201526060830151611f8581611b0a565b60608201526080838101519082015260a083015167ffffffffffffffff81168114611faf57600080fd5b60a0820152611fc18460c08501611ed3565b60c08201529392505050565b600060018201611fdf57611fdf611de5565b5060010190565b808202811582820484141761067657610676611de5565b60008261200c5761200c611d97565b500490565b60006020828403121561202357600080fd5b5051919050565b6000825161203c818460208701611d23565b919091019291505056fea2646970667358221220148e7d15d3ec50ded45e5a8ab0c3290c74d7db0a7d143c57653e5dfc69413c0b64736f6c63430008160033",
  "devdoc": {
    "errors": {
      "AccessControlBadConfirmation()": [
        {
          "details": "The caller of a function is not the expected one. NOTE: Don't confuse with {AccessControlUnauthorizedAccount}."
        }
      ],
      "AccessControlUnauthorizedAccount(address,bytes32)": [
        {
          "details": "The `account` is missing a role."
        }
      ],
      "AddressEmptyCode(address)": [
        {
          "details": "There's no code at `target` (it is not a contract)."
        }
      ],
      "ERC1967InvalidImplementation(address)": [
        {
          "details": "The `implementation` of the proxy is invalid."
        }
      ],
      "ERC1967NonPayable()": [
        {
          "details": "An upgrade function sees `msg.value > 0` that may be lost."
        }
      ],
      "EnforcedPause()": [
        {
          "details": "The operation failed because the contract is paused."
        }
      ],
      "ExpectedPause()": [
        {
          "details": "The operation failed because the contract is not paused."
        }
      ],
      "FailedCall()": [
        {
          "details": "A call to an address target failed. The target may have reverted."
        }
      ],
      "InvalidInitialization()": [
        {
          "details": "The contract is already initialized."
        }
      ],
      "NotInitializing()": [
        {
          "details": "The contract is not initializing."
        }
      ],
      "UUPSUnauthorizedCallContext()": [
        {
          "details": "The call is from an unauthorized context."
        }
      ],
      "UUPSUnsupportedProxiableUUID(bytes32)": [
        {
          "details": "The storage `slot` is unsupported as a UUID."
        }
      ]
    },
    "events": {
      "Initialized(uint64)": {
        "details": "Triggered when the contract has been initialized or reinitialized."
      },
      "Paused(address)": {
        "details": "Emitted when the pause is triggered by `account`."
      },
      "RoleAdminChanged(bytes32,bytes32,bytes32)": {
        "details": "Emitted when `newAdminRole` is set as ``role``'s admin role, replacing `previousAdminRole` `DEFAULT_ADMIN_ROLE` is the starting admin for all roles, despite {RoleAdminChanged} not being emitted signaling this."
      },
      "RoleGranted(bytes32,address,address)": {
        "details": "Emitted when `account` is granted `role`. `sender` is the account that originated the contract call. This account bears the admin role (for the granted role). Expected in cases where the role was granted using the internal {AccessControl-_grantRole}."
      },
      "RoleRevoked(bytes32,address,address)": {
        "details": "Emitted when `account` is revoked `role`. `sender` is the account that originated the contract call:   - if using `revokeRole`, it is the admin role bearer   - if using `renounceRole`, it is the role bearer (i.e. `account`)"
      },
      "Unpaused(address)": {
        "details": "Emitted when the pause is lifted by `account`."
      },
      "Upgraded(address)": {
        "details": "Emitted when the implementation is upgraded."
      }
    },
    "kind": "dev",
    "methods": {
      "getRoleAdmin(bytes32)": {
        "details": "Returns the admin role that controls `role`. See {grantRole} and {revokeRole}. To change a role's admin, use {_setRoleAdmin}."
      },
      "grantRole(bytes32,address)": {
        "details": "Grants `role` to `account`. If `account` had not been already granted `role`, emits a {RoleGranted} event. Requirements: - the caller must have ``role``'s admin role. May emit a {RoleGranted} event."
      },
      "hasRole(bytes32,address)": {
        "details": "Returns `true` if `account` has been granted `role`."
      },
      "pause()": {
        "details": "called by the owner to pause, triggers stopped state"
      },
      "paused()": {
        "details": "Returns true if the contract is paused, and false otherwise."
      },
      "proxiableUUID()": {
        "details": "Implementation of the ERC-1822 {proxiableUUID} function. This returns the storage slot used by the implementation. It is used to validate the implementation's compatibility when performing an upgrade. IMPORTANT: A proxy pointing at a proxiable contract should not be considered proxiable itself, because this risks bricking a proxy that upgrades to it, by delegating to itself until out of gas. Thus it is critical that this function revert if invoked through a proxy. This is guaranteed by the `notDelegated` modifier."
      },
      "renounceRole(bytes32,address)": {
        "details": "Revokes `role` from the calling account. Roles are often managed via {grantRole} and {revokeRole}: this function's purpose is to provide a mechanism for accounts to lose their privileges if they are compromised (such as when a trusted device is misplaced). If the calling account had been revoked `role`, emits a {RoleRevoked} event. Requirements: - the caller must be `callerConfirmation`. May emit a {RoleRevoked} event."
      },
      "revokeRole(bytes32,address)": {
        "details": "Revokes `role` from `account`. If `account` had been granted `role`, emits a {RoleRevoked} event. Requirements: - the caller must have ``role``'s admin role. May emit a {RoleRevoked} event."
      },
      "supportsInterface(bytes4)": {
        "details": "See {IERC165-supportsInterface}."
      },
      "unpause()": {
        "details": "called by the owner to unpause, returns to normal state"
      },
      "upgradeToAndCall(address,bytes)": {
        "custom:oz-upgrades-unsafe-allow-reachable": "delegatecall",
        "details": "Upgrade the implementation of the proxy to `newImplementation`, and subsequently execute the function call encoded in `data`. Calls {_authorizeUpgrade}. Emits an {Upgraded} event."
      }
    },
    "version": 1
  },
  "userdoc": {
    "kind": "user",
    "methods": {
      "totalGame()": {
        "notice": "Storages"
      }
    },
    "version": 1
  },
  "storageLayout": {
    "storage": [
      {
        "astId": 4822,
        "contract": "contracts/Crash/Crash.sol:Crash",
        "label": "_switchboard",
        "offset": 0,
        "slot": "0",
        "type": "t_address"
      },
      {
        "astId": 4824,
        "contract": "contracts/Crash/Crash.sol:Crash",
        "label": "queue",
        "offset": 0,
        "slot": "1",
        "type": "t_bytes32"
      },
      {
        "astId": 4826,
        "contract": "contracts/Crash/Crash.sol:Crash",
        "label": "sequence",
        "offset": 0,
        "slot": "2",
        "type": "t_uint256"
      },
      {
        "astId": 4828,
        "contract": "contracts/Crash/Crash.sol:Crash",
        "label": "solvedSeq",
        "offset": 0,
        "slot": "3",
        "type": "t_uint256"
      },
      {
        "astId": 4832,
        "contract": "contracts/Crash/Crash.sol:Crash",
        "label": "seq2GameId",
        "offset": 0,
        "slot": "4",
        "type": "t_mapping(t_uint256,t_uint256)"
      },
      {
        "astId": 2888,
        "contract": "contracts/Crash/Crash.sol:Crash",
        "label": "totalGame",
        "offset": 0,
        "slot": "5",
        "type": "t_uint256"
      },
      {
        "astId": 2890,
        "contract": "contracts/Crash/Crash.sol:Crash",
        "label": "leaderboard",
        "offset": 0,
        "slot": "6",
        "type": "t_address"
      },
      {
        "astId": 2895,
        "contract": "contracts/Crash/Crash.sol:Crash",
        "label": "gameIdToBetInfo",
        "offset": 0,
        "slot": "7",
        "type": "t_mapping(t_uint256,t_struct(BetInfo)2876_storage)"
      }
    ],
    "types": {
      "t_address": {
        "encoding": "inplace",
        "label": "address",
        "numberOfBytes": "20"
      },
      "t_bytes32": {
        "encoding": "inplace",
        "label": "bytes32",
        "numberOfBytes": "32"
      },
      "t_mapping(t_uint256,t_struct(BetInfo)2876_storage)": {
        "encoding": "mapping",
        "key": "t_uint256",
        "label": "mapping(uint256 => struct Crash.BetInfo)",
        "numberOfBytes": "32",
        "value": "t_struct(BetInfo)2876_storage"
      },
      "t_mapping(t_uint256,t_uint256)": {
        "encoding": "mapping",
        "key": "t_uint256",
        "label": "mapping(uint256 => uint256)",
        "numberOfBytes": "32",
        "value": "t_uint256"
      },
      "t_struct(BetInfo)2876_storage": {
        "encoding": "inplace",
        "label": "struct Crash.BetInfo",
        "members": [
          {
            "astId": 2871,
            "contract": "contracts/Crash/Crash.sol:Crash",
            "label": "user",
            "offset": 0,
            "slot": "0",
            "type": "t_address"
          },
          {
            "astId": 2873,
            "contract": "contracts/Crash/Crash.sol:Crash",
            "label": "betAmount",
            "offset": 0,
            "slot": "1",
            "type": "t_uint256"
          },
          {
            "astId": 2875,
            "contract": "contracts/Crash/Crash.sol:Crash",
            "label": "multiplier",
            "offset": 0,
            "slot": "2",
            "type": "t_uint256"
          }
        ],
        "numberOfBytes": "96"
      },
      "t_uint256": {
        "encoding": "inplace",
        "label": "uint256",
        "numberOfBytes": "32"
      }
    }
  }
}