{
  "address": "0xaA9873c465AEC0F1bFf13083B841638B97a951D4",
  "abi": [
    {
      "inputs": [
        {
          "internalType": "address",
          "name": "leaderboard_",
          "type": "address"
        }
      ],
      "stateMutability": "nonpayable",
      "type": "constructor"
    },
    {
      "inputs": [],
      "name": "AccessControlBadConfirmation",
      "type": "error"
    },
    {
      "inputs": [
        {
          "internalType": "address",
          "name": "account",
          "type": "address"
        },
        {
          "internalType": "bytes32",
          "name": "neededRole",
          "type": "bytes32"
        }
      ],
      "name": "AccessControlUnauthorizedAccount",
      "type": "error"
    },
    {
      "inputs": [],
      "name": "EnforcedPause",
      "type": "error"
    },
    {
      "inputs": [],
      "name": "ExpectedPause",
      "type": "error"
    },
    {
      "anonymous": false,
      "inputs": [
        {
          "indexed": false,
          "internalType": "uint256",
          "name": "betAmount",
          "type": "uint256"
        },
        {
          "indexed": false,
          "internalType": "uint256",
          "name": "fee",
          "type": "uint256"
        },
        {
          "indexed": false,
          "internalType": "address",
          "name": "user",
          "type": "address"
        },
        {
          "indexed": false,
          "internalType": "uint256",
          "name": "reward",
          "type": "uint256"
        },
        {
          "indexed": false,
          "internalType": "uint256",
          "name": "multiplier",
          "type": "uint256"
        }
      ],
      "name": "Game",
      "type": "event"
    },
    {
      "anonymous": false,
      "inputs": [
        {
          "indexed": false,
          "internalType": "address",
          "name": "account",
          "type": "address"
        }
      ],
      "name": "Paused",
      "type": "event"
    },
    {
      "anonymous": false,
      "inputs": [
        {
          "indexed": true,
          "internalType": "bytes32",
          "name": "role",
          "type": "bytes32"
        },
        {
          "indexed": true,
          "internalType": "bytes32",
          "name": "previousAdminRole",
          "type": "bytes32"
        },
        {
          "indexed": true,
          "internalType": "bytes32",
          "name": "newAdminRole",
          "type": "bytes32"
        }
      ],
      "name": "RoleAdminChanged",
      "type": "event"
    },
    {
      "anonymous": false,
      "inputs": [
        {
          "indexed": true,
          "internalType": "bytes32",
          "name": "role",
          "type": "bytes32"
        },
        {
          "indexed": true,
          "internalType": "address",
          "name": "account",
          "type": "address"
        },
        {
          "indexed": true,
          "internalType": "address",
          "name": "sender",
          "type": "address"
        }
      ],
      "name": "RoleGranted",
      "type": "event"
    },
    {
      "anonymous": false,
      "inputs": [
        {
          "indexed": true,
          "internalType": "bytes32",
          "name": "role",
          "type": "bytes32"
        },
        {
          "indexed": true,
          "internalType": "address",
          "name": "account",
          "type": "address"
        },
        {
          "indexed": true,
          "internalType": "address",
          "name": "sender",
          "type": "address"
        }
      ],
      "name": "RoleRevoked",
      "type": "event"
    },
    {
      "anonymous": false,
      "inputs": [
        {
          "indexed": false,
          "internalType": "address",
          "name": "account",
          "type": "address"
        }
      ],
      "name": "Unpaused",
      "type": "event"
    },
    {
      "inputs": [],
      "name": "DEFAULT_ADMIN_ROLE",
      "outputs": [
        {
          "internalType": "bytes32",
          "name": "",
          "type": "bytes32"
        }
      ],
      "stateMutability": "view",
      "type": "function"
    },
    {
      "inputs": [],
      "name": "GAME_ID",
      "outputs": [
        {
          "internalType": "uint256",
          "name": "",
          "type": "uint256"
        }
      ],
      "stateMutability": "view",
      "type": "function"
    },
    {
      "inputs": [],
      "name": "GRID_SIZE",
      "outputs": [
        {
          "internalType": "uint64",
          "name": "",
          "type": "uint64"
        }
      ],
      "stateMutability": "view",
      "type": "function"
    },
    {
      "inputs": [
        {
          "internalType": "uint64",
          "name": "mines",
          "type": "uint64"
        },
        {
          "internalType": "uint64",
          "name": "level",
          "type": "uint64"
        }
      ],
      "name": "_calculateBetArray",
      "outputs": [
        {
          "internalType": "uint64",
          "name": "winRate",
          "type": "uint64"
        },
        {
          "internalType": "uint64",
          "name": "totalRate",
          "type": "uint64"
        },
        {
          "internalType": "uint256",
          "name": "multiplier",
          "type": "uint256"
        }
      ],
      "stateMutability": "pure",
      "type": "function"
    },
    {
      "inputs": [],
      "name": "betFee",
      "outputs": [
        {
          "internalType": "uint256",
          "name": "",
          "type": "uint256"
        }
      ],
      "stateMutability": "view",
      "type": "function"
    },
    {
      "inputs": [
        {
          "internalType": "uint64",
          "name": "mines",
          "type": "uint64"
        },
        {
          "internalType": "uint64",
          "name": "level",
          "type": "uint64"
        }
      ],
      "name": "checkMine",
      "outputs": [],
      "stateMutability": "payable",
      "type": "function"
    },
    {
      "inputs": [],
      "name": "feeReceiver",
      "outputs": [
        {
          "internalType": "address",
          "name": "",
          "type": "address"
        }
      ],
      "stateMutability": "view",
      "type": "function"
    },
    {
      "inputs": [
        {
          "internalType": "bytes32",
          "name": "role",
          "type": "bytes32"
        }
      ],
      "name": "getRoleAdmin",
      "outputs": [
        {
          "internalType": "bytes32",
          "name": "",
          "type": "bytes32"
        }
      ],
      "stateMutability": "view",
      "type": "function"
    },
    {
      "inputs": [],
      "name": "govAddress",
      "outputs": [
        {
          "internalType": "address",
          "name": "",
          "type": "address"
        }
      ],
      "stateMutability": "view",
      "type": "function"
    },
    {
      "inputs": [],
      "name": "govFee",
      "outputs": [
        {
          "internalType": "uint256",
          "name": "",
          "type": "uint256"
        }
      ],
      "stateMutability": "view",
      "type": "function"
    },
    {
      "inputs": [
        {
          "internalType": "bytes32",
          "name": "role",
          "type": "bytes32"
        },
        {
          "internalType": "address",
          "name": "account",
          "type": "address"
        }
      ],
      "name": "grantRole",
      "outputs": [],
      "stateMutability": "nonpayable",
      "type": "function"
    },
    {
      "inputs": [
        {
          "internalType": "bytes32",
          "name": "role",
          "type": "bytes32"
        },
        {
          "internalType": "address",
          "name": "account",
          "type": "address"
        }
      ],
      "name": "hasRole",
      "outputs": [
        {
          "internalType": "bool",
          "name": "",
          "type": "bool"
        }
      ],
      "stateMutability": "view",
      "type": "function"
    },
    {
      "inputs": [],
      "name": "leaderboard",
      "outputs": [
        {
          "internalType": "address",
          "name": "",
          "type": "address"
        }
      ],
      "stateMutability": "view",
      "type": "function"
    },
    {
      "inputs": [],
      "name": "maxBet",
      "outputs": [
        {
          "internalType": "uint256",
          "name": "",
          "type": "uint256"
        }
      ],
      "stateMutability": "view",
      "type": "function"
    },
    {
      "inputs": [],
      "name": "minBet",
      "outputs": [
        {
          "internalType": "uint256",
          "name": "",
          "type": "uint256"
        }
      ],
      "stateMutability": "view",
      "type": "function"
    },
    {
      "inputs": [],
      "name": "pause",
      "outputs": [],
      "stateMutability": "nonpayable",
      "type": "function"
    },
    {
      "inputs": [],
      "name": "paused",
      "outputs": [
        {
          "internalType": "bool",
          "name": "",
          "type": "bool"
        }
      ],
      "stateMutability": "view",
      "type": "function"
    },
    {
      "inputs": [
        {
          "internalType": "bytes32",
          "name": "role",
          "type": "bytes32"
        },
        {
          "internalType": "address",
          "name": "callerConfirmation",
          "type": "address"
        }
      ],
      "name": "renounceRole",
      "outputs": [],
      "stateMutability": "nonpayable",
      "type": "function"
    },
    {
      "inputs": [
        {
          "internalType": "bytes32",
          "name": "role",
          "type": "bytes32"
        },
        {
          "internalType": "address",
          "name": "account",
          "type": "address"
        }
      ],
      "name": "revokeRole",
      "outputs": [],
      "stateMutability": "nonpayable",
      "type": "function"
    },
    {
      "inputs": [
        {
          "internalType": "uint256",
          "name": "val",
          "type": "uint256"
        }
      ],
      "name": "setBetFee",
      "outputs": [],
      "stateMutability": "nonpayable",
      "type": "function"
    },
    {
      "inputs": [
        {
          "internalType": "address",
          "name": "receiver",
          "type": "address"
        }
      ],
      "name": "setFeeReceiver",
      "outputs": [],
      "stateMutability": "nonpayable",
      "type": "function"
    },
    {
      "inputs": [
        {
          "internalType": "address",
          "name": "gov",
          "type": "address"
        }
      ],
      "name": "setGovAddress",
      "outputs": [],
      "stateMutability": "nonpayable",
      "type": "function"
    },
    {
      "inputs": [
        {
          "internalType": "uint256",
          "name": "val",
          "type": "uint256"
        }
      ],
      "name": "setGovFee",
      "outputs": [],
      "stateMutability": "nonpayable",
      "type": "function"
    },
    {
      "inputs": [
        {
          "internalType": "address",
          "name": "leaderboard_",
          "type": "address"
        }
      ],
      "name": "setLeaderboard",
      "outputs": [],
      "stateMutability": "nonpayable",
      "type": "function"
    },
    {
      "inputs": [
        {
          "internalType": "uint256",
          "name": "val",
          "type": "uint256"
        }
      ],
      "name": "setMaxBet",
      "outputs": [],
      "stateMutability": "nonpayable",
      "type": "function"
    },
    {
      "inputs": [
        {
          "internalType": "uint256",
          "name": "val",
          "type": "uint256"
        }
      ],
      "name": "setMinBet",
      "outputs": [],
      "stateMutability": "nonpayable",
      "type": "function"
    },
    {
      "inputs": [
        {
          "internalType": "bytes4",
          "name": "interfaceId",
          "type": "bytes4"
        }
      ],
      "name": "supportsInterface",
      "outputs": [
        {
          "internalType": "bool",
          "name": "",
          "type": "bool"
        }
      ],
      "stateMutability": "view",
      "type": "function"
    },
    {
      "inputs": [],
      "name": "totalGame",
      "outputs": [
        {
          "internalType": "uint256",
          "name": "",
          "type": "uint256"
        }
      ],
      "stateMutability": "view",
      "type": "function"
    },
    {
      "inputs": [],
      "name": "unpause",
      "outputs": [],
      "stateMutability": "nonpayable",
      "type": "function"
    },
    {
      "inputs": [
        {
          "internalType": "address",
          "name": "addr",
          "type": "address"
        },
        {
          "internalType": "uint256",
          "name": "amount",
          "type": "uint256"
        }
      ],
      "name": "withdraw",
      "outputs": [],
      "stateMutability": "nonpayable",
      "type": "function"
    },
    {
      "inputs": [
        {
          "internalType": "address",
          "name": "addr",
          "type": "address"
        }
      ],
      "name": "withdrawAll",
      "outputs": [],
      "stateMutability": "nonpayable",
      "type": "function"
    },
    {
      "stateMutability": "payable",
      "type": "receive"
    }
  ],
  "transactionHash": "0xfc3feeebb45f4695b7ec9f3e8eff1efa00da06b012443f6cbd5d1cdb4c79717b",
  "args": [
    "0x875ed54Cc5AeAb05490C51e1c5a324BB4e5E86B7"
  ],
  "numDeployments": 1,
  "solcInputHash": "e9ca70e6a31db82f20c7d1fa39b415cc",
  "bytecode": "0x608060405234801561000f575f5ffd5b5060405161168938038061168983398101604081905261002e91610180565b6001805460ff19169055336100435f826100d7565b5061006e7fa49807205ce4d355092ef5a8a18f56e8913cf4a201fbe287825b095693c21775826100d7565b5061015e6003556658d15e17628000600455671bc16d674ec800006005556509184e72a000600755600680546001600160a01b039283166001600160a01b03199182168117909255600880548216909217909155600980549390921692169190911790556101ad565b5f828152602081815260408083206001600160a01b038516845290915281205460ff16610177575f838152602081815260408083206001600160a01b03861684529091529020805460ff1916600117905561012f3390565b6001600160a01b0316826001600160a01b0316847f2f8788117e7eff1d82e926ec794901d17c78024a50270940304540a733656f0d60405160405180910390a450600161017a565b505f5b92915050565b5f60208284031215610190575f5ffd5b81516001600160a01b03811681146101a6575f5ffd5b9392505050565b6114cf806101ba5f395ff3fe6080604052600436106101d3575f3560e01c80638456cb59116100fd578063d547741f11610092578063f1a2de7211610062578063f1a2de721461055f578063f3fef3a31461057e578063fa09e6301461059d578063fdcdb06b146105bc575f5ffd5b8063d547741f146104ef578063e77b6e111461050e578063eb56b74014610521578063efdcd97414610540575f5ffd5b80639619367d116100cd5780639619367d14610493578063a217fddf146104a8578063b3f00674146104bb578063d272e57e146104da575f5ffd5b80638456cb59146103ff578063881eff1e1461041357806388ea41b91461043257806391d1485414610451575f5ffd5b806346008a07116101735780636ab17b2a116101435780636ab17b2a1461035857806372229abf1461039e5780637fc4eda8146103bd578063841e6ce9146103ea575f5ffd5b806346008a07146102d65780635c975abb1461030d5780635e7c5af51461032457806364ae4ca614610339575f5ffd5b80632e5b2168116101ae5780632e5b21681461026f5780632f2ff15d1461028457806336568abe146102a35780633f4ba83a146102c2575f5ffd5b806301ffc9a7146101de578063248a9ca314610212578063278473fd1461024e575f5ffd5b366101da57005b5f5ffd5b3480156101e9575f5ffd5b506101fd6101f8366004611257565b6105d0565b60405190151581526020015b60405180910390f35b34801561021d575f5ffd5b5061024061022c36600461129d565b5f9081526020819052604090206001015490565b604051908152602001610209565b348015610259575f5ffd5b5061026d61026836600461129d565b610668565b005b34801561027a575f5ffd5b5061024060055481565b34801561028f575f5ffd5b5061026d61029e3660046112cf565b610698565b3480156102ae575f5ffd5b5061026d6102bd3660046112cf565b6106c2565b3480156102cd575f5ffd5b5061026d610713565b3480156102e1575f5ffd5b506008546102f5906001600160a01b031681565b6040516001600160a01b039091168152602001610209565b348015610318575f5ffd5b5060015460ff166101fd565b34801561032f575f5ffd5b5061024060075481565b348015610344575f5ffd5b5061026d6103533660046112f9565b610750565b348015610363575f5ffd5b50610377610372366004611329565b6107aa565b6040805167ffffffffffffffff948516815293909216602084015290820152606001610209565b3480156103a9575f5ffd5b5061026d6103b836600461129d565b6107f8565b3480156103c8575f5ffd5b506103d1601081565b60405167ffffffffffffffff9091168152602001610209565b3480156103f5575f5ffd5b5061024060035481565b34801561040a575f5ffd5b5061026d610828565b34801561041e575f5ffd5b5061026d61042d36600461129d565b610862565b34801561043d575f5ffd5b5061026d61044c36600461129d565b6108d7565b34801561045c575f5ffd5b506101fd61046b3660046112cf565b5f918252602082815260408084206001600160a01b0393909316845291905290205460ff1690565b34801561049e575f5ffd5b5061024060045481565b3480156104b3575f5ffd5b506102405f81565b3480156104c6575f5ffd5b506006546102f5906001600160a01b031681565b3480156104e5575f5ffd5b5061024060025481565b3480156104fa575f5ffd5b5061026d6105093660046112cf565b610947565b61026d61051c366004611329565b61096b565b34801561052c575f5ffd5b506009546102f5906001600160a01b031681565b34801561054b575f5ffd5b5061026d61055a3660046112f9565b610d8c565b34801561056a575f5ffd5b5061026d6105793660046112f9565b610de6565b348015610589575f5ffd5b5061026d610598366004611351565b610e40565b3480156105a8575f5ffd5b5061026d6105b73660046112f9565b610ef8565b3480156105c7575f5ffd5b50610240600481565b5f7fffffffff0000000000000000000000000000000000000000000000000000000082167f7965db0b00000000000000000000000000000000000000000000000000000000148061066257507f01ffc9a7000000000000000000000000000000000000000000000000000000007fffffffff000000000000000000000000000000000000000000000000000000008316145b92915050565b7fa49807205ce4d355092ef5a8a18f56e8913cf4a201fbe287825b095693c2177561069281610f56565b50600755565b5f828152602081905260409020600101546106b281610f56565b6106bc8383610f60565b50505050565b6001600160a01b0381163314610704576040517f6697b23200000000000000000000000000000000000000000000000000000000815260040160405180910390fd5b61070e8282611007565b505050565b7fa49807205ce4d355092ef5a8a18f56e8913cf4a201fbe287825b095693c2177561073d81610f56565b610745611088565b61074d6110c6565b50565b7fa49807205ce4d355092ef5a8a18f56e8913cf4a201fbe287825b095693c2177561077a81610f56565b506008805473ffffffffffffffffffffffffffffffffffffffff19166001600160a01b0392909216919091179055565b5f80806107b884601061138d565b91506107c4858361138d565b92506107d0858361138d565b6107db8360646113ad565b6107e591906113eb565b67ffffffffffffffff1690509250925092565b7fa49807205ce4d355092ef5a8a18f56e8913cf4a201fbe287825b095693c2177561082281610f56565b50600355565b7fa49807205ce4d355092ef5a8a18f56e8913cf4a201fbe287825b095693c2177561085281610f56565b61085a611118565b61074d611155565b7fa49807205ce4d355092ef5a8a18f56e8913cf4a201fbe287825b095693c2177561088c81610f56565b6004548210156108d15760405162461bcd60e51b815260206004820152600b60248201526a1a5b9d985b1a590818995d60aa1b60448201526064015b60405180910390fd5b50600555565b7fa49807205ce4d355092ef5a8a18f56e8913cf4a201fbe287825b095693c2177561090181610f56565b6005548211156109415760405162461bcd60e51b815260206004820152600b60248201526a1a5b9d985b1a590818995d60aa1b60448201526064016108c8565b50600455565b5f8281526020819052604090206001015461096181610f56565b6106bc8383611007565b610973611118565b8167ffffffffffffffff166001148061099657508167ffffffffffffffff166003145b806109ab57508167ffffffffffffffff166005145b806109c057508167ffffffffffffffff16600a145b806109d557508167ffffffffffffffff16600f145b610a215760405162461bcd60e51b815260206004820152600d60248201527f696e76616c6964206d696e65730000000000000000000000000000000000000060448201526064016108c8565b610a2c81601061138d565b67ffffffffffffffff168267ffffffffffffffff161115610a8f5760405162461bcd60e51b815260206004820152601c60248201527f4d696e6573206578636565642072656d61696e696e672063656c6c730000000060448201526064016108c8565b60075433905f90610aa0903461141a565b90505f600354612710610ab3919061142d565b610abf61271084611440565b610ac99190611457565b90506004548110158015610adf57506005548111155b610b195760405162461bcd60e51b815260206004820152600b60248201526a1a5b9d985b1a590818995d60aa1b60448201526064016108c8565b5f610b24828461141a565b90506002546001610b35919061142d565b6002556008546007546040516001600160a01b039092169181156108fc0291905f818181858888f19350505050158015610b71573d5f5f3e3d5ffd5b506006546040516001600160a01b039091169082156108fc029083905f818181858888f19350505050158015610ba9573d5f5f3e3d5ffd5b505f5f5f610bb789896107aa565b919450925090505f6064610bcb8784611440565b610bd59190611457565b905080471015610c275760405162461bcd60e51b815260206004820152601460248201527f686f757365206f7574206f662062616c616e636500000000000000000000000060448201526064016108c8565b5f610c30611190565b9050610c3c848261146a565b905067ffffffffffffffff808616908216105f8115610c9a576040516001600160a01b038c169085156108fc029086905f818181858888f19350505050158015610c88573d5f5f3e3d5ffd5b50610c93348561141a565b9050610ca1565b5f93505f94505b6009546040517f5f4717fe00000000000000000000000000000000000000000000000000000000815260048082015233602482015260448101839052606481018b90526001600160a01b0390911690635f4717fe906084015f604051808303815f87803b158015610d10575f5ffd5b505af1158015610d22573d5f5f3e3d5ffd5b5050604080518c8152602081018c90526001600160a01b038f1681830152606081018890526080810189905290517f9d6caf39e6a1591cd96c8aa4bd03d7278baab79ae5be66a486026b1bd89e5baa93509081900360a0019150a150505050505050505050505050565b7fa49807205ce4d355092ef5a8a18f56e8913cf4a201fbe287825b095693c21775610db681610f56565b506006805473ffffffffffffffffffffffffffffffffffffffff19166001600160a01b0392909216919091179055565b7fa49807205ce4d355092ef5a8a18f56e8913cf4a201fbe287825b095693c21775610e1081610f56565b506009805473ffffffffffffffffffffffffffffffffffffffff19166001600160a01b0392909216919091179055565b7f779b9d7b1cefd23059ce3e2b194efb3183a6685dd830e8cbb723b0cbeb982b28610e6a81610f56565b4780831115610ebb5760405162461bcd60e51b815260206004820152600e60248201527f696e76616c696420616d6f756e7400000000000000000000000000000000000060448201526064016108c8565b60405184906001600160a01b0382169085156108fc029086905f818181858888f19350505050158015610ef0573d5f5f3e3d5ffd5b505050505050565b7f779b9d7b1cefd23059ce3e2b194efb3183a6685dd830e8cbb723b0cbeb982b28610f2281610f56565b60405182906001600160a01b038216904780156108fc02915f818181858888f193505050501580156106bc573d5f5f3e3d5ffd5b61074d81336111e8565b5f828152602081815260408083206001600160a01b038516845290915281205460ff16611000575f838152602081815260408083206001600160a01b03861684529091529020805460ff19166001179055610fb83390565b6001600160a01b0316826001600160a01b0316847f2f8788117e7eff1d82e926ec794901d17c78024a50270940304540a733656f0d60405160405180910390a4506001610662565b505f610662565b5f828152602081815260408083206001600160a01b038516845290915281205460ff1615611000575f838152602081815260408083206001600160a01b0386168085529252808320805460ff1916905551339286917ff6391f5c32d9c69d2a47ea670b442974b53935d1edc7fd64eb21e047a839171b9190a4506001610662565b60015460ff166110c4576040517f8dfc202b00000000000000000000000000000000000000000000000000000000815260040160405180910390fd5b565b6110ce611088565b6001805460ff191690557f5db9ee0a495bf2e6ff9c91a7834c1ba4fdd244a5e8aa4e537bd38aeae4b073aa335b6040516001600160a01b03909116815260200160405180910390a1565b60015460ff16156110c4576040517fd93c066500000000000000000000000000000000000000000000000000000000815260040160405180910390fd5b61115d611118565b6001805460ff1916811790557f62e78cea01bee320cd4e420270b5ea74000d11b0c9f74754ebdbfc544b05a258336110fb565b5f5f4244336040516020016111ca93929190928352602083019190915260601b6bffffffffffffffffffffffff1916604082015260540190565b60408051601f19818403018152919052805160209091012092915050565b5f828152602081815260408083206001600160a01b038516845290915290205460ff16611253576040517fe2517d3f0000000000000000000000000000000000000000000000000000000081526001600160a01b0382166004820152602481018390526044016108c8565b5050565b5f60208284031215611267575f5ffd5b81357fffffffff0000000000000000000000000000000000000000000000000000000081168114611296575f5ffd5b9392505050565b5f602082840312156112ad575f5ffd5b5035919050565b80356001600160a01b03811681146112ca575f5ffd5b919050565b5f5f604083850312156112e0575f5ffd5b823591506112f0602084016112b4565b90509250929050565b5f60208284031215611309575f5ffd5b611296826112b4565b803567ffffffffffffffff811681146112ca575f5ffd5b5f5f6040838503121561133a575f5ffd5b61134383611312565b91506112f060208401611312565b5f5f60408385031215611362575f5ffd5b61136b836112b4565b946020939093013593505050565b634e487b7160e01b5f52601160045260245ffd5b67ffffffffffffffff828116828216039081111561066257610662611379565b67ffffffffffffffff81811683821602908116908181146113d0576113d0611379565b5092915050565b634e487b7160e01b5f52601260045260245ffd5b5f67ffffffffffffffff831680611404576114046113d7565b8067ffffffffffffffff84160491505092915050565b8181038181111561066257610662611379565b8082018082111561066257610662611379565b808202811582820484141761066257610662611379565b5f82611465576114656113d7565b500490565b5f67ffffffffffffffff831680611483576114836113d7565b8067ffffffffffffffff8416069150509291505056fea2646970667358221220f1f27d6cce0b43e6ba21078d79150c35f481b31cc48e4ab8009b36674f31eb7864736f6c634300081c0033",
  "devdoc": {
    "errors": {
      "AccessControlBadConfirmation()": [
        {
          "details": "The caller of a function is not the expected one. NOTE: Don't confuse with {AccessControlUnauthorizedAccount}."
        }
      ],
      "AccessControlUnauthorizedAccount(address,bytes32)": [
        {
          "details": "The `account` is missing a role."
        }
      ],
      "EnforcedPause()": [
        {
          "details": "The operation failed because the contract is paused."
        }
      ],
      "ExpectedPause()": [
        {
          "details": "The operation failed because the contract is not paused."
        }
      ]
    },
    "events": {
      "Paused(address)": {
        "details": "Emitted when the pause is triggered by `account`."
      },
      "RoleAdminChanged(bytes32,bytes32,bytes32)": {
        "details": "Emitted when `newAdminRole` is set as ``role``'s admin role, replacing `previousAdminRole` `DEFAULT_ADMIN_ROLE` is the starting admin for all roles, despite {RoleAdminChanged} not being emitted signaling this."
      },
      "RoleGranted(bytes32,address,address)": {
        "details": "Emitted when `account` is granted `role`. `sender` is the account that originated the contract call. This account bears the admin role (for the granted role). Expected in cases where the role was granted using the internal {AccessControl-_grantRole}."
      },
      "RoleRevoked(bytes32,address,address)": {
        "details": "Emitted when `account` is revoked `role`. `sender` is the account that originated the contract call:   - if using `revokeRole`, it is the admin role bearer   - if using `renounceRole`, it is the role bearer (i.e. `account`)"
      },
      "Unpaused(address)": {
        "details": "Emitted when the pause is lifted by `account`."
      }
    },
    "kind": "dev",
    "methods": {
      "getRoleAdmin(bytes32)": {
        "details": "Returns the admin role that controls `role`. See {grantRole} and {revokeRole}. To change a role's admin, use {_setRoleAdmin}."
      },
      "grantRole(bytes32,address)": {
        "details": "Grants `role` to `account`. If `account` had not been already granted `role`, emits a {RoleGranted} event. Requirements: - the caller must have ``role``'s admin role. May emit a {RoleGranted} event."
      },
      "hasRole(bytes32,address)": {
        "details": "Returns `true` if `account` has been granted `role`."
      },
      "pause()": {
        "details": "called by the owner to pause, triggers stopped state"
      },
      "paused()": {
        "details": "Returns true if the contract is paused, and false otherwise."
      },
      "renounceRole(bytes32,address)": {
        "details": "Revokes `role` from the calling account. Roles are often managed via {grantRole} and {revokeRole}: this function's purpose is to provide a mechanism for accounts to lose their privileges if they are compromised (such as when a trusted device is misplaced). If the calling account had been revoked `role`, emits a {RoleRevoked} event. Requirements: - the caller must be `callerConfirmation`. May emit a {RoleRevoked} event."
      },
      "revokeRole(bytes32,address)": {
        "details": "Revokes `role` from `account`. If `account` had been granted `role`, emits a {RoleRevoked} event. Requirements: - the caller must have ``role``'s admin role. May emit a {RoleRevoked} event."
      },
      "supportsInterface(bytes4)": {
        "details": "See {IERC165-supportsInterface}."
      },
      "unpause()": {
        "details": "called by the owner to unpause, returns to normal state"
      }
    },
    "version": 1
  },
  "userdoc": {
    "kind": "user",
    "methods": {
      "totalGame()": {
        "notice": "Storages"
      }
    },
    "version": 1
  },
  "storageLayout": {
    "storage": [
      {
        "astId": 26,
        "contract": "contracts/Mines/Mines.sol:Mines",
        "label": "_roles",
        "offset": 0,
        "slot": "0",
        "type": "t_mapping(t_bytes32,t_struct(RoleData)21_storage)"
      },
      {
        "astId": 417,
        "contract": "contracts/Mines/Mines.sol:Mines",
        "label": "_paused",
        "offset": 0,
        "slot": "1",
        "type": "t_bool"
      },
      {
        "astId": 1705,
        "contract": "contracts/Mines/Mines.sol:Mines",
        "label": "totalGame",
        "offset": 0,
        "slot": "2",
        "type": "t_uint256"
      },
      {
        "astId": 1707,
        "contract": "contracts/Mines/Mines.sol:Mines",
        "label": "betFee",
        "offset": 0,
        "slot": "3",
        "type": "t_uint256"
      },
      {
        "astId": 1709,
        "contract": "contracts/Mines/Mines.sol:Mines",
        "label": "minBet",
        "offset": 0,
        "slot": "4",
        "type": "t_uint256"
      },
      {
        "astId": 1711,
        "contract": "contracts/Mines/Mines.sol:Mines",
        "label": "maxBet",
        "offset": 0,
        "slot": "5",
        "type": "t_uint256"
      },
      {
        "astId": 1713,
        "contract": "contracts/Mines/Mines.sol:Mines",
        "label": "feeReceiver",
        "offset": 0,
        "slot": "6",
        "type": "t_address"
      },
      {
        "astId": 1715,
        "contract": "contracts/Mines/Mines.sol:Mines",
        "label": "govFee",
        "offset": 0,
        "slot": "7",
        "type": "t_uint256"
      },
      {
        "astId": 1717,
        "contract": "contracts/Mines/Mines.sol:Mines",
        "label": "govAddress",
        "offset": 0,
        "slot": "8",
        "type": "t_address"
      },
      {
        "astId": 1719,
        "contract": "contracts/Mines/Mines.sol:Mines",
        "label": "leaderboard",
        "offset": 0,
        "slot": "9",
        "type": "t_address"
      }
    ],
    "types": {
      "t_address": {
        "encoding": "inplace",
        "label": "address",
        "numberOfBytes": "20"
      },
      "t_bool": {
        "encoding": "inplace",
        "label": "bool",
        "numberOfBytes": "1"
      },
      "t_bytes32": {
        "encoding": "inplace",
        "label": "bytes32",
        "numberOfBytes": "32"
      },
      "t_mapping(t_address,t_bool)": {
        "encoding": "mapping",
        "key": "t_address",
        "label": "mapping(address => bool)",
        "numberOfBytes": "32",
        "value": "t_bool"
      },
      "t_mapping(t_bytes32,t_struct(RoleData)21_storage)": {
        "encoding": "mapping",
        "key": "t_bytes32",
        "label": "mapping(bytes32 => struct AccessControl.RoleData)",
        "numberOfBytes": "32",
        "value": "t_struct(RoleData)21_storage"
      },
      "t_struct(RoleData)21_storage": {
        "encoding": "inplace",
        "label": "struct AccessControl.RoleData",
        "members": [
          {
            "astId": 18,
            "contract": "contracts/Mines/Mines.sol:Mines",
            "label": "hasRole",
            "offset": 0,
            "slot": "0",
            "type": "t_mapping(t_address,t_bool)"
          },
          {
            "astId": 20,
            "contract": "contracts/Mines/Mines.sol:Mines",
            "label": "adminRole",
            "offset": 0,
            "slot": "1",
            "type": "t_bytes32"
          }
        ],
        "numberOfBytes": "64"
      },
      "t_uint256": {
        "encoding": "inplace",
        "label": "uint256",
        "numberOfBytes": "32"
      }
    }
  }
}