{
  "address": "0xee4Cdb37CD303C5604ED367B951A8221652C1471",
  "abi": [
    {
      "inputs": [
        {
          "internalType": "address",
          "name": "leaderboard_",
          "type": "address"
        }
      ],
      "stateMutability": "nonpayable",
      "type": "constructor"
    },
    {
      "inputs": [],
      "name": "AccessControlBadConfirmation",
      "type": "error"
    },
    {
      "inputs": [
        {
          "internalType": "address",
          "name": "account",
          "type": "address"
        },
        {
          "internalType": "bytes32",
          "name": "neededRole",
          "type": "bytes32"
        }
      ],
      "name": "AccessControlUnauthorizedAccount",
      "type": "error"
    },
    {
      "inputs": [],
      "name": "EnforcedPause",
      "type": "error"
    },
    {
      "inputs": [],
      "name": "ExpectedPause",
      "type": "error"
    },
    {
      "anonymous": false,
      "inputs": [
        {
          "indexed": false,
          "internalType": "uint256",
          "name": "betAmount",
          "type": "uint256"
        },
        {
          "indexed": false,
          "internalType": "uint256",
          "name": "fee",
          "type": "uint256"
        },
        {
          "indexed": false,
          "internalType": "address",
          "name": "user",
          "type": "address"
        },
        {
          "indexed": false,
          "internalType": "uint256",
          "name": "reward",
          "type": "uint256"
        },
        {
          "indexed": false,
          "internalType": "uint256",
          "name": "multiplier",
          "type": "uint256"
        }
      ],
      "name": "Game",
      "type": "event"
    },
    {
      "anonymous": false,
      "inputs": [
        {
          "indexed": false,
          "internalType": "address",
          "name": "account",
          "type": "address"
        }
      ],
      "name": "Paused",
      "type": "event"
    },
    {
      "anonymous": false,
      "inputs": [
        {
          "indexed": true,
          "internalType": "bytes32",
          "name": "role",
          "type": "bytes32"
        },
        {
          "indexed": true,
          "internalType": "bytes32",
          "name": "previousAdminRole",
          "type": "bytes32"
        },
        {
          "indexed": true,
          "internalType": "bytes32",
          "name": "newAdminRole",
          "type": "bytes32"
        }
      ],
      "name": "RoleAdminChanged",
      "type": "event"
    },
    {
      "anonymous": false,
      "inputs": [
        {
          "indexed": true,
          "internalType": "bytes32",
          "name": "role",
          "type": "bytes32"
        },
        {
          "indexed": true,
          "internalType": "address",
          "name": "account",
          "type": "address"
        },
        {
          "indexed": true,
          "internalType": "address",
          "name": "sender",
          "type": "address"
        }
      ],
      "name": "RoleGranted",
      "type": "event"
    },
    {
      "anonymous": false,
      "inputs": [
        {
          "indexed": true,
          "internalType": "bytes32",
          "name": "role",
          "type": "bytes32"
        },
        {
          "indexed": true,
          "internalType": "address",
          "name": "account",
          "type": "address"
        },
        {
          "indexed": true,
          "internalType": "address",
          "name": "sender",
          "type": "address"
        }
      ],
      "name": "RoleRevoked",
      "type": "event"
    },
    {
      "anonymous": false,
      "inputs": [
        {
          "indexed": false,
          "internalType": "address",
          "name": "account",
          "type": "address"
        }
      ],
      "name": "Unpaused",
      "type": "event"
    },
    {
      "inputs": [],
      "name": "DEFAULT_ADMIN_ROLE",
      "outputs": [
        {
          "internalType": "bytes32",
          "name": "",
          "type": "bytes32"
        }
      ],
      "stateMutability": "view",
      "type": "function"
    },
    {
      "inputs": [],
      "name": "GAME_ID",
      "outputs": [
        {
          "internalType": "uint256",
          "name": "",
          "type": "uint256"
        }
      ],
      "stateMutability": "view",
      "type": "function"
    },
    {
      "inputs": [],
      "name": "GRID_SIZE",
      "outputs": [
        {
          "internalType": "uint64",
          "name": "",
          "type": "uint64"
        }
      ],
      "stateMutability": "view",
      "type": "function"
    },
    {
      "inputs": [
        {
          "internalType": "uint256",
          "name": "mines",
          "type": "uint256"
        },
        {
          "internalType": "uint256",
          "name": "level",
          "type": "uint256"
        }
      ],
      "name": "_calculateBetArray",
      "outputs": [
        {
          "internalType": "uint256",
          "name": "winRate",
          "type": "uint256"
        },
        {
          "internalType": "uint256",
          "name": "totalRate",
          "type": "uint256"
        },
        {
          "internalType": "uint256",
          "name": "multiplier",
          "type": "uint256"
        }
      ],
      "stateMutability": "pure",
      "type": "function"
    },
    {
      "inputs": [
        {
          "internalType": "uint256",
          "name": "mines",
          "type": "uint256"
        },
        {
          "internalType": "uint256",
          "name": "level",
          "type": "uint256"
        }
      ],
      "name": "checkMine",
      "outputs": [],
      "stateMutability": "payable",
      "type": "function"
    },
    {
      "inputs": [
        {
          "internalType": "bytes32",
          "name": "role",
          "type": "bytes32"
        }
      ],
      "name": "getRoleAdmin",
      "outputs": [
        {
          "internalType": "bytes32",
          "name": "",
          "type": "bytes32"
        }
      ],
      "stateMutability": "view",
      "type": "function"
    },
    {
      "inputs": [
        {
          "internalType": "bytes32",
          "name": "role",
          "type": "bytes32"
        },
        {
          "internalType": "address",
          "name": "account",
          "type": "address"
        }
      ],
      "name": "grantRole",
      "outputs": [],
      "stateMutability": "nonpayable",
      "type": "function"
    },
    {
      "inputs": [
        {
          "internalType": "bytes32",
          "name": "role",
          "type": "bytes32"
        },
        {
          "internalType": "address",
          "name": "account",
          "type": "address"
        }
      ],
      "name": "hasRole",
      "outputs": [
        {
          "internalType": "bool",
          "name": "",
          "type": "bool"
        }
      ],
      "stateMutability": "view",
      "type": "function"
    },
    {
      "inputs": [],
      "name": "leaderboard",
      "outputs": [
        {
          "internalType": "address",
          "name": "",
          "type": "address"
        }
      ],
      "stateMutability": "view",
      "type": "function"
    },
    {
      "inputs": [],
      "name": "pause",
      "outputs": [],
      "stateMutability": "nonpayable",
      "type": "function"
    },
    {
      "inputs": [],
      "name": "paused",
      "outputs": [
        {
          "internalType": "bool",
          "name": "",
          "type": "bool"
        }
      ],
      "stateMutability": "view",
      "type": "function"
    },
    {
      "inputs": [
        {
          "internalType": "bytes32",
          "name": "role",
          "type": "bytes32"
        },
        {
          "internalType": "address",
          "name": "callerConfirmation",
          "type": "address"
        }
      ],
      "name": "renounceRole",
      "outputs": [],
      "stateMutability": "nonpayable",
      "type": "function"
    },
    {
      "inputs": [
        {
          "internalType": "bytes32",
          "name": "role",
          "type": "bytes32"
        },
        {
          "internalType": "address",
          "name": "account",
          "type": "address"
        }
      ],
      "name": "revokeRole",
      "outputs": [],
      "stateMutability": "nonpayable",
      "type": "function"
    },
    {
      "inputs": [
        {
          "internalType": "address",
          "name": "leaderboard_",
          "type": "address"
        }
      ],
      "name": "setLeaderboard",
      "outputs": [],
      "stateMutability": "nonpayable",
      "type": "function"
    },
    {
      "inputs": [
        {
          "internalType": "bytes4",
          "name": "interfaceId",
          "type": "bytes4"
        }
      ],
      "name": "supportsInterface",
      "outputs": [
        {
          "internalType": "bool",
          "name": "",
          "type": "bool"
        }
      ],
      "stateMutability": "view",
      "type": "function"
    },
    {
      "inputs": [],
      "name": "totalGame",
      "outputs": [
        {
          "internalType": "uint256",
          "name": "",
          "type": "uint256"
        }
      ],
      "stateMutability": "view",
      "type": "function"
    },
    {
      "inputs": [],
      "name": "unpause",
      "outputs": [],
      "stateMutability": "nonpayable",
      "type": "function"
    },
    {
      "stateMutability": "payable",
      "type": "receive"
    }
  ],
  "transactionHash": "0xc649da76e794c3ff7bf89556a55950bde30e49fd99da86e5ae794139b643cdf7",
  "args": [
    "0x998F171125d182dDa325D25AfbA14D8cea5cB820"
  ],
  "numDeployments": 1,
  "solcInputHash": "23f8ba6d778f7e00fe32532efa022f3c",
  "bytecode": "0x608060405234801561001057600080fd5b50604051610f70380380610f7083398101604081905261002f91610143565b6001805460ff1916905533610045600082610097565b506100707fa49807205ce4d355092ef5a8a18f56e8913cf4a201fbe287825b095693c2177582610097565b5050600380546001600160a01b0319166001600160a01b0392909216919091179055610173565b6000828152602081815260408083206001600160a01b038516845290915281205460ff16610139576000838152602081815260408083206001600160a01b03861684529091529020805460ff191660011790556100f13390565b6001600160a01b0316826001600160a01b0316847f2f8788117e7eff1d82e926ec794901d17c78024a50270940304540a733656f0d60405160405180910390a450600161013d565b5060005b92915050565b60006020828403121561015557600080fd5b81516001600160a01b038116811461016c57600080fd5b9392505050565b610dee806101826000396000f3fe6080604052600436106101125760003560e01c80638456cb59116100a5578063d547741f11610074578063f1a2de7211610059578063f1a2de721461031d578063f3f67de41461033d578063fdcdb06b1461037857600080fd5b8063d547741f146102c5578063eb56b740146102e557600080fd5b80638456cb591461024157806391d1485414610256578063a217fddf1461029a578063d272e57e146102af57600080fd5b806336568abe116100e157806336568abe146101c65780633f4ba83a146101e65780635c975abb146101fb5780637fc4eda81461021357600080fd5b806301ffc9a71461011e578063248a9ca3146101535780632f2ff15d14610191578063350d6154146101b357600080fd5b3661011957005b600080fd5b34801561012a57600080fd5b5061013e610139366004610c1c565b61038d565b60405190151581526020015b60405180910390f35b34801561015f57600080fd5b5061018361016e366004610c65565b60009081526020819052604090206001015490565b60405190815260200161014a565b34801561019d57600080fd5b506101b16101ac366004610c9a565b610426565b005b6101b16101c1366004610cc6565b610451565b3480156101d257600080fd5b506101b16101e1366004610c9a565b61077c565b3480156101f257600080fd5b506101b16107cd565b34801561020757600080fd5b5060015460ff1661013e565b34801561021f57600080fd5b50610228601081565b60405167ffffffffffffffff909116815260200161014a565b34801561024d57600080fd5b506101b161080a565b34801561026257600080fd5b5061013e610271366004610c9a565b6000918252602082815260408084206001600160a01b0393909316845291905290205460ff1690565b3480156102a657600080fd5b50610183600081565b3480156102bb57600080fd5b5061018360025481565b3480156102d157600080fd5b506101b16102e0366004610c9a565b610844565b3480156102f157600080fd5b50600354610305906001600160a01b031681565b6040516001600160a01b03909116815260200161014a565b34801561032957600080fd5b506101b1610338366004610ce8565b610869565b34801561034957600080fd5b5061035d610358366004610cc6565b6108ce565b6040805193845260208401929092529082015260600161014a565b34801561038457600080fd5b50610183600481565b60007fffffffff0000000000000000000000000000000000000000000000000000000082167f7965db0b00000000000000000000000000000000000000000000000000000000148061042057507f01ffc9a7000000000000000000000000000000000000000000000000000000007fffffffff000000000000000000000000000000000000000000000000000000008316145b92915050565b60008281526020819052604090206001015461044181610913565b61044b838361091d565b50505050565b6104596109c7565b81600114806104685750816003145b806104735750816005145b8061047e575081600a145b80610489575081600f145b6104da5760405162461bcd60e51b815260206004820152600d60248201527f696e76616c6964206d696e65730000000000000000000000000000000000000060448201526064015b60405180910390fd5b6104e5816010610d19565b8211156105345760405162461bcd60e51b815260206004820152601c60248201527f4d696e6573206578636565642072656d61696e696e672063656c6c730000000060448201526064016104d1565b600033600354604080517f181aa1fd000000000000000000000000000000000000000000000000000000008152815193945060009384936001600160a01b03169263181aa1fd92349260048083019392829003018185885af115801561059e573d6000803e3d6000fd5b50505050506040513d601f19601f820116820180604052508101906105c39190610d2c565b9150915060008060006105d688886108ce565b91945092509050600060646105eb8784610d50565b6105f59190610d7d565b6003549091506001600160a01b0316318111156106545760405162461bcd60e51b815260206004820152601460248201527f686f757365206f7574206f662062616c616e636500000000000000000000000060448201526064016104d1565b600254610662906001610d91565b600255600061066f610a06565b905061067b8482610da4565b90508481108061068e5760009250600093505b6003546040517f83fbaae200000000000000000000000000000000000000000000000000000000815260048082015233602482015260448101859052606481018a90526001600160a01b03909116906383fbaae290608401600060405180830381600087803b15801561070057600080fd5b505af1158015610714573d6000803e3d6000fd5b5050604080518b8152602081018b90526001600160a01b038d1681830152606081018790526080810188905290517f9d6caf39e6a1591cd96c8aa4bd03d7278baab79ae5be66a486026b1bd89e5baa93509081900360a0019150a15050505050505050505050565b6001600160a01b03811633146107be576040517f6697b23200000000000000000000000000000000000000000000000000000000815260040160405180910390fd5b6107c88282610a60565b505050565b7fa49807205ce4d355092ef5a8a18f56e8913cf4a201fbe287825b095693c217756107f781610913565b6107ff610ae3565b610807610b1f565b50565b7fa49807205ce4d355092ef5a8a18f56e8913cf4a201fbe287825b095693c2177561083481610913565b61083c6109c7565b610807610b71565b60008281526020819052604090206001015461085f81610913565b61044b8383610a60565b7fa49807205ce4d355092ef5a8a18f56e8913cf4a201fbe287825b095693c2177561089381610913565b50600380547fffffffffffffffffffffffff0000000000000000000000000000000000000000166001600160a01b0392909216919091179055565b600080806108dd846010610d19565b91506108e98583610d19565b92506108f58583610d19565b610900836064610d50565b61090a9190610d7d565b90509250925092565b6108078133610bac565b6000828152602081815260408083206001600160a01b038516845290915281205460ff166109bf576000838152602081815260408083206001600160a01b03861684529091529020805460ff191660011790556109773390565b6001600160a01b0316826001600160a01b0316847f2f8788117e7eff1d82e926ec794901d17c78024a50270940304540a733656f0d60405160405180910390a4506001610420565b506000610420565b60015460ff1615610a04576040517fd93c066500000000000000000000000000000000000000000000000000000000815260040160405180910390fd5b565b60004360025433604051602001610a4293929190928352602083019190915260601b6bffffffffffffffffffffffff1916604082015260540190565b6040516020818303038152906040528051906020012060001c905090565b6000828152602081815260408083206001600160a01b038516845290915281205460ff16156109bf576000838152602081815260408083206001600160a01b0386168085529252808320805460ff1916905551339286917ff6391f5c32d9c69d2a47ea670b442974b53935d1edc7fd64eb21e047a839171b9190a4506001610420565b60015460ff16610a04576040517f8dfc202b00000000000000000000000000000000000000000000000000000000815260040160405180910390fd5b610b27610ae3565b6001805460ff191690557f5db9ee0a495bf2e6ff9c91a7834c1ba4fdd244a5e8aa4e537bd38aeae4b073aa335b6040516001600160a01b03909116815260200160405180910390a1565b610b796109c7565b6001805460ff1916811790557f62e78cea01bee320cd4e420270b5ea74000d11b0c9f74754ebdbfc544b05a25833610b54565b6000828152602081815260408083206001600160a01b038516845290915290205460ff16610c18576040517fe2517d3f0000000000000000000000000000000000000000000000000000000081526001600160a01b0382166004820152602481018390526044016104d1565b5050565b600060208284031215610c2e57600080fd5b81357fffffffff0000000000000000000000000000000000000000000000000000000081168114610c5e57600080fd5b9392505050565b600060208284031215610c7757600080fd5b5035919050565b80356001600160a01b0381168114610c9557600080fd5b919050565b60008060408385031215610cad57600080fd5b82359150610cbd60208401610c7e565b90509250929050565b60008060408385031215610cd957600080fd5b50508035926020909101359150565b600060208284031215610cfa57600080fd5b610c5e82610c7e565b634e487b7160e01b600052601160045260246000fd5b8181038181111561042057610420610d03565b60008060408385031215610d3f57600080fd5b505080516020909101519092909150565b808202811582820484141761042057610420610d03565b634e487b7160e01b600052601260045260246000fd5b600082610d8c57610d8c610d67565b500490565b8082018082111561042057610420610d03565b600082610db357610db3610d67565b50069056fea26469706673582212203298fbf77150087659db1ac9db91965e775ac0bf95f027664c416af7cbc8ca4464736f6c63430008140033",
  "devdoc": {
    "errors": {
      "AccessControlBadConfirmation()": [
        {
          "details": "The caller of a function is not the expected one. NOTE: Don't confuse with {AccessControlUnauthorizedAccount}."
        }
      ],
      "AccessControlUnauthorizedAccount(address,bytes32)": [
        {
          "details": "The `account` is missing a role."
        }
      ],
      "EnforcedPause()": [
        {
          "details": "The operation failed because the contract is paused."
        }
      ],
      "ExpectedPause()": [
        {
          "details": "The operation failed because the contract is not paused."
        }
      ]
    },
    "events": {
      "Paused(address)": {
        "details": "Emitted when the pause is triggered by `account`."
      },
      "RoleAdminChanged(bytes32,bytes32,bytes32)": {
        "details": "Emitted when `newAdminRole` is set as ``role``'s admin role, replacing `previousAdminRole` `DEFAULT_ADMIN_ROLE` is the starting admin for all roles, despite {RoleAdminChanged} not being emitted signaling this."
      },
      "RoleGranted(bytes32,address,address)": {
        "details": "Emitted when `account` is granted `role`. `sender` is the account that originated the contract call. This account bears the admin role (for the granted role). Expected in cases where the role was granted using the internal {AccessControl-_grantRole}."
      },
      "RoleRevoked(bytes32,address,address)": {
        "details": "Emitted when `account` is revoked `role`. `sender` is the account that originated the contract call:   - if using `revokeRole`, it is the admin role bearer   - if using `renounceRole`, it is the role bearer (i.e. `account`)"
      },
      "Unpaused(address)": {
        "details": "Emitted when the pause is lifted by `account`."
      }
    },
    "kind": "dev",
    "methods": {
      "getRoleAdmin(bytes32)": {
        "details": "Returns the admin role that controls `role`. See {grantRole} and {revokeRole}. To change a role's admin, use {_setRoleAdmin}."
      },
      "grantRole(bytes32,address)": {
        "details": "Grants `role` to `account`. If `account` had not been already granted `role`, emits a {RoleGranted} event. Requirements: - the caller must have ``role``'s admin role. May emit a {RoleGranted} event."
      },
      "hasRole(bytes32,address)": {
        "details": "Returns `true` if `account` has been granted `role`."
      },
      "pause()": {
        "details": "called by the owner to pause, triggers stopped state"
      },
      "paused()": {
        "details": "Returns true if the contract is paused, and false otherwise."
      },
      "renounceRole(bytes32,address)": {
        "details": "Revokes `role` from the calling account. Roles are often managed via {grantRole} and {revokeRole}: this function's purpose is to provide a mechanism for accounts to lose their privileges if they are compromised (such as when a trusted device is misplaced). If the calling account had been revoked `role`, emits a {RoleRevoked} event. Requirements: - the caller must be `callerConfirmation`. May emit a {RoleRevoked} event."
      },
      "revokeRole(bytes32,address)": {
        "details": "Revokes `role` from `account`. If `account` had been granted `role`, emits a {RoleRevoked} event. Requirements: - the caller must have ``role``'s admin role. May emit a {RoleRevoked} event."
      },
      "supportsInterface(bytes4)": {
        "details": "See {IERC165-supportsInterface}."
      },
      "unpause()": {
        "details": "called by the owner to unpause, returns to normal state"
      }
    },
    "version": 1
  },
  "userdoc": {
    "kind": "user",
    "methods": {
      "totalGame()": {
        "notice": "Storages"
      }
    },
    "version": 1
  },
  "storageLayout": {
    "storage": [
      {
        "astId": 26,
        "contract": "contracts/Mines/Mines.sol:Mines",
        "label": "_roles",
        "offset": 0,
        "slot": "0",
        "type": "t_mapping(t_bytes32,t_struct(RoleData)21_storage)"
      },
      {
        "astId": 417,
        "contract": "contracts/Mines/Mines.sol:Mines",
        "label": "_paused",
        "offset": 0,
        "slot": "1",
        "type": "t_bool"
      },
      {
        "astId": 1518,
        "contract": "contracts/Mines/Mines.sol:Mines",
        "label": "totalGame",
        "offset": 0,
        "slot": "2",
        "type": "t_uint256"
      },
      {
        "astId": 1520,
        "contract": "contracts/Mines/Mines.sol:Mines",
        "label": "leaderboard",
        "offset": 0,
        "slot": "3",
        "type": "t_address"
      }
    ],
    "types": {
      "t_address": {
        "encoding": "inplace",
        "label": "address",
        "numberOfBytes": "20"
      },
      "t_bool": {
        "encoding": "inplace",
        "label": "bool",
        "numberOfBytes": "1"
      },
      "t_bytes32": {
        "encoding": "inplace",
        "label": "bytes32",
        "numberOfBytes": "32"
      },
      "t_mapping(t_address,t_bool)": {
        "encoding": "mapping",
        "key": "t_address",
        "label": "mapping(address => bool)",
        "numberOfBytes": "32",
        "value": "t_bool"
      },
      "t_mapping(t_bytes32,t_struct(RoleData)21_storage)": {
        "encoding": "mapping",
        "key": "t_bytes32",
        "label": "mapping(bytes32 => struct AccessControl.RoleData)",
        "numberOfBytes": "32",
        "value": "t_struct(RoleData)21_storage"
      },
      "t_struct(RoleData)21_storage": {
        "encoding": "inplace",
        "label": "struct AccessControl.RoleData",
        "members": [
          {
            "astId": 18,
            "contract": "contracts/Mines/Mines.sol:Mines",
            "label": "hasRole",
            "offset": 0,
            "slot": "0",
            "type": "t_mapping(t_address,t_bool)"
          },
          {
            "astId": 20,
            "contract": "contracts/Mines/Mines.sol:Mines",
            "label": "adminRole",
            "offset": 0,
            "slot": "1",
            "type": "t_bytes32"
          }
        ],
        "numberOfBytes": "64"
      },
      "t_uint256": {
        "encoding": "inplace",
        "label": "uint256",
        "numberOfBytes": "32"
      }
    }
  }
}