{
  "address": "0xE9CDbAd14520370DF44f7586AC30F130b3AF7003",
  "abi": [
    {
      "inputs": [
        {
          "internalType": "address",
          "name": "leaderboard_",
          "type": "address"
        }
      ],
      "stateMutability": "nonpayable",
      "type": "constructor"
    },
    {
      "inputs": [],
      "name": "AccessControlBadConfirmation",
      "type": "error"
    },
    {
      "inputs": [
        {
          "internalType": "address",
          "name": "account",
          "type": "address"
        },
        {
          "internalType": "bytes32",
          "name": "neededRole",
          "type": "bytes32"
        }
      ],
      "name": "AccessControlUnauthorizedAccount",
      "type": "error"
    },
    {
      "inputs": [],
      "name": "EnforcedPause",
      "type": "error"
    },
    {
      "inputs": [],
      "name": "ExpectedPause",
      "type": "error"
    },
    {
      "anonymous": false,
      "inputs": [
        {
          "indexed": false,
          "internalType": "uint256",
          "name": "betAmount",
          "type": "uint256"
        },
        {
          "indexed": false,
          "internalType": "uint256",
          "name": "fee",
          "type": "uint256"
        },
        {
          "indexed": false,
          "internalType": "address",
          "name": "user",
          "type": "address"
        },
        {
          "indexed": false,
          "internalType": "uint256",
          "name": "multiplier",
          "type": "uint256"
        },
        {
          "indexed": false,
          "internalType": "uint256",
          "name": "rewardAmount",
          "type": "uint256"
        }
      ],
      "name": "Game",
      "type": "event"
    },
    {
      "anonymous": false,
      "inputs": [
        {
          "indexed": false,
          "internalType": "address",
          "name": "account",
          "type": "address"
        }
      ],
      "name": "Paused",
      "type": "event"
    },
    {
      "anonymous": false,
      "inputs": [
        {
          "indexed": true,
          "internalType": "bytes32",
          "name": "role",
          "type": "bytes32"
        },
        {
          "indexed": true,
          "internalType": "bytes32",
          "name": "previousAdminRole",
          "type": "bytes32"
        },
        {
          "indexed": true,
          "internalType": "bytes32",
          "name": "newAdminRole",
          "type": "bytes32"
        }
      ],
      "name": "RoleAdminChanged",
      "type": "event"
    },
    {
      "anonymous": false,
      "inputs": [
        {
          "indexed": true,
          "internalType": "bytes32",
          "name": "role",
          "type": "bytes32"
        },
        {
          "indexed": true,
          "internalType": "address",
          "name": "account",
          "type": "address"
        },
        {
          "indexed": true,
          "internalType": "address",
          "name": "sender",
          "type": "address"
        }
      ],
      "name": "RoleGranted",
      "type": "event"
    },
    {
      "anonymous": false,
      "inputs": [
        {
          "indexed": true,
          "internalType": "bytes32",
          "name": "role",
          "type": "bytes32"
        },
        {
          "indexed": true,
          "internalType": "address",
          "name": "account",
          "type": "address"
        },
        {
          "indexed": true,
          "internalType": "address",
          "name": "sender",
          "type": "address"
        }
      ],
      "name": "RoleRevoked",
      "type": "event"
    },
    {
      "anonymous": false,
      "inputs": [
        {
          "indexed": false,
          "internalType": "address",
          "name": "account",
          "type": "address"
        }
      ],
      "name": "Unpaused",
      "type": "event"
    },
    {
      "inputs": [],
      "name": "DEFAULT_ADMIN_ROLE",
      "outputs": [
        {
          "internalType": "bytes32",
          "name": "",
          "type": "bytes32"
        }
      ],
      "stateMutability": "view",
      "type": "function"
    },
    {
      "inputs": [],
      "name": "GAME_ID",
      "outputs": [
        {
          "internalType": "uint256",
          "name": "",
          "type": "uint256"
        }
      ],
      "stateMutability": "view",
      "type": "function"
    },
    {
      "inputs": [
        {
          "internalType": "uint256",
          "name": "multiplier",
          "type": "uint256"
        }
      ],
      "name": "_calculateBetArray",
      "outputs": [
        {
          "internalType": "uint256",
          "name": "winRate",
          "type": "uint256"
        },
        {
          "internalType": "uint256",
          "name": "totalRate",
          "type": "uint256"
        }
      ],
      "stateMutability": "pure",
      "type": "function"
    },
    {
      "inputs": [
        {
          "internalType": "uint256",
          "name": "",
          "type": "uint256"
        }
      ],
      "name": "basicMultiplier",
      "outputs": [
        {
          "internalType": "uint256",
          "name": "",
          "type": "uint256"
        }
      ],
      "stateMutability": "view",
      "type": "function"
    },
    {
      "inputs": [
        {
          "internalType": "uint256",
          "name": "",
          "type": "uint256"
        }
      ],
      "name": "degenMultiplier",
      "outputs": [
        {
          "internalType": "uint256",
          "name": "",
          "type": "uint256"
        }
      ],
      "stateMutability": "view",
      "type": "function"
    },
    {
      "inputs": [
        {
          "internalType": "bytes32",
          "name": "role",
          "type": "bytes32"
        }
      ],
      "name": "getRoleAdmin",
      "outputs": [
        {
          "internalType": "bytes32",
          "name": "",
          "type": "bytes32"
        }
      ],
      "stateMutability": "view",
      "type": "function"
    },
    {
      "inputs": [
        {
          "internalType": "bytes32",
          "name": "role",
          "type": "bytes32"
        },
        {
          "internalType": "address",
          "name": "account",
          "type": "address"
        }
      ],
      "name": "grantRole",
      "outputs": [],
      "stateMutability": "nonpayable",
      "type": "function"
    },
    {
      "inputs": [
        {
          "internalType": "bytes32",
          "name": "role",
          "type": "bytes32"
        },
        {
          "internalType": "address",
          "name": "account",
          "type": "address"
        }
      ],
      "name": "hasRole",
      "outputs": [
        {
          "internalType": "bool",
          "name": "",
          "type": "bool"
        }
      ],
      "stateMutability": "view",
      "type": "function"
    },
    {
      "inputs": [],
      "name": "leaderboard",
      "outputs": [
        {
          "internalType": "address",
          "name": "",
          "type": "address"
        }
      ],
      "stateMutability": "view",
      "type": "function"
    },
    {
      "inputs": [],
      "name": "pause",
      "outputs": [],
      "stateMutability": "nonpayable",
      "type": "function"
    },
    {
      "inputs": [],
      "name": "paused",
      "outputs": [
        {
          "internalType": "bool",
          "name": "",
          "type": "bool"
        }
      ],
      "stateMutability": "view",
      "type": "function"
    },
    {
      "inputs": [
        {
          "internalType": "bool",
          "name": "degen",
          "type": "bool"
        },
        {
          "internalType": "uint256",
          "name": "ball",
          "type": "uint256"
        }
      ],
      "name": "plinko",
      "outputs": [],
      "stateMutability": "payable",
      "type": "function"
    },
    {
      "inputs": [
        {
          "internalType": "bytes32",
          "name": "role",
          "type": "bytes32"
        },
        {
          "internalType": "address",
          "name": "callerConfirmation",
          "type": "address"
        }
      ],
      "name": "renounceRole",
      "outputs": [],
      "stateMutability": "nonpayable",
      "type": "function"
    },
    {
      "inputs": [
        {
          "internalType": "bytes32",
          "name": "role",
          "type": "bytes32"
        },
        {
          "internalType": "address",
          "name": "account",
          "type": "address"
        }
      ],
      "name": "revokeRole",
      "outputs": [],
      "stateMutability": "nonpayable",
      "type": "function"
    },
    {
      "inputs": [
        {
          "internalType": "address",
          "name": "leaderboard_",
          "type": "address"
        }
      ],
      "name": "setLeaderboard",
      "outputs": [],
      "stateMutability": "nonpayable",
      "type": "function"
    },
    {
      "inputs": [
        {
          "internalType": "bytes4",
          "name": "interfaceId",
          "type": "bytes4"
        }
      ],
      "name": "supportsInterface",
      "outputs": [
        {
          "internalType": "bool",
          "name": "",
          "type": "bool"
        }
      ],
      "stateMutability": "view",
      "type": "function"
    },
    {
      "inputs": [],
      "name": "totalGame",
      "outputs": [
        {
          "internalType": "uint256",
          "name": "",
          "type": "uint256"
        }
      ],
      "stateMutability": "view",
      "type": "function"
    },
    {
      "inputs": [],
      "name": "unpause",
      "outputs": [],
      "stateMutability": "nonpayable",
      "type": "function"
    },
    {
      "stateMutability": "payable",
      "type": "receive"
    }
  ],
  "transactionHash": "0xd74fe1ace439ed8be73f994b01201292890e6f794a6882641b68d726f6b61a4b",
  "args": [
    "0x998F171125d182dDa325D25AfbA14D8cea5cB820"
  ],
  "numDeployments": 1,
  "solcInputHash": "23f8ba6d778f7e00fe32532efa022f3c",
  "bytecode": "0x60806040523480156200001157600080fd5b5060405162001169380380620011698339810160408190526200003491620002ff565b6001805460ff19169055336200004c60008262000250565b50620000797fa49807205ce4d355092ef5a8a18f56e8913cf4a201fbe287825b095693c217758262000250565b50600380546001600160a01b0319166001600160a01b038416179055600460205260c87f90cda500e35aaf03a1a434c6c35e405898eb7e8c3b95c3a697cd23106146040e8190557fcee00ef6983e77a7e1db3b46722f66f35b443eda730735f8d62ca455b3aed108556103e87f23b46c729058bbeb475c41bb0ca0b2ae749b9f5c561c6c7b69407ac2bf1236998190557f3377cca8db66d73c9613cf008dc21372e328915d0ae53c1e79018b2f3033b4be8190557ffac89625171123edccfe88e684fd4aea5c340aeae5af371b184adfb7953ce96555603060009081526105dc7f8eeeed6187cb0efc838c06115ccee03417eb91ef74d6a7e8c96ea8053a407fae555b6030811015620001ad5760008181526005602052604090206032905580620001a48162000331565b9150506200017c565b5060305b603a811015620001e25760008181526005602052604090206096905580620001d98162000331565b915050620001b1565b50603a5b60418110156200021857600081815260056020526040902061012c9055806200020f8162000331565b915050620001e6565b505060416000525060056020526102587f40b774bb4cbea2da026b022e415a02f4741eaee1c7766ff17f16d5d987e033a65562000359565b6000828152602081815260408083206001600160a01b038516845290915281205460ff16620002f5576000838152602081815260408083206001600160a01b03861684529091529020805460ff19166001179055620002ac3390565b6001600160a01b0316826001600160a01b0316847f2f8788117e7eff1d82e926ec794901d17c78024a50270940304540a733656f0d60405160405180910390a4506001620002f9565b5060005b92915050565b6000602082840312156200031257600080fd5b81516001600160a01b03811681146200032a57600080fd5b9392505050565b6000600182016200035257634e487b7160e01b600052601160045260246000fd5b5060010190565b610e0080620003696000396000f3fe60806040526004361061012d5760003560e01c806391d14854116100a5578063d272e57e11610074578063eb56b74011610059578063eb56b74014610361578063f1a2de7214610399578063fdcdb06b146103b957600080fd5b8063d272e57e1461032b578063d547741f1461034157600080fd5b806391d148541461028a578063a217fddf146102ce578063a812b6e6146102e3578063cc895fa51461031857600080fd5b80632f2ff15d116100fc5780633f4ba83a116100e15780633f4ba83a146102485780635c975abb1461025d5780638456cb591461027557600080fd5b80632f2ff15d1461020657806336568abe1461022857600080fd5b806301ffc9a7146101395780630ebbe0ad1461016e578063248a9ca3146101a957806328681024146101d957600080fd5b3661013457005b600080fd5b34801561014557600080fd5b50610159610154366004610c31565b6103ce565b60405190151581526020015b60405180910390f35b34801561017a57600080fd5b5061019b610189366004610c62565b60056020526000908152604090205481565b604051908152602001610165565b3480156101b557600080fd5b5061019b6101c4366004610c62565b60009081526020819052604090206001015490565b3480156101e557600080fd5b5061019b6101f4366004610c62565b60046020526000908152604090205481565b34801561021257600080fd5b50610226610221366004610c97565b610437565b005b34801561023457600080fd5b50610226610243366004610c97565b610462565b34801561025457600080fd5b506102266104b3565b34801561026957600080fd5b5060015460ff16610159565b34801561028157600080fd5b506102266104f0565b34801561029657600080fd5b506101596102a5366004610c97565b6000918252602082815260408084206001600160a01b0393909316845291905290205460ff1690565b3480156102da57600080fd5b5061019b600081565b3480156102ef57600080fd5b506103036102fe366004610c62565b61052a565b60408051928352602083019190915201610165565b610226610326366004610cc3565b6105a1565b34801561033757600080fd5b5061019b60025481565b34801561034d57600080fd5b5061022661035c366004610c97565b61089e565b34801561036d57600080fd5b50600354610381906001600160a01b031681565b6040516001600160a01b039091168152602001610165565b3480156103a557600080fd5b506102266103b4366004610cf4565b6108c3565b3480156103c557600080fd5b5061019b600381565b60006001600160e01b031982167f7965db0b00000000000000000000000000000000000000000000000000000000148061043157507f01ffc9a7000000000000000000000000000000000000000000000000000000006001600160e01b03198316145b92915050565b60008281526020819052604090206001015461045281610928565b61045c8383610932565b50505050565b6001600160a01b03811633146104a4576040517f6697b23200000000000000000000000000000000000000000000000000000000815260040160405180910390fd5b6104ae82826109dc565b505050565b7fa49807205ce4d355092ef5a8a18f56e8913cf4a201fbe287825b095693c217756104dd81610928565b6104e5610a5f565b6104ed610a9d565b50565b7fa49807205ce4d355092ef5a8a18f56e8913cf4a201fbe287825b095693c2177561051a81610928565b610522610aef565b6104ed610b2c565b60008080610539606485610d25565b90508060190361054c5760049250610573565b8060320361055d5760029250610573565b80604b0361056e5760049250610573565b600192505b600061057f8486610d4f565b9050606461058e826063610d66565b6105989190610d79565b92505050915091565b6105a9610aef565b600033600354604080517f181aa1fd000000000000000000000000000000000000000000000000000000008152815193945060009384936001600160a01b03169263181aa1fd92349260048083019392829003018185885af1158015610613573d6000803e3d6000fd5b50505050506040513d601f19601f820116820180604052508101906106389190610d8d565b90925090506000606461064d846105dc610d4f565b6106579087610d4f565b6106619190610d79565b6003549091506001600160a01b0316318111156106df576040517f08c379a000000000000000000000000000000000000000000000000000000000815260206004820152601460248201527f686f757365206f7574206f662062616c616e636500000000000000000000000060448201526064015b60405180910390fd5b84600260008282546106f19190610d66565b909155506000905086610705576042610708565b60315b9050600080610715610b67565b905060005b8881101561080757600084610730836001610d66565b61073a9085610d4f565b6107449190610d25565b905060008b61076157600082815260056020526040902054610771565b6000828152600460205260409020545b9050600060646107818b84610d4f565b61078b9190610d79565b90506107978187610d66565b604080518c8152602081018c90526001600160a01b038e1681830152606081018590526080810184905290519197507f9d6caf39e6a1591cd96c8aa4bd03d7278baab79ae5be66a486026b1bd89e5baa919081900360a00190a150505080806107ff90610db1565b91505061071a565b50600380546001600160a01b0316906383fbaae29033856108288d8c610d4f565b6040516001600160e01b031960e087901b16815260048101949094526001600160a01b03909216602484015260448301526064820152608401600060405180830381600087803b15801561087b57600080fd5b505af115801561088f573d6000803e3d6000fd5b50505050505050505050505050565b6000828152602081905260409020600101546108b981610928565b61045c83836109dc565b7fa49807205ce4d355092ef5a8a18f56e8913cf4a201fbe287825b095693c217756108ed81610928565b50600380547fffffffffffffffffffffffff0000000000000000000000000000000000000000166001600160a01b0392909216919091179055565b6104ed8133610bc1565b6000828152602081815260408083206001600160a01b038516845290915281205460ff166109d4576000838152602081815260408083206001600160a01b03861684529091529020805460ff1916600117905561098c3390565b6001600160a01b0316826001600160a01b0316847f2f8788117e7eff1d82e926ec794901d17c78024a50270940304540a733656f0d60405160405180910390a4506001610431565b506000610431565b6000828152602081815260408083206001600160a01b038516845290915281205460ff16156109d4576000838152602081815260408083206001600160a01b0386168085529252808320805460ff1916905551339286917ff6391f5c32d9c69d2a47ea670b442974b53935d1edc7fd64eb21e047a839171b9190a4506001610431565b60015460ff16610a9b576040517f8dfc202b00000000000000000000000000000000000000000000000000000000815260040160405180910390fd5b565b610aa5610a5f565b6001805460ff191690557f5db9ee0a495bf2e6ff9c91a7834c1ba4fdd244a5e8aa4e537bd38aeae4b073aa335b6040516001600160a01b03909116815260200160405180910390a1565b60015460ff1615610a9b576040517fd93c066500000000000000000000000000000000000000000000000000000000815260040160405180910390fd5b610b34610aef565b6001805460ff1916811790557f62e78cea01bee320cd4e420270b5ea74000d11b0c9f74754ebdbfc544b05a25833610ad2565b60004360025433604051602001610ba393929190928352602083019190915260601b6bffffffffffffffffffffffff1916604082015260540190565b6040516020818303038152906040528051906020012060001c905090565b6000828152602081815260408083206001600160a01b038516845290915290205460ff16610c2d576040517fe2517d3f0000000000000000000000000000000000000000000000000000000081526001600160a01b0382166004820152602481018390526044016106d6565b5050565b600060208284031215610c4357600080fd5b81356001600160e01b031981168114610c5b57600080fd5b9392505050565b600060208284031215610c7457600080fd5b5035919050565b80356001600160a01b0381168114610c9257600080fd5b919050565b60008060408385031215610caa57600080fd5b82359150610cba60208401610c7b565b90509250929050565b60008060408385031215610cd657600080fd5b82358015158114610ce657600080fd5b946020939093013593505050565b600060208284031215610d0657600080fd5b610c5b82610c7b565b634e487b7160e01b600052601260045260246000fd5b600082610d3457610d34610d0f565b500690565b634e487b7160e01b600052601160045260246000fd5b808202811582820484141761043157610431610d39565b8082018082111561043157610431610d39565b600082610d8857610d88610d0f565b500490565b60008060408385031215610da057600080fd5b505080516020909101519092909150565b600060018201610dc357610dc3610d39565b506001019056fea26469706673582212200afa19c8d224e50ab3484e8b0b60e3584100bbb8f7b60574f6f317ddebf58c0e64736f6c63430008140033",
  "devdoc": {
    "errors": {
      "AccessControlBadConfirmation()": [
        {
          "details": "The caller of a function is not the expected one. NOTE: Don't confuse with {AccessControlUnauthorizedAccount}."
        }
      ],
      "AccessControlUnauthorizedAccount(address,bytes32)": [
        {
          "details": "The `account` is missing a role."
        }
      ],
      "EnforcedPause()": [
        {
          "details": "The operation failed because the contract is paused."
        }
      ],
      "ExpectedPause()": [
        {
          "details": "The operation failed because the contract is not paused."
        }
      ]
    },
    "events": {
      "Paused(address)": {
        "details": "Emitted when the pause is triggered by `account`."
      },
      "RoleAdminChanged(bytes32,bytes32,bytes32)": {
        "details": "Emitted when `newAdminRole` is set as ``role``'s admin role, replacing `previousAdminRole` `DEFAULT_ADMIN_ROLE` is the starting admin for all roles, despite {RoleAdminChanged} not being emitted signaling this."
      },
      "RoleGranted(bytes32,address,address)": {
        "details": "Emitted when `account` is granted `role`. `sender` is the account that originated the contract call. This account bears the admin role (for the granted role). Expected in cases where the role was granted using the internal {AccessControl-_grantRole}."
      },
      "RoleRevoked(bytes32,address,address)": {
        "details": "Emitted when `account` is revoked `role`. `sender` is the account that originated the contract call:   - if using `revokeRole`, it is the admin role bearer   - if using `renounceRole`, it is the role bearer (i.e. `account`)"
      },
      "Unpaused(address)": {
        "details": "Emitted when the pause is lifted by `account`."
      }
    },
    "kind": "dev",
    "methods": {
      "getRoleAdmin(bytes32)": {
        "details": "Returns the admin role that controls `role`. See {grantRole} and {revokeRole}. To change a role's admin, use {_setRoleAdmin}."
      },
      "grantRole(bytes32,address)": {
        "details": "Grants `role` to `account`. If `account` had not been already granted `role`, emits a {RoleGranted} event. Requirements: - the caller must have ``role``'s admin role. May emit a {RoleGranted} event."
      },
      "hasRole(bytes32,address)": {
        "details": "Returns `true` if `account` has been granted `role`."
      },
      "pause()": {
        "details": "called by the owner to pause, triggers stopped state"
      },
      "paused()": {
        "details": "Returns true if the contract is paused, and false otherwise."
      },
      "renounceRole(bytes32,address)": {
        "details": "Revokes `role` from the calling account. Roles are often managed via {grantRole} and {revokeRole}: this function's purpose is to provide a mechanism for accounts to lose their privileges if they are compromised (such as when a trusted device is misplaced). If the calling account had been revoked `role`, emits a {RoleRevoked} event. Requirements: - the caller must be `callerConfirmation`. May emit a {RoleRevoked} event."
      },
      "revokeRole(bytes32,address)": {
        "details": "Revokes `role` from `account`. If `account` had been granted `role`, emits a {RoleRevoked} event. Requirements: - the caller must have ``role``'s admin role. May emit a {RoleRevoked} event."
      },
      "supportsInterface(bytes4)": {
        "details": "See {IERC165-supportsInterface}."
      },
      "unpause()": {
        "details": "called by the owner to unpause, returns to normal state"
      }
    },
    "version": 1
  },
  "userdoc": {
    "kind": "user",
    "methods": {
      "totalGame()": {
        "notice": "Storages"
      }
    },
    "version": 1
  },
  "storageLayout": {
    "storage": [
      {
        "astId": 26,
        "contract": "contracts/Plinko/Plinko.sol:Plinko",
        "label": "_roles",
        "offset": 0,
        "slot": "0",
        "type": "t_mapping(t_bytes32,t_struct(RoleData)21_storage)"
      },
      {
        "astId": 417,
        "contract": "contracts/Plinko/Plinko.sol:Plinko",
        "label": "_paused",
        "offset": 0,
        "slot": "1",
        "type": "t_bool"
      },
      {
        "astId": 1834,
        "contract": "contracts/Plinko/Plinko.sol:Plinko",
        "label": "totalGame",
        "offset": 0,
        "slot": "2",
        "type": "t_uint256"
      },
      {
        "astId": 1836,
        "contract": "contracts/Plinko/Plinko.sol:Plinko",
        "label": "leaderboard",
        "offset": 0,
        "slot": "3",
        "type": "t_address"
      },
      {
        "astId": 1840,
        "contract": "contracts/Plinko/Plinko.sol:Plinko",
        "label": "degenMultiplier",
        "offset": 0,
        "slot": "4",
        "type": "t_mapping(t_uint256,t_uint256)"
      },
      {
        "astId": 1844,
        "contract": "contracts/Plinko/Plinko.sol:Plinko",
        "label": "basicMultiplier",
        "offset": 0,
        "slot": "5",
        "type": "t_mapping(t_uint256,t_uint256)"
      }
    ],
    "types": {
      "t_address": {
        "encoding": "inplace",
        "label": "address",
        "numberOfBytes": "20"
      },
      "t_bool": {
        "encoding": "inplace",
        "label": "bool",
        "numberOfBytes": "1"
      },
      "t_bytes32": {
        "encoding": "inplace",
        "label": "bytes32",
        "numberOfBytes": "32"
      },
      "t_mapping(t_address,t_bool)": {
        "encoding": "mapping",
        "key": "t_address",
        "label": "mapping(address => bool)",
        "numberOfBytes": "32",
        "value": "t_bool"
      },
      "t_mapping(t_bytes32,t_struct(RoleData)21_storage)": {
        "encoding": "mapping",
        "key": "t_bytes32",
        "label": "mapping(bytes32 => struct AccessControl.RoleData)",
        "numberOfBytes": "32",
        "value": "t_struct(RoleData)21_storage"
      },
      "t_mapping(t_uint256,t_uint256)": {
        "encoding": "mapping",
        "key": "t_uint256",
        "label": "mapping(uint256 => uint256)",
        "numberOfBytes": "32",
        "value": "t_uint256"
      },
      "t_struct(RoleData)21_storage": {
        "encoding": "inplace",
        "label": "struct AccessControl.RoleData",
        "members": [
          {
            "astId": 18,
            "contract": "contracts/Plinko/Plinko.sol:Plinko",
            "label": "hasRole",
            "offset": 0,
            "slot": "0",
            "type": "t_mapping(t_address,t_bool)"
          },
          {
            "astId": 20,
            "contract": "contracts/Plinko/Plinko.sol:Plinko",
            "label": "adminRole",
            "offset": 0,
            "slot": "1",
            "type": "t_bytes32"
          }
        ],
        "numberOfBytes": "64"
      },
      "t_uint256": {
        "encoding": "inplace",
        "label": "uint256",
        "numberOfBytes": "32"
      }
    }
  }
}