{
  "address": "0xfB50dF5C0579737CA71CAF13791222eda272389f",
  "abi": [
    {
      "inputs": [
        {
          "internalType": "address",
          "name": "leaderboard_",
          "type": "address"
        }
      ],
      "stateMutability": "nonpayable",
      "type": "constructor"
    },
    {
      "inputs": [],
      "name": "AccessControlBadConfirmation",
      "type": "error"
    },
    {
      "inputs": [
        {
          "internalType": "address",
          "name": "account",
          "type": "address"
        },
        {
          "internalType": "bytes32",
          "name": "neededRole",
          "type": "bytes32"
        }
      ],
      "name": "AccessControlUnauthorizedAccount",
      "type": "error"
    },
    {
      "inputs": [],
      "name": "EnforcedPause",
      "type": "error"
    },
    {
      "inputs": [],
      "name": "ExpectedPause",
      "type": "error"
    },
    {
      "anonymous": false,
      "inputs": [
        {
          "indexed": false,
          "internalType": "uint256",
          "name": "betAmount",
          "type": "uint256"
        },
        {
          "indexed": false,
          "internalType": "uint256",
          "name": "fee",
          "type": "uint256"
        },
        {
          "indexed": false,
          "internalType": "address",
          "name": "user",
          "type": "address"
        },
        {
          "indexed": false,
          "internalType": "bool",
          "name": "isWin",
          "type": "bool"
        }
      ],
      "name": "Game",
      "type": "event"
    },
    {
      "anonymous": false,
      "inputs": [
        {
          "indexed": false,
          "internalType": "address",
          "name": "account",
          "type": "address"
        }
      ],
      "name": "Paused",
      "type": "event"
    },
    {
      "anonymous": false,
      "inputs": [
        {
          "indexed": true,
          "internalType": "bytes32",
          "name": "role",
          "type": "bytes32"
        },
        {
          "indexed": true,
          "internalType": "bytes32",
          "name": "previousAdminRole",
          "type": "bytes32"
        },
        {
          "indexed": true,
          "internalType": "bytes32",
          "name": "newAdminRole",
          "type": "bytes32"
        }
      ],
      "name": "RoleAdminChanged",
      "type": "event"
    },
    {
      "anonymous": false,
      "inputs": [
        {
          "indexed": true,
          "internalType": "bytes32",
          "name": "role",
          "type": "bytes32"
        },
        {
          "indexed": true,
          "internalType": "address",
          "name": "account",
          "type": "address"
        },
        {
          "indexed": true,
          "internalType": "address",
          "name": "sender",
          "type": "address"
        }
      ],
      "name": "RoleGranted",
      "type": "event"
    },
    {
      "anonymous": false,
      "inputs": [
        {
          "indexed": true,
          "internalType": "bytes32",
          "name": "role",
          "type": "bytes32"
        },
        {
          "indexed": true,
          "internalType": "address",
          "name": "account",
          "type": "address"
        },
        {
          "indexed": true,
          "internalType": "address",
          "name": "sender",
          "type": "address"
        }
      ],
      "name": "RoleRevoked",
      "type": "event"
    },
    {
      "anonymous": false,
      "inputs": [
        {
          "indexed": false,
          "internalType": "address",
          "name": "account",
          "type": "address"
        }
      ],
      "name": "Unpaused",
      "type": "event"
    },
    {
      "inputs": [],
      "name": "DEFAULT_ADMIN_ROLE",
      "outputs": [
        {
          "internalType": "bytes32",
          "name": "",
          "type": "bytes32"
        }
      ],
      "stateMutability": "view",
      "type": "function"
    },
    {
      "inputs": [],
      "name": "GAME_ID",
      "outputs": [
        {
          "internalType": "uint256",
          "name": "",
          "type": "uint256"
        }
      ],
      "stateMutability": "view",
      "type": "function"
    },
    {
      "inputs": [],
      "name": "betFee",
      "outputs": [
        {
          "internalType": "uint256",
          "name": "",
          "type": "uint256"
        }
      ],
      "stateMutability": "view",
      "type": "function"
    },
    {
      "inputs": [],
      "name": "feeReceiver",
      "outputs": [
        {
          "internalType": "address",
          "name": "",
          "type": "address"
        }
      ],
      "stateMutability": "view",
      "type": "function"
    },
    {
      "inputs": [
        {
          "internalType": "bool",
          "name": "gtSide",
          "type": "bool"
        }
      ],
      "name": "flip",
      "outputs": [],
      "stateMutability": "payable",
      "type": "function"
    },
    {
      "inputs": [
        {
          "internalType": "bytes32",
          "name": "role",
          "type": "bytes32"
        }
      ],
      "name": "getRoleAdmin",
      "outputs": [
        {
          "internalType": "bytes32",
          "name": "",
          "type": "bytes32"
        }
      ],
      "stateMutability": "view",
      "type": "function"
    },
    {
      "inputs": [],
      "name": "govAddress",
      "outputs": [
        {
          "internalType": "address",
          "name": "",
          "type": "address"
        }
      ],
      "stateMutability": "view",
      "type": "function"
    },
    {
      "inputs": [],
      "name": "govFee",
      "outputs": [
        {
          "internalType": "uint256",
          "name": "",
          "type": "uint256"
        }
      ],
      "stateMutability": "view",
      "type": "function"
    },
    {
      "inputs": [
        {
          "internalType": "bytes32",
          "name": "role",
          "type": "bytes32"
        },
        {
          "internalType": "address",
          "name": "account",
          "type": "address"
        }
      ],
      "name": "grantRole",
      "outputs": [],
      "stateMutability": "nonpayable",
      "type": "function"
    },
    {
      "inputs": [
        {
          "internalType": "bytes32",
          "name": "role",
          "type": "bytes32"
        },
        {
          "internalType": "address",
          "name": "account",
          "type": "address"
        }
      ],
      "name": "hasRole",
      "outputs": [
        {
          "internalType": "bool",
          "name": "",
          "type": "bool"
        }
      ],
      "stateMutability": "view",
      "type": "function"
    },
    {
      "inputs": [],
      "name": "leaderboard",
      "outputs": [
        {
          "internalType": "address",
          "name": "",
          "type": "address"
        }
      ],
      "stateMutability": "view",
      "type": "function"
    },
    {
      "inputs": [],
      "name": "maxBet",
      "outputs": [
        {
          "internalType": "uint256",
          "name": "",
          "type": "uint256"
        }
      ],
      "stateMutability": "view",
      "type": "function"
    },
    {
      "inputs": [],
      "name": "minBet",
      "outputs": [
        {
          "internalType": "uint256",
          "name": "",
          "type": "uint256"
        }
      ],
      "stateMutability": "view",
      "type": "function"
    },
    {
      "inputs": [],
      "name": "pause",
      "outputs": [],
      "stateMutability": "nonpayable",
      "type": "function"
    },
    {
      "inputs": [],
      "name": "paused",
      "outputs": [
        {
          "internalType": "bool",
          "name": "",
          "type": "bool"
        }
      ],
      "stateMutability": "view",
      "type": "function"
    },
    {
      "inputs": [
        {
          "internalType": "bytes32",
          "name": "role",
          "type": "bytes32"
        },
        {
          "internalType": "address",
          "name": "callerConfirmation",
          "type": "address"
        }
      ],
      "name": "renounceRole",
      "outputs": [],
      "stateMutability": "nonpayable",
      "type": "function"
    },
    {
      "inputs": [
        {
          "internalType": "bytes32",
          "name": "role",
          "type": "bytes32"
        },
        {
          "internalType": "address",
          "name": "account",
          "type": "address"
        }
      ],
      "name": "revokeRole",
      "outputs": [],
      "stateMutability": "nonpayable",
      "type": "function"
    },
    {
      "inputs": [
        {
          "internalType": "uint256",
          "name": "val",
          "type": "uint256"
        }
      ],
      "name": "setBetFee",
      "outputs": [],
      "stateMutability": "nonpayable",
      "type": "function"
    },
    {
      "inputs": [
        {
          "internalType": "address",
          "name": "receiver",
          "type": "address"
        }
      ],
      "name": "setFeeReceiver",
      "outputs": [],
      "stateMutability": "nonpayable",
      "type": "function"
    },
    {
      "inputs": [
        {
          "internalType": "address",
          "name": "gov",
          "type": "address"
        }
      ],
      "name": "setGovAddress",
      "outputs": [],
      "stateMutability": "nonpayable",
      "type": "function"
    },
    {
      "inputs": [
        {
          "internalType": "uint256",
          "name": "val",
          "type": "uint256"
        }
      ],
      "name": "setGovFee",
      "outputs": [],
      "stateMutability": "nonpayable",
      "type": "function"
    },
    {
      "inputs": [
        {
          "internalType": "address",
          "name": "leaderboard_",
          "type": "address"
        }
      ],
      "name": "setLeaderboard",
      "outputs": [],
      "stateMutability": "nonpayable",
      "type": "function"
    },
    {
      "inputs": [
        {
          "internalType": "uint256",
          "name": "val",
          "type": "uint256"
        }
      ],
      "name": "setMaxBet",
      "outputs": [],
      "stateMutability": "nonpayable",
      "type": "function"
    },
    {
      "inputs": [
        {
          "internalType": "uint256",
          "name": "val",
          "type": "uint256"
        }
      ],
      "name": "setMinBet",
      "outputs": [],
      "stateMutability": "nonpayable",
      "type": "function"
    },
    {
      "inputs": [
        {
          "internalType": "bytes4",
          "name": "interfaceId",
          "type": "bytes4"
        }
      ],
      "name": "supportsInterface",
      "outputs": [
        {
          "internalType": "bool",
          "name": "",
          "type": "bool"
        }
      ],
      "stateMutability": "view",
      "type": "function"
    },
    {
      "inputs": [],
      "name": "totalGame",
      "outputs": [
        {
          "internalType": "uint256",
          "name": "",
          "type": "uint256"
        }
      ],
      "stateMutability": "view",
      "type": "function"
    },
    {
      "inputs": [],
      "name": "unpause",
      "outputs": [],
      "stateMutability": "nonpayable",
      "type": "function"
    },
    {
      "inputs": [
        {
          "internalType": "address",
          "name": "addr",
          "type": "address"
        },
        {
          "internalType": "uint256",
          "name": "amount",
          "type": "uint256"
        }
      ],
      "name": "withdraw",
      "outputs": [],
      "stateMutability": "nonpayable",
      "type": "function"
    },
    {
      "inputs": [
        {
          "internalType": "address",
          "name": "addr",
          "type": "address"
        }
      ],
      "name": "withdrawAll",
      "outputs": [],
      "stateMutability": "nonpayable",
      "type": "function"
    },
    {
      "stateMutability": "payable",
      "type": "receive"
    }
  ],
  "transactionHash": "0xad282745021c5ba30dfe5b4fc05d8bd86465dd9c252159ab2ef058e8421c1c7c",
  "args": [
    "0xde13874e9Be05Cbd3E55EbC29D74a1ce5652c6e4"
  ],
  "numDeployments": 1,
  "solcInputHash": "df87368e82ed19b6e8c9a5a599fe2295",
  "bytecode": "0x608060405234801561000f575f5ffd5b506040516112f53803806112f583398101604081905261002e9161017f565b6001805460ff19169055336100435f826100d6565b5061006e7fa49807205ce4d355092ef5a8a18f56e8913cf4a201fbe287825b095693c21775826100d6565b5061015e6003556608e1bc9bf040006004556702c68af0bb14000060055564e8d4a51000600755600680546001600160a01b039283166001600160a01b03199182168117909255600880548216909217909155600980549390921692169190911790556101ac565b5f828152602081815260408083206001600160a01b038516845290915281205460ff16610176575f838152602081815260408083206001600160a01b03861684529091529020805460ff1916600117905561012e3390565b6001600160a01b0316826001600160a01b0316847f2f8788117e7eff1d82e926ec794901d17c78024a50270940304540a733656f0d60405160405180910390a4506001610179565b505f5b92915050565b5f6020828403121561018f575f5ffd5b81516001600160a01b03811681146101a5575f5ffd5b9392505050565b61113c806101b95f395ff3fe6080604052600436106101bd575f3560e01c80638456cb59116100f2578063d272e57e11610092578063f1a2de7211610062578063f1a2de72146104d6578063f3fef3a3146104f5578063fa09e63014610514578063fdcdb06b14610533575f5ffd5b8063d272e57e14610464578063d547741f14610479578063eb56b74014610498578063efdcd974146104b7575f5ffd5b806391d14854116100cd57806391d14854146103db5780639619367d1461041d578063a217fddf14610432578063b3f0067414610445575f5ffd5b80638456cb5914610389578063881eff1e1461039d57806388ea41b9146103bc575f5ffd5b80633f4ba83a1161015d5780635e7c5af5116101385780635e7c5af51461032157806364ae4ca61461033657806372229abf14610355578063841e6ce914610374575f5ffd5b80633f4ba83a146102bf57806346008a07146102d35780635c975abb1461030a575f5ffd5b8063278473fd11610198578063278473fd1461024d5780632e5b21681461026c5780632f2ff15d1461028157806336568abe146102a0575f5ffd5b806301ffc9a7146101c85780631d263f67146101fc578063248a9ca314610211575f5ffd5b366101c457005b5f5ffd5b3480156101d3575f5ffd5b506101e76101e2366004610f59565b610547565b60405190151581526020015b60405180910390f35b61020f61020a366004610f9f565b6105df565b005b34801561021c575f5ffd5b5061023f61022b366004610fbe565b5f9081526020819052604090206001015490565b6040519081526020016101f3565b348015610258575f5ffd5b5061020f610267366004610fbe565b6108a1565b348015610277575f5ffd5b5061023f60055481565b34801561028c575f5ffd5b5061020f61029b366004610ff0565b6108be565b3480156102ab575f5ffd5b5061020f6102ba366004610ff0565b6108e8565b3480156102ca575f5ffd5b5061020f610939565b3480156102de575f5ffd5b506008546102f2906001600160a01b031681565b6040516001600160a01b0390911681526020016101f3565b348015610315575f5ffd5b5060015460ff166101e7565b34801561032c575f5ffd5b5061023f60075481565b348015610341575f5ffd5b5061020f61035036600461101a565b610963565b348015610360575f5ffd5b5061020f61036f366004610fbe565b6109aa565b34801561037f575f5ffd5b5061023f60035481565b348015610394575f5ffd5b5061020f6109c7565b3480156103a8575f5ffd5b5061020f6103b7366004610fbe565b6109ee565b3480156103c7575f5ffd5b5061020f6103d6366004610fbe565b610a4b565b3480156103e6575f5ffd5b506101e76103f5366004610ff0565b5f918252602082815260408084206001600160a01b0393909316845291905290205460ff1690565b348015610428575f5ffd5b5061023f60045481565b34801561043d575f5ffd5b5061023f5f81565b348015610450575f5ffd5b506006546102f2906001600160a01b031681565b34801561046f575f5ffd5b5061023f60025481565b348015610484575f5ffd5b5061020f610493366004610ff0565b610aa8565b3480156104a3575f5ffd5b506009546102f2906001600160a01b031681565b3480156104c2575f5ffd5b5061020f6104d136600461101a565b610acc565b3480156104e1575f5ffd5b5061020f6104f036600461101a565b610b13565b348015610500575f5ffd5b5061020f61050f366004611033565b610b5a565b34801561051f575f5ffd5b5061020f61052e36600461101a565b610bff565b34801561053e575f5ffd5b5061023f600181565b5f7fffffffff0000000000000000000000000000000000000000000000000000000082167f7965db0b0000000000000000000000000000000000000000000000000000000014806105d957507f01ffc9a7000000000000000000000000000000000000000000000000000000007fffffffff000000000000000000000000000000000000000000000000000000008316145b92915050565b6105e7610c4a565b60075433905f906105f8903461106f565b90505f60035461271061060b9190611082565b61061761271084611095565b61062191906110c0565b9050600454811015801561063757506005548111155b6106765760405162461bcd60e51b815260206004820152600b60248201526a1a5b9d985b1a590818995d60aa1b60448201526064015b60405180910390fd5b5f610682826002611095565b9050804710156106d45760405162461bcd60e51b815260206004820152601460248201527f686f757365206f7574206f662062616c616e6365000000000000000000000000604482015260640161066d565b5f6106df838561106f565b905060025460016106f09190611082565b6002556008546007546040516001600160a01b039092169181156108fc0291905f818181858888f1935050505015801561072c573d5f5f3e3d5ffd5b506006546040516001600160a01b039091169082156108fc029083905f818181858888f19350505050158015610764573d5f5f3e3d5ffd5b505f61076e610c89565b9050801515871515145f81156107bf576040516001600160a01b0389169086156108fc029087905f818181858888f193505050501580156107b1573d5f5f3e3d5ffd5b506107bc348661106f565b90505b6009546040517f5f4717fe0000000000000000000000000000000000000000000000000000000081526001600482015233602482015260448101839052606481018890526001600160a01b0390911690635f4717fe906084015f604051808303815f87803b15801561082f575f5ffd5b505af1158015610841573d5f5f3e3d5ffd5b505060408051898152602081018890526001600160a01b038c1681830152851515606082015290517fcc5cf3d528e4b3b09beb3b4be3d58bfee685d4b6099aacb6fb4ce84898ed55619350908190036080019150a1505050505050505050565b5f5160206110e75f395f51905f526108b881610cef565b50600755565b5f828152602081905260409020600101546108d881610cef565b6108e28383610cf9565b50505050565b6001600160a01b038116331461092a576040517f6697b23200000000000000000000000000000000000000000000000000000000815260040160405180910390fd5b6109348282610da0565b505050565b5f5160206110e75f395f51905f5261095081610cef565b610958610e21565b610960610e5d565b50565b5f5160206110e75f395f51905f5261097a81610cef565b506008805473ffffffffffffffffffffffffffffffffffffffff19166001600160a01b0392909216919091179055565b5f5160206110e75f395f51905f526109c181610cef565b50600355565b5f5160206110e75f395f51905f526109de81610cef565b6109e6610c4a565b610960610eaf565b5f5160206110e75f395f51905f52610a0581610cef565b600454821015610a455760405162461bcd60e51b815260206004820152600b60248201526a1a5b9d985b1a590818995d60aa1b604482015260640161066d565b50600555565b5f5160206110e75f395f51905f52610a6281610cef565b600554821115610aa25760405162461bcd60e51b815260206004820152600b60248201526a1a5b9d985b1a590818995d60aa1b604482015260640161066d565b50600455565b5f82815260208190526040902060010154610ac281610cef565b6108e28383610da0565b5f5160206110e75f395f51905f52610ae381610cef565b506006805473ffffffffffffffffffffffffffffffffffffffff19166001600160a01b0392909216919091179055565b5f5160206110e75f395f51905f52610b2a81610cef565b506009805473ffffffffffffffffffffffffffffffffffffffff19166001600160a01b0392909216919091179055565b5f5160206110e75f395f51905f52610b7181610cef565b4780831115610bc25760405162461bcd60e51b815260206004820152600e60248201527f696e76616c696420616d6f756e74000000000000000000000000000000000000604482015260640161066d565b60405184906001600160a01b0382169085156108fc029086905f818181858888f19350505050158015610bf7573d5f5f3e3d5ffd5b505050505050565b5f5160206110e75f395f51905f52610c1681610cef565b60405182906001600160a01b038216904780156108fc02915f818181858888f193505050501580156108e2573d5f5f3e3d5ffd5b60015460ff1615610c87576040517fd93c066500000000000000000000000000000000000000000000000000000000815260040160405180910390fd5b565b5f5f424433604051602001610cc393929190928352602083019190915260601b6bffffffffffffffffffffffff1916604082015260540190565b60408051601f1981840301815291905280516020909101209050610ce86002826110d3565b1592915050565b6109608133610eea565b5f828152602081815260408083206001600160a01b038516845290915281205460ff16610d99575f838152602081815260408083206001600160a01b03861684529091529020805460ff19166001179055610d513390565b6001600160a01b0316826001600160a01b0316847f2f8788117e7eff1d82e926ec794901d17c78024a50270940304540a733656f0d60405160405180910390a45060016105d9565b505f6105d9565b5f828152602081815260408083206001600160a01b038516845290915281205460ff1615610d99575f838152602081815260408083206001600160a01b0386168085529252808320805460ff1916905551339286917ff6391f5c32d9c69d2a47ea670b442974b53935d1edc7fd64eb21e047a839171b9190a45060016105d9565b60015460ff16610c87576040517f8dfc202b00000000000000000000000000000000000000000000000000000000815260040160405180910390fd5b610e65610e21565b6001805460ff191690557f5db9ee0a495bf2e6ff9c91a7834c1ba4fdd244a5e8aa4e537bd38aeae4b073aa335b6040516001600160a01b03909116815260200160405180910390a1565b610eb7610c4a565b6001805460ff1916811790557f62e78cea01bee320cd4e420270b5ea74000d11b0c9f74754ebdbfc544b05a25833610e92565b5f828152602081815260408083206001600160a01b038516845290915290205460ff16610f55576040517fe2517d3f0000000000000000000000000000000000000000000000000000000081526001600160a01b03821660048201526024810183905260440161066d565b5050565b5f60208284031215610f69575f5ffd5b81357fffffffff0000000000000000000000000000000000000000000000000000000081168114610f98575f5ffd5b9392505050565b5f60208284031215610faf575f5ffd5b81358015158114610f98575f5ffd5b5f60208284031215610fce575f5ffd5b5035919050565b80356001600160a01b0381168114610feb575f5ffd5b919050565b5f5f60408385031215611001575f5ffd5b8235915061101160208401610fd5565b90509250929050565b5f6020828403121561102a575f5ffd5b610f9882610fd5565b5f5f60408385031215611044575f5ffd5b61104d83610fd5565b946020939093013593505050565b634e487b7160e01b5f52601160045260245ffd5b818103818111156105d9576105d961105b565b808201808211156105d9576105d961105b565b80820281158282048414176105d9576105d961105b565b634e487b7160e01b5f52601260045260245ffd5b5f826110ce576110ce6110ac565b500490565b5f826110e1576110e16110ac565b50069056fea49807205ce4d355092ef5a8a18f56e8913cf4a201fbe287825b095693c21775a26469706673582212202fff55f38ffd665d64613b7fb63c3756fb2f87a6c9afc2b4a6661ec5fe8e0cfc64736f6c634300081c0033",
  "devdoc": {
    "errors": {
      "AccessControlBadConfirmation()": [
        {
          "details": "The caller of a function is not the expected one. NOTE: Don't confuse with {AccessControlUnauthorizedAccount}."
        }
      ],
      "AccessControlUnauthorizedAccount(address,bytes32)": [
        {
          "details": "The `account` is missing a role."
        }
      ],
      "EnforcedPause()": [
        {
          "details": "The operation failed because the contract is paused."
        }
      ],
      "ExpectedPause()": [
        {
          "details": "The operation failed because the contract is not paused."
        }
      ]
    },
    "events": {
      "Paused(address)": {
        "details": "Emitted when the pause is triggered by `account`."
      },
      "RoleAdminChanged(bytes32,bytes32,bytes32)": {
        "details": "Emitted when `newAdminRole` is set as ``role``'s admin role, replacing `previousAdminRole` `DEFAULT_ADMIN_ROLE` is the starting admin for all roles, despite {RoleAdminChanged} not being emitted signaling this."
      },
      "RoleGranted(bytes32,address,address)": {
        "details": "Emitted when `account` is granted `role`. `sender` is the account that originated the contract call. This account bears the admin role (for the granted role). Expected in cases where the role was granted using the internal {AccessControl-_grantRole}."
      },
      "RoleRevoked(bytes32,address,address)": {
        "details": "Emitted when `account` is revoked `role`. `sender` is the account that originated the contract call:   - if using `revokeRole`, it is the admin role bearer   - if using `renounceRole`, it is the role bearer (i.e. `account`)"
      },
      "Unpaused(address)": {
        "details": "Emitted when the pause is lifted by `account`."
      }
    },
    "kind": "dev",
    "methods": {
      "getRoleAdmin(bytes32)": {
        "details": "Returns the admin role that controls `role`. See {grantRole} and {revokeRole}. To change a role's admin, use {_setRoleAdmin}."
      },
      "grantRole(bytes32,address)": {
        "details": "Grants `role` to `account`. If `account` had not been already granted `role`, emits a {RoleGranted} event. Requirements: - the caller must have ``role``'s admin role. May emit a {RoleGranted} event."
      },
      "hasRole(bytes32,address)": {
        "details": "Returns `true` if `account` has been granted `role`."
      },
      "pause()": {
        "details": "called by the owner to pause, triggers stopped state"
      },
      "paused()": {
        "details": "Returns true if the contract is paused, and false otherwise."
      },
      "renounceRole(bytes32,address)": {
        "details": "Revokes `role` from the calling account. Roles are often managed via {grantRole} and {revokeRole}: this function's purpose is to provide a mechanism for accounts to lose their privileges if they are compromised (such as when a trusted device is misplaced). If the calling account had been revoked `role`, emits a {RoleRevoked} event. Requirements: - the caller must be `callerConfirmation`. May emit a {RoleRevoked} event."
      },
      "revokeRole(bytes32,address)": {
        "details": "Revokes `role` from `account`. If `account` had been granted `role`, emits a {RoleRevoked} event. Requirements: - the caller must have ``role``'s admin role. May emit a {RoleRevoked} event."
      },
      "supportsInterface(bytes4)": {
        "details": "See {IERC165-supportsInterface}."
      },
      "unpause()": {
        "details": "called by the owner to unpause, returns to normal state"
      }
    },
    "version": 1
  },
  "userdoc": {
    "kind": "user",
    "methods": {
      "totalGame()": {
        "notice": "Storages"
      }
    },
    "version": 1
  },
  "storageLayout": {
    "storage": [
      {
        "astId": 26,
        "contract": "contracts/CoinFlip/CoinFlip.sol:CoinFlip",
        "label": "_roles",
        "offset": 0,
        "slot": "0",
        "type": "t_mapping(t_bytes32,t_struct(RoleData)21_storage)"
      },
      {
        "astId": 417,
        "contract": "contracts/CoinFlip/CoinFlip.sol:CoinFlip",
        "label": "_paused",
        "offset": 0,
        "slot": "1",
        "type": "t_bool"
      },
      {
        "astId": 585,
        "contract": "contracts/CoinFlip/CoinFlip.sol:CoinFlip",
        "label": "totalGame",
        "offset": 0,
        "slot": "2",
        "type": "t_uint256"
      },
      {
        "astId": 587,
        "contract": "contracts/CoinFlip/CoinFlip.sol:CoinFlip",
        "label": "betFee",
        "offset": 0,
        "slot": "3",
        "type": "t_uint256"
      },
      {
        "astId": 589,
        "contract": "contracts/CoinFlip/CoinFlip.sol:CoinFlip",
        "label": "minBet",
        "offset": 0,
        "slot": "4",
        "type": "t_uint256"
      },
      {
        "astId": 591,
        "contract": "contracts/CoinFlip/CoinFlip.sol:CoinFlip",
        "label": "maxBet",
        "offset": 0,
        "slot": "5",
        "type": "t_uint256"
      },
      {
        "astId": 593,
        "contract": "contracts/CoinFlip/CoinFlip.sol:CoinFlip",
        "label": "feeReceiver",
        "offset": 0,
        "slot": "6",
        "type": "t_address"
      },
      {
        "astId": 595,
        "contract": "contracts/CoinFlip/CoinFlip.sol:CoinFlip",
        "label": "govFee",
        "offset": 0,
        "slot": "7",
        "type": "t_uint256"
      },
      {
        "astId": 597,
        "contract": "contracts/CoinFlip/CoinFlip.sol:CoinFlip",
        "label": "govAddress",
        "offset": 0,
        "slot": "8",
        "type": "t_address"
      },
      {
        "astId": 599,
        "contract": "contracts/CoinFlip/CoinFlip.sol:CoinFlip",
        "label": "leaderboard",
        "offset": 0,
        "slot": "9",
        "type": "t_address"
      }
    ],
    "types": {
      "t_address": {
        "encoding": "inplace",
        "label": "address",
        "numberOfBytes": "20"
      },
      "t_bool": {
        "encoding": "inplace",
        "label": "bool",
        "numberOfBytes": "1"
      },
      "t_bytes32": {
        "encoding": "inplace",
        "label": "bytes32",
        "numberOfBytes": "32"
      },
      "t_mapping(t_address,t_bool)": {
        "encoding": "mapping",
        "key": "t_address",
        "label": "mapping(address => bool)",
        "numberOfBytes": "32",
        "value": "t_bool"
      },
      "t_mapping(t_bytes32,t_struct(RoleData)21_storage)": {
        "encoding": "mapping",
        "key": "t_bytes32",
        "label": "mapping(bytes32 => struct AccessControl.RoleData)",
        "numberOfBytes": "32",
        "value": "t_struct(RoleData)21_storage"
      },
      "t_struct(RoleData)21_storage": {
        "encoding": "inplace",
        "label": "struct AccessControl.RoleData",
        "members": [
          {
            "astId": 18,
            "contract": "contracts/CoinFlip/CoinFlip.sol:CoinFlip",
            "label": "hasRole",
            "offset": 0,
            "slot": "0",
            "type": "t_mapping(t_address,t_bool)"
          },
          {
            "astId": 20,
            "contract": "contracts/CoinFlip/CoinFlip.sol:CoinFlip",
            "label": "adminRole",
            "offset": 0,
            "slot": "1",
            "type": "t_bytes32"
          }
        ],
        "numberOfBytes": "64"
      },
      "t_uint256": {
        "encoding": "inplace",
        "label": "uint256",
        "numberOfBytes": "32"
      }
    }
  }
}