{
  "address": "0x7e42a122Ae5854CA3DB123D75630582159c85E83",
  "abi": [
    {
      "inputs": [
        {
          "internalType": "address",
          "name": "leaderboard_",
          "type": "address"
        }
      ],
      "stateMutability": "nonpayable",
      "type": "constructor"
    },
    {
      "inputs": [],
      "name": "AccessControlBadConfirmation",
      "type": "error"
    },
    {
      "inputs": [
        {
          "internalType": "address",
          "name": "account",
          "type": "address"
        },
        {
          "internalType": "bytes32",
          "name": "neededRole",
          "type": "bytes32"
        }
      ],
      "name": "AccessControlUnauthorizedAccount",
      "type": "error"
    },
    {
      "inputs": [],
      "name": "EnforcedPause",
      "type": "error"
    },
    {
      "inputs": [],
      "name": "ExpectedPause",
      "type": "error"
    },
    {
      "anonymous": false,
      "inputs": [
        {
          "indexed": false,
          "internalType": "uint256",
          "name": "betAmount",
          "type": "uint256"
        },
        {
          "indexed": false,
          "internalType": "uint256",
          "name": "fee",
          "type": "uint256"
        },
        {
          "indexed": false,
          "internalType": "address",
          "name": "user",
          "type": "address"
        },
        {
          "indexed": false,
          "internalType": "bool",
          "name": "isWin",
          "type": "bool"
        }
      ],
      "name": "Game",
      "type": "event"
    },
    {
      "anonymous": false,
      "inputs": [
        {
          "indexed": false,
          "internalType": "address",
          "name": "account",
          "type": "address"
        }
      ],
      "name": "Paused",
      "type": "event"
    },
    {
      "anonymous": false,
      "inputs": [
        {
          "indexed": true,
          "internalType": "bytes32",
          "name": "role",
          "type": "bytes32"
        },
        {
          "indexed": true,
          "internalType": "bytes32",
          "name": "previousAdminRole",
          "type": "bytes32"
        },
        {
          "indexed": true,
          "internalType": "bytes32",
          "name": "newAdminRole",
          "type": "bytes32"
        }
      ],
      "name": "RoleAdminChanged",
      "type": "event"
    },
    {
      "anonymous": false,
      "inputs": [
        {
          "indexed": true,
          "internalType": "bytes32",
          "name": "role",
          "type": "bytes32"
        },
        {
          "indexed": true,
          "internalType": "address",
          "name": "account",
          "type": "address"
        },
        {
          "indexed": true,
          "internalType": "address",
          "name": "sender",
          "type": "address"
        }
      ],
      "name": "RoleGranted",
      "type": "event"
    },
    {
      "anonymous": false,
      "inputs": [
        {
          "indexed": true,
          "internalType": "bytes32",
          "name": "role",
          "type": "bytes32"
        },
        {
          "indexed": true,
          "internalType": "address",
          "name": "account",
          "type": "address"
        },
        {
          "indexed": true,
          "internalType": "address",
          "name": "sender",
          "type": "address"
        }
      ],
      "name": "RoleRevoked",
      "type": "event"
    },
    {
      "anonymous": false,
      "inputs": [
        {
          "indexed": false,
          "internalType": "address",
          "name": "account",
          "type": "address"
        }
      ],
      "name": "Unpaused",
      "type": "event"
    },
    {
      "inputs": [],
      "name": "DEFAULT_ADMIN_ROLE",
      "outputs": [
        {
          "internalType": "bytes32",
          "name": "",
          "type": "bytes32"
        }
      ],
      "stateMutability": "view",
      "type": "function"
    },
    {
      "inputs": [],
      "name": "GAME_ID",
      "outputs": [
        {
          "internalType": "uint256",
          "name": "",
          "type": "uint256"
        }
      ],
      "stateMutability": "view",
      "type": "function"
    },
    {
      "inputs": [
        {
          "internalType": "uint64",
          "name": "multiplier",
          "type": "uint64"
        }
      ],
      "name": "_calculateBetArray",
      "outputs": [
        {
          "internalType": "uint64",
          "name": "winRate",
          "type": "uint64"
        },
        {
          "internalType": "uint64",
          "name": "totalRate",
          "type": "uint64"
        }
      ],
      "stateMutability": "pure",
      "type": "function"
    },
    {
      "inputs": [],
      "name": "betFee",
      "outputs": [
        {
          "internalType": "uint256",
          "name": "",
          "type": "uint256"
        }
      ],
      "stateMutability": "view",
      "type": "function"
    },
    {
      "inputs": [
        {
          "internalType": "uint64",
          "name": "multiplier",
          "type": "uint64"
        }
      ],
      "name": "crash",
      "outputs": [],
      "stateMutability": "payable",
      "type": "function"
    },
    {
      "inputs": [],
      "name": "feeReceiver",
      "outputs": [
        {
          "internalType": "address",
          "name": "",
          "type": "address"
        }
      ],
      "stateMutability": "view",
      "type": "function"
    },
    {
      "inputs": [
        {
          "internalType": "bytes32",
          "name": "role",
          "type": "bytes32"
        }
      ],
      "name": "getRoleAdmin",
      "outputs": [
        {
          "internalType": "bytes32",
          "name": "",
          "type": "bytes32"
        }
      ],
      "stateMutability": "view",
      "type": "function"
    },
    {
      "inputs": [],
      "name": "govAddress",
      "outputs": [
        {
          "internalType": "address",
          "name": "",
          "type": "address"
        }
      ],
      "stateMutability": "view",
      "type": "function"
    },
    {
      "inputs": [],
      "name": "govFee",
      "outputs": [
        {
          "internalType": "uint256",
          "name": "",
          "type": "uint256"
        }
      ],
      "stateMutability": "view",
      "type": "function"
    },
    {
      "inputs": [
        {
          "internalType": "bytes32",
          "name": "role",
          "type": "bytes32"
        },
        {
          "internalType": "address",
          "name": "account",
          "type": "address"
        }
      ],
      "name": "grantRole",
      "outputs": [],
      "stateMutability": "nonpayable",
      "type": "function"
    },
    {
      "inputs": [
        {
          "internalType": "bytes32",
          "name": "role",
          "type": "bytes32"
        },
        {
          "internalType": "address",
          "name": "account",
          "type": "address"
        }
      ],
      "name": "hasRole",
      "outputs": [
        {
          "internalType": "bool",
          "name": "",
          "type": "bool"
        }
      ],
      "stateMutability": "view",
      "type": "function"
    },
    {
      "inputs": [],
      "name": "leaderboard",
      "outputs": [
        {
          "internalType": "address",
          "name": "",
          "type": "address"
        }
      ],
      "stateMutability": "view",
      "type": "function"
    },
    {
      "inputs": [],
      "name": "maxBet",
      "outputs": [
        {
          "internalType": "uint256",
          "name": "",
          "type": "uint256"
        }
      ],
      "stateMutability": "view",
      "type": "function"
    },
    {
      "inputs": [],
      "name": "minBet",
      "outputs": [
        {
          "internalType": "uint256",
          "name": "",
          "type": "uint256"
        }
      ],
      "stateMutability": "view",
      "type": "function"
    },
    {
      "inputs": [],
      "name": "pause",
      "outputs": [],
      "stateMutability": "nonpayable",
      "type": "function"
    },
    {
      "inputs": [],
      "name": "paused",
      "outputs": [
        {
          "internalType": "bool",
          "name": "",
          "type": "bool"
        }
      ],
      "stateMutability": "view",
      "type": "function"
    },
    {
      "inputs": [
        {
          "internalType": "bytes32",
          "name": "role",
          "type": "bytes32"
        },
        {
          "internalType": "address",
          "name": "callerConfirmation",
          "type": "address"
        }
      ],
      "name": "renounceRole",
      "outputs": [],
      "stateMutability": "nonpayable",
      "type": "function"
    },
    {
      "inputs": [
        {
          "internalType": "bytes32",
          "name": "role",
          "type": "bytes32"
        },
        {
          "internalType": "address",
          "name": "account",
          "type": "address"
        }
      ],
      "name": "revokeRole",
      "outputs": [],
      "stateMutability": "nonpayable",
      "type": "function"
    },
    {
      "inputs": [
        {
          "internalType": "uint256",
          "name": "val",
          "type": "uint256"
        }
      ],
      "name": "setBetFee",
      "outputs": [],
      "stateMutability": "nonpayable",
      "type": "function"
    },
    {
      "inputs": [
        {
          "internalType": "address",
          "name": "receiver",
          "type": "address"
        }
      ],
      "name": "setFeeReceiver",
      "outputs": [],
      "stateMutability": "nonpayable",
      "type": "function"
    },
    {
      "inputs": [
        {
          "internalType": "address",
          "name": "gov",
          "type": "address"
        }
      ],
      "name": "setGovAddress",
      "outputs": [],
      "stateMutability": "nonpayable",
      "type": "function"
    },
    {
      "inputs": [
        {
          "internalType": "uint256",
          "name": "val",
          "type": "uint256"
        }
      ],
      "name": "setGovFee",
      "outputs": [],
      "stateMutability": "nonpayable",
      "type": "function"
    },
    {
      "inputs": [
        {
          "internalType": "address",
          "name": "leaderboard_",
          "type": "address"
        }
      ],
      "name": "setLeaderboard",
      "outputs": [],
      "stateMutability": "nonpayable",
      "type": "function"
    },
    {
      "inputs": [
        {
          "internalType": "uint256",
          "name": "val",
          "type": "uint256"
        }
      ],
      "name": "setMaxBet",
      "outputs": [],
      "stateMutability": "nonpayable",
      "type": "function"
    },
    {
      "inputs": [
        {
          "internalType": "uint256",
          "name": "val",
          "type": "uint256"
        }
      ],
      "name": "setMinBet",
      "outputs": [],
      "stateMutability": "nonpayable",
      "type": "function"
    },
    {
      "inputs": [
        {
          "internalType": "bytes4",
          "name": "interfaceId",
          "type": "bytes4"
        }
      ],
      "name": "supportsInterface",
      "outputs": [
        {
          "internalType": "bool",
          "name": "",
          "type": "bool"
        }
      ],
      "stateMutability": "view",
      "type": "function"
    },
    {
      "inputs": [],
      "name": "totalGame",
      "outputs": [
        {
          "internalType": "uint256",
          "name": "",
          "type": "uint256"
        }
      ],
      "stateMutability": "view",
      "type": "function"
    },
    {
      "inputs": [],
      "name": "unpause",
      "outputs": [],
      "stateMutability": "nonpayable",
      "type": "function"
    },
    {
      "inputs": [
        {
          "internalType": "address",
          "name": "addr",
          "type": "address"
        },
        {
          "internalType": "uint256",
          "name": "amount",
          "type": "uint256"
        }
      ],
      "name": "withdraw",
      "outputs": [],
      "stateMutability": "nonpayable",
      "type": "function"
    },
    {
      "inputs": [
        {
          "internalType": "address",
          "name": "addr",
          "type": "address"
        }
      ],
      "name": "withdrawAll",
      "outputs": [],
      "stateMutability": "nonpayable",
      "type": "function"
    },
    {
      "stateMutability": "payable",
      "type": "receive"
    }
  ],
  "transactionHash": "0x21f22f08a6239ee9c90fce1a4fa65bdca1f4438984cb27f70befe0feef2d0718",
  "args": [
    "0x2B9F74dDBb50dcad06532c3587CD4dbD73f1Ad57"
  ],
  "numDeployments": 1,
  "solcInputHash": "e9ca70e6a31db82f20c7d1fa39b415cc",
  "bytecode": "0x608060405234801561000f575f5ffd5b506040516115de3803806115de83398101604081905261002e91610180565b6001805460ff19169055336100435f826100d7565b5061006e7fa49807205ce4d355092ef5a8a18f56e8913cf4a201fbe287825b095693c21775826100d7565b5061015e6003556658d15e17628000600455671bc16d674ec800006005556509184e72a000600755600680546001600160a01b039283166001600160a01b03199182168117909255600880548216909217909155600980549390921692169190911790556101ad565b5f828152602081815260408083206001600160a01b038516845290915281205460ff16610177575f838152602081815260408083206001600160a01b03861684529091529020805460ff1916600117905561012f3390565b6001600160a01b0316826001600160a01b0316847f2f8788117e7eff1d82e926ec794901d17c78024a50270940304540a733656f0d60405160405180910390a450600161017a565b505f5b92915050565b5f60208284031215610190575f5ffd5b81516001600160a01b03811681146101a6575f5ffd5b9392505050565b611424806101ba5f395ff3fe6080604052600436106101c8575f3560e01c8063881eff1e116100f2578063d272e57e11610092578063f1a2de7211610062578063f1a2de7214610521578063f3fef3a314610540578063fa09e6301461055f578063fdcdb06b1461057e575f5ffd5b8063d272e57e146104af578063d547741f146104c4578063eb56b740146104e3578063efdcd97414610502575f5ffd5b80639619367d116100cd5780639619367d14610455578063a217fddf1461046a578063b3f006741461047d578063bfcd9bdc1461049c575f5ffd5b8063881eff1e146103d557806388ea41b9146103f457806391d1485414610413575f5ffd5b806342f105a41161016857806364ae4ca61161013857806364ae4ca61461036e57806372229abf1461038d578063841e6ce9146103ac5780638456cb59146103c1575f5ffd5b806342f105a4146102cb57806346008a071461030b5780635c975abb146103425780635e7c5af514610359575f5ffd5b80632e5b2168116101a35780632e5b2168146102645780632f2ff15d1461027957806336568abe146102985780633f4ba83a146102b7575f5ffd5b806301ffc9a7146101d3578063248a9ca314610207578063278473fd14610243575f5ffd5b366101cf57005b5f5ffd5b3480156101de575f5ffd5b506101f26101ed3660046111c4565b610592565b60405190151581526020015b60405180910390f35b348015610212575f5ffd5b5061023561022136600461120a565b5f9081526020819052604090206001015490565b6040519081526020016101fe565b34801561024e575f5ffd5b5061026261025d36600461120a565b61062a565b005b34801561026f575f5ffd5b5061023560055481565b348015610284575f5ffd5b5061026261029336600461123c565b61065a565b3480156102a3575f5ffd5b506102626102b236600461123c565b610684565b3480156102c2575f5ffd5b506102626106d5565b3480156102d6575f5ffd5b506102ea6102e5366004611266565b610712565b6040805167ffffffffffffffff9384168152929091166020830152016101fe565b348015610316575f5ffd5b5060085461032a906001600160a01b031681565b6040516001600160a01b0390911681526020016101fe565b34801561034d575f5ffd5b5060015460ff166101f2565b348015610364575f5ffd5b5061023560075481565b348015610379575f5ffd5b5061026261038836600461128d565b6107a5565b348015610398575f5ffd5b506102626103a736600461120a565b6107ff565b3480156103b7575f5ffd5b5061023560035481565b3480156103cc575f5ffd5b5061026261082f565b3480156103e0575f5ffd5b506102626103ef36600461120a565b610869565b3480156103ff575f5ffd5b5061026261040e36600461120a565b6108de565b34801561041e575f5ffd5b506101f261042d36600461123c565b5f918252602082815260408084206001600160a01b0393909316845291905290205460ff1690565b348015610460575f5ffd5b5061023560045481565b348015610475575f5ffd5b506102355f81565b348015610488575f5ffd5b5060065461032a906001600160a01b031681565b6102626104aa366004611266565b61094e565b3480156104ba575f5ffd5b5061023560025481565b3480156104cf575f5ffd5b506102626104de36600461123c565b610cd5565b3480156104ee575f5ffd5b5060095461032a906001600160a01b031681565b34801561050d575f5ffd5b5061026261051c36600461128d565b610cf9565b34801561052c575f5ffd5b5061026261053b36600461128d565b610d53565b34801561054b575f5ffd5b5061026261055a3660046112a6565b610dad565b34801561056a575f5ffd5b5061026261057936600461128d565b610e65565b348015610589575f5ffd5b50610235600281565b5f7fffffffff0000000000000000000000000000000000000000000000000000000082167f7965db0b00000000000000000000000000000000000000000000000000000000148061062457507f01ffc9a7000000000000000000000000000000000000000000000000000000007fffffffff000000000000000000000000000000000000000000000000000000008316145b92915050565b7fa49807205ce4d355092ef5a8a18f56e8913cf4a201fbe287825b095693c2177561065481610ec3565b50600755565b5f8281526020819052604090206001015461067481610ec3565b61067e8383610ecd565b50505050565b6001600160a01b03811633146106c6576040517f6697b23200000000000000000000000000000000000000000000000000000000815260040160405180910390fd5b6106d08282610f74565b505050565b7fa49807205ce4d355092ef5a8a18f56e8913cf4a201fbe287825b095693c217756106ff81610ec3565b610707610ff5565b61070f611033565b50565b5f80806107206064856112e2565b90508067ffffffffffffffff1660190361073d5760049250610778565b8067ffffffffffffffff166032036107585760029250610778565b8067ffffffffffffffff16604b036107735760049250610778565b600192505b5f6107838486611325565b9050606461079282606361134f565b61079c919061136f565b92505050915091565b7fa49807205ce4d355092ef5a8a18f56e8913cf4a201fbe287825b095693c217756107cf81610ec3565b506008805473ffffffffffffffffffffffffffffffffffffffff19166001600160a01b0392909216919091179055565b7fa49807205ce4d355092ef5a8a18f56e8913cf4a201fbe287825b095693c2177561082981610ec3565b50600355565b7fa49807205ce4d355092ef5a8a18f56e8913cf4a201fbe287825b095693c2177561085981610ec3565b610861611085565b61070f6110c2565b7fa49807205ce4d355092ef5a8a18f56e8913cf4a201fbe287825b095693c2177561089381610ec3565b6004548210156108d85760405162461bcd60e51b815260206004820152600b60248201526a1a5b9d985b1a590818995d60aa1b60448201526064015b60405180910390fd5b50600555565b7fa49807205ce4d355092ef5a8a18f56e8913cf4a201fbe287825b095693c2177561090881610ec3565b6005548211156109485760405162461bcd60e51b815260206004820152600b60248201526a1a5b9d985b1a590818995d60aa1b60448201526064016108cf565b50600455565b610956611085565b60648167ffffffffffffffff1611801561097b57506127108167ffffffffffffffff16105b8015610999575061098d6019826112e2565b67ffffffffffffffff16155b6109e55760405162461bcd60e51b815260206004820152601260248201527f696e76616c6964206d756c7469706c696572000000000000000000000000000060448201526064016108cf565b60075433905f906109f6903461139e565b90505f600354612710610a0991906113b1565b610a15612710846113c4565b610a1f91906113db565b90506004548110158015610a3557506005548111155b610a6f5760405162461bcd60e51b815260206004820152600b60248201526a1a5b9d985b1a590818995d60aa1b60448201526064016108cf565b5f610a7a828461139e565b90506002546001610a8b91906113b1565b6002556008546007546040516001600160a01b039092169181156108fc0291905f818181858888f19350505050158015610ac7573d5f5f3e3d5ffd5b506006546040516001600160a01b039091169082156108fc029083905f818181858888f19350505050158015610aff573d5f5f3e3d5ffd5b505f6064610b178467ffffffffffffffff89166113c4565b610b2191906113db565b905080471015610b735760405162461bcd60e51b815260206004820152601460248201527f686f757365206f7574206f662062616c616e636500000000000000000000000060448201526064016108cf565b5f5f610b7e88610712565b915091505f610b8b6110fd565b9050610b9782826112e2565b905067ffffffffffffffff808416908216105f8115610bf1576040516001600160a01b038b169087156108fc029088905f818181858888f19350505050158015610be3573d5f5f3e3d5ffd5b50610bee348761139e565b90505b6009546040517f5f4717fe0000000000000000000000000000000000000000000000000000000081526002600482015233602482015260448101839052606481018a90526001600160a01b0390911690635f4717fe906084015f604051808303815f87803b158015610c61575f5ffd5b505af1158015610c73573d5f5f3e3d5ffd5b5050604080518b8152602081018b90526001600160a01b038e1681830152851515606082015290517fcc5cf3d528e4b3b09beb3b4be3d58bfee685d4b6099aacb6fb4ce84898ed55619350908190036080019150a15050505050505050505050565b5f82815260208190526040902060010154610cef81610ec3565b61067e8383610f74565b7fa49807205ce4d355092ef5a8a18f56e8913cf4a201fbe287825b095693c21775610d2381610ec3565b506006805473ffffffffffffffffffffffffffffffffffffffff19166001600160a01b0392909216919091179055565b7fa49807205ce4d355092ef5a8a18f56e8913cf4a201fbe287825b095693c21775610d7d81610ec3565b506009805473ffffffffffffffffffffffffffffffffffffffff19166001600160a01b0392909216919091179055565b7f779b9d7b1cefd23059ce3e2b194efb3183a6685dd830e8cbb723b0cbeb982b28610dd781610ec3565b4780831115610e285760405162461bcd60e51b815260206004820152600e60248201527f696e76616c696420616d6f756e7400000000000000000000000000000000000060448201526064016108cf565b60405184906001600160a01b0382169085156108fc029086905f818181858888f19350505050158015610e5d573d5f5f3e3d5ffd5b505050505050565b7f779b9d7b1cefd23059ce3e2b194efb3183a6685dd830e8cbb723b0cbeb982b28610e8f81610ec3565b60405182906001600160a01b038216904780156108fc02915f818181858888f1935050505015801561067e573d5f5f3e3d5ffd5b61070f8133611155565b5f828152602081815260408083206001600160a01b038516845290915281205460ff16610f6d575f838152602081815260408083206001600160a01b03861684529091529020805460ff19166001179055610f253390565b6001600160a01b0316826001600160a01b0316847f2f8788117e7eff1d82e926ec794901d17c78024a50270940304540a733656f0d60405160405180910390a4506001610624565b505f610624565b5f828152602081815260408083206001600160a01b038516845290915281205460ff1615610f6d575f838152602081815260408083206001600160a01b0386168085529252808320805460ff1916905551339286917ff6391f5c32d9c69d2a47ea670b442974b53935d1edc7fd64eb21e047a839171b9190a4506001610624565b60015460ff16611031576040517f8dfc202b00000000000000000000000000000000000000000000000000000000815260040160405180910390fd5b565b61103b610ff5565b6001805460ff191690557f5db9ee0a495bf2e6ff9c91a7834c1ba4fdd244a5e8aa4e537bd38aeae4b073aa335b6040516001600160a01b03909116815260200160405180910390a1565b60015460ff1615611031576040517fd93c066500000000000000000000000000000000000000000000000000000000815260040160405180910390fd5b6110ca611085565b6001805460ff1916811790557f62e78cea01bee320cd4e420270b5ea74000d11b0c9f74754ebdbfc544b05a25833611068565b5f5f42443360405160200161113793929190928352602083019190915260601b6bffffffffffffffffffffffff1916604082015260540190565b60408051601f19818403018152919052805160209091012092915050565b5f828152602081815260408083206001600160a01b038516845290915290205460ff166111c0576040517fe2517d3f0000000000000000000000000000000000000000000000000000000081526001600160a01b0382166004820152602481018390526044016108cf565b5050565b5f602082840312156111d4575f5ffd5b81357fffffffff0000000000000000000000000000000000000000000000000000000081168114611203575f5ffd5b9392505050565b5f6020828403121561121a575f5ffd5b5035919050565b80356001600160a01b0381168114611237575f5ffd5b919050565b5f5f6040838503121561124d575f5ffd5b8235915061125d60208401611221565b90509250929050565b5f60208284031215611276575f5ffd5b813567ffffffffffffffff81168114611203575f5ffd5b5f6020828403121561129d575f5ffd5b61120382611221565b5f5f604083850312156112b7575f5ffd5b6112c083611221565b946020939093013593505050565b634e487b7160e01b5f52601260045260245ffd5b5f67ffffffffffffffff8316806112fb576112fb6112ce565b8067ffffffffffffffff84160691505092915050565b634e487b7160e01b5f52601160045260245ffd5b67ffffffffffffffff818116838216029081169081811461134857611348611311565b5092915050565b67ffffffffffffffff818116838216019081111561062457610624611311565b5f67ffffffffffffffff831680611388576113886112ce565b8067ffffffffffffffff84160491505092915050565b8181038181111561062457610624611311565b8082018082111561062457610624611311565b808202811582820484141761062457610624611311565b5f826113e9576113e96112ce565b50049056fea2646970667358221220930657203519d8c433e8c9e47e754418f117186b5d9ba0205d2abeaffdd3f2b664736f6c634300081c0033",
  "devdoc": {
    "errors": {
      "AccessControlBadConfirmation()": [
        {
          "details": "The caller of a function is not the expected one. NOTE: Don't confuse with {AccessControlUnauthorizedAccount}."
        }
      ],
      "AccessControlUnauthorizedAccount(address,bytes32)": [
        {
          "details": "The `account` is missing a role."
        }
      ],
      "EnforcedPause()": [
        {
          "details": "The operation failed because the contract is paused."
        }
      ],
      "ExpectedPause()": [
        {
          "details": "The operation failed because the contract is not paused."
        }
      ]
    },
    "events": {
      "Paused(address)": {
        "details": "Emitted when the pause is triggered by `account`."
      },
      "RoleAdminChanged(bytes32,bytes32,bytes32)": {
        "details": "Emitted when `newAdminRole` is set as ``role``'s admin role, replacing `previousAdminRole` `DEFAULT_ADMIN_ROLE` is the starting admin for all roles, despite {RoleAdminChanged} not being emitted signaling this."
      },
      "RoleGranted(bytes32,address,address)": {
        "details": "Emitted when `account` is granted `role`. `sender` is the account that originated the contract call. This account bears the admin role (for the granted role). Expected in cases where the role was granted using the internal {AccessControl-_grantRole}."
      },
      "RoleRevoked(bytes32,address,address)": {
        "details": "Emitted when `account` is revoked `role`. `sender` is the account that originated the contract call:   - if using `revokeRole`, it is the admin role bearer   - if using `renounceRole`, it is the role bearer (i.e. `account`)"
      },
      "Unpaused(address)": {
        "details": "Emitted when the pause is lifted by `account`."
      }
    },
    "kind": "dev",
    "methods": {
      "getRoleAdmin(bytes32)": {
        "details": "Returns the admin role that controls `role`. See {grantRole} and {revokeRole}. To change a role's admin, use {_setRoleAdmin}."
      },
      "grantRole(bytes32,address)": {
        "details": "Grants `role` to `account`. If `account` had not been already granted `role`, emits a {RoleGranted} event. Requirements: - the caller must have ``role``'s admin role. May emit a {RoleGranted} event."
      },
      "hasRole(bytes32,address)": {
        "details": "Returns `true` if `account` has been granted `role`."
      },
      "pause()": {
        "details": "called by the owner to pause, triggers stopped state"
      },
      "paused()": {
        "details": "Returns true if the contract is paused, and false otherwise."
      },
      "renounceRole(bytes32,address)": {
        "details": "Revokes `role` from the calling account. Roles are often managed via {grantRole} and {revokeRole}: this function's purpose is to provide a mechanism for accounts to lose their privileges if they are compromised (such as when a trusted device is misplaced). If the calling account had been revoked `role`, emits a {RoleRevoked} event. Requirements: - the caller must be `callerConfirmation`. May emit a {RoleRevoked} event."
      },
      "revokeRole(bytes32,address)": {
        "details": "Revokes `role` from `account`. If `account` had been granted `role`, emits a {RoleRevoked} event. Requirements: - the caller must have ``role``'s admin role. May emit a {RoleRevoked} event."
      },
      "supportsInterface(bytes4)": {
        "details": "See {IERC165-supportsInterface}."
      },
      "unpause()": {
        "details": "called by the owner to unpause, returns to normal state"
      }
    },
    "version": 1
  },
  "userdoc": {
    "kind": "user",
    "methods": {
      "totalGame()": {
        "notice": "Storages"
      }
    },
    "version": 1
  },
  "storageLayout": {
    "storage": [
      {
        "astId": 26,
        "contract": "contracts/Crash/Crash.sol:Crash",
        "label": "_roles",
        "offset": 0,
        "slot": "0",
        "type": "t_mapping(t_bytes32,t_struct(RoleData)21_storage)"
      },
      {
        "astId": 417,
        "contract": "contracts/Crash/Crash.sol:Crash",
        "label": "_paused",
        "offset": 0,
        "slot": "1",
        "type": "t_bool"
      },
      {
        "astId": 1065,
        "contract": "contracts/Crash/Crash.sol:Crash",
        "label": "totalGame",
        "offset": 0,
        "slot": "2",
        "type": "t_uint256"
      },
      {
        "astId": 1067,
        "contract": "contracts/Crash/Crash.sol:Crash",
        "label": "betFee",
        "offset": 0,
        "slot": "3",
        "type": "t_uint256"
      },
      {
        "astId": 1069,
        "contract": "contracts/Crash/Crash.sol:Crash",
        "label": "minBet",
        "offset": 0,
        "slot": "4",
        "type": "t_uint256"
      },
      {
        "astId": 1071,
        "contract": "contracts/Crash/Crash.sol:Crash",
        "label": "maxBet",
        "offset": 0,
        "slot": "5",
        "type": "t_uint256"
      },
      {
        "astId": 1073,
        "contract": "contracts/Crash/Crash.sol:Crash",
        "label": "feeReceiver",
        "offset": 0,
        "slot": "6",
        "type": "t_address"
      },
      {
        "astId": 1075,
        "contract": "contracts/Crash/Crash.sol:Crash",
        "label": "govFee",
        "offset": 0,
        "slot": "7",
        "type": "t_uint256"
      },
      {
        "astId": 1077,
        "contract": "contracts/Crash/Crash.sol:Crash",
        "label": "govAddress",
        "offset": 0,
        "slot": "8",
        "type": "t_address"
      },
      {
        "astId": 1079,
        "contract": "contracts/Crash/Crash.sol:Crash",
        "label": "leaderboard",
        "offset": 0,
        "slot": "9",
        "type": "t_address"
      }
    ],
    "types": {
      "t_address": {
        "encoding": "inplace",
        "label": "address",
        "numberOfBytes": "20"
      },
      "t_bool": {
        "encoding": "inplace",
        "label": "bool",
        "numberOfBytes": "1"
      },
      "t_bytes32": {
        "encoding": "inplace",
        "label": "bytes32",
        "numberOfBytes": "32"
      },
      "t_mapping(t_address,t_bool)": {
        "encoding": "mapping",
        "key": "t_address",
        "label": "mapping(address => bool)",
        "numberOfBytes": "32",
        "value": "t_bool"
      },
      "t_mapping(t_bytes32,t_struct(RoleData)21_storage)": {
        "encoding": "mapping",
        "key": "t_bytes32",
        "label": "mapping(bytes32 => struct AccessControl.RoleData)",
        "numberOfBytes": "32",
        "value": "t_struct(RoleData)21_storage"
      },
      "t_struct(RoleData)21_storage": {
        "encoding": "inplace",
        "label": "struct AccessControl.RoleData",
        "members": [
          {
            "astId": 18,
            "contract": "contracts/Crash/Crash.sol:Crash",
            "label": "hasRole",
            "offset": 0,
            "slot": "0",
            "type": "t_mapping(t_address,t_bool)"
          },
          {
            "astId": 20,
            "contract": "contracts/Crash/Crash.sol:Crash",
            "label": "adminRole",
            "offset": 0,
            "slot": "1",
            "type": "t_bytes32"
          }
        ],
        "numberOfBytes": "64"
      },
      "t_uint256": {
        "encoding": "inplace",
        "label": "uint256",
        "numberOfBytes": "32"
      }
    }
  }
}