{
  "address": "0xfA32a588fFEF212fAA25CDd2fAb606D798e90C1e",
  "abi": [
    {
      "inputs": [
        {
          "internalType": "address",
          "name": "leaderboard_",
          "type": "address"
        }
      ],
      "stateMutability": "nonpayable",
      "type": "constructor"
    },
    {
      "inputs": [],
      "name": "AccessControlBadConfirmation",
      "type": "error"
    },
    {
      "inputs": [
        {
          "internalType": "address",
          "name": "account",
          "type": "address"
        },
        {
          "internalType": "bytes32",
          "name": "neededRole",
          "type": "bytes32"
        }
      ],
      "name": "AccessControlUnauthorizedAccount",
      "type": "error"
    },
    {
      "inputs": [],
      "name": "EnforcedPause",
      "type": "error"
    },
    {
      "inputs": [],
      "name": "ExpectedPause",
      "type": "error"
    },
    {
      "anonymous": false,
      "inputs": [
        {
          "indexed": false,
          "internalType": "uint256",
          "name": "betAmount",
          "type": "uint256"
        },
        {
          "indexed": false,
          "internalType": "uint256",
          "name": "fee",
          "type": "uint256"
        },
        {
          "indexed": false,
          "internalType": "address",
          "name": "user",
          "type": "address"
        },
        {
          "indexed": false,
          "internalType": "uint256",
          "name": "reward",
          "type": "uint256"
        },
        {
          "indexed": false,
          "internalType": "uint256",
          "name": "multiplier",
          "type": "uint256"
        }
      ],
      "name": "Game",
      "type": "event"
    },
    {
      "anonymous": false,
      "inputs": [
        {
          "indexed": false,
          "internalType": "address",
          "name": "account",
          "type": "address"
        }
      ],
      "name": "Paused",
      "type": "event"
    },
    {
      "anonymous": false,
      "inputs": [
        {
          "indexed": true,
          "internalType": "bytes32",
          "name": "role",
          "type": "bytes32"
        },
        {
          "indexed": true,
          "internalType": "bytes32",
          "name": "previousAdminRole",
          "type": "bytes32"
        },
        {
          "indexed": true,
          "internalType": "bytes32",
          "name": "newAdminRole",
          "type": "bytes32"
        }
      ],
      "name": "RoleAdminChanged",
      "type": "event"
    },
    {
      "anonymous": false,
      "inputs": [
        {
          "indexed": true,
          "internalType": "bytes32",
          "name": "role",
          "type": "bytes32"
        },
        {
          "indexed": true,
          "internalType": "address",
          "name": "account",
          "type": "address"
        },
        {
          "indexed": true,
          "internalType": "address",
          "name": "sender",
          "type": "address"
        }
      ],
      "name": "RoleGranted",
      "type": "event"
    },
    {
      "anonymous": false,
      "inputs": [
        {
          "indexed": true,
          "internalType": "bytes32",
          "name": "role",
          "type": "bytes32"
        },
        {
          "indexed": true,
          "internalType": "address",
          "name": "account",
          "type": "address"
        },
        {
          "indexed": true,
          "internalType": "address",
          "name": "sender",
          "type": "address"
        }
      ],
      "name": "RoleRevoked",
      "type": "event"
    },
    {
      "anonymous": false,
      "inputs": [
        {
          "indexed": false,
          "internalType": "address",
          "name": "account",
          "type": "address"
        }
      ],
      "name": "Unpaused",
      "type": "event"
    },
    {
      "inputs": [],
      "name": "DEFAULT_ADMIN_ROLE",
      "outputs": [
        {
          "internalType": "bytes32",
          "name": "",
          "type": "bytes32"
        }
      ],
      "stateMutability": "view",
      "type": "function"
    },
    {
      "inputs": [],
      "name": "GAME_ID",
      "outputs": [
        {
          "internalType": "uint256",
          "name": "",
          "type": "uint256"
        }
      ],
      "stateMutability": "view",
      "type": "function"
    },
    {
      "inputs": [],
      "name": "GRID_SIZE",
      "outputs": [
        {
          "internalType": "uint256",
          "name": "",
          "type": "uint256"
        }
      ],
      "stateMutability": "view",
      "type": "function"
    },
    {
      "inputs": [
        {
          "internalType": "uint256",
          "name": "mines",
          "type": "uint256"
        },
        {
          "internalType": "uint256",
          "name": "level",
          "type": "uint256"
        }
      ],
      "name": "_calculateBetArray",
      "outputs": [
        {
          "internalType": "uint256",
          "name": "winRate",
          "type": "uint256"
        },
        {
          "internalType": "uint256",
          "name": "totalRate",
          "type": "uint256"
        },
        {
          "internalType": "uint256",
          "name": "multiplier",
          "type": "uint256"
        }
      ],
      "stateMutability": "pure",
      "type": "function"
    },
    {
      "inputs": [],
      "name": "betFee",
      "outputs": [
        {
          "internalType": "uint256",
          "name": "",
          "type": "uint256"
        }
      ],
      "stateMutability": "view",
      "type": "function"
    },
    {
      "inputs": [
        {
          "internalType": "uint256",
          "name": "mines",
          "type": "uint256"
        },
        {
          "internalType": "uint256",
          "name": "level",
          "type": "uint256"
        }
      ],
      "name": "checkMine",
      "outputs": [],
      "stateMutability": "payable",
      "type": "function"
    },
    {
      "inputs": [],
      "name": "feeReceiver",
      "outputs": [
        {
          "internalType": "address",
          "name": "",
          "type": "address"
        }
      ],
      "stateMutability": "view",
      "type": "function"
    },
    {
      "inputs": [
        {
          "internalType": "bytes32",
          "name": "role",
          "type": "bytes32"
        }
      ],
      "name": "getRoleAdmin",
      "outputs": [
        {
          "internalType": "bytes32",
          "name": "",
          "type": "bytes32"
        }
      ],
      "stateMutability": "view",
      "type": "function"
    },
    {
      "inputs": [],
      "name": "govAddress",
      "outputs": [
        {
          "internalType": "address",
          "name": "",
          "type": "address"
        }
      ],
      "stateMutability": "view",
      "type": "function"
    },
    {
      "inputs": [],
      "name": "govFee",
      "outputs": [
        {
          "internalType": "uint256",
          "name": "",
          "type": "uint256"
        }
      ],
      "stateMutability": "view",
      "type": "function"
    },
    {
      "inputs": [
        {
          "internalType": "bytes32",
          "name": "role",
          "type": "bytes32"
        },
        {
          "internalType": "address",
          "name": "account",
          "type": "address"
        }
      ],
      "name": "grantRole",
      "outputs": [],
      "stateMutability": "nonpayable",
      "type": "function"
    },
    {
      "inputs": [
        {
          "internalType": "bytes32",
          "name": "role",
          "type": "bytes32"
        },
        {
          "internalType": "address",
          "name": "account",
          "type": "address"
        }
      ],
      "name": "hasRole",
      "outputs": [
        {
          "internalType": "bool",
          "name": "",
          "type": "bool"
        }
      ],
      "stateMutability": "view",
      "type": "function"
    },
    {
      "inputs": [],
      "name": "leaderboard",
      "outputs": [
        {
          "internalType": "address",
          "name": "",
          "type": "address"
        }
      ],
      "stateMutability": "view",
      "type": "function"
    },
    {
      "inputs": [],
      "name": "maxBet",
      "outputs": [
        {
          "internalType": "uint256",
          "name": "",
          "type": "uint256"
        }
      ],
      "stateMutability": "view",
      "type": "function"
    },
    {
      "inputs": [],
      "name": "minBet",
      "outputs": [
        {
          "internalType": "uint256",
          "name": "",
          "type": "uint256"
        }
      ],
      "stateMutability": "view",
      "type": "function"
    },
    {
      "inputs": [],
      "name": "pause",
      "outputs": [],
      "stateMutability": "nonpayable",
      "type": "function"
    },
    {
      "inputs": [],
      "name": "paused",
      "outputs": [
        {
          "internalType": "bool",
          "name": "",
          "type": "bool"
        }
      ],
      "stateMutability": "view",
      "type": "function"
    },
    {
      "inputs": [
        {
          "internalType": "bytes32",
          "name": "role",
          "type": "bytes32"
        },
        {
          "internalType": "address",
          "name": "callerConfirmation",
          "type": "address"
        }
      ],
      "name": "renounceRole",
      "outputs": [],
      "stateMutability": "nonpayable",
      "type": "function"
    },
    {
      "inputs": [
        {
          "internalType": "bytes32",
          "name": "role",
          "type": "bytes32"
        },
        {
          "internalType": "address",
          "name": "account",
          "type": "address"
        }
      ],
      "name": "revokeRole",
      "outputs": [],
      "stateMutability": "nonpayable",
      "type": "function"
    },
    {
      "inputs": [
        {
          "internalType": "uint256",
          "name": "val",
          "type": "uint256"
        }
      ],
      "name": "setBetFee",
      "outputs": [],
      "stateMutability": "nonpayable",
      "type": "function"
    },
    {
      "inputs": [
        {
          "internalType": "address",
          "name": "receiver",
          "type": "address"
        }
      ],
      "name": "setFeeReceiver",
      "outputs": [],
      "stateMutability": "nonpayable",
      "type": "function"
    },
    {
      "inputs": [
        {
          "internalType": "address",
          "name": "gov",
          "type": "address"
        }
      ],
      "name": "setGovAddress",
      "outputs": [],
      "stateMutability": "nonpayable",
      "type": "function"
    },
    {
      "inputs": [
        {
          "internalType": "uint256",
          "name": "val",
          "type": "uint256"
        }
      ],
      "name": "setGovFee",
      "outputs": [],
      "stateMutability": "nonpayable",
      "type": "function"
    },
    {
      "inputs": [
        {
          "internalType": "address",
          "name": "leaderboard_",
          "type": "address"
        }
      ],
      "name": "setLeaderboard",
      "outputs": [],
      "stateMutability": "nonpayable",
      "type": "function"
    },
    {
      "inputs": [
        {
          "internalType": "uint256",
          "name": "val",
          "type": "uint256"
        }
      ],
      "name": "setMaxBet",
      "outputs": [],
      "stateMutability": "nonpayable",
      "type": "function"
    },
    {
      "inputs": [
        {
          "internalType": "uint256",
          "name": "val",
          "type": "uint256"
        }
      ],
      "name": "setMinBet",
      "outputs": [],
      "stateMutability": "nonpayable",
      "type": "function"
    },
    {
      "inputs": [
        {
          "internalType": "bytes4",
          "name": "interfaceId",
          "type": "bytes4"
        }
      ],
      "name": "supportsInterface",
      "outputs": [
        {
          "internalType": "bool",
          "name": "",
          "type": "bool"
        }
      ],
      "stateMutability": "view",
      "type": "function"
    },
    {
      "inputs": [],
      "name": "totalGame",
      "outputs": [
        {
          "internalType": "uint256",
          "name": "",
          "type": "uint256"
        }
      ],
      "stateMutability": "view",
      "type": "function"
    },
    {
      "inputs": [],
      "name": "unpause",
      "outputs": [],
      "stateMutability": "nonpayable",
      "type": "function"
    },
    {
      "inputs": [
        {
          "internalType": "address",
          "name": "addr",
          "type": "address"
        },
        {
          "internalType": "uint256",
          "name": "amount",
          "type": "uint256"
        }
      ],
      "name": "withdraw",
      "outputs": [],
      "stateMutability": "nonpayable",
      "type": "function"
    },
    {
      "inputs": [
        {
          "internalType": "address",
          "name": "addr",
          "type": "address"
        }
      ],
      "name": "withdrawAll",
      "outputs": [],
      "stateMutability": "nonpayable",
      "type": "function"
    },
    {
      "stateMutability": "payable",
      "type": "receive"
    }
  ],
  "transactionHash": "0xd15c2e6967753dc758c7c0c88f1eba1a944d64cb1653c0ab4241dffbdfc87371",
  "args": [
    "0x0aA3b6C162B67667F293AC91D5a47Ca7023969AF"
  ],
  "numDeployments": 1,
  "solcInputHash": "7d8bc4cd9e89a8d62000ce8d47f49ff0",
  "bytecode": "0x60806040523480156200001157600080fd5b506040516200153838038062001538833981016040819052620000349162000191565b6001805460ff19169055336200004c600082620000e2565b50620000797fa49807205ce4d355092ef5a8a18f56e8913cf4a201fbe287825b095693c2177582620000e2565b5061015e6003556608e1bc9bf040006004556702c68af0bb14000060055564e8d4a51000600755600680546001600160a01b039283166001600160a01b0319918216811790925560088054821690921790915560098054939092169216919091179055620001c3565b6000828152602081815260408083206001600160a01b038516845290915281205460ff1662000187576000838152602081815260408083206001600160a01b03861684529091529020805460ff191660011790556200013e3390565b6001600160a01b0316826001600160a01b0316847f2f8788117e7eff1d82e926ec794901d17c78024a50270940304540a733656f0d60405160405180910390a45060016200018b565b5060005b92915050565b600060208284031215620001a457600080fd5b81516001600160a01b0381168114620001bc57600080fd5b9392505050565b61136580620001d36000396000f3fe6080604052600436106101dc5760003560e01c80638456cb5911610102578063d547741f11610095578063f3f67de411610064578063f3f67de414610546578063f3fef3a314610581578063fa09e630146105a1578063fdcdb06b146105c157600080fd5b8063d547741f146104c6578063eb56b740146104e6578063efdcd97414610506578063f1a2de721461052657600080fd5b80639619367d116100d15780639619367d14610465578063a217fddf1461047b578063b3f0067414610490578063d272e57e146104b057600080fd5b80638456cb59146103cc578063881eff1e146103e157806388ea41b91461040157806391d148541461042157600080fd5b80633f4ba83a1161017a57806364ae4ca61161014957806364ae4ca61461036157806372229abf146103815780637fc4eda8146103a1578063841e6ce9146103b657600080fd5b80633f4ba83a146102e657806346008a07146102fb5780635c975abb146103335780635e7c5af51461034b57600080fd5b80632e5b2168116101b65780632e5b21681461027d5780632f2ff15d14610293578063350d6154146102b357806336568abe146102c657600080fd5b806301ffc9a7146101e8578063248a9ca31461021d578063278473fd1461025b57600080fd5b366101e357005b600080fd5b3480156101f457600080fd5b5061020861020336600461116d565b6105d6565b60405190151581526020015b60405180910390f35b34801561022957600080fd5b5061024d6102383660046111b6565b60009081526020819052604090206001015490565b604051908152602001610214565b34801561026757600080fd5b5061027b6102763660046111b6565b61066f565b005b34801561028957600080fd5b5061024d60055481565b34801561029f57600080fd5b5061027b6102ae3660046111eb565b61068d565b61027b6102c1366004611217565b6106b8565b3480156102d257600080fd5b5061027b6102e13660046111eb565b610aac565b3480156102f257600080fd5b5061027b610afd565b34801561030757600080fd5b5060085461031b906001600160a01b031681565b6040516001600160a01b039091168152602001610214565b34801561033f57600080fd5b5060015460ff16610208565b34801561035757600080fd5b5061024d60075481565b34801561036d57600080fd5b5061027b61037c366004611239565b610b28565b34801561038d57600080fd5b5061027b61039c3660046111b6565b610b70565b3480156103ad57600080fd5b5061024d601081565b3480156103c257600080fd5b5061024d60035481565b3480156103d857600080fd5b5061027b610b8e565b3480156103ed57600080fd5b5061027b6103fc3660046111b6565b610bb6565b34801561040d57600080fd5b5061027b61041c3660046111b6565b610c14565b34801561042d57600080fd5b5061020861043c3660046111eb565b6000918252602082815260408084206001600160a01b0393909316845291905290205460ff1690565b34801561047157600080fd5b5061024d60045481565b34801561048757600080fd5b5061024d600081565b34801561049c57600080fd5b5060065461031b906001600160a01b031681565b3480156104bc57600080fd5b5061024d60025481565b3480156104d257600080fd5b5061027b6104e13660046111eb565b610c72565b3480156104f257600080fd5b5060095461031b906001600160a01b031681565b34801561051257600080fd5b5061027b610521366004611239565b610c97565b34801561053257600080fd5b5061027b610541366004611239565b610cdf565b34801561055257600080fd5b50610566610561366004611217565b610d27565b60408051938452602084019290925290820152606001610214565b34801561058d57600080fd5b5061027b61059c366004611254565b610d6c565b3480156105ad57600080fd5b5061027b6105bc366004611239565b610e15565b3480156105cd57600080fd5b5061024d600481565b60007fffffffff0000000000000000000000000000000000000000000000000000000082167f7965db0b00000000000000000000000000000000000000000000000000000000148061066957507f01ffc9a7000000000000000000000000000000000000000000000000000000007fffffffff000000000000000000000000000000000000000000000000000000008316145b92915050565b60008051602061131083398151915261068781610e64565b50600755565b6000828152602081905260409020600101546106a881610e64565b6106b28383610e6e565b50505050565b6106c0610f18565b81600114806106cf5750816003145b806106da5750816005145b806106e5575081600a145b806106f0575081600f145b6107415760405162461bcd60e51b815260206004820152600d60248201527f696e76616c6964206d696e65730000000000000000000000000000000000000060448201526064015b60405180910390fd5b61074c816010611294565b82111561079b5760405162461bcd60e51b815260206004820152601c60248201527f4d696e6573206578636565642072656d61696e696e672063656c6c73000000006044820152606401610738565b60075433906000906107ad9034611294565b905060006003546127106107c191906112a7565b6107cd612710846112ba565b6107d791906112e7565b905060045481101580156107ed57506005548111155b6108275760405162461bcd60e51b815260206004820152600b60248201526a1a5b9d985b1a590818995d60aa1b6044820152606401610738565b60006108338284611294565b9050600254600161084491906112a7565b6002556008546007546040516001600160a01b039092169181156108fc0291906000818181858888f19350505050158015610883573d6000803e3d6000fd5b506006546040516001600160a01b039091169082156108fc029083906000818181858888f193505050501580156108be573d6000803e3d6000fd5b5060008060006108ce8989610d27565b91945092509050600060646108e387846112ba565b6108ed91906112e7565b90508047101561093f5760405162461bcd60e51b815260206004820152601460248201527f686f757365206f7574206f662062616c616e63650000000000000000000000006044820152606401610738565b6000610949610f57565b905061095584826112fb565b9050848110600081156109b3576040516001600160a01b038c169085156108fc029086906000818181858888f19350505050158015610998573d6000803e3d6000fd5b50348411156109ae576109ab3485611294565b90505b6109bc565b60009350600094505b6009546040517f5f4717fe00000000000000000000000000000000000000000000000000000000815260048082015233602482015260448101839052606481018b90526001600160a01b0390911690635f4717fe90608401600060405180830381600087803b158015610a2e57600080fd5b505af1158015610a42573d6000803e3d6000fd5b5050604080518c8152602081018c90526001600160a01b038f1681830152606081018890526080810189905290517f9d6caf39e6a1591cd96c8aa4bd03d7278baab79ae5be66a486026b1bd89e5baa93509081900360a0019150a150505050505050505050505050565b6001600160a01b0381163314610aee576040517f6697b23200000000000000000000000000000000000000000000000000000000815260040160405180910390fd5b610af88282610fb1565b505050565b600080516020611310833981519152610b1581610e64565b610b1d611034565b610b25611070565b50565b600080516020611310833981519152610b4081610e64565b506008805473ffffffffffffffffffffffffffffffffffffffff19166001600160a01b0392909216919091179055565b600080516020611310833981519152610b8881610e64565b50600355565b600080516020611310833981519152610ba681610e64565b610bae610f18565b610b256110c2565b600080516020611310833981519152610bce81610e64565b600454821015610c0e5760405162461bcd60e51b815260206004820152600b60248201526a1a5b9d985b1a590818995d60aa1b6044820152606401610738565b50600555565b600080516020611310833981519152610c2c81610e64565b600554821115610c6c5760405162461bcd60e51b815260206004820152600b60248201526a1a5b9d985b1a590818995d60aa1b6044820152606401610738565b50600455565b600082815260208190526040902060010154610c8d81610e64565b6106b28383610fb1565b600080516020611310833981519152610caf81610e64565b506006805473ffffffffffffffffffffffffffffffffffffffff19166001600160a01b0392909216919091179055565b600080516020611310833981519152610cf781610e64565b506009805473ffffffffffffffffffffffffffffffffffffffff19166001600160a01b0392909216919091179055565b60008080610d36846010611294565b9150610d428583611294565b9250610d4e8583611294565b610d598360646112ba565b610d6391906112e7565b90509250925092565b600080516020611310833981519152610d8481610e64565b4780831115610dd55760405162461bcd60e51b815260206004820152600e60248201527f696e76616c696420616d6f756e740000000000000000000000000000000000006044820152606401610738565b60405184906001600160a01b0382169085156108fc029086906000818181858888f19350505050158015610e0d573d6000803e3d6000fd5b505050505050565b600080516020611310833981519152610e2d81610e64565b60405182906001600160a01b038216904780156108fc02916000818181858888f193505050501580156106b2573d6000803e3d6000fd5b610b2581336110fd565b6000828152602081815260408083206001600160a01b038516845290915281205460ff16610f10576000838152602081815260408083206001600160a01b03861684529091529020805460ff19166001179055610ec83390565b6001600160a01b0316826001600160a01b0316847f2f8788117e7eff1d82e926ec794901d17c78024a50270940304540a733656f0d60405160405180910390a4506001610669565b506000610669565b60015460ff1615610f55576040517fd93c066500000000000000000000000000000000000000000000000000000000815260040160405180910390fd5b565b60004360025433604051602001610f9393929190928352602083019190915260601b6bffffffffffffffffffffffff1916604082015260540190565b6040516020818303038152906040528051906020012060001c905090565b6000828152602081815260408083206001600160a01b038516845290915281205460ff1615610f10576000838152602081815260408083206001600160a01b0386168085529252808320805460ff1916905551339286917ff6391f5c32d9c69d2a47ea670b442974b53935d1edc7fd64eb21e047a839171b9190a4506001610669565b60015460ff16610f55576040517f8dfc202b00000000000000000000000000000000000000000000000000000000815260040160405180910390fd5b611078611034565b6001805460ff191690557f5db9ee0a495bf2e6ff9c91a7834c1ba4fdd244a5e8aa4e537bd38aeae4b073aa335b6040516001600160a01b03909116815260200160405180910390a1565b6110ca610f18565b6001805460ff1916811790557f62e78cea01bee320cd4e420270b5ea74000d11b0c9f74754ebdbfc544b05a258336110a5565b6000828152602081815260408083206001600160a01b038516845290915290205460ff16611169576040517fe2517d3f0000000000000000000000000000000000000000000000000000000081526001600160a01b038216600482015260248101839052604401610738565b5050565b60006020828403121561117f57600080fd5b81357fffffffff00000000000000000000000000000000000000000000000000000000811681146111af57600080fd5b9392505050565b6000602082840312156111c857600080fd5b5035919050565b80356001600160a01b03811681146111e657600080fd5b919050565b600080604083850312156111fe57600080fd5b8235915061120e602084016111cf565b90509250929050565b6000806040838503121561122a57600080fd5b50508035926020909101359150565b60006020828403121561124b57600080fd5b6111af826111cf565b6000806040838503121561126757600080fd5b611270836111cf565b946020939093013593505050565b634e487b7160e01b600052601160045260246000fd5b818103818111156106695761066961127e565b808201808211156106695761066961127e565b80820281158282048414176106695761066961127e565b634e487b7160e01b600052601260045260246000fd5b6000826112f6576112f66112d1565b500490565b60008261130a5761130a6112d1565b50069056fea49807205ce4d355092ef5a8a18f56e8913cf4a201fbe287825b095693c21775a2646970667358221220d3fe4784536e5adc6bb4afd0f1f03ba515d8567594315b515f5c71b58dcd720964736f6c63430008140033",
  "devdoc": {
    "errors": {
      "AccessControlBadConfirmation()": [
        {
          "details": "The caller of a function is not the expected one. NOTE: Don't confuse with {AccessControlUnauthorizedAccount}."
        }
      ],
      "AccessControlUnauthorizedAccount(address,bytes32)": [
        {
          "details": "The `account` is missing a role."
        }
      ],
      "EnforcedPause()": [
        {
          "details": "The operation failed because the contract is paused."
        }
      ],
      "ExpectedPause()": [
        {
          "details": "The operation failed because the contract is not paused."
        }
      ]
    },
    "events": {
      "Paused(address)": {
        "details": "Emitted when the pause is triggered by `account`."
      },
      "RoleAdminChanged(bytes32,bytes32,bytes32)": {
        "details": "Emitted when `newAdminRole` is set as ``role``'s admin role, replacing `previousAdminRole` `DEFAULT_ADMIN_ROLE` is the starting admin for all roles, despite {RoleAdminChanged} not being emitted signaling this."
      },
      "RoleGranted(bytes32,address,address)": {
        "details": "Emitted when `account` is granted `role`. `sender` is the account that originated the contract call. This account bears the admin role (for the granted role). Expected in cases where the role was granted using the internal {AccessControl-_grantRole}."
      },
      "RoleRevoked(bytes32,address,address)": {
        "details": "Emitted when `account` is revoked `role`. `sender` is the account that originated the contract call:   - if using `revokeRole`, it is the admin role bearer   - if using `renounceRole`, it is the role bearer (i.e. `account`)"
      },
      "Unpaused(address)": {
        "details": "Emitted when the pause is lifted by `account`."
      }
    },
    "kind": "dev",
    "methods": {
      "getRoleAdmin(bytes32)": {
        "details": "Returns the admin role that controls `role`. See {grantRole} and {revokeRole}. To change a role's admin, use {_setRoleAdmin}."
      },
      "grantRole(bytes32,address)": {
        "details": "Grants `role` to `account`. If `account` had not been already granted `role`, emits a {RoleGranted} event. Requirements: - the caller must have ``role``'s admin role. May emit a {RoleGranted} event."
      },
      "hasRole(bytes32,address)": {
        "details": "Returns `true` if `account` has been granted `role`."
      },
      "pause()": {
        "details": "called by the owner to pause, triggers stopped state"
      },
      "paused()": {
        "details": "Returns true if the contract is paused, and false otherwise."
      },
      "renounceRole(bytes32,address)": {
        "details": "Revokes `role` from the calling account. Roles are often managed via {grantRole} and {revokeRole}: this function's purpose is to provide a mechanism for accounts to lose their privileges if they are compromised (such as when a trusted device is misplaced). If the calling account had been revoked `role`, emits a {RoleRevoked} event. Requirements: - the caller must be `callerConfirmation`. May emit a {RoleRevoked} event."
      },
      "revokeRole(bytes32,address)": {
        "details": "Revokes `role` from `account`. If `account` had been granted `role`, emits a {RoleRevoked} event. Requirements: - the caller must have ``role``'s admin role. May emit a {RoleRevoked} event."
      },
      "supportsInterface(bytes4)": {
        "details": "See {IERC165-supportsInterface}."
      },
      "unpause()": {
        "details": "called by the owner to unpause, returns to normal state"
      }
    },
    "version": 1
  },
  "userdoc": {
    "kind": "user",
    "methods": {
      "totalGame()": {
        "notice": "Storages"
      }
    },
    "version": 1
  },
  "storageLayout": {
    "storage": [
      {
        "astId": 26,
        "contract": "contracts/Mines/Mines.sol:Mines",
        "label": "_roles",
        "offset": 0,
        "slot": "0",
        "type": "t_mapping(t_bytes32,t_struct(RoleData)21_storage)"
      },
      {
        "astId": 417,
        "contract": "contracts/Mines/Mines.sol:Mines",
        "label": "_paused",
        "offset": 0,
        "slot": "1",
        "type": "t_bool"
      },
      {
        "astId": 1697,
        "contract": "contracts/Mines/Mines.sol:Mines",
        "label": "totalGame",
        "offset": 0,
        "slot": "2",
        "type": "t_uint256"
      },
      {
        "astId": 1699,
        "contract": "contracts/Mines/Mines.sol:Mines",
        "label": "betFee",
        "offset": 0,
        "slot": "3",
        "type": "t_uint256"
      },
      {
        "astId": 1701,
        "contract": "contracts/Mines/Mines.sol:Mines",
        "label": "minBet",
        "offset": 0,
        "slot": "4",
        "type": "t_uint256"
      },
      {
        "astId": 1703,
        "contract": "contracts/Mines/Mines.sol:Mines",
        "label": "maxBet",
        "offset": 0,
        "slot": "5",
        "type": "t_uint256"
      },
      {
        "astId": 1705,
        "contract": "contracts/Mines/Mines.sol:Mines",
        "label": "feeReceiver",
        "offset": 0,
        "slot": "6",
        "type": "t_address"
      },
      {
        "astId": 1707,
        "contract": "contracts/Mines/Mines.sol:Mines",
        "label": "govFee",
        "offset": 0,
        "slot": "7",
        "type": "t_uint256"
      },
      {
        "astId": 1709,
        "contract": "contracts/Mines/Mines.sol:Mines",
        "label": "govAddress",
        "offset": 0,
        "slot": "8",
        "type": "t_address"
      },
      {
        "astId": 1711,
        "contract": "contracts/Mines/Mines.sol:Mines",
        "label": "leaderboard",
        "offset": 0,
        "slot": "9",
        "type": "t_address"
      }
    ],
    "types": {
      "t_address": {
        "encoding": "inplace",
        "label": "address",
        "numberOfBytes": "20"
      },
      "t_bool": {
        "encoding": "inplace",
        "label": "bool",
        "numberOfBytes": "1"
      },
      "t_bytes32": {
        "encoding": "inplace",
        "label": "bytes32",
        "numberOfBytes": "32"
      },
      "t_mapping(t_address,t_bool)": {
        "encoding": "mapping",
        "key": "t_address",
        "label": "mapping(address => bool)",
        "numberOfBytes": "32",
        "value": "t_bool"
      },
      "t_mapping(t_bytes32,t_struct(RoleData)21_storage)": {
        "encoding": "mapping",
        "key": "t_bytes32",
        "label": "mapping(bytes32 => struct AccessControl.RoleData)",
        "numberOfBytes": "32",
        "value": "t_struct(RoleData)21_storage"
      },
      "t_struct(RoleData)21_storage": {
        "encoding": "inplace",
        "label": "struct AccessControl.RoleData",
        "members": [
          {
            "astId": 18,
            "contract": "contracts/Mines/Mines.sol:Mines",
            "label": "hasRole",
            "offset": 0,
            "slot": "0",
            "type": "t_mapping(t_address,t_bool)"
          },
          {
            "astId": 20,
            "contract": "contracts/Mines/Mines.sol:Mines",
            "label": "adminRole",
            "offset": 0,
            "slot": "1",
            "type": "t_bytes32"
          }
        ],
        "numberOfBytes": "64"
      },
      "t_uint256": {
        "encoding": "inplace",
        "label": "uint256",
        "numberOfBytes": "32"
      }
    }
  }
}