{
  "address": "0x8cb841C1a006C6bcE90903Cd19300cDCAECc24e4",
  "abi": [
    {
      "inputs": [
        {
          "internalType": "address",
          "name": "leaderboard_",
          "type": "address"
        }
      ],
      "stateMutability": "nonpayable",
      "type": "constructor"
    },
    {
      "inputs": [],
      "name": "AccessControlBadConfirmation",
      "type": "error"
    },
    {
      "inputs": [
        {
          "internalType": "address",
          "name": "account",
          "type": "address"
        },
        {
          "internalType": "bytes32",
          "name": "neededRole",
          "type": "bytes32"
        }
      ],
      "name": "AccessControlUnauthorizedAccount",
      "type": "error"
    },
    {
      "inputs": [],
      "name": "EnforcedPause",
      "type": "error"
    },
    {
      "inputs": [],
      "name": "ExpectedPause",
      "type": "error"
    },
    {
      "anonymous": false,
      "inputs": [
        {
          "indexed": false,
          "internalType": "uint256",
          "name": "betAmount",
          "type": "uint256"
        },
        {
          "indexed": false,
          "internalType": "uint256",
          "name": "fee",
          "type": "uint256"
        },
        {
          "indexed": false,
          "internalType": "address",
          "name": "user",
          "type": "address"
        },
        {
          "indexed": false,
          "internalType": "uint256",
          "name": "multiplier",
          "type": "uint256"
        },
        {
          "indexed": false,
          "internalType": "uint256",
          "name": "rewardAmount",
          "type": "uint256"
        }
      ],
      "name": "Game",
      "type": "event"
    },
    {
      "anonymous": false,
      "inputs": [
        {
          "indexed": false,
          "internalType": "address",
          "name": "account",
          "type": "address"
        }
      ],
      "name": "Paused",
      "type": "event"
    },
    {
      "anonymous": false,
      "inputs": [
        {
          "indexed": true,
          "internalType": "bytes32",
          "name": "role",
          "type": "bytes32"
        },
        {
          "indexed": true,
          "internalType": "bytes32",
          "name": "previousAdminRole",
          "type": "bytes32"
        },
        {
          "indexed": true,
          "internalType": "bytes32",
          "name": "newAdminRole",
          "type": "bytes32"
        }
      ],
      "name": "RoleAdminChanged",
      "type": "event"
    },
    {
      "anonymous": false,
      "inputs": [
        {
          "indexed": true,
          "internalType": "bytes32",
          "name": "role",
          "type": "bytes32"
        },
        {
          "indexed": true,
          "internalType": "address",
          "name": "account",
          "type": "address"
        },
        {
          "indexed": true,
          "internalType": "address",
          "name": "sender",
          "type": "address"
        }
      ],
      "name": "RoleGranted",
      "type": "event"
    },
    {
      "anonymous": false,
      "inputs": [
        {
          "indexed": true,
          "internalType": "bytes32",
          "name": "role",
          "type": "bytes32"
        },
        {
          "indexed": true,
          "internalType": "address",
          "name": "account",
          "type": "address"
        },
        {
          "indexed": true,
          "internalType": "address",
          "name": "sender",
          "type": "address"
        }
      ],
      "name": "RoleRevoked",
      "type": "event"
    },
    {
      "anonymous": false,
      "inputs": [
        {
          "indexed": false,
          "internalType": "address",
          "name": "account",
          "type": "address"
        }
      ],
      "name": "Unpaused",
      "type": "event"
    },
    {
      "inputs": [],
      "name": "DEFAULT_ADMIN_ROLE",
      "outputs": [
        {
          "internalType": "bytes32",
          "name": "",
          "type": "bytes32"
        }
      ],
      "stateMutability": "view",
      "type": "function"
    },
    {
      "inputs": [],
      "name": "GAME_ID",
      "outputs": [
        {
          "internalType": "uint256",
          "name": "",
          "type": "uint256"
        }
      ],
      "stateMutability": "view",
      "type": "function"
    },
    {
      "inputs": [
        {
          "internalType": "uint256",
          "name": "multiplier",
          "type": "uint256"
        }
      ],
      "name": "_calculateBetArray",
      "outputs": [
        {
          "internalType": "uint256",
          "name": "winRate",
          "type": "uint256"
        },
        {
          "internalType": "uint256",
          "name": "totalRate",
          "type": "uint256"
        }
      ],
      "stateMutability": "pure",
      "type": "function"
    },
    {
      "inputs": [
        {
          "internalType": "uint256",
          "name": "",
          "type": "uint256"
        }
      ],
      "name": "basicMultiplier",
      "outputs": [
        {
          "internalType": "uint256",
          "name": "",
          "type": "uint256"
        }
      ],
      "stateMutability": "view",
      "type": "function"
    },
    {
      "inputs": [],
      "name": "betFee",
      "outputs": [
        {
          "internalType": "uint256",
          "name": "",
          "type": "uint256"
        }
      ],
      "stateMutability": "view",
      "type": "function"
    },
    {
      "inputs": [
        {
          "internalType": "uint256",
          "name": "",
          "type": "uint256"
        }
      ],
      "name": "degenMultiplier",
      "outputs": [
        {
          "internalType": "uint256",
          "name": "",
          "type": "uint256"
        }
      ],
      "stateMutability": "view",
      "type": "function"
    },
    {
      "inputs": [],
      "name": "feeReceiver",
      "outputs": [
        {
          "internalType": "address",
          "name": "",
          "type": "address"
        }
      ],
      "stateMutability": "view",
      "type": "function"
    },
    {
      "inputs": [
        {
          "internalType": "bytes32",
          "name": "role",
          "type": "bytes32"
        }
      ],
      "name": "getRoleAdmin",
      "outputs": [
        {
          "internalType": "bytes32",
          "name": "",
          "type": "bytes32"
        }
      ],
      "stateMutability": "view",
      "type": "function"
    },
    {
      "inputs": [],
      "name": "govAddress",
      "outputs": [
        {
          "internalType": "address",
          "name": "",
          "type": "address"
        }
      ],
      "stateMutability": "view",
      "type": "function"
    },
    {
      "inputs": [],
      "name": "govFee",
      "outputs": [
        {
          "internalType": "uint256",
          "name": "",
          "type": "uint256"
        }
      ],
      "stateMutability": "view",
      "type": "function"
    },
    {
      "inputs": [
        {
          "internalType": "bytes32",
          "name": "role",
          "type": "bytes32"
        },
        {
          "internalType": "address",
          "name": "account",
          "type": "address"
        }
      ],
      "name": "grantRole",
      "outputs": [],
      "stateMutability": "nonpayable",
      "type": "function"
    },
    {
      "inputs": [
        {
          "internalType": "bytes32",
          "name": "role",
          "type": "bytes32"
        },
        {
          "internalType": "address",
          "name": "account",
          "type": "address"
        }
      ],
      "name": "hasRole",
      "outputs": [
        {
          "internalType": "bool",
          "name": "",
          "type": "bool"
        }
      ],
      "stateMutability": "view",
      "type": "function"
    },
    {
      "inputs": [],
      "name": "leaderboard",
      "outputs": [
        {
          "internalType": "address",
          "name": "",
          "type": "address"
        }
      ],
      "stateMutability": "view",
      "type": "function"
    },
    {
      "inputs": [],
      "name": "maxBet",
      "outputs": [
        {
          "internalType": "uint256",
          "name": "",
          "type": "uint256"
        }
      ],
      "stateMutability": "view",
      "type": "function"
    },
    {
      "inputs": [],
      "name": "minBet",
      "outputs": [
        {
          "internalType": "uint256",
          "name": "",
          "type": "uint256"
        }
      ],
      "stateMutability": "view",
      "type": "function"
    },
    {
      "inputs": [],
      "name": "pause",
      "outputs": [],
      "stateMutability": "nonpayable",
      "type": "function"
    },
    {
      "inputs": [],
      "name": "paused",
      "outputs": [
        {
          "internalType": "bool",
          "name": "",
          "type": "bool"
        }
      ],
      "stateMutability": "view",
      "type": "function"
    },
    {
      "inputs": [
        {
          "internalType": "bool",
          "name": "degen",
          "type": "bool"
        },
        {
          "internalType": "uint256",
          "name": "ball",
          "type": "uint256"
        }
      ],
      "name": "plinko",
      "outputs": [],
      "stateMutability": "payable",
      "type": "function"
    },
    {
      "inputs": [
        {
          "internalType": "bytes32",
          "name": "role",
          "type": "bytes32"
        },
        {
          "internalType": "address",
          "name": "callerConfirmation",
          "type": "address"
        }
      ],
      "name": "renounceRole",
      "outputs": [],
      "stateMutability": "nonpayable",
      "type": "function"
    },
    {
      "inputs": [
        {
          "internalType": "bytes32",
          "name": "role",
          "type": "bytes32"
        },
        {
          "internalType": "address",
          "name": "account",
          "type": "address"
        }
      ],
      "name": "revokeRole",
      "outputs": [],
      "stateMutability": "nonpayable",
      "type": "function"
    },
    {
      "inputs": [
        {
          "internalType": "uint256",
          "name": "val",
          "type": "uint256"
        }
      ],
      "name": "setBetFee",
      "outputs": [],
      "stateMutability": "nonpayable",
      "type": "function"
    },
    {
      "inputs": [
        {
          "internalType": "address",
          "name": "receiver",
          "type": "address"
        }
      ],
      "name": "setFeeReceiver",
      "outputs": [],
      "stateMutability": "nonpayable",
      "type": "function"
    },
    {
      "inputs": [
        {
          "internalType": "address",
          "name": "gov",
          "type": "address"
        }
      ],
      "name": "setGovAddress",
      "outputs": [],
      "stateMutability": "nonpayable",
      "type": "function"
    },
    {
      "inputs": [
        {
          "internalType": "uint256",
          "name": "val",
          "type": "uint256"
        }
      ],
      "name": "setGovFee",
      "outputs": [],
      "stateMutability": "nonpayable",
      "type": "function"
    },
    {
      "inputs": [
        {
          "internalType": "address",
          "name": "leaderboard_",
          "type": "address"
        }
      ],
      "name": "setLeaderboard",
      "outputs": [],
      "stateMutability": "nonpayable",
      "type": "function"
    },
    {
      "inputs": [
        {
          "internalType": "uint256",
          "name": "val",
          "type": "uint256"
        }
      ],
      "name": "setMaxBet",
      "outputs": [],
      "stateMutability": "nonpayable",
      "type": "function"
    },
    {
      "inputs": [
        {
          "internalType": "uint256",
          "name": "val",
          "type": "uint256"
        }
      ],
      "name": "setMinBet",
      "outputs": [],
      "stateMutability": "nonpayable",
      "type": "function"
    },
    {
      "inputs": [
        {
          "internalType": "bytes4",
          "name": "interfaceId",
          "type": "bytes4"
        }
      ],
      "name": "supportsInterface",
      "outputs": [
        {
          "internalType": "bool",
          "name": "",
          "type": "bool"
        }
      ],
      "stateMutability": "view",
      "type": "function"
    },
    {
      "inputs": [],
      "name": "totalGame",
      "outputs": [
        {
          "internalType": "uint256",
          "name": "",
          "type": "uint256"
        }
      ],
      "stateMutability": "view",
      "type": "function"
    },
    {
      "inputs": [],
      "name": "unpause",
      "outputs": [],
      "stateMutability": "nonpayable",
      "type": "function"
    },
    {
      "inputs": [
        {
          "internalType": "address",
          "name": "addr",
          "type": "address"
        },
        {
          "internalType": "uint256",
          "name": "amount",
          "type": "uint256"
        }
      ],
      "name": "withdraw",
      "outputs": [],
      "stateMutability": "nonpayable",
      "type": "function"
    },
    {
      "inputs": [
        {
          "internalType": "address",
          "name": "addr",
          "type": "address"
        }
      ],
      "name": "withdrawAll",
      "outputs": [],
      "stateMutability": "nonpayable",
      "type": "function"
    },
    {
      "stateMutability": "payable",
      "type": "receive"
    }
  ],
  "transactionHash": "0xe48e95fde36679c4b70584008447b48edcd5b16985204bbf2030e748af9e777d",
  "args": [
    "0xde13874e9Be05Cbd3E55EbC29D74a1ce5652c6e4"
  ],
  "numDeployments": 1,
  "solcInputHash": "df87368e82ed19b6e8c9a5a599fe2295",
  "bytecode": "0x608060405234801561000f575f5ffd5b5060405161161538038061161583398101604081905261002e91610305565b6001805460ff19169055336100435f8261025c565b5061006e7fa49807205ce4d355092ef5a8a18f56e8913cf4a201fbe287825b095693c217758261025c565b5061015e6003556608e1bc9bf040006004556702c68af0bb14000060055564e8d4a51000600755600680546001600160a01b03199081166001600160a01b03848116918217909355600880548316909117905560098054909116918416919091179055600a60205260c87f7c88ef8d7aca0318251f31c899c30b491c6eaeb9e0abc596bf1f7fc86a58b5128190557fc5a5152eb6f32112547d035859dfbd1920ac3f2633565d5b32f82ee8f48d8db3556103e87f914dccb53380563059e9e556af6a690bb3e3d2e8763db4999263479efe191eda8190557f6c6d62e8a8b03fc99bb6a42c33f29fbb7bc355fb24b55c501263cba498f989828190557ff0d06e1c676d19791845afcc57865504b6e1664144ce3e6d246a51a35a30ab6c5560305f9081526105dc7f827b43d7b5df5f84fd4b18cce10d024e57edb92595e42f215cd9b8967d5d0962555b60308110156101d9575f818152600b60205260409020603290556001016101b7565b5060305b603a8110156101ff575f818152600b60205260409020609690556001016101dd565b50603a5b6041811015610226575f818152600b6020526040902061012c9055600101610203565b505060415f5250600b6020526102587fc021de4c7f43b869597a26b3aa57c4c3c93e9d2692b56abd8b3b2d59a8ef431d55610332565b5f828152602081815260408083206001600160a01b038516845290915281205460ff166102fc575f838152602081815260408083206001600160a01b03861684529091529020805460ff191660011790556102b43390565b6001600160a01b0316826001600160a01b0316847f2f8788117e7eff1d82e926ec794901d17c78024a50270940304540a733656f0d60405160405180910390a45060016102ff565b505f5b92915050565b5f60208284031215610315575f5ffd5b81516001600160a01b038116811461032b575f5ffd5b9392505050565b6112d68061033f5f395ff3fe6080604052600436106101de575f3560e01c8063881eff1e116100fd578063d272e57e11610092578063f1a2de7211610062578063f1a2de7214610581578063f3fef3a3146105a0578063fa09e630146105bf578063fdcdb06b146105de575f5ffd5b8063d272e57e1461050f578063d547741f14610524578063eb56b74014610543578063efdcd97414610562575f5ffd5b8063a217fddf116100cd578063a217fddf14610496578063a812b6e6146104a9578063b3f00674146104dd578063cc895fa5146104fc575f5ffd5b8063881eff1e1461040157806388ea41b91461042057806391d148541461043f5780639619367d14610481575f5ffd5b80633f4ba83a1161017357806364ae4ca61161014357806364ae4ca61461039a57806372229abf146103b9578063841e6ce9146103d85780638456cb59146103ed575f5ffd5b80633f4ba83a1461032357806346008a07146103375780635c975abb1461036e5780635e7c5af514610385575f5ffd5b806328681024116101ae57806328681024146102a55780632e5b2168146102d05780632f2ff15d146102e557806336568abe14610304575f5ffd5b806301ffc9a7146101e95780630ebbe0ad1461021d578063248a9ca314610256578063278473fd14610284575f5ffd5b366101e557005b5f5ffd5b3480156101f4575f5ffd5b5061020861020336600461110a565b6105f2565b60405190151581526020015b60405180910390f35b348015610228575f5ffd5b50610248610237366004611138565b600b6020525f908152604090205481565b604051908152602001610214565b348015610261575f5ffd5b50610248610270366004611138565b5f9081526020819052604090206001015490565b34801561028f575f5ffd5b506102a361029e366004611138565b61065a565b005b3480156102b0575f5ffd5b506102486102bf366004611138565b600a6020525f908152604090205481565b3480156102db575f5ffd5b5061024860055481565b3480156102f0575f5ffd5b506102a36102ff36600461116a565b610677565b34801561030f575f5ffd5b506102a361031e36600461116a565b6106a1565b34801561032e575f5ffd5b506102a36106f2565b348015610342575f5ffd5b50600854610356906001600160a01b031681565b6040516001600160a01b039091168152602001610214565b348015610379575f5ffd5b5060015460ff16610208565b348015610390575f5ffd5b5061024860075481565b3480156103a5575f5ffd5b506102a36103b4366004611194565b61071c565b3480156103c4575f5ffd5b506102a36103d3366004611138565b610763565b3480156103e3575f5ffd5b5061024860035481565b3480156103f8575f5ffd5b506102a3610780565b34801561040c575f5ffd5b506102a361041b366004611138565b6107a7565b34801561042b575f5ffd5b506102a361043a366004611138565b610809565b34801561044a575f5ffd5b5061020861045936600461116a565b5f918252602082815260408084206001600160a01b0393909316845291905290205460ff1690565b34801561048c575f5ffd5b5061024860045481565b3480156104a1575f5ffd5b506102485f81565b3480156104b4575f5ffd5b506104c86104c3366004611138565b610866565b60408051928352602083019190915201610214565b3480156104e8575f5ffd5b50600654610356906001600160a01b031681565b6102a361050a3660046111ad565b6108db565b34801561051a575f5ffd5b5061024860025481565b34801561052f575f5ffd5b506102a361053e36600461116a565b610c69565b34801561054e575f5ffd5b50600954610356906001600160a01b031681565b34801561056d575f5ffd5b506102a361057c366004611194565b610c8d565b34801561058c575f5ffd5b506102a361059b366004611194565b610cd4565b3480156105ab575f5ffd5b506102a36105ba3660046111db565b610d1b565b3480156105ca575f5ffd5b506102a36105d9366004611194565b610dc0565b3480156105e9575f5ffd5b50610248600381565b5f6001600160e01b031982167f7965db0b00000000000000000000000000000000000000000000000000000000148061065457507f01ffc9a7000000000000000000000000000000000000000000000000000000006001600160e01b03198316145b92915050565b5f5160206112815f395f51905f5261067181610e0b565b50600755565b5f8281526020819052604090206001015461069181610e0b565b61069b8383610e15565b50505050565b6001600160a01b03811633146106e3576040517f6697b23200000000000000000000000000000000000000000000000000000000815260040160405180910390fd5b6106ed8282610ebc565b505050565b5f5160206112815f395f51905f5261070981610e0b565b610711610f3d565b610719610f7b565b50565b5f5160206112815f395f51905f5261073381610e0b565b506008805473ffffffffffffffffffffffffffffffffffffffff19166001600160a01b0392909216919091179055565b5f5160206112815f395f51905f5261077a81610e0b565b50600355565b5f5160206112815f395f51905f5261079781610e0b565b61079f610fcd565b61071961100a565b5f5160206112815f395f51905f526107be81610e0b565b6004548210156108035760405162461bcd60e51b815260206004820152600b60248201526a1a5b9d985b1a590818995d60aa1b60448201526064015b60405180910390fd5b50600555565b5f5160206112815f395f51905f5261082081610e0b565b6005548211156108605760405162461bcd60e51b815260206004820152600b60248201526a1a5b9d985b1a590818995d60aa1b60448201526064016107fa565b50600455565b5f8080610874606485611209565b90508060190361088757600492506108ae565b8060320361089857600292506108ae565b80604b036108a957600492506108ae565b600192505b5f6108b98486611230565b905060646108c8826063611247565b6108d2919061125a565b92505050915091565b6108e3610fcd565b60075433905f906108f49084611230565b6108fe903461126d565b90505f836003546127106109129190611247565b61091e61271085611230565b610928919061125a565b610932919061125a565b9050600454811015801561094857506005548111155b6109825760405162461bcd60e51b815260206004820152600b60248201526a1a5b9d985b1a590818995d60aa1b60448201526064016107fa565b5f61098d8583611230565b610997908461126d565b90508460025f8282546109aa9190611247565b90915550506008546007546040516001600160a01b039092169181156108fc0291905f818181858888f193505050501580156109e8573d5f5f3e3d5ffd5b506006546040516001600160a01b039091169082156108fc029083905f818181858888f19350505050158015610a20573d5f5f3e3d5ffd5b505f6064610a30846105dc611230565b610a3a9088611230565b610a44919061125a565b905080471015610a965760405162461bcd60e51b815260206004820152601460248201527f686f757365206f7574206f662062616c616e636500000000000000000000000060448201526064016107fa565b5f87610aa3576042610aa6565b60315b90505f80610ab2611045565b90505f5b89811015610b93575f84610acb836001611247565b610ad59085611230565b610adf9190611209565b90505f8c610afa575f828152600b6020526040902054610b09565b5f828152600a60205260409020545b90505f6064610b188b84611230565b610b22919061125a565b9050610b2e8187611247565b604080518c8152602081018c90526001600160a01b038f1681830152606081018590526080810184905290519197507f9d6caf39e6a1591cd96c8aa4bd03d7278baab79ae5be66a486026b1bd89e5baa919081900360a00190a1505050600101610ab6565b508115610bcf576040516001600160a01b0389169083156108fc029084905f818181858888f19350505050158015610bcd573d5f5f3e3d5ffd5b505b6009546001600160a01b0316635f4717fe600333610bed348761126d565b610bf78e8c611230565b6040516001600160e01b031960e087901b16815260048101949094526001600160a01b039092166024840152604483015260648201526084015f604051808303815f87803b158015610c47575f5ffd5b505af1158015610c59573d5f5f3e3d5ffd5b5050505050505050505050505050565b5f82815260208190526040902060010154610c8381610e0b565b61069b8383610ebc565b5f5160206112815f395f51905f52610ca481610e0b565b506006805473ffffffffffffffffffffffffffffffffffffffff19166001600160a01b0392909216919091179055565b5f5160206112815f395f51905f52610ceb81610e0b565b506009805473ffffffffffffffffffffffffffffffffffffffff19166001600160a01b0392909216919091179055565b5f5160206112815f395f51905f52610d3281610e0b565b4780831115610d835760405162461bcd60e51b815260206004820152600e60248201527f696e76616c696420616d6f756e7400000000000000000000000000000000000060448201526064016107fa565b60405184906001600160a01b0382169085156108fc029086905f818181858888f19350505050158015610db8573d5f5f3e3d5ffd5b505050505050565b5f5160206112815f395f51905f52610dd781610e0b565b60405182906001600160a01b038216904780156108fc02915f818181858888f1935050505015801561069b573d5f5f3e3d5ffd5b610719813361109b565b5f828152602081815260408083206001600160a01b038516845290915281205460ff16610eb5575f838152602081815260408083206001600160a01b03861684529091529020805460ff19166001179055610e6d3390565b6001600160a01b0316826001600160a01b0316847f2f8788117e7eff1d82e926ec794901d17c78024a50270940304540a733656f0d60405160405180910390a4506001610654565b505f610654565b5f828152602081815260408083206001600160a01b038516845290915281205460ff1615610eb5575f838152602081815260408083206001600160a01b0386168085529252808320805460ff1916905551339286917ff6391f5c32d9c69d2a47ea670b442974b53935d1edc7fd64eb21e047a839171b9190a4506001610654565b60015460ff16610f79576040517f8dfc202b00000000000000000000000000000000000000000000000000000000815260040160405180910390fd5b565b610f83610f3d565b6001805460ff191690557f5db9ee0a495bf2e6ff9c91a7834c1ba4fdd244a5e8aa4e537bd38aeae4b073aa335b6040516001600160a01b03909116815260200160405180910390a1565b60015460ff1615610f79576040517fd93c066500000000000000000000000000000000000000000000000000000000815260040160405180910390fd5b611012610fcd565b6001805460ff1916811790557f62e78cea01bee320cd4e420270b5ea74000d11b0c9f74754ebdbfc544b05a25833610fb0565b5f42443360405160200161107e93929190928352602083019190915260601b6bffffffffffffffffffffffff1916604082015260540190565b604051602081830303815290604052805190602001205f1c905090565b5f828152602081815260408083206001600160a01b038516845290915290205460ff16611106576040517fe2517d3f0000000000000000000000000000000000000000000000000000000081526001600160a01b0382166004820152602481018390526044016107fa565b5050565b5f6020828403121561111a575f5ffd5b81356001600160e01b031981168114611131575f5ffd5b9392505050565b5f60208284031215611148575f5ffd5b5035919050565b80356001600160a01b0381168114611165575f5ffd5b919050565b5f5f6040838503121561117b575f5ffd5b8235915061118b6020840161114f565b90509250929050565b5f602082840312156111a4575f5ffd5b6111318261114f565b5f5f604083850312156111be575f5ffd5b823580151581146111cd575f5ffd5b946020939093013593505050565b5f5f604083850312156111ec575f5ffd5b6111cd8361114f565b634e487b7160e01b5f52601260045260245ffd5b5f82611217576112176111f5565b500690565b634e487b7160e01b5f52601160045260245ffd5b80820281158282048414176106545761065461121c565b808201808211156106545761065461121c565b5f82611268576112686111f5565b500490565b818103818111156106545761065461121c56fea49807205ce4d355092ef5a8a18f56e8913cf4a201fbe287825b095693c21775a264697066735822122000fbcd53a2f787251110f07ffccbe3dc628e16ca3cc57cf472d10e8a2191b6b564736f6c634300081c0033",
  "devdoc": {
    "errors": {
      "AccessControlBadConfirmation()": [
        {
          "details": "The caller of a function is not the expected one. NOTE: Don't confuse with {AccessControlUnauthorizedAccount}."
        }
      ],
      "AccessControlUnauthorizedAccount(address,bytes32)": [
        {
          "details": "The `account` is missing a role."
        }
      ],
      "EnforcedPause()": [
        {
          "details": "The operation failed because the contract is paused."
        }
      ],
      "ExpectedPause()": [
        {
          "details": "The operation failed because the contract is not paused."
        }
      ]
    },
    "events": {
      "Paused(address)": {
        "details": "Emitted when the pause is triggered by `account`."
      },
      "RoleAdminChanged(bytes32,bytes32,bytes32)": {
        "details": "Emitted when `newAdminRole` is set as ``role``'s admin role, replacing `previousAdminRole` `DEFAULT_ADMIN_ROLE` is the starting admin for all roles, despite {RoleAdminChanged} not being emitted signaling this."
      },
      "RoleGranted(bytes32,address,address)": {
        "details": "Emitted when `account` is granted `role`. `sender` is the account that originated the contract call. This account bears the admin role (for the granted role). Expected in cases where the role was granted using the internal {AccessControl-_grantRole}."
      },
      "RoleRevoked(bytes32,address,address)": {
        "details": "Emitted when `account` is revoked `role`. `sender` is the account that originated the contract call:   - if using `revokeRole`, it is the admin role bearer   - if using `renounceRole`, it is the role bearer (i.e. `account`)"
      },
      "Unpaused(address)": {
        "details": "Emitted when the pause is lifted by `account`."
      }
    },
    "kind": "dev",
    "methods": {
      "getRoleAdmin(bytes32)": {
        "details": "Returns the admin role that controls `role`. See {grantRole} and {revokeRole}. To change a role's admin, use {_setRoleAdmin}."
      },
      "grantRole(bytes32,address)": {
        "details": "Grants `role` to `account`. If `account` had not been already granted `role`, emits a {RoleGranted} event. Requirements: - the caller must have ``role``'s admin role. May emit a {RoleGranted} event."
      },
      "hasRole(bytes32,address)": {
        "details": "Returns `true` if `account` has been granted `role`."
      },
      "pause()": {
        "details": "called by the owner to pause, triggers stopped state"
      },
      "paused()": {
        "details": "Returns true if the contract is paused, and false otherwise."
      },
      "renounceRole(bytes32,address)": {
        "details": "Revokes `role` from the calling account. Roles are often managed via {grantRole} and {revokeRole}: this function's purpose is to provide a mechanism for accounts to lose their privileges if they are compromised (such as when a trusted device is misplaced). If the calling account had been revoked `role`, emits a {RoleRevoked} event. Requirements: - the caller must be `callerConfirmation`. May emit a {RoleRevoked} event."
      },
      "revokeRole(bytes32,address)": {
        "details": "Revokes `role` from `account`. If `account` had been granted `role`, emits a {RoleRevoked} event. Requirements: - the caller must have ``role``'s admin role. May emit a {RoleRevoked} event."
      },
      "supportsInterface(bytes4)": {
        "details": "See {IERC165-supportsInterface}."
      },
      "unpause()": {
        "details": "called by the owner to unpause, returns to normal state"
      }
    },
    "version": 1
  },
  "userdoc": {
    "kind": "user",
    "methods": {
      "totalGame()": {
        "notice": "Storages"
      }
    },
    "version": 1
  },
  "storageLayout": {
    "storage": [
      {
        "astId": 26,
        "contract": "contracts/Plinko/Plinko.sol:Plinko",
        "label": "_roles",
        "offset": 0,
        "slot": "0",
        "type": "t_mapping(t_bytes32,t_struct(RoleData)21_storage)"
      },
      {
        "astId": 417,
        "contract": "contracts/Plinko/Plinko.sol:Plinko",
        "label": "_paused",
        "offset": 0,
        "slot": "1",
        "type": "t_bool"
      },
      {
        "astId": 2267,
        "contract": "contracts/Plinko/Plinko.sol:Plinko",
        "label": "totalGame",
        "offset": 0,
        "slot": "2",
        "type": "t_uint256"
      },
      {
        "astId": 2269,
        "contract": "contracts/Plinko/Plinko.sol:Plinko",
        "label": "betFee",
        "offset": 0,
        "slot": "3",
        "type": "t_uint256"
      },
      {
        "astId": 2271,
        "contract": "contracts/Plinko/Plinko.sol:Plinko",
        "label": "minBet",
        "offset": 0,
        "slot": "4",
        "type": "t_uint256"
      },
      {
        "astId": 2273,
        "contract": "contracts/Plinko/Plinko.sol:Plinko",
        "label": "maxBet",
        "offset": 0,
        "slot": "5",
        "type": "t_uint256"
      },
      {
        "astId": 2275,
        "contract": "contracts/Plinko/Plinko.sol:Plinko",
        "label": "feeReceiver",
        "offset": 0,
        "slot": "6",
        "type": "t_address"
      },
      {
        "astId": 2277,
        "contract": "contracts/Plinko/Plinko.sol:Plinko",
        "label": "govFee",
        "offset": 0,
        "slot": "7",
        "type": "t_uint256"
      },
      {
        "astId": 2279,
        "contract": "contracts/Plinko/Plinko.sol:Plinko",
        "label": "govAddress",
        "offset": 0,
        "slot": "8",
        "type": "t_address"
      },
      {
        "astId": 2281,
        "contract": "contracts/Plinko/Plinko.sol:Plinko",
        "label": "leaderboard",
        "offset": 0,
        "slot": "9",
        "type": "t_address"
      },
      {
        "astId": 2285,
        "contract": "contracts/Plinko/Plinko.sol:Plinko",
        "label": "degenMultiplier",
        "offset": 0,
        "slot": "10",
        "type": "t_mapping(t_uint256,t_uint256)"
      },
      {
        "astId": 2289,
        "contract": "contracts/Plinko/Plinko.sol:Plinko",
        "label": "basicMultiplier",
        "offset": 0,
        "slot": "11",
        "type": "t_mapping(t_uint256,t_uint256)"
      }
    ],
    "types": {
      "t_address": {
        "encoding": "inplace",
        "label": "address",
        "numberOfBytes": "20"
      },
      "t_bool": {
        "encoding": "inplace",
        "label": "bool",
        "numberOfBytes": "1"
      },
      "t_bytes32": {
        "encoding": "inplace",
        "label": "bytes32",
        "numberOfBytes": "32"
      },
      "t_mapping(t_address,t_bool)": {
        "encoding": "mapping",
        "key": "t_address",
        "label": "mapping(address => bool)",
        "numberOfBytes": "32",
        "value": "t_bool"
      },
      "t_mapping(t_bytes32,t_struct(RoleData)21_storage)": {
        "encoding": "mapping",
        "key": "t_bytes32",
        "label": "mapping(bytes32 => struct AccessControl.RoleData)",
        "numberOfBytes": "32",
        "value": "t_struct(RoleData)21_storage"
      },
      "t_mapping(t_uint256,t_uint256)": {
        "encoding": "mapping",
        "key": "t_uint256",
        "label": "mapping(uint256 => uint256)",
        "numberOfBytes": "32",
        "value": "t_uint256"
      },
      "t_struct(RoleData)21_storage": {
        "encoding": "inplace",
        "label": "struct AccessControl.RoleData",
        "members": [
          {
            "astId": 18,
            "contract": "contracts/Plinko/Plinko.sol:Plinko",
            "label": "hasRole",
            "offset": 0,
            "slot": "0",
            "type": "t_mapping(t_address,t_bool)"
          },
          {
            "astId": 20,
            "contract": "contracts/Plinko/Plinko.sol:Plinko",
            "label": "adminRole",
            "offset": 0,
            "slot": "1",
            "type": "t_bytes32"
          }
        ],
        "numberOfBytes": "64"
      },
      "t_uint256": {
        "encoding": "inplace",
        "label": "uint256",
        "numberOfBytes": "32"
      }
    }
  }
}