{
  "address": "0x8Cc968213541b36A9d75C0e832e4E66E58947a3E",
  "abi": [
    {
      "inputs": [
        {
          "internalType": "address",
          "name": "leaderboard_",
          "type": "address"
        }
      ],
      "stateMutability": "nonpayable",
      "type": "constructor"
    },
    {
      "inputs": [],
      "name": "AccessControlBadConfirmation",
      "type": "error"
    },
    {
      "inputs": [
        {
          "internalType": "address",
          "name": "account",
          "type": "address"
        },
        {
          "internalType": "bytes32",
          "name": "neededRole",
          "type": "bytes32"
        }
      ],
      "name": "AccessControlUnauthorizedAccount",
      "type": "error"
    },
    {
      "inputs": [],
      "name": "EnforcedPause",
      "type": "error"
    },
    {
      "inputs": [],
      "name": "ExpectedPause",
      "type": "error"
    },
    {
      "anonymous": false,
      "inputs": [
        {
          "indexed": false,
          "internalType": "uint256",
          "name": "betAmount",
          "type": "uint256"
        },
        {
          "indexed": false,
          "internalType": "uint256",
          "name": "fee",
          "type": "uint256"
        },
        {
          "indexed": false,
          "internalType": "address",
          "name": "user",
          "type": "address"
        },
        {
          "indexed": false,
          "internalType": "uint256",
          "name": "multiplier",
          "type": "uint256"
        },
        {
          "indexed": false,
          "internalType": "uint256",
          "name": "rewardAmount",
          "type": "uint256"
        }
      ],
      "name": "Game",
      "type": "event"
    },
    {
      "anonymous": false,
      "inputs": [
        {
          "indexed": false,
          "internalType": "address",
          "name": "account",
          "type": "address"
        }
      ],
      "name": "Paused",
      "type": "event"
    },
    {
      "anonymous": false,
      "inputs": [
        {
          "indexed": true,
          "internalType": "bytes32",
          "name": "role",
          "type": "bytes32"
        },
        {
          "indexed": true,
          "internalType": "bytes32",
          "name": "previousAdminRole",
          "type": "bytes32"
        },
        {
          "indexed": true,
          "internalType": "bytes32",
          "name": "newAdminRole",
          "type": "bytes32"
        }
      ],
      "name": "RoleAdminChanged",
      "type": "event"
    },
    {
      "anonymous": false,
      "inputs": [
        {
          "indexed": true,
          "internalType": "bytes32",
          "name": "role",
          "type": "bytes32"
        },
        {
          "indexed": true,
          "internalType": "address",
          "name": "account",
          "type": "address"
        },
        {
          "indexed": true,
          "internalType": "address",
          "name": "sender",
          "type": "address"
        }
      ],
      "name": "RoleGranted",
      "type": "event"
    },
    {
      "anonymous": false,
      "inputs": [
        {
          "indexed": true,
          "internalType": "bytes32",
          "name": "role",
          "type": "bytes32"
        },
        {
          "indexed": true,
          "internalType": "address",
          "name": "account",
          "type": "address"
        },
        {
          "indexed": true,
          "internalType": "address",
          "name": "sender",
          "type": "address"
        }
      ],
      "name": "RoleRevoked",
      "type": "event"
    },
    {
      "anonymous": false,
      "inputs": [
        {
          "indexed": false,
          "internalType": "address",
          "name": "account",
          "type": "address"
        }
      ],
      "name": "Unpaused",
      "type": "event"
    },
    {
      "inputs": [],
      "name": "DEFAULT_ADMIN_ROLE",
      "outputs": [
        {
          "internalType": "bytes32",
          "name": "",
          "type": "bytes32"
        }
      ],
      "stateMutability": "view",
      "type": "function"
    },
    {
      "inputs": [],
      "name": "GAME_ID",
      "outputs": [
        {
          "internalType": "uint256",
          "name": "",
          "type": "uint256"
        }
      ],
      "stateMutability": "view",
      "type": "function"
    },
    {
      "inputs": [
        {
          "internalType": "uint256",
          "name": "",
          "type": "uint256"
        }
      ],
      "name": "basicMultiplier",
      "outputs": [
        {
          "internalType": "uint256",
          "name": "",
          "type": "uint256"
        }
      ],
      "stateMutability": "view",
      "type": "function"
    },
    {
      "inputs": [
        {
          "internalType": "uint256",
          "name": "",
          "type": "uint256"
        }
      ],
      "name": "degenMultiplier",
      "outputs": [
        {
          "internalType": "uint256",
          "name": "",
          "type": "uint256"
        }
      ],
      "stateMutability": "view",
      "type": "function"
    },
    {
      "inputs": [
        {
          "internalType": "bytes32",
          "name": "role",
          "type": "bytes32"
        }
      ],
      "name": "getRoleAdmin",
      "outputs": [
        {
          "internalType": "bytes32",
          "name": "",
          "type": "bytes32"
        }
      ],
      "stateMutability": "view",
      "type": "function"
    },
    {
      "inputs": [
        {
          "internalType": "bytes32",
          "name": "role",
          "type": "bytes32"
        },
        {
          "internalType": "address",
          "name": "account",
          "type": "address"
        }
      ],
      "name": "grantRole",
      "outputs": [],
      "stateMutability": "nonpayable",
      "type": "function"
    },
    {
      "inputs": [
        {
          "internalType": "bytes32",
          "name": "role",
          "type": "bytes32"
        },
        {
          "internalType": "address",
          "name": "account",
          "type": "address"
        }
      ],
      "name": "hasRole",
      "outputs": [
        {
          "internalType": "bool",
          "name": "",
          "type": "bool"
        }
      ],
      "stateMutability": "view",
      "type": "function"
    },
    {
      "inputs": [],
      "name": "leaderboard",
      "outputs": [
        {
          "internalType": "address",
          "name": "",
          "type": "address"
        }
      ],
      "stateMutability": "view",
      "type": "function"
    },
    {
      "inputs": [],
      "name": "pause",
      "outputs": [],
      "stateMutability": "nonpayable",
      "type": "function"
    },
    {
      "inputs": [],
      "name": "paused",
      "outputs": [
        {
          "internalType": "bool",
          "name": "",
          "type": "bool"
        }
      ],
      "stateMutability": "view",
      "type": "function"
    },
    {
      "inputs": [
        {
          "internalType": "bool",
          "name": "degen",
          "type": "bool"
        },
        {
          "internalType": "uint256",
          "name": "ball",
          "type": "uint256"
        }
      ],
      "name": "plinko",
      "outputs": [],
      "stateMutability": "payable",
      "type": "function"
    },
    {
      "inputs": [
        {
          "internalType": "bytes32",
          "name": "role",
          "type": "bytes32"
        },
        {
          "internalType": "address",
          "name": "callerConfirmation",
          "type": "address"
        }
      ],
      "name": "renounceRole",
      "outputs": [],
      "stateMutability": "nonpayable",
      "type": "function"
    },
    {
      "inputs": [
        {
          "internalType": "bytes32",
          "name": "role",
          "type": "bytes32"
        },
        {
          "internalType": "address",
          "name": "account",
          "type": "address"
        }
      ],
      "name": "revokeRole",
      "outputs": [],
      "stateMutability": "nonpayable",
      "type": "function"
    },
    {
      "inputs": [
        {
          "internalType": "address",
          "name": "leaderboard_",
          "type": "address"
        }
      ],
      "name": "setLeaderboard",
      "outputs": [],
      "stateMutability": "nonpayable",
      "type": "function"
    },
    {
      "inputs": [
        {
          "internalType": "bytes4",
          "name": "interfaceId",
          "type": "bytes4"
        }
      ],
      "name": "supportsInterface",
      "outputs": [
        {
          "internalType": "bool",
          "name": "",
          "type": "bool"
        }
      ],
      "stateMutability": "view",
      "type": "function"
    },
    {
      "inputs": [],
      "name": "totalGame",
      "outputs": [
        {
          "internalType": "uint256",
          "name": "",
          "type": "uint256"
        }
      ],
      "stateMutability": "view",
      "type": "function"
    },
    {
      "inputs": [],
      "name": "unpause",
      "outputs": [],
      "stateMutability": "nonpayable",
      "type": "function"
    },
    {
      "stateMutability": "payable",
      "type": "receive"
    }
  ],
  "transactionHash": "0x65bc2ba0c1279015e88c2e69ef2e61777fd7f0302b96b7b6168a32ad30d5e915",
  "args": [
    "0x2e805aE4Bb091398875C2D65DF037803241987d7"
  ],
  "numDeployments": 1,
  "solcInputHash": "7928e755eb1c667d99f98ca3c4830967",
  "bytecode": "0x60806040523480156200001157600080fd5b5060405162001094380380620010948339810160408190526200003491620002ff565b6001805460ff19169055336200004c60008262000250565b50620000797fa49807205ce4d355092ef5a8a18f56e8913cf4a201fbe287825b095693c217758262000250565b50600380546001600160a01b0319166001600160a01b038416179055600460205260c87f90cda500e35aaf03a1a434c6c35e405898eb7e8c3b95c3a697cd23106146040e8190557fcee00ef6983e77a7e1db3b46722f66f35b443eda730735f8d62ca455b3aed108556103e87f23b46c729058bbeb475c41bb0ca0b2ae749b9f5c561c6c7b69407ac2bf1236998190557f3377cca8db66d73c9613cf008dc21372e328915d0ae53c1e79018b2f3033b4be8190557ffac89625171123edccfe88e684fd4aea5c340aeae5af371b184adfb7953ce96555603060009081526105dc7f8eeeed6187cb0efc838c06115ccee03417eb91ef74d6a7e8c96ea8053a407fae555b6030811015620001ad5760008181526005602052604090206032905580620001a48162000331565b9150506200017c565b5060305b603a811015620001e25760008181526005602052604090206096905580620001d98162000331565b915050620001b1565b50603a5b60418110156200021857600081815260056020526040902061012c9055806200020f8162000331565b915050620001e6565b505060416000525060056020526102587f40b774bb4cbea2da026b022e415a02f4741eaee1c7766ff17f16d5d987e033a65562000359565b6000828152602081815260408083206001600160a01b038516845290915281205460ff16620002f5576000838152602081815260408083206001600160a01b03861684529091529020805460ff19166001179055620002ac3390565b6001600160a01b0316826001600160a01b0316847f2f8788117e7eff1d82e926ec794901d17c78024a50270940304540a733656f0d60405160405180910390a4506001620002f9565b5060005b92915050565b6000602082840312156200031257600080fd5b81516001600160a01b03811681146200032a57600080fd5b9392505050565b6000600182016200035257634e487b7160e01b600052601160045260246000fd5b5060010190565b610d2b80620003696000396000f3fe6080604052600436106101125760003560e01c80638456cb59116100a5578063d272e57e11610074578063eb56b74011610059578063eb56b74014610311578063f1a2de7214610349578063fdcdb06b1461036957600080fd5b8063d272e57e146102db578063d547741f146102f157600080fd5b80638456cb591461025a57806391d148541461026f578063a217fddf146102b3578063cc895fa5146102c857600080fd5b80632f2ff15d116100e15780632f2ff15d146101eb57806336568abe1461020d5780633f4ba83a1461022d5780635c975abb1461024257600080fd5b806301ffc9a71461011e5780630ebbe0ad14610153578063248a9ca31461018e57806328681024146101be57600080fd5b3661011957005b600080fd5b34801561012a57600080fd5b5061013e610139366004610b5c565b61037e565b60405190151581526020015b60405180910390f35b34801561015f57600080fd5b5061018061016e366004610b8d565b60056020526000908152604090205481565b60405190815260200161014a565b34801561019a57600080fd5b506101806101a9366004610b8d565b60009081526020819052604090206001015490565b3480156101ca57600080fd5b506101806101d9366004610b8d565b60046020526000908152604090205481565b3480156101f757600080fd5b5061020b610206366004610bc2565b6103e7565b005b34801561021957600080fd5b5061020b610228366004610bc2565b610412565b34801561023957600080fd5b5061020b610463565b34801561024e57600080fd5b5060015460ff1661013e565b34801561026657600080fd5b5061020b6104a0565b34801561027b57600080fd5b5061013e61028a366004610bc2565b6000918252602082815260408084206001600160a01b0393909316845291905290205460ff1690565b3480156102bf57600080fd5b50610180600081565b61020b6102d6366004610bee565b6104da565b3480156102e757600080fd5b5061018060025481565b3480156102fd57600080fd5b5061020b61030c366004610bc2565b6107c2565b34801561031d57600080fd5b50600354610331906001600160a01b031681565b6040516001600160a01b03909116815260200161014a565b34801561035557600080fd5b5061020b610364366004610c1f565b6107e7565b34801561037557600080fd5b50610180600381565b60006001600160e01b031982167f7965db0b0000000000000000000000000000000000000000000000000000000014806103e157507f01ffc9a7000000000000000000000000000000000000000000000000000000006001600160e01b03198316145b92915050565b6000828152602081905260409020600101546104028161084c565b61040c8383610856565b50505050565b6001600160a01b0381163314610454576040517f6697b23200000000000000000000000000000000000000000000000000000000815260040160405180910390fd5b61045e8282610900565b505050565b7fa49807205ce4d355092ef5a8a18f56e8913cf4a201fbe287825b095693c2177561048d8161084c565b610495610983565b61049d6109c1565b50565b7fa49807205ce4d355092ef5a8a18f56e8913cf4a201fbe287825b095693c217756104ca8161084c565b6104d2610a13565b61049d610a50565b6104e2610a13565b600033600354604080517f181aa1fd000000000000000000000000000000000000000000000000000000008152815193945060009384936001600160a01b03169263181aa1fd92349260048083019392829003018185885af115801561054c573d6000803e3d6000fd5b50505050506040513d601f19601f820116820180604052508101906105719190610c3a565b909250905060006064610586846105dc610c74565b6105909087610c74565b61059a9190610ca1565b6003549091506001600160a01b031631811115610618576040517f08c379a000000000000000000000000000000000000000000000000000000000815260206004820152601460248201527f686f757365206f7574206f662062616c616e636500000000000000000000000060448201526064015b60405180910390fd5b846002600082825461062a9190610cb5565b90915550600090508661063e576042610641565b60315b90506000805b8781101561072c57600061065a82610a8b565b905060006106688583610cc8565b905060008b61068557600082815260056020526040902054610695565b6000828152600460205260409020545b9050600060646106a58b84610c74565b6106af9190610ca1565b90506106bb8187610cb5565b604080518c8152602081018c90526001600160a01b038e1681830152606081018590526080810184905290519197507f9d6caf39e6a1591cd96c8aa4bd03d7278baab79ae5be66a486026b1bd89e5baa919081900360a00190a150505050808061072490610cdc565b915050610647565b50600380546001600160a01b0316906383fbaae290338461074d8c8b610c74565b6040516001600160e01b031960e087901b16815260048101949094526001600160a01b03909216602484015260448301526064820152608401600060405180830381600087803b1580156107a057600080fd5b505af11580156107b4573d6000803e3d6000fd5b505050505050505050505050565b6000828152602081905260409020600101546107dd8161084c565b61040c8383610900565b7fa49807205ce4d355092ef5a8a18f56e8913cf4a201fbe287825b095693c217756108118161084c565b50600380547fffffffffffffffffffffffff0000000000000000000000000000000000000000166001600160a01b0392909216919091179055565b61049d8133610aec565b6000828152602081815260408083206001600160a01b038516845290915281205460ff166108f8576000838152602081815260408083206001600160a01b03861684529091529020805460ff191660011790556108b03390565b6001600160a01b0316826001600160a01b0316847f2f8788117e7eff1d82e926ec794901d17c78024a50270940304540a733656f0d60405160405180910390a45060016103e1565b5060006103e1565b6000828152602081815260408083206001600160a01b038516845290915281205460ff16156108f8576000838152602081815260408083206001600160a01b0386168085529252808320805460ff1916905551339286917ff6391f5c32d9c69d2a47ea670b442974b53935d1edc7fd64eb21e047a839171b9190a45060016103e1565b60015460ff166109bf576040517f8dfc202b00000000000000000000000000000000000000000000000000000000815260040160405180910390fd5b565b6109c9610983565b6001805460ff191690557f5db9ee0a495bf2e6ff9c91a7834c1ba4fdd244a5e8aa4e537bd38aeae4b073aa335b6040516001600160a01b03909116815260200160405180910390a1565b60015460ff16156109bf576040517fd93c066500000000000000000000000000000000000000000000000000000000815260040160405180910390fd5b610a58610a13565b6001805460ff1916811790557f62e78cea01bee320cd4e420270b5ea74000d11b0c9f74754ebdbfc544b05a258336109f6565b6000436002543384604051602001610ace9493929190938452602084019290925260601b6bffffffffffffffffffffffff19166040830152605482015260740190565b60408051601f19818403018152919052805160209091012092915050565b6000828152602081815260408083206001600160a01b038516845290915290205460ff16610b58576040517fe2517d3f0000000000000000000000000000000000000000000000000000000081526001600160a01b03821660048201526024810183905260440161060f565b5050565b600060208284031215610b6e57600080fd5b81356001600160e01b031981168114610b8657600080fd5b9392505050565b600060208284031215610b9f57600080fd5b5035919050565b80356001600160a01b0381168114610bbd57600080fd5b919050565b60008060408385031215610bd557600080fd5b82359150610be560208401610ba6565b90509250929050565b60008060408385031215610c0157600080fd5b82358015158114610c1157600080fd5b946020939093013593505050565b600060208284031215610c3157600080fd5b610b8682610ba6565b60008060408385031215610c4d57600080fd5b505080516020909101519092909150565b634e487b7160e01b600052601160045260246000fd5b80820281158282048414176103e1576103e1610c5e565b634e487b7160e01b600052601260045260246000fd5b600082610cb057610cb0610c8b565b500490565b808201808211156103e1576103e1610c5e565b600082610cd757610cd7610c8b565b500690565b600060018201610cee57610cee610c5e565b506001019056fea264697066735822122002dfda1dd9d85f15e55b9903bc559ff2491038428fda8558f74a112016004cad64736f6c63430008140033",
  "devdoc": {
    "errors": {
      "AccessControlBadConfirmation()": [
        {
          "details": "The caller of a function is not the expected one. NOTE: Don't confuse with {AccessControlUnauthorizedAccount}."
        }
      ],
      "AccessControlUnauthorizedAccount(address,bytes32)": [
        {
          "details": "The `account` is missing a role."
        }
      ],
      "EnforcedPause()": [
        {
          "details": "The operation failed because the contract is paused."
        }
      ],
      "ExpectedPause()": [
        {
          "details": "The operation failed because the contract is not paused."
        }
      ]
    },
    "events": {
      "Paused(address)": {
        "details": "Emitted when the pause is triggered by `account`."
      },
      "RoleAdminChanged(bytes32,bytes32,bytes32)": {
        "details": "Emitted when `newAdminRole` is set as ``role``'s admin role, replacing `previousAdminRole` `DEFAULT_ADMIN_ROLE` is the starting admin for all roles, despite {RoleAdminChanged} not being emitted signaling this."
      },
      "RoleGranted(bytes32,address,address)": {
        "details": "Emitted when `account` is granted `role`. `sender` is the account that originated the contract call. This account bears the admin role (for the granted role). Expected in cases where the role was granted using the internal {AccessControl-_grantRole}."
      },
      "RoleRevoked(bytes32,address,address)": {
        "details": "Emitted when `account` is revoked `role`. `sender` is the account that originated the contract call:   - if using `revokeRole`, it is the admin role bearer   - if using `renounceRole`, it is the role bearer (i.e. `account`)"
      },
      "Unpaused(address)": {
        "details": "Emitted when the pause is lifted by `account`."
      }
    },
    "kind": "dev",
    "methods": {
      "getRoleAdmin(bytes32)": {
        "details": "Returns the admin role that controls `role`. See {grantRole} and {revokeRole}. To change a role's admin, use {_setRoleAdmin}."
      },
      "grantRole(bytes32,address)": {
        "details": "Grants `role` to `account`. If `account` had not been already granted `role`, emits a {RoleGranted} event. Requirements: - the caller must have ``role``'s admin role. May emit a {RoleGranted} event."
      },
      "hasRole(bytes32,address)": {
        "details": "Returns `true` if `account` has been granted `role`."
      },
      "pause()": {
        "details": "called by the owner to pause, triggers stopped state"
      },
      "paused()": {
        "details": "Returns true if the contract is paused, and false otherwise."
      },
      "renounceRole(bytes32,address)": {
        "details": "Revokes `role` from the calling account. Roles are often managed via {grantRole} and {revokeRole}: this function's purpose is to provide a mechanism for accounts to lose their privileges if they are compromised (such as when a trusted device is misplaced). If the calling account had been revoked `role`, emits a {RoleRevoked} event. Requirements: - the caller must be `callerConfirmation`. May emit a {RoleRevoked} event."
      },
      "revokeRole(bytes32,address)": {
        "details": "Revokes `role` from `account`. If `account` had been granted `role`, emits a {RoleRevoked} event. Requirements: - the caller must have ``role``'s admin role. May emit a {RoleRevoked} event."
      },
      "supportsInterface(bytes4)": {
        "details": "See {IERC165-supportsInterface}."
      },
      "unpause()": {
        "details": "called by the owner to unpause, returns to normal state"
      }
    },
    "version": 1
  },
  "userdoc": {
    "kind": "user",
    "methods": {
      "totalGame()": {
        "notice": "Storages"
      }
    },
    "version": 1
  },
  "storageLayout": {
    "storage": [
      {
        "astId": 26,
        "contract": "contracts/Plinko/Plinko.sol:Plinko",
        "label": "_roles",
        "offset": 0,
        "slot": "0",
        "type": "t_mapping(t_bytes32,t_struct(RoleData)21_storage)"
      },
      {
        "astId": 417,
        "contract": "contracts/Plinko/Plinko.sol:Plinko",
        "label": "_paused",
        "offset": 0,
        "slot": "1",
        "type": "t_bool"
      },
      {
        "astId": 1009,
        "contract": "contracts/Plinko/Plinko.sol:Plinko",
        "label": "totalGame",
        "offset": 0,
        "slot": "2",
        "type": "t_uint256"
      },
      {
        "astId": 1011,
        "contract": "contracts/Plinko/Plinko.sol:Plinko",
        "label": "leaderboard",
        "offset": 0,
        "slot": "3",
        "type": "t_address"
      },
      {
        "astId": 1015,
        "contract": "contracts/Plinko/Plinko.sol:Plinko",
        "label": "degenMultiplier",
        "offset": 0,
        "slot": "4",
        "type": "t_mapping(t_uint256,t_uint256)"
      },
      {
        "astId": 1019,
        "contract": "contracts/Plinko/Plinko.sol:Plinko",
        "label": "basicMultiplier",
        "offset": 0,
        "slot": "5",
        "type": "t_mapping(t_uint256,t_uint256)"
      }
    ],
    "types": {
      "t_address": {
        "encoding": "inplace",
        "label": "address",
        "numberOfBytes": "20"
      },
      "t_bool": {
        "encoding": "inplace",
        "label": "bool",
        "numberOfBytes": "1"
      },
      "t_bytes32": {
        "encoding": "inplace",
        "label": "bytes32",
        "numberOfBytes": "32"
      },
      "t_mapping(t_address,t_bool)": {
        "encoding": "mapping",
        "key": "t_address",
        "label": "mapping(address => bool)",
        "numberOfBytes": "32",
        "value": "t_bool"
      },
      "t_mapping(t_bytes32,t_struct(RoleData)21_storage)": {
        "encoding": "mapping",
        "key": "t_bytes32",
        "label": "mapping(bytes32 => struct AccessControl.RoleData)",
        "numberOfBytes": "32",
        "value": "t_struct(RoleData)21_storage"
      },
      "t_mapping(t_uint256,t_uint256)": {
        "encoding": "mapping",
        "key": "t_uint256",
        "label": "mapping(uint256 => uint256)",
        "numberOfBytes": "32",
        "value": "t_uint256"
      },
      "t_struct(RoleData)21_storage": {
        "encoding": "inplace",
        "label": "struct AccessControl.RoleData",
        "members": [
          {
            "astId": 18,
            "contract": "contracts/Plinko/Plinko.sol:Plinko",
            "label": "hasRole",
            "offset": 0,
            "slot": "0",
            "type": "t_mapping(t_address,t_bool)"
          },
          {
            "astId": 20,
            "contract": "contracts/Plinko/Plinko.sol:Plinko",
            "label": "adminRole",
            "offset": 0,
            "slot": "1",
            "type": "t_bytes32"
          }
        ],
        "numberOfBytes": "64"
      },
      "t_uint256": {
        "encoding": "inplace",
        "label": "uint256",
        "numberOfBytes": "32"
      }
    }
  }
}