{
  "address": "0xd77986041cAc030093D1E38dA44Cd765D758B340",
  "abi": [
    {
      "inputs": [
        {
          "internalType": "address",
          "name": "leaderboard_",
          "type": "address"
        }
      ],
      "stateMutability": "nonpayable",
      "type": "constructor"
    },
    {
      "inputs": [],
      "name": "AccessControlBadConfirmation",
      "type": "error"
    },
    {
      "inputs": [
        {
          "internalType": "address",
          "name": "account",
          "type": "address"
        },
        {
          "internalType": "bytes32",
          "name": "neededRole",
          "type": "bytes32"
        }
      ],
      "name": "AccessControlUnauthorizedAccount",
      "type": "error"
    },
    {
      "inputs": [],
      "name": "EnforcedPause",
      "type": "error"
    },
    {
      "inputs": [],
      "name": "ExpectedPause",
      "type": "error"
    },
    {
      "anonymous": false,
      "inputs": [
        {
          "indexed": false,
          "internalType": "uint256",
          "name": "betAmount",
          "type": "uint256"
        },
        {
          "indexed": false,
          "internalType": "uint256",
          "name": "fee",
          "type": "uint256"
        },
        {
          "indexed": false,
          "internalType": "address",
          "name": "user",
          "type": "address"
        },
        {
          "indexed": false,
          "internalType": "uint256",
          "name": "multiplier",
          "type": "uint256"
        },
        {
          "indexed": false,
          "internalType": "uint256",
          "name": "rewardAmount",
          "type": "uint256"
        }
      ],
      "name": "Game",
      "type": "event"
    },
    {
      "anonymous": false,
      "inputs": [
        {
          "indexed": false,
          "internalType": "address",
          "name": "account",
          "type": "address"
        }
      ],
      "name": "Paused",
      "type": "event"
    },
    {
      "anonymous": false,
      "inputs": [
        {
          "indexed": true,
          "internalType": "bytes32",
          "name": "role",
          "type": "bytes32"
        },
        {
          "indexed": true,
          "internalType": "bytes32",
          "name": "previousAdminRole",
          "type": "bytes32"
        },
        {
          "indexed": true,
          "internalType": "bytes32",
          "name": "newAdminRole",
          "type": "bytes32"
        }
      ],
      "name": "RoleAdminChanged",
      "type": "event"
    },
    {
      "anonymous": false,
      "inputs": [
        {
          "indexed": true,
          "internalType": "bytes32",
          "name": "role",
          "type": "bytes32"
        },
        {
          "indexed": true,
          "internalType": "address",
          "name": "account",
          "type": "address"
        },
        {
          "indexed": true,
          "internalType": "address",
          "name": "sender",
          "type": "address"
        }
      ],
      "name": "RoleGranted",
      "type": "event"
    },
    {
      "anonymous": false,
      "inputs": [
        {
          "indexed": true,
          "internalType": "bytes32",
          "name": "role",
          "type": "bytes32"
        },
        {
          "indexed": true,
          "internalType": "address",
          "name": "account",
          "type": "address"
        },
        {
          "indexed": true,
          "internalType": "address",
          "name": "sender",
          "type": "address"
        }
      ],
      "name": "RoleRevoked",
      "type": "event"
    },
    {
      "anonymous": false,
      "inputs": [
        {
          "indexed": false,
          "internalType": "address",
          "name": "account",
          "type": "address"
        }
      ],
      "name": "Unpaused",
      "type": "event"
    },
    {
      "inputs": [],
      "name": "DEFAULT_ADMIN_ROLE",
      "outputs": [
        {
          "internalType": "bytes32",
          "name": "",
          "type": "bytes32"
        }
      ],
      "stateMutability": "view",
      "type": "function"
    },
    {
      "inputs": [],
      "name": "GAME_ID",
      "outputs": [
        {
          "internalType": "uint256",
          "name": "",
          "type": "uint256"
        }
      ],
      "stateMutability": "view",
      "type": "function"
    },
    {
      "inputs": [
        {
          "internalType": "uint256",
          "name": "multiplier",
          "type": "uint256"
        }
      ],
      "name": "_calculateBetArray",
      "outputs": [
        {
          "internalType": "uint256",
          "name": "winRate",
          "type": "uint256"
        },
        {
          "internalType": "uint256",
          "name": "totalRate",
          "type": "uint256"
        }
      ],
      "stateMutability": "pure",
      "type": "function"
    },
    {
      "inputs": [
        {
          "internalType": "uint256",
          "name": "",
          "type": "uint256"
        }
      ],
      "name": "basicMultiplier",
      "outputs": [
        {
          "internalType": "uint256",
          "name": "",
          "type": "uint256"
        }
      ],
      "stateMutability": "view",
      "type": "function"
    },
    {
      "inputs": [],
      "name": "betFee",
      "outputs": [
        {
          "internalType": "uint256",
          "name": "",
          "type": "uint256"
        }
      ],
      "stateMutability": "view",
      "type": "function"
    },
    {
      "inputs": [
        {
          "internalType": "uint256",
          "name": "",
          "type": "uint256"
        }
      ],
      "name": "degenMultiplier",
      "outputs": [
        {
          "internalType": "uint256",
          "name": "",
          "type": "uint256"
        }
      ],
      "stateMutability": "view",
      "type": "function"
    },
    {
      "inputs": [],
      "name": "feeReceiver",
      "outputs": [
        {
          "internalType": "address",
          "name": "",
          "type": "address"
        }
      ],
      "stateMutability": "view",
      "type": "function"
    },
    {
      "inputs": [
        {
          "internalType": "bytes32",
          "name": "role",
          "type": "bytes32"
        }
      ],
      "name": "getRoleAdmin",
      "outputs": [
        {
          "internalType": "bytes32",
          "name": "",
          "type": "bytes32"
        }
      ],
      "stateMutability": "view",
      "type": "function"
    },
    {
      "inputs": [],
      "name": "govAddress",
      "outputs": [
        {
          "internalType": "address",
          "name": "",
          "type": "address"
        }
      ],
      "stateMutability": "view",
      "type": "function"
    },
    {
      "inputs": [],
      "name": "govFee",
      "outputs": [
        {
          "internalType": "uint256",
          "name": "",
          "type": "uint256"
        }
      ],
      "stateMutability": "view",
      "type": "function"
    },
    {
      "inputs": [
        {
          "internalType": "bytes32",
          "name": "role",
          "type": "bytes32"
        },
        {
          "internalType": "address",
          "name": "account",
          "type": "address"
        }
      ],
      "name": "grantRole",
      "outputs": [],
      "stateMutability": "nonpayable",
      "type": "function"
    },
    {
      "inputs": [
        {
          "internalType": "bytes32",
          "name": "role",
          "type": "bytes32"
        },
        {
          "internalType": "address",
          "name": "account",
          "type": "address"
        }
      ],
      "name": "hasRole",
      "outputs": [
        {
          "internalType": "bool",
          "name": "",
          "type": "bool"
        }
      ],
      "stateMutability": "view",
      "type": "function"
    },
    {
      "inputs": [],
      "name": "leaderboard",
      "outputs": [
        {
          "internalType": "address",
          "name": "",
          "type": "address"
        }
      ],
      "stateMutability": "view",
      "type": "function"
    },
    {
      "inputs": [],
      "name": "maxBet",
      "outputs": [
        {
          "internalType": "uint256",
          "name": "",
          "type": "uint256"
        }
      ],
      "stateMutability": "view",
      "type": "function"
    },
    {
      "inputs": [],
      "name": "minBet",
      "outputs": [
        {
          "internalType": "uint256",
          "name": "",
          "type": "uint256"
        }
      ],
      "stateMutability": "view",
      "type": "function"
    },
    {
      "inputs": [],
      "name": "pause",
      "outputs": [],
      "stateMutability": "nonpayable",
      "type": "function"
    },
    {
      "inputs": [],
      "name": "paused",
      "outputs": [
        {
          "internalType": "bool",
          "name": "",
          "type": "bool"
        }
      ],
      "stateMutability": "view",
      "type": "function"
    },
    {
      "inputs": [
        {
          "internalType": "bool",
          "name": "degen",
          "type": "bool"
        },
        {
          "internalType": "uint256",
          "name": "ball",
          "type": "uint256"
        }
      ],
      "name": "plinko",
      "outputs": [],
      "stateMutability": "payable",
      "type": "function"
    },
    {
      "inputs": [
        {
          "internalType": "bytes32",
          "name": "role",
          "type": "bytes32"
        },
        {
          "internalType": "address",
          "name": "callerConfirmation",
          "type": "address"
        }
      ],
      "name": "renounceRole",
      "outputs": [],
      "stateMutability": "nonpayable",
      "type": "function"
    },
    {
      "inputs": [
        {
          "internalType": "bytes32",
          "name": "role",
          "type": "bytes32"
        },
        {
          "internalType": "address",
          "name": "account",
          "type": "address"
        }
      ],
      "name": "revokeRole",
      "outputs": [],
      "stateMutability": "nonpayable",
      "type": "function"
    },
    {
      "inputs": [
        {
          "internalType": "uint256",
          "name": "val",
          "type": "uint256"
        }
      ],
      "name": "setBetFee",
      "outputs": [],
      "stateMutability": "nonpayable",
      "type": "function"
    },
    {
      "inputs": [
        {
          "internalType": "address",
          "name": "receiver",
          "type": "address"
        }
      ],
      "name": "setFeeReceiver",
      "outputs": [],
      "stateMutability": "nonpayable",
      "type": "function"
    },
    {
      "inputs": [
        {
          "internalType": "address",
          "name": "gov",
          "type": "address"
        }
      ],
      "name": "setGovAddress",
      "outputs": [],
      "stateMutability": "nonpayable",
      "type": "function"
    },
    {
      "inputs": [
        {
          "internalType": "uint256",
          "name": "val",
          "type": "uint256"
        }
      ],
      "name": "setGovFee",
      "outputs": [],
      "stateMutability": "nonpayable",
      "type": "function"
    },
    {
      "inputs": [
        {
          "internalType": "address",
          "name": "leaderboard_",
          "type": "address"
        }
      ],
      "name": "setLeaderboard",
      "outputs": [],
      "stateMutability": "nonpayable",
      "type": "function"
    },
    {
      "inputs": [
        {
          "internalType": "uint256",
          "name": "val",
          "type": "uint256"
        }
      ],
      "name": "setMaxBet",
      "outputs": [],
      "stateMutability": "nonpayable",
      "type": "function"
    },
    {
      "inputs": [
        {
          "internalType": "uint256",
          "name": "val",
          "type": "uint256"
        }
      ],
      "name": "setMinBet",
      "outputs": [],
      "stateMutability": "nonpayable",
      "type": "function"
    },
    {
      "inputs": [
        {
          "internalType": "bytes4",
          "name": "interfaceId",
          "type": "bytes4"
        }
      ],
      "name": "supportsInterface",
      "outputs": [
        {
          "internalType": "bool",
          "name": "",
          "type": "bool"
        }
      ],
      "stateMutability": "view",
      "type": "function"
    },
    {
      "inputs": [],
      "name": "totalGame",
      "outputs": [
        {
          "internalType": "uint256",
          "name": "",
          "type": "uint256"
        }
      ],
      "stateMutability": "view",
      "type": "function"
    },
    {
      "inputs": [],
      "name": "unpause",
      "outputs": [],
      "stateMutability": "nonpayable",
      "type": "function"
    },
    {
      "inputs": [
        {
          "internalType": "address",
          "name": "addr",
          "type": "address"
        },
        {
          "internalType": "uint256",
          "name": "amount",
          "type": "uint256"
        }
      ],
      "name": "withdraw",
      "outputs": [],
      "stateMutability": "nonpayable",
      "type": "function"
    },
    {
      "inputs": [
        {
          "internalType": "address",
          "name": "addr",
          "type": "address"
        }
      ],
      "name": "withdrawAll",
      "outputs": [],
      "stateMutability": "nonpayable",
      "type": "function"
    },
    {
      "stateMutability": "payable",
      "type": "receive"
    }
  ],
  "transactionHash": "0xd2ceecd0a65af70b046479c248cdc8062277efa50036c47421edaafe8dfa9105",
  "args": [
    "0x0aA3b6C162B67667F293AC91D5a47Ca7023969AF"
  ],
  "numDeployments": 1,
  "solcInputHash": "7d8bc4cd9e89a8d62000ce8d47f49ff0",
  "bytecode": "0x60806040523480156200001157600080fd5b506040516200192038038062001920833981016040819052620000349162000346565b6001805460ff19169055336200004c60008262000297565b50620000797fa49807205ce4d355092ef5a8a18f56e8913cf4a201fbe287825b095693c217758262000297565b5061015e6003556608e1bc9bf040006004556702c68af0bb14000060055564e8d4a51000600755600680546001600160a01b03199081166001600160a01b03848116918217909355600880548316909117905560098054909116918416919091179055600a60205260c87f7c88ef8d7aca0318251f31c899c30b491c6eaeb9e0abc596bf1f7fc86a58b5128190557fc5a5152eb6f32112547d035859dfbd1920ac3f2633565d5b32f82ee8f48d8db3556103e87f914dccb53380563059e9e556af6a690bb3e3d2e8763db4999263479efe191eda8190557f6c6d62e8a8b03fc99bb6a42c33f29fbb7bc355fb24b55c501263cba498f989828190557ff0d06e1c676d19791845afcc57865504b6e1664144ce3e6d246a51a35a30ab6c55603060009081526105dc7f827b43d7b5df5f84fd4b18cce10d024e57edb92595e42f215cd9b8967d5d0962555b6030811015620001f4576000818152600b602052604090206032905580620001eb8162000378565b915050620001c3565b5060305b603a81101562000229576000818152600b602052604090206096905580620002208162000378565b915050620001f8565b50603a5b60418110156200025f576000818152600b6020526040902061012c905580620002568162000378565b9150506200022d565b5050604160005250600b6020526102587fc021de4c7f43b869597a26b3aa57c4c3c93e9d2692b56abd8b3b2d59a8ef431d55620003a0565b6000828152602081815260408083206001600160a01b038516845290915281205460ff166200033c576000838152602081815260408083206001600160a01b03861684529091529020805460ff19166001179055620002f33390565b6001600160a01b0316826001600160a01b0316847f2f8788117e7eff1d82e926ec794901d17c78024a50270940304540a733656f0d60405160405180910390a450600162000340565b5060005b92915050565b6000602082840312156200035957600080fd5b81516001600160a01b03811681146200037157600080fd5b9392505050565b6000600182016200039957634e487b7160e01b600052601160045260246000fd5b5060010190565b61157080620003b06000396000f3fe6080604052600436106101e75760003560e01c8063881eff1e11610102578063d272e57e11610095578063f1a2de7211610064578063f1a2de72146105ab578063f3fef3a3146105cb578063fa09e630146105eb578063fdcdb06b1461060b57600080fd5b8063d272e57e14610535578063d547741f1461054b578063eb56b7401461056b578063efdcd9741461058b57600080fd5b8063a217fddf116100d1578063a217fddf146104b8578063a812b6e6146104cd578063b3f0067414610502578063cc895fa51461052257600080fd5b8063881eff1e1461041e57806388ea41b91461043e57806391d148541461045e5780639619367d146104a257600080fd5b80633f4ba83a1161017a57806364ae4ca61161014957806364ae4ca6146103b357806372229abf146103d3578063841e6ce9146103f35780638456cb591461040957600080fd5b80633f4ba83a1461033857806346008a071461034d5780635c975abb146103855780635e7c5af51461039d57600080fd5b806328681024116101b657806328681024146102b55780632e5b2168146102e25780632f2ff15d146102f857806336568abe1461031857600080fd5b806301ffc9a7146101f35780630ebbe0ad14610228578063248a9ca314610263578063278473fd1461029357600080fd5b366101ee57005b600080fd5b3480156101ff57600080fd5b5061021361020e366004611321565b610620565b60405190151581526020015b60405180910390f35b34801561023457600080fd5b50610255610243366004611352565b600b6020526000908152604090205481565b60405190815260200161021f565b34801561026f57600080fd5b5061025561027e366004611352565b60009081526020819052604090206001015490565b34801561029f57600080fd5b506102b36102ae366004611352565b610689565b005b3480156102c157600080fd5b506102556102d0366004611352565b600a6020526000908152604090205481565b3480156102ee57600080fd5b5061025560055481565b34801561030457600080fd5b506102b3610313366004611387565b6106a7565b34801561032457600080fd5b506102b3610333366004611387565b6106d2565b34801561034457600080fd5b506102b3610723565b34801561035957600080fd5b5060085461036d906001600160a01b031681565b6040516001600160a01b03909116815260200161021f565b34801561039157600080fd5b5060015460ff16610213565b3480156103a957600080fd5b5061025560075481565b3480156103bf57600080fd5b506102b36103ce3660046113b3565b61074e565b3480156103df57600080fd5b506102b36103ee366004611352565b610796565b3480156103ff57600080fd5b5061025560035481565b34801561041557600080fd5b506102b36107b4565b34801561042a57600080fd5b506102b3610439366004611352565b6107dc565b34801561044a57600080fd5b506102b3610459366004611352565b61083f565b34801561046a57600080fd5b50610213610479366004611387565b6000918252602082815260408084206001600160a01b0393909316845291905290205460ff1690565b3480156104ae57600080fd5b5061025560045481565b3480156104c457600080fd5b50610255600081565b3480156104d957600080fd5b506104ed6104e8366004611352565b61089d565b6040805192835260208301919091520161021f565b34801561050e57600080fd5b5060065461036d906001600160a01b031681565b6102b36105303660046113ce565b610914565b34801561054157600080fd5b5061025560025481565b34801561055757600080fd5b506102b3610566366004611387565b610dd3565b34801561057757600080fd5b5060095461036d906001600160a01b031681565b34801561059757600080fd5b506102b36105a63660046113b3565b610df8565b3480156105b757600080fd5b506102b36105c63660046113b3565b610e40565b3480156105d757600080fd5b506102b36105e63660046113ff565b610e88565b3480156105f757600080fd5b506102b36106063660046113b3565b610f31565b34801561061757600080fd5b50610255600381565b60006001600160e01b031982167f7965db0b00000000000000000000000000000000000000000000000000000000148061068357507f01ffc9a7000000000000000000000000000000000000000000000000000000006001600160e01b03198316145b92915050565b60008051602061151b8339815191526106a181610f80565b50600755565b6000828152602081905260409020600101546106c281610f80565b6106cc8383610f8a565b50505050565b6001600160a01b0381163314610714576040517f6697b23200000000000000000000000000000000000000000000000000000000815260040160405180910390fd5b61071e8282611034565b505050565b60008051602061151b83398151915261073b81610f80565b6107436110b7565b61074b6110f5565b50565b60008051602061151b83398151915261076681610f80565b506008805473ffffffffffffffffffffffffffffffffffffffff19166001600160a01b0392909216919091179055565b60008051602061151b8339815191526107ae81610f80565b50600355565b60008051602061151b8339815191526107cc81610f80565b6107d4611147565b61074b611184565b60008051602061151b8339815191526107f481610f80565b6004548210156108395760405162461bcd60e51b815260206004820152600b60248201526a1a5b9d985b1a590818995d60aa1b60448201526064015b60405180910390fd5b50600555565b60008051602061151b83398151915261085781610f80565b6005548211156108975760405162461bcd60e51b815260206004820152600b60248201526a1a5b9d985b1a590818995d60aa1b6044820152606401610830565b50600455565b600080806108ac606485611431565b9050806019036108bf57600492506108e6565b806032036108d057600292506108e6565b80604b036108e157600492506108e6565b600192505b60006108f2848661145b565b90506064610901826063611472565b61090b9190611485565b92505050915091565b61091c611147565b600754339060009061092e908461145b565b6109389034611499565b905060008360035461271061094d9190611472565b6109596127108561145b565b6109639190611485565b61096d9190611485565b9050600454811015801561098357506005548111155b6109bd5760405162461bcd60e51b815260206004820152600b60248201526a1a5b9d985b1a590818995d60aa1b6044820152606401610830565b60006109c9858361145b565b6109d39084611499565b905084600260008282546109e79190611472565b90915550506008546007546040516001600160a01b039092169181156108fc0291906000818181858888f19350505050158015610a28573d6000803e3d6000fd5b506006546040516001600160a01b039091169082156108fc029083906000818181858888f19350505050158015610a63573d6000803e3d6000fd5b5060006064610a74846105dc61145b565b610a7e908861145b565b610a889190611485565b905080471015610ada5760405162461bcd60e51b815260206004820152601460248201527f686f757365206f7574206f662062616c616e63650000000000000000000000006044820152606401610830565b600087610ae8576042610aeb565b60315b9050610b2c6040518060400160405280601381526020017f6d6178526577617264416d6f756e743a20257300000000000000000000000000815250836111bf565b600080610b37611236565b9050610b786040518060400160405280600881526020017f52616e643a202573000000000000000000000000000000000000000000000000815250826111bf565b60005b89811015610ce657600084610b91836001611472565b610b9b908561145b565b610ba59190611431565b9050610be66040518060400160405280600d81526020017f72616e64496e6465783a20257300000000000000000000000000000000000000815250826111bf565b60008c610c01576000828152600b6020526040902054610c11565b6000828152600a60205260409020545b905060006064610c218b8461145b565b610c2b9190611485565b9050610c6c6040518060400160405280601181526020017f52657761726420416d6f756e743a202573000000000000000000000000000000815250826111bf565b610c768187611472565b604080518c8152602081018c90526001600160a01b038f1681830152606081018590526080810184905290519197507f9d6caf39e6a1591cd96c8aa4bd03d7278baab79ae5be66a486026b1bd89e5baa919081900360a00190a15050508080610cde906114ac565b915050610b7b565b508115610d25576040516001600160a01b0389169083156108fc029084906000818181858888f19350505050158015610d23573d6000803e3d6000fd5b505b600034831115610d3c57610d393484611499565b90505b6009546001600160a01b0316635f4717fe60033384610d5b8f8d61145b565b6040516001600160e01b031960e087901b16815260048101949094526001600160a01b03909216602484015260448301526064820152608401600060405180830381600087803b158015610dae57600080fd5b505af1158015610dc2573d6000803e3d6000fd5b505050505050505050505050505050565b600082815260208190526040902060010154610dee81610f80565b6106cc8383611034565b60008051602061151b833981519152610e1081610f80565b506006805473ffffffffffffffffffffffffffffffffffffffff19166001600160a01b0392909216919091179055565b60008051602061151b833981519152610e5881610f80565b506009805473ffffffffffffffffffffffffffffffffffffffff19166001600160a01b0392909216919091179055565b60008051602061151b833981519152610ea081610f80565b4780831115610ef15760405162461bcd60e51b815260206004820152600e60248201527f696e76616c696420616d6f756e740000000000000000000000000000000000006044820152606401610830565b60405184906001600160a01b0382169085156108fc029086906000818181858888f19350505050158015610f29573d6000803e3d6000fd5b505050505050565b60008051602061151b833981519152610f4981610f80565b60405182906001600160a01b038216904780156108fc02916000818181858888f193505050501580156106cc573d6000803e3d6000fd5b61074b8133611290565b6000828152602081815260408083206001600160a01b038516845290915281205460ff1661102c576000838152602081815260408083206001600160a01b03861684529091529020805460ff19166001179055610fe43390565b6001600160a01b0316826001600160a01b0316847f2f8788117e7eff1d82e926ec794901d17c78024a50270940304540a733656f0d60405160405180910390a4506001610683565b506000610683565b6000828152602081815260408083206001600160a01b038516845290915281205460ff161561102c576000838152602081815260408083206001600160a01b0386168085529252808320805460ff1916905551339286917ff6391f5c32d9c69d2a47ea670b442974b53935d1edc7fd64eb21e047a839171b9190a4506001610683565b60015460ff166110f3576040517f8dfc202b00000000000000000000000000000000000000000000000000000000815260040160405180910390fd5b565b6110fd6110b7565b6001805460ff191690557f5db9ee0a495bf2e6ff9c91a7834c1ba4fdd244a5e8aa4e537bd38aeae4b073aa335b6040516001600160a01b03909116815260200160405180910390a1565b60015460ff16156110f3576040517fd93c066500000000000000000000000000000000000000000000000000000000815260040160405180910390fd5b61118c611147565b6001805460ff1916811790557f62e78cea01bee320cd4e420270b5ea74000d11b0c9f74754ebdbfc544b05a2583361112a565b61123282826040516024016111d59291906114c5565b60408051601f198184030181529190526020810180517bffffffffffffffffffffffffffffffffffffffffffffffffffffffff167fb60e72cc000000000000000000000000000000000000000000000000000000001790526112fc565b5050565b6000436002543360405160200161127293929190928352602083019190915260601b6bffffffffffffffffffffffff1916604082015260540190565b6040516020818303038152906040528051906020012060001c905090565b6000828152602081815260408083206001600160a01b038516845290915290205460ff16611232576040517fe2517d3f0000000000000000000000000000000000000000000000000000000081526001600160a01b038216600482015260248101839052604401610830565b61074b8160006a636f6e736f6c652e6c6f679050600080835160208501845afa505050565b60006020828403121561133357600080fd5b81356001600160e01b03198116811461134b57600080fd5b9392505050565b60006020828403121561136457600080fd5b5035919050565b80356001600160a01b038116811461138257600080fd5b919050565b6000806040838503121561139a57600080fd5b823591506113aa6020840161136b565b90509250929050565b6000602082840312156113c557600080fd5b61134b8261136b565b600080604083850312156113e157600080fd5b823580151581146113f157600080fd5b946020939093013593505050565b6000806040838503121561141257600080fd5b6113f18361136b565b634e487b7160e01b600052601260045260246000fd5b6000826114405761144061141b565b500690565b634e487b7160e01b600052601160045260246000fd5b808202811582820484141761068357610683611445565b8082018082111561068357610683611445565b6000826114945761149461141b565b500490565b8181038181111561068357610683611445565b6000600182016114be576114be611445565b5060010190565b604081526000835180604084015260005b818110156114f357602081870181015160608684010152016114d6565b506000606082850101526060601f19601f830116840101915050826020830152939250505056fea49807205ce4d355092ef5a8a18f56e8913cf4a201fbe287825b095693c21775a26469706673582212204af21be5f8c07fba6a375338a94476fae015b4c7ea2ff3471f6200553db9610a64736f6c63430008140033",
  "devdoc": {
    "errors": {
      "AccessControlBadConfirmation()": [
        {
          "details": "The caller of a function is not the expected one. NOTE: Don't confuse with {AccessControlUnauthorizedAccount}."
        }
      ],
      "AccessControlUnauthorizedAccount(address,bytes32)": [
        {
          "details": "The `account` is missing a role."
        }
      ],
      "EnforcedPause()": [
        {
          "details": "The operation failed because the contract is paused."
        }
      ],
      "ExpectedPause()": [
        {
          "details": "The operation failed because the contract is not paused."
        }
      ]
    },
    "events": {
      "Paused(address)": {
        "details": "Emitted when the pause is triggered by `account`."
      },
      "RoleAdminChanged(bytes32,bytes32,bytes32)": {
        "details": "Emitted when `newAdminRole` is set as ``role``'s admin role, replacing `previousAdminRole` `DEFAULT_ADMIN_ROLE` is the starting admin for all roles, despite {RoleAdminChanged} not being emitted signaling this."
      },
      "RoleGranted(bytes32,address,address)": {
        "details": "Emitted when `account` is granted `role`. `sender` is the account that originated the contract call. This account bears the admin role (for the granted role). Expected in cases where the role was granted using the internal {AccessControl-_grantRole}."
      },
      "RoleRevoked(bytes32,address,address)": {
        "details": "Emitted when `account` is revoked `role`. `sender` is the account that originated the contract call:   - if using `revokeRole`, it is the admin role bearer   - if using `renounceRole`, it is the role bearer (i.e. `account`)"
      },
      "Unpaused(address)": {
        "details": "Emitted when the pause is lifted by `account`."
      }
    },
    "kind": "dev",
    "methods": {
      "getRoleAdmin(bytes32)": {
        "details": "Returns the admin role that controls `role`. See {grantRole} and {revokeRole}. To change a role's admin, use {_setRoleAdmin}."
      },
      "grantRole(bytes32,address)": {
        "details": "Grants `role` to `account`. If `account` had not been already granted `role`, emits a {RoleGranted} event. Requirements: - the caller must have ``role``'s admin role. May emit a {RoleGranted} event."
      },
      "hasRole(bytes32,address)": {
        "details": "Returns `true` if `account` has been granted `role`."
      },
      "pause()": {
        "details": "called by the owner to pause, triggers stopped state"
      },
      "paused()": {
        "details": "Returns true if the contract is paused, and false otherwise."
      },
      "renounceRole(bytes32,address)": {
        "details": "Revokes `role` from the calling account. Roles are often managed via {grantRole} and {revokeRole}: this function's purpose is to provide a mechanism for accounts to lose their privileges if they are compromised (such as when a trusted device is misplaced). If the calling account had been revoked `role`, emits a {RoleRevoked} event. Requirements: - the caller must be `callerConfirmation`. May emit a {RoleRevoked} event."
      },
      "revokeRole(bytes32,address)": {
        "details": "Revokes `role` from `account`. If `account` had been granted `role`, emits a {RoleRevoked} event. Requirements: - the caller must have ``role``'s admin role. May emit a {RoleRevoked} event."
      },
      "supportsInterface(bytes4)": {
        "details": "See {IERC165-supportsInterface}."
      },
      "unpause()": {
        "details": "called by the owner to unpause, returns to normal state"
      }
    },
    "version": 1
  },
  "userdoc": {
    "kind": "user",
    "methods": {
      "totalGame()": {
        "notice": "Storages"
      }
    },
    "version": 1
  },
  "storageLayout": {
    "storage": [
      {
        "astId": 26,
        "contract": "contracts/Plinko/Plinko.sol:Plinko",
        "label": "_roles",
        "offset": 0,
        "slot": "0",
        "type": "t_mapping(t_bytes32,t_struct(RoleData)21_storage)"
      },
      {
        "astId": 417,
        "contract": "contracts/Plinko/Plinko.sol:Plinko",
        "label": "_paused",
        "offset": 0,
        "slot": "1",
        "type": "t_bool"
      },
      {
        "astId": 2283,
        "contract": "contracts/Plinko/Plinko.sol:Plinko",
        "label": "totalGame",
        "offset": 0,
        "slot": "2",
        "type": "t_uint256"
      },
      {
        "astId": 2285,
        "contract": "contracts/Plinko/Plinko.sol:Plinko",
        "label": "betFee",
        "offset": 0,
        "slot": "3",
        "type": "t_uint256"
      },
      {
        "astId": 2287,
        "contract": "contracts/Plinko/Plinko.sol:Plinko",
        "label": "minBet",
        "offset": 0,
        "slot": "4",
        "type": "t_uint256"
      },
      {
        "astId": 2289,
        "contract": "contracts/Plinko/Plinko.sol:Plinko",
        "label": "maxBet",
        "offset": 0,
        "slot": "5",
        "type": "t_uint256"
      },
      {
        "astId": 2291,
        "contract": "contracts/Plinko/Plinko.sol:Plinko",
        "label": "feeReceiver",
        "offset": 0,
        "slot": "6",
        "type": "t_address"
      },
      {
        "astId": 2293,
        "contract": "contracts/Plinko/Plinko.sol:Plinko",
        "label": "govFee",
        "offset": 0,
        "slot": "7",
        "type": "t_uint256"
      },
      {
        "astId": 2295,
        "contract": "contracts/Plinko/Plinko.sol:Plinko",
        "label": "govAddress",
        "offset": 0,
        "slot": "8",
        "type": "t_address"
      },
      {
        "astId": 2297,
        "contract": "contracts/Plinko/Plinko.sol:Plinko",
        "label": "leaderboard",
        "offset": 0,
        "slot": "9",
        "type": "t_address"
      },
      {
        "astId": 2301,
        "contract": "contracts/Plinko/Plinko.sol:Plinko",
        "label": "degenMultiplier",
        "offset": 0,
        "slot": "10",
        "type": "t_mapping(t_uint256,t_uint256)"
      },
      {
        "astId": 2305,
        "contract": "contracts/Plinko/Plinko.sol:Plinko",
        "label": "basicMultiplier",
        "offset": 0,
        "slot": "11",
        "type": "t_mapping(t_uint256,t_uint256)"
      }
    ],
    "types": {
      "t_address": {
        "encoding": "inplace",
        "label": "address",
        "numberOfBytes": "20"
      },
      "t_bool": {
        "encoding": "inplace",
        "label": "bool",
        "numberOfBytes": "1"
      },
      "t_bytes32": {
        "encoding": "inplace",
        "label": "bytes32",
        "numberOfBytes": "32"
      },
      "t_mapping(t_address,t_bool)": {
        "encoding": "mapping",
        "key": "t_address",
        "label": "mapping(address => bool)",
        "numberOfBytes": "32",
        "value": "t_bool"
      },
      "t_mapping(t_bytes32,t_struct(RoleData)21_storage)": {
        "encoding": "mapping",
        "key": "t_bytes32",
        "label": "mapping(bytes32 => struct AccessControl.RoleData)",
        "numberOfBytes": "32",
        "value": "t_struct(RoleData)21_storage"
      },
      "t_mapping(t_uint256,t_uint256)": {
        "encoding": "mapping",
        "key": "t_uint256",
        "label": "mapping(uint256 => uint256)",
        "numberOfBytes": "32",
        "value": "t_uint256"
      },
      "t_struct(RoleData)21_storage": {
        "encoding": "inplace",
        "label": "struct AccessControl.RoleData",
        "members": [
          {
            "astId": 18,
            "contract": "contracts/Plinko/Plinko.sol:Plinko",
            "label": "hasRole",
            "offset": 0,
            "slot": "0",
            "type": "t_mapping(t_address,t_bool)"
          },
          {
            "astId": 20,
            "contract": "contracts/Plinko/Plinko.sol:Plinko",
            "label": "adminRole",
            "offset": 0,
            "slot": "1",
            "type": "t_bytes32"
          }
        ],
        "numberOfBytes": "64"
      },
      "t_uint256": {
        "encoding": "inplace",
        "label": "uint256",
        "numberOfBytes": "32"
      }
    }
  }
}