{
  "address": "0x9fE46736679d2D9a65F0992F2272dE9f3c7fa6e0",
  "abi": [
    {
      "inputs": [
        {
          "internalType": "address",
          "name": "leaderboard_",
          "type": "address"
        }
      ],
      "stateMutability": "nonpayable",
      "type": "constructor"
    },
    {
      "inputs": [],
      "name": "AccessControlBadConfirmation",
      "type": "error"
    },
    {
      "inputs": [
        {
          "internalType": "address",
          "name": "account",
          "type": "address"
        },
        {
          "internalType": "bytes32",
          "name": "neededRole",
          "type": "bytes32"
        }
      ],
      "name": "AccessControlUnauthorizedAccount",
      "type": "error"
    },
    {
      "inputs": [],
      "name": "EnforcedPause",
      "type": "error"
    },
    {
      "inputs": [],
      "name": "ExpectedPause",
      "type": "error"
    },
    {
      "anonymous": false,
      "inputs": [
        {
          "indexed": false,
          "internalType": "uint256",
          "name": "betAmount",
          "type": "uint256"
        },
        {
          "indexed": false,
          "internalType": "uint256",
          "name": "fee",
          "type": "uint256"
        },
        {
          "indexed": false,
          "internalType": "address",
          "name": "user",
          "type": "address"
        },
        {
          "indexed": false,
          "internalType": "bool",
          "name": "isWin",
          "type": "bool"
        }
      ],
      "name": "Game",
      "type": "event"
    },
    {
      "anonymous": false,
      "inputs": [
        {
          "indexed": false,
          "internalType": "address",
          "name": "account",
          "type": "address"
        }
      ],
      "name": "Paused",
      "type": "event"
    },
    {
      "anonymous": false,
      "inputs": [
        {
          "indexed": true,
          "internalType": "bytes32",
          "name": "role",
          "type": "bytes32"
        },
        {
          "indexed": true,
          "internalType": "bytes32",
          "name": "previousAdminRole",
          "type": "bytes32"
        },
        {
          "indexed": true,
          "internalType": "bytes32",
          "name": "newAdminRole",
          "type": "bytes32"
        }
      ],
      "name": "RoleAdminChanged",
      "type": "event"
    },
    {
      "anonymous": false,
      "inputs": [
        {
          "indexed": true,
          "internalType": "bytes32",
          "name": "role",
          "type": "bytes32"
        },
        {
          "indexed": true,
          "internalType": "address",
          "name": "account",
          "type": "address"
        },
        {
          "indexed": true,
          "internalType": "address",
          "name": "sender",
          "type": "address"
        }
      ],
      "name": "RoleGranted",
      "type": "event"
    },
    {
      "anonymous": false,
      "inputs": [
        {
          "indexed": true,
          "internalType": "bytes32",
          "name": "role",
          "type": "bytes32"
        },
        {
          "indexed": true,
          "internalType": "address",
          "name": "account",
          "type": "address"
        },
        {
          "indexed": true,
          "internalType": "address",
          "name": "sender",
          "type": "address"
        }
      ],
      "name": "RoleRevoked",
      "type": "event"
    },
    {
      "anonymous": false,
      "inputs": [
        {
          "indexed": false,
          "internalType": "address",
          "name": "account",
          "type": "address"
        }
      ],
      "name": "Unpaused",
      "type": "event"
    },
    {
      "inputs": [],
      "name": "DEFAULT_ADMIN_ROLE",
      "outputs": [
        {
          "internalType": "bytes32",
          "name": "",
          "type": "bytes32"
        }
      ],
      "stateMutability": "view",
      "type": "function"
    },
    {
      "inputs": [],
      "name": "GAME_ID",
      "outputs": [
        {
          "internalType": "uint256",
          "name": "",
          "type": "uint256"
        }
      ],
      "stateMutability": "view",
      "type": "function"
    },
    {
      "inputs": [
        {
          "internalType": "uint256",
          "name": "multiplier",
          "type": "uint256"
        }
      ],
      "name": "_calculateBetArray",
      "outputs": [
        {
          "internalType": "uint256",
          "name": "winRate",
          "type": "uint256"
        },
        {
          "internalType": "uint256",
          "name": "totalRate",
          "type": "uint256"
        }
      ],
      "stateMutability": "pure",
      "type": "function"
    },
    {
      "inputs": [],
      "name": "betFee",
      "outputs": [
        {
          "internalType": "uint256",
          "name": "",
          "type": "uint256"
        }
      ],
      "stateMutability": "view",
      "type": "function"
    },
    {
      "inputs": [
        {
          "internalType": "uint256",
          "name": "multiplier",
          "type": "uint256"
        }
      ],
      "name": "crash",
      "outputs": [],
      "stateMutability": "payable",
      "type": "function"
    },
    {
      "inputs": [],
      "name": "feeReceiver",
      "outputs": [
        {
          "internalType": "address",
          "name": "",
          "type": "address"
        }
      ],
      "stateMutability": "view",
      "type": "function"
    },
    {
      "inputs": [
        {
          "internalType": "bytes32",
          "name": "role",
          "type": "bytes32"
        }
      ],
      "name": "getRoleAdmin",
      "outputs": [
        {
          "internalType": "bytes32",
          "name": "",
          "type": "bytes32"
        }
      ],
      "stateMutability": "view",
      "type": "function"
    },
    {
      "inputs": [],
      "name": "govAddress",
      "outputs": [
        {
          "internalType": "address",
          "name": "",
          "type": "address"
        }
      ],
      "stateMutability": "view",
      "type": "function"
    },
    {
      "inputs": [],
      "name": "govFee",
      "outputs": [
        {
          "internalType": "uint256",
          "name": "",
          "type": "uint256"
        }
      ],
      "stateMutability": "view",
      "type": "function"
    },
    {
      "inputs": [
        {
          "internalType": "bytes32",
          "name": "role",
          "type": "bytes32"
        },
        {
          "internalType": "address",
          "name": "account",
          "type": "address"
        }
      ],
      "name": "grantRole",
      "outputs": [],
      "stateMutability": "nonpayable",
      "type": "function"
    },
    {
      "inputs": [
        {
          "internalType": "bytes32",
          "name": "role",
          "type": "bytes32"
        },
        {
          "internalType": "address",
          "name": "account",
          "type": "address"
        }
      ],
      "name": "hasRole",
      "outputs": [
        {
          "internalType": "bool",
          "name": "",
          "type": "bool"
        }
      ],
      "stateMutability": "view",
      "type": "function"
    },
    {
      "inputs": [],
      "name": "leaderboard",
      "outputs": [
        {
          "internalType": "address",
          "name": "",
          "type": "address"
        }
      ],
      "stateMutability": "view",
      "type": "function"
    },
    {
      "inputs": [],
      "name": "maxBet",
      "outputs": [
        {
          "internalType": "uint256",
          "name": "",
          "type": "uint256"
        }
      ],
      "stateMutability": "view",
      "type": "function"
    },
    {
      "inputs": [],
      "name": "minBet",
      "outputs": [
        {
          "internalType": "uint256",
          "name": "",
          "type": "uint256"
        }
      ],
      "stateMutability": "view",
      "type": "function"
    },
    {
      "inputs": [],
      "name": "pause",
      "outputs": [],
      "stateMutability": "nonpayable",
      "type": "function"
    },
    {
      "inputs": [],
      "name": "paused",
      "outputs": [
        {
          "internalType": "bool",
          "name": "",
          "type": "bool"
        }
      ],
      "stateMutability": "view",
      "type": "function"
    },
    {
      "inputs": [
        {
          "internalType": "bytes32",
          "name": "role",
          "type": "bytes32"
        },
        {
          "internalType": "address",
          "name": "callerConfirmation",
          "type": "address"
        }
      ],
      "name": "renounceRole",
      "outputs": [],
      "stateMutability": "nonpayable",
      "type": "function"
    },
    {
      "inputs": [
        {
          "internalType": "bytes32",
          "name": "role",
          "type": "bytes32"
        },
        {
          "internalType": "address",
          "name": "account",
          "type": "address"
        }
      ],
      "name": "revokeRole",
      "outputs": [],
      "stateMutability": "nonpayable",
      "type": "function"
    },
    {
      "inputs": [
        {
          "internalType": "uint256",
          "name": "val",
          "type": "uint256"
        }
      ],
      "name": "setBetFee",
      "outputs": [],
      "stateMutability": "nonpayable",
      "type": "function"
    },
    {
      "inputs": [
        {
          "internalType": "address",
          "name": "receiver",
          "type": "address"
        }
      ],
      "name": "setFeeReceiver",
      "outputs": [],
      "stateMutability": "nonpayable",
      "type": "function"
    },
    {
      "inputs": [
        {
          "internalType": "address",
          "name": "gov",
          "type": "address"
        }
      ],
      "name": "setGovAddress",
      "outputs": [],
      "stateMutability": "nonpayable",
      "type": "function"
    },
    {
      "inputs": [
        {
          "internalType": "uint256",
          "name": "val",
          "type": "uint256"
        }
      ],
      "name": "setGovFee",
      "outputs": [],
      "stateMutability": "nonpayable",
      "type": "function"
    },
    {
      "inputs": [
        {
          "internalType": "address",
          "name": "leaderboard_",
          "type": "address"
        }
      ],
      "name": "setLeaderboard",
      "outputs": [],
      "stateMutability": "nonpayable",
      "type": "function"
    },
    {
      "inputs": [
        {
          "internalType": "uint256",
          "name": "val",
          "type": "uint256"
        }
      ],
      "name": "setMaxBet",
      "outputs": [],
      "stateMutability": "nonpayable",
      "type": "function"
    },
    {
      "inputs": [
        {
          "internalType": "uint256",
          "name": "val",
          "type": "uint256"
        }
      ],
      "name": "setMinBet",
      "outputs": [],
      "stateMutability": "nonpayable",
      "type": "function"
    },
    {
      "inputs": [
        {
          "internalType": "bytes4",
          "name": "interfaceId",
          "type": "bytes4"
        }
      ],
      "name": "supportsInterface",
      "outputs": [
        {
          "internalType": "bool",
          "name": "",
          "type": "bool"
        }
      ],
      "stateMutability": "view",
      "type": "function"
    },
    {
      "inputs": [],
      "name": "totalGame",
      "outputs": [
        {
          "internalType": "uint256",
          "name": "",
          "type": "uint256"
        }
      ],
      "stateMutability": "view",
      "type": "function"
    },
    {
      "inputs": [],
      "name": "unpause",
      "outputs": [],
      "stateMutability": "nonpayable",
      "type": "function"
    },
    {
      "inputs": [
        {
          "internalType": "address",
          "name": "addr",
          "type": "address"
        },
        {
          "internalType": "uint256",
          "name": "amount",
          "type": "uint256"
        }
      ],
      "name": "withdraw",
      "outputs": [],
      "stateMutability": "nonpayable",
      "type": "function"
    },
    {
      "inputs": [
        {
          "internalType": "address",
          "name": "addr",
          "type": "address"
        }
      ],
      "name": "withdrawAll",
      "outputs": [],
      "stateMutability": "nonpayable",
      "type": "function"
    },
    {
      "stateMutability": "payable",
      "type": "receive"
    }
  ],
  "transactionHash": "0x2635976352ca2e1962f60e273a9a2cd112bbbf32ca5357d5212cd9491a5c7ae4",
  "args": [
    "0x5FbDB2315678afecb367f032d93F642f64180aa3"
  ],
  "numDeployments": 1,
  "solcInputHash": "7be6820cf4a46b4d4fb4bd6d59ae242e",
  "bytecode": "0x608060405234801561000f575f5ffd5b5060405161141a38038061141a83398101604081905261002e9161017f565b6001805460ff19169055336100435f826100d6565b5061006e7fa49807205ce4d355092ef5a8a18f56e8913cf4a201fbe287825b095693c21775826100d6565b5061015e6003556608e1bc9bf040006004556702c68af0bb14000060055564e8d4a51000600755600680546001600160a01b039283166001600160a01b03199182168117909255600880548216909217909155600980549390921692169190911790556101ac565b5f828152602081815260408083206001600160a01b038516845290915281205460ff16610176575f838152602081815260408083206001600160a01b03861684529091529020805460ff1916600117905561012e3390565b6001600160a01b0316826001600160a01b0316847f2f8788117e7eff1d82e926ec794901d17c78024a50270940304540a733656f0d60405160405180910390a4506001610179565b505f5b92915050565b5f6020828403121561018f575f5ffd5b81516001600160a01b03811681146101a5575f5ffd5b9392505050565b611261806101b95f395ff3fe6080604052600436106101c8575f3560e01c8063881eff1e116100f2578063d272e57e11610092578063f1a2de7211610062578063f1a2de7214610515578063f3fef3a314610534578063fa09e63014610553578063fdcdb06b14610572575f5ffd5b8063d272e57e146104a3578063d547741f146104b8578063eb56b740146104d7578063efdcd974146104f6575f5ffd5b80639619367d116100cd5780639619367d14610428578063a217fddf1461043d578063a812b6e614610450578063b3f0067414610484575f5ffd5b8063881eff1e146103a857806388ea41b9146103c757806391d14854146103e6575f5ffd5b806346008a071161016857806364ae4ca61161013857806364ae4ca61461034157806372229abf14610360578063841e6ce91461037f5780638456cb5914610394575f5ffd5b806346008a07146102cb57806355490ba1146103025780635c975abb146103155780635e7c5af51461032c575f5ffd5b80632e5b2168116101a35780632e5b2168146102645780632f2ff15d1461027957806336568abe146102985780633f4ba83a146102b7575f5ffd5b806301ffc9a7146101d3578063248a9ca314610207578063278473fd14610243575f5ffd5b366101cf57005b5f5ffd5b3480156101de575f5ffd5b506101f26101ed36600461109d565b610586565b60405190151581526020015b60405180910390f35b348015610212575f5ffd5b506102356102213660046110e3565b5f9081526020819052604090206001015490565b6040519081526020016101fe565b34801561024e575f5ffd5b5061026261025d3660046110e3565b61061e565b005b34801561026f575f5ffd5b5061023560055481565b348015610284575f5ffd5b50610262610293366004611115565b61063b565b3480156102a3575f5ffd5b506102626102b2366004611115565b610665565b3480156102c2575f5ffd5b506102626106b6565b3480156102d6575f5ffd5b506008546102ea906001600160a01b031681565b6040516001600160a01b0390911681526020016101fe565b6102626103103660046110e3565b6106e0565b348015610320575f5ffd5b5060015460ff166101f2565b348015610337575f5ffd5b5061023560075481565b34801561034c575f5ffd5b5061026261035b36600461113f565b610a40565b34801561036b575f5ffd5b5061026261037a3660046110e3565b610a87565b34801561038a575f5ffd5b5061023560035481565b34801561039f575f5ffd5b50610262610aa4565b3480156103b3575f5ffd5b506102626103c23660046110e3565b610acb565b3480156103d2575f5ffd5b506102626103e13660046110e3565b610b28565b3480156103f1575f5ffd5b506101f2610400366004611115565b5f918252602082815260408084206001600160a01b0393909316845291905290205460ff1690565b348015610433575f5ffd5b5061023560045481565b348015610448575f5ffd5b506102355f81565b34801561045b575f5ffd5b5061046f61046a3660046110e3565b610b85565b604080519283526020830191909152016101fe565b34801561048f575f5ffd5b506006546102ea906001600160a01b031681565b3480156104ae575f5ffd5b5061023560025481565b3480156104c3575f5ffd5b506102626104d2366004611115565b610bfa565b3480156104e2575f5ffd5b506009546102ea906001600160a01b031681565b348015610501575f5ffd5b5061026261051036600461113f565b610c1e565b348015610520575f5ffd5b5061026261052f36600461113f565b610c65565b34801561053f575f5ffd5b5061026261054e366004611158565b610cac565b34801561055e575f5ffd5b5061026261056d36600461113f565b610d51565b34801561057d575f5ffd5b50610235600281565b5f7fffffffff0000000000000000000000000000000000000000000000000000000082167f7965db0b00000000000000000000000000000000000000000000000000000000148061061857507f01ffc9a7000000000000000000000000000000000000000000000000000000007fffffffff000000000000000000000000000000000000000000000000000000008316145b92915050565b5f51602061120c5f395f51905f5261063581610d9c565b50600755565b5f8281526020819052604090206001015461065581610d9c565b61065f8383610da6565b50505050565b6001600160a01b03811633146106a7576040517f6697b23200000000000000000000000000000000000000000000000000000000815260040160405180910390fd5b6106b18282610e4d565b505050565b5f51602061120c5f395f51905f526106cd81610d9c565b6106d5610ece565b6106dd610f0c565b50565b6106e8610f5e565b6064811180156106f9575061271081105b801561070d575061070b601982611194565b155b61075e5760405162461bcd60e51b815260206004820152601260248201527f696e76616c6964206d756c7469706c696572000000000000000000000000000060448201526064015b60405180910390fd5b60075433905f9061076f90346111bb565b90505f60035461271061078291906111ce565b61078e612710846111e1565b61079891906111f8565b905060045481101580156107ae57506005548111155b6107e85760405162461bcd60e51b815260206004820152600b60248201526a1a5b9d985b1a590818995d60aa1b6044820152606401610755565b5f6107f382846111bb565b9050600254600161080491906111ce565b6002556008546007546040516001600160a01b039092169181156108fc0291905f818181858888f19350505050158015610840573d5f5f3e3d5ffd5b506006546040516001600160a01b039091169082156108fc029083905f818181858888f19350505050158015610878573d5f5f3e3d5ffd5b505f606461088684886111e1565b61089091906111f8565b9050804710156108e25760405162461bcd60e51b815260206004820152601460248201527f686f757365206f7574206f662062616c616e63650000000000000000000000006044820152606401610755565b5f5f6108ed88610b85565b915091505f6108fa610f9b565b90506109068282611194565b90508281108015610946576040516001600160a01b038a169086156108fc029087905f818181858888f19350505050158015610944573d5f5f3e3d5ffd5b505b5f3486111561095c5761095934876111bb565b90505b6009546040517f5f4717fe0000000000000000000000000000000000000000000000000000000081526002600482015233602482015260448101839052606481018a90526001600160a01b0390911690635f4717fe906084015f604051808303815f87803b1580156109cc575f5ffd5b505af11580156109de573d5f5f3e3d5ffd5b5050604080518b8152602081018b90526001600160a01b038e1681830152851515606082015290517fcc5cf3d528e4b3b09beb3b4be3d58bfee685d4b6099aacb6fb4ce84898ed55619350908190036080019150a15050505050505050505050565b5f51602061120c5f395f51905f52610a5781610d9c565b506008805473ffffffffffffffffffffffffffffffffffffffff19166001600160a01b0392909216919091179055565b5f51602061120c5f395f51905f52610a9e81610d9c565b50600355565b5f51602061120c5f395f51905f52610abb81610d9c565b610ac3610f5e565b6106dd610ff3565b5f51602061120c5f395f51905f52610ae281610d9c565b600454821015610b225760405162461bcd60e51b815260206004820152600b60248201526a1a5b9d985b1a590818995d60aa1b6044820152606401610755565b50600555565b5f51602061120c5f395f51905f52610b3f81610d9c565b600554821115610b7f5760405162461bcd60e51b815260206004820152600b60248201526a1a5b9d985b1a590818995d60aa1b6044820152606401610755565b50600455565b5f8080610b93606485611194565b905080601903610ba65760049250610bcd565b80603203610bb75760029250610bcd565b80604b03610bc85760049250610bcd565b600192505b5f610bd884866111e1565b90506064610be78260636111ce565b610bf191906111f8565b92505050915091565b5f82815260208190526040902060010154610c1481610d9c565b61065f8383610e4d565b5f51602061120c5f395f51905f52610c3581610d9c565b506006805473ffffffffffffffffffffffffffffffffffffffff19166001600160a01b0392909216919091179055565b5f51602061120c5f395f51905f52610c7c81610d9c565b506009805473ffffffffffffffffffffffffffffffffffffffff19166001600160a01b0392909216919091179055565b5f51602061120c5f395f51905f52610cc381610d9c565b4780831115610d145760405162461bcd60e51b815260206004820152600e60248201527f696e76616c696420616d6f756e740000000000000000000000000000000000006044820152606401610755565b60405184906001600160a01b0382169085156108fc029086905f818181858888f19350505050158015610d49573d5f5f3e3d5ffd5b505050505050565b5f51602061120c5f395f51905f52610d6881610d9c565b60405182906001600160a01b038216904780156108fc02915f818181858888f1935050505015801561065f573d5f5f3e3d5ffd5b6106dd813361102e565b5f828152602081815260408083206001600160a01b038516845290915281205460ff16610e46575f838152602081815260408083206001600160a01b03861684529091529020805460ff19166001179055610dfe3390565b6001600160a01b0316826001600160a01b0316847f2f8788117e7eff1d82e926ec794901d17c78024a50270940304540a733656f0d60405160405180910390a4506001610618565b505f610618565b5f828152602081815260408083206001600160a01b038516845290915281205460ff1615610e46575f838152602081815260408083206001600160a01b0386168085529252808320805460ff1916905551339286917ff6391f5c32d9c69d2a47ea670b442974b53935d1edc7fd64eb21e047a839171b9190a4506001610618565b60015460ff16610f0a576040517f8dfc202b00000000000000000000000000000000000000000000000000000000815260040160405180910390fd5b565b610f14610ece565b6001805460ff191690557f5db9ee0a495bf2e6ff9c91a7834c1ba4fdd244a5e8aa4e537bd38aeae4b073aa335b6040516001600160a01b03909116815260200160405180910390a1565b60015460ff1615610f0a576040517fd93c066500000000000000000000000000000000000000000000000000000000815260040160405180910390fd5b5f4260025433604051602001610fd693929190928352602083019190915260601b6bffffffffffffffffffffffff1916604082015260540190565b604051602081830303815290604052805190602001205f1c905090565b610ffb610f5e565b6001805460ff1916811790557f62e78cea01bee320cd4e420270b5ea74000d11b0c9f74754ebdbfc544b05a25833610f41565b5f828152602081815260408083206001600160a01b038516845290915290205460ff16611099576040517fe2517d3f0000000000000000000000000000000000000000000000000000000081526001600160a01b038216600482015260248101839052604401610755565b5050565b5f602082840312156110ad575f5ffd5b81357fffffffff00000000000000000000000000000000000000000000000000000000811681146110dc575f5ffd5b9392505050565b5f602082840312156110f3575f5ffd5b5035919050565b80356001600160a01b0381168114611110575f5ffd5b919050565b5f5f60408385031215611126575f5ffd5b82359150611136602084016110fa565b90509250929050565b5f6020828403121561114f575f5ffd5b6110dc826110fa565b5f5f60408385031215611169575f5ffd5b611172836110fa565b946020939093013593505050565b634e487b7160e01b5f52601260045260245ffd5b5f826111a2576111a2611180565b500690565b634e487b7160e01b5f52601160045260245ffd5b81810381811115610618576106186111a7565b80820180821115610618576106186111a7565b8082028115828204841417610618576106186111a7565b5f8261120657611206611180565b50049056fea49807205ce4d355092ef5a8a18f56e8913cf4a201fbe287825b095693c21775a2646970667358221220480cf52bb60c392046fdb3ce0fa36bc248a0020cba4b2ddfd4731406f893aef464736f6c634300081c0033",
  "devdoc": {
    "errors": {
      "AccessControlBadConfirmation()": [
        {
          "details": "The caller of a function is not the expected one. NOTE: Don't confuse with {AccessControlUnauthorizedAccount}."
        }
      ],
      "AccessControlUnauthorizedAccount(address,bytes32)": [
        {
          "details": "The `account` is missing a role."
        }
      ],
      "EnforcedPause()": [
        {
          "details": "The operation failed because the contract is paused."
        }
      ],
      "ExpectedPause()": [
        {
          "details": "The operation failed because the contract is not paused."
        }
      ]
    },
    "events": {
      "Paused(address)": {
        "details": "Emitted when the pause is triggered by `account`."
      },
      "RoleAdminChanged(bytes32,bytes32,bytes32)": {
        "details": "Emitted when `newAdminRole` is set as ``role``'s admin role, replacing `previousAdminRole` `DEFAULT_ADMIN_ROLE` is the starting admin for all roles, despite {RoleAdminChanged} not being emitted signaling this."
      },
      "RoleGranted(bytes32,address,address)": {
        "details": "Emitted when `account` is granted `role`. `sender` is the account that originated the contract call. This account bears the admin role (for the granted role). Expected in cases where the role was granted using the internal {AccessControl-_grantRole}."
      },
      "RoleRevoked(bytes32,address,address)": {
        "details": "Emitted when `account` is revoked `role`. `sender` is the account that originated the contract call:   - if using `revokeRole`, it is the admin role bearer   - if using `renounceRole`, it is the role bearer (i.e. `account`)"
      },
      "Unpaused(address)": {
        "details": "Emitted when the pause is lifted by `account`."
      }
    },
    "kind": "dev",
    "methods": {
      "getRoleAdmin(bytes32)": {
        "details": "Returns the admin role that controls `role`. See {grantRole} and {revokeRole}. To change a role's admin, use {_setRoleAdmin}."
      },
      "grantRole(bytes32,address)": {
        "details": "Grants `role` to `account`. If `account` had not been already granted `role`, emits a {RoleGranted} event. Requirements: - the caller must have ``role``'s admin role. May emit a {RoleGranted} event."
      },
      "hasRole(bytes32,address)": {
        "details": "Returns `true` if `account` has been granted `role`."
      },
      "pause()": {
        "details": "called by the owner to pause, triggers stopped state"
      },
      "paused()": {
        "details": "Returns true if the contract is paused, and false otherwise."
      },
      "renounceRole(bytes32,address)": {
        "details": "Revokes `role` from the calling account. Roles are often managed via {grantRole} and {revokeRole}: this function's purpose is to provide a mechanism for accounts to lose their privileges if they are compromised (such as when a trusted device is misplaced). If the calling account had been revoked `role`, emits a {RoleRevoked} event. Requirements: - the caller must be `callerConfirmation`. May emit a {RoleRevoked} event."
      },
      "revokeRole(bytes32,address)": {
        "details": "Revokes `role` from `account`. If `account` had been granted `role`, emits a {RoleRevoked} event. Requirements: - the caller must have ``role``'s admin role. May emit a {RoleRevoked} event."
      },
      "supportsInterface(bytes4)": {
        "details": "See {IERC165-supportsInterface}."
      },
      "unpause()": {
        "details": "called by the owner to unpause, returns to normal state"
      }
    },
    "version": 1
  },
  "userdoc": {
    "kind": "user",
    "methods": {
      "totalGame()": {
        "notice": "Storages"
      }
    },
    "version": 1
  },
  "storageLayout": {
    "storage": [
      {
        "astId": 26,
        "contract": "contracts/Crash/Crash.sol:Crash",
        "label": "_roles",
        "offset": 0,
        "slot": "0",
        "type": "t_mapping(t_bytes32,t_struct(RoleData)21_storage)"
      },
      {
        "astId": 417,
        "contract": "contracts/Crash/Crash.sol:Crash",
        "label": "_paused",
        "offset": 0,
        "slot": "1",
        "type": "t_bool"
      },
      {
        "astId": 1062,
        "contract": "contracts/Crash/Crash.sol:Crash",
        "label": "totalGame",
        "offset": 0,
        "slot": "2",
        "type": "t_uint256"
      },
      {
        "astId": 1064,
        "contract": "contracts/Crash/Crash.sol:Crash",
        "label": "betFee",
        "offset": 0,
        "slot": "3",
        "type": "t_uint256"
      },
      {
        "astId": 1066,
        "contract": "contracts/Crash/Crash.sol:Crash",
        "label": "minBet",
        "offset": 0,
        "slot": "4",
        "type": "t_uint256"
      },
      {
        "astId": 1068,
        "contract": "contracts/Crash/Crash.sol:Crash",
        "label": "maxBet",
        "offset": 0,
        "slot": "5",
        "type": "t_uint256"
      },
      {
        "astId": 1070,
        "contract": "contracts/Crash/Crash.sol:Crash",
        "label": "feeReceiver",
        "offset": 0,
        "slot": "6",
        "type": "t_address"
      },
      {
        "astId": 1072,
        "contract": "contracts/Crash/Crash.sol:Crash",
        "label": "govFee",
        "offset": 0,
        "slot": "7",
        "type": "t_uint256"
      },
      {
        "astId": 1074,
        "contract": "contracts/Crash/Crash.sol:Crash",
        "label": "govAddress",
        "offset": 0,
        "slot": "8",
        "type": "t_address"
      },
      {
        "astId": 1076,
        "contract": "contracts/Crash/Crash.sol:Crash",
        "label": "leaderboard",
        "offset": 0,
        "slot": "9",
        "type": "t_address"
      }
    ],
    "types": {
      "t_address": {
        "encoding": "inplace",
        "label": "address",
        "numberOfBytes": "20"
      },
      "t_bool": {
        "encoding": "inplace",
        "label": "bool",
        "numberOfBytes": "1"
      },
      "t_bytes32": {
        "encoding": "inplace",
        "label": "bytes32",
        "numberOfBytes": "32"
      },
      "t_mapping(t_address,t_bool)": {
        "encoding": "mapping",
        "key": "t_address",
        "label": "mapping(address => bool)",
        "numberOfBytes": "32",
        "value": "t_bool"
      },
      "t_mapping(t_bytes32,t_struct(RoleData)21_storage)": {
        "encoding": "mapping",
        "key": "t_bytes32",
        "label": "mapping(bytes32 => struct AccessControl.RoleData)",
        "numberOfBytes": "32",
        "value": "t_struct(RoleData)21_storage"
      },
      "t_struct(RoleData)21_storage": {
        "encoding": "inplace",
        "label": "struct AccessControl.RoleData",
        "members": [
          {
            "astId": 18,
            "contract": "contracts/Crash/Crash.sol:Crash",
            "label": "hasRole",
            "offset": 0,
            "slot": "0",
            "type": "t_mapping(t_address,t_bool)"
          },
          {
            "astId": 20,
            "contract": "contracts/Crash/Crash.sol:Crash",
            "label": "adminRole",
            "offset": 0,
            "slot": "1",
            "type": "t_bytes32"
          }
        ],
        "numberOfBytes": "64"
      },
      "t_uint256": {
        "encoding": "inplace",
        "label": "uint256",
        "numberOfBytes": "32"
      }
    }
  }
}