{
  "address": "0xDc64a140Aa3E981100a9becA4E685f962f0cF6C9",
  "abi": [
    {
      "inputs": [
        {
          "internalType": "address",
          "name": "leaderboard_",
          "type": "address"
        }
      ],
      "stateMutability": "nonpayable",
      "type": "constructor"
    },
    {
      "inputs": [],
      "name": "AccessControlBadConfirmation",
      "type": "error"
    },
    {
      "inputs": [
        {
          "internalType": "address",
          "name": "account",
          "type": "address"
        },
        {
          "internalType": "bytes32",
          "name": "neededRole",
          "type": "bytes32"
        }
      ],
      "name": "AccessControlUnauthorizedAccount",
      "type": "error"
    },
    {
      "inputs": [],
      "name": "EnforcedPause",
      "type": "error"
    },
    {
      "inputs": [],
      "name": "ExpectedPause",
      "type": "error"
    },
    {
      "anonymous": false,
      "inputs": [
        {
          "indexed": false,
          "internalType": "uint256",
          "name": "betAmount",
          "type": "uint256"
        },
        {
          "indexed": false,
          "internalType": "uint256",
          "name": "fee",
          "type": "uint256"
        },
        {
          "indexed": false,
          "internalType": "address",
          "name": "user",
          "type": "address"
        },
        {
          "indexed": false,
          "internalType": "uint256",
          "name": "multiplier",
          "type": "uint256"
        },
        {
          "indexed": false,
          "internalType": "uint256",
          "name": "rewardAmount",
          "type": "uint256"
        }
      ],
      "name": "Game",
      "type": "event"
    },
    {
      "anonymous": false,
      "inputs": [
        {
          "indexed": false,
          "internalType": "address",
          "name": "account",
          "type": "address"
        }
      ],
      "name": "Paused",
      "type": "event"
    },
    {
      "anonymous": false,
      "inputs": [
        {
          "indexed": true,
          "internalType": "bytes32",
          "name": "role",
          "type": "bytes32"
        },
        {
          "indexed": true,
          "internalType": "bytes32",
          "name": "previousAdminRole",
          "type": "bytes32"
        },
        {
          "indexed": true,
          "internalType": "bytes32",
          "name": "newAdminRole",
          "type": "bytes32"
        }
      ],
      "name": "RoleAdminChanged",
      "type": "event"
    },
    {
      "anonymous": false,
      "inputs": [
        {
          "indexed": true,
          "internalType": "bytes32",
          "name": "role",
          "type": "bytes32"
        },
        {
          "indexed": true,
          "internalType": "address",
          "name": "account",
          "type": "address"
        },
        {
          "indexed": true,
          "internalType": "address",
          "name": "sender",
          "type": "address"
        }
      ],
      "name": "RoleGranted",
      "type": "event"
    },
    {
      "anonymous": false,
      "inputs": [
        {
          "indexed": true,
          "internalType": "bytes32",
          "name": "role",
          "type": "bytes32"
        },
        {
          "indexed": true,
          "internalType": "address",
          "name": "account",
          "type": "address"
        },
        {
          "indexed": true,
          "internalType": "address",
          "name": "sender",
          "type": "address"
        }
      ],
      "name": "RoleRevoked",
      "type": "event"
    },
    {
      "anonymous": false,
      "inputs": [
        {
          "indexed": false,
          "internalType": "address",
          "name": "account",
          "type": "address"
        }
      ],
      "name": "Unpaused",
      "type": "event"
    },
    {
      "inputs": [],
      "name": "DEFAULT_ADMIN_ROLE",
      "outputs": [
        {
          "internalType": "bytes32",
          "name": "",
          "type": "bytes32"
        }
      ],
      "stateMutability": "view",
      "type": "function"
    },
    {
      "inputs": [],
      "name": "GAME_ID",
      "outputs": [
        {
          "internalType": "uint256",
          "name": "",
          "type": "uint256"
        }
      ],
      "stateMutability": "view",
      "type": "function"
    },
    {
      "inputs": [
        {
          "internalType": "uint64",
          "name": "multiplier",
          "type": "uint64"
        }
      ],
      "name": "_calculateBetArray",
      "outputs": [
        {
          "internalType": "uint64",
          "name": "winRate",
          "type": "uint64"
        },
        {
          "internalType": "uint64",
          "name": "totalRate",
          "type": "uint64"
        }
      ],
      "stateMutability": "pure",
      "type": "function"
    },
    {
      "inputs": [
        {
          "internalType": "uint64",
          "name": "",
          "type": "uint64"
        }
      ],
      "name": "basicMultiplier",
      "outputs": [
        {
          "internalType": "uint256",
          "name": "",
          "type": "uint256"
        }
      ],
      "stateMutability": "view",
      "type": "function"
    },
    {
      "inputs": [],
      "name": "betFee",
      "outputs": [
        {
          "internalType": "uint256",
          "name": "",
          "type": "uint256"
        }
      ],
      "stateMutability": "view",
      "type": "function"
    },
    {
      "inputs": [
        {
          "internalType": "uint64",
          "name": "",
          "type": "uint64"
        }
      ],
      "name": "degenMultiplier",
      "outputs": [
        {
          "internalType": "uint256",
          "name": "",
          "type": "uint256"
        }
      ],
      "stateMutability": "view",
      "type": "function"
    },
    {
      "inputs": [],
      "name": "feeReceiver",
      "outputs": [
        {
          "internalType": "address",
          "name": "",
          "type": "address"
        }
      ],
      "stateMutability": "view",
      "type": "function"
    },
    {
      "inputs": [
        {
          "internalType": "bytes32",
          "name": "role",
          "type": "bytes32"
        }
      ],
      "name": "getRoleAdmin",
      "outputs": [
        {
          "internalType": "bytes32",
          "name": "",
          "type": "bytes32"
        }
      ],
      "stateMutability": "view",
      "type": "function"
    },
    {
      "inputs": [],
      "name": "govAddress",
      "outputs": [
        {
          "internalType": "address",
          "name": "",
          "type": "address"
        }
      ],
      "stateMutability": "view",
      "type": "function"
    },
    {
      "inputs": [],
      "name": "govFee",
      "outputs": [
        {
          "internalType": "uint256",
          "name": "",
          "type": "uint256"
        }
      ],
      "stateMutability": "view",
      "type": "function"
    },
    {
      "inputs": [
        {
          "internalType": "bytes32",
          "name": "role",
          "type": "bytes32"
        },
        {
          "internalType": "address",
          "name": "account",
          "type": "address"
        }
      ],
      "name": "grantRole",
      "outputs": [],
      "stateMutability": "nonpayable",
      "type": "function"
    },
    {
      "inputs": [
        {
          "internalType": "bytes32",
          "name": "role",
          "type": "bytes32"
        },
        {
          "internalType": "address",
          "name": "account",
          "type": "address"
        }
      ],
      "name": "hasRole",
      "outputs": [
        {
          "internalType": "bool",
          "name": "",
          "type": "bool"
        }
      ],
      "stateMutability": "view",
      "type": "function"
    },
    {
      "inputs": [],
      "name": "leaderboard",
      "outputs": [
        {
          "internalType": "address",
          "name": "",
          "type": "address"
        }
      ],
      "stateMutability": "view",
      "type": "function"
    },
    {
      "inputs": [],
      "name": "maxBet",
      "outputs": [
        {
          "internalType": "uint256",
          "name": "",
          "type": "uint256"
        }
      ],
      "stateMutability": "view",
      "type": "function"
    },
    {
      "inputs": [],
      "name": "minBet",
      "outputs": [
        {
          "internalType": "uint256",
          "name": "",
          "type": "uint256"
        }
      ],
      "stateMutability": "view",
      "type": "function"
    },
    {
      "inputs": [],
      "name": "pause",
      "outputs": [],
      "stateMutability": "nonpayable",
      "type": "function"
    },
    {
      "inputs": [],
      "name": "paused",
      "outputs": [
        {
          "internalType": "bool",
          "name": "",
          "type": "bool"
        }
      ],
      "stateMutability": "view",
      "type": "function"
    },
    {
      "inputs": [
        {
          "internalType": "bool",
          "name": "degen",
          "type": "bool"
        },
        {
          "internalType": "uint256",
          "name": "ball",
          "type": "uint256"
        }
      ],
      "name": "plinko",
      "outputs": [],
      "stateMutability": "payable",
      "type": "function"
    },
    {
      "inputs": [
        {
          "internalType": "bytes32",
          "name": "role",
          "type": "bytes32"
        },
        {
          "internalType": "address",
          "name": "callerConfirmation",
          "type": "address"
        }
      ],
      "name": "renounceRole",
      "outputs": [],
      "stateMutability": "nonpayable",
      "type": "function"
    },
    {
      "inputs": [
        {
          "internalType": "bytes32",
          "name": "role",
          "type": "bytes32"
        },
        {
          "internalType": "address",
          "name": "account",
          "type": "address"
        }
      ],
      "name": "revokeRole",
      "outputs": [],
      "stateMutability": "nonpayable",
      "type": "function"
    },
    {
      "inputs": [
        {
          "internalType": "uint256",
          "name": "val",
          "type": "uint256"
        }
      ],
      "name": "setBetFee",
      "outputs": [],
      "stateMutability": "nonpayable",
      "type": "function"
    },
    {
      "inputs": [
        {
          "internalType": "address",
          "name": "receiver",
          "type": "address"
        }
      ],
      "name": "setFeeReceiver",
      "outputs": [],
      "stateMutability": "nonpayable",
      "type": "function"
    },
    {
      "inputs": [
        {
          "internalType": "address",
          "name": "gov",
          "type": "address"
        }
      ],
      "name": "setGovAddress",
      "outputs": [],
      "stateMutability": "nonpayable",
      "type": "function"
    },
    {
      "inputs": [
        {
          "internalType": "uint256",
          "name": "val",
          "type": "uint256"
        }
      ],
      "name": "setGovFee",
      "outputs": [],
      "stateMutability": "nonpayable",
      "type": "function"
    },
    {
      "inputs": [
        {
          "internalType": "address",
          "name": "leaderboard_",
          "type": "address"
        }
      ],
      "name": "setLeaderboard",
      "outputs": [],
      "stateMutability": "nonpayable",
      "type": "function"
    },
    {
      "inputs": [
        {
          "internalType": "uint256",
          "name": "val",
          "type": "uint256"
        }
      ],
      "name": "setMaxBet",
      "outputs": [],
      "stateMutability": "nonpayable",
      "type": "function"
    },
    {
      "inputs": [
        {
          "internalType": "uint256",
          "name": "val",
          "type": "uint256"
        }
      ],
      "name": "setMinBet",
      "outputs": [],
      "stateMutability": "nonpayable",
      "type": "function"
    },
    {
      "inputs": [
        {
          "internalType": "bytes4",
          "name": "interfaceId",
          "type": "bytes4"
        }
      ],
      "name": "supportsInterface",
      "outputs": [
        {
          "internalType": "bool",
          "name": "",
          "type": "bool"
        }
      ],
      "stateMutability": "view",
      "type": "function"
    },
    {
      "inputs": [],
      "name": "totalGame",
      "outputs": [
        {
          "internalType": "uint256",
          "name": "",
          "type": "uint256"
        }
      ],
      "stateMutability": "view",
      "type": "function"
    },
    {
      "inputs": [],
      "name": "unpause",
      "outputs": [],
      "stateMutability": "nonpayable",
      "type": "function"
    },
    {
      "inputs": [
        {
          "internalType": "address",
          "name": "addr",
          "type": "address"
        },
        {
          "internalType": "uint256",
          "name": "amount",
          "type": "uint256"
        }
      ],
      "name": "withdraw",
      "outputs": [],
      "stateMutability": "nonpayable",
      "type": "function"
    },
    {
      "inputs": [
        {
          "internalType": "address",
          "name": "addr",
          "type": "address"
        }
      ],
      "name": "withdrawAll",
      "outputs": [],
      "stateMutability": "nonpayable",
      "type": "function"
    },
    {
      "stateMutability": "payable",
      "type": "receive"
    }
  ],
  "transactionHash": "0x1088de72535ac879a0fdbbbf6c5a6f8721b757339acaf743bbe765221f9c3b67",
  "args": [
    "0x5FbDB2315678afecb367f032d93F642f64180aa3"
  ],
  "numDeployments": 1,
  "solcInputHash": "e9ca70e6a31db82f20c7d1fa39b415cc",
  "bytecode": "0x608060405234801561000f575f5ffd5b5060405161183f38038061183f83398101604081905261002e9161033f565b6001805460ff19169055336100435f82610296565b5061006e7fa49807205ce4d355092ef5a8a18f56e8913cf4a201fbe287825b095693c2177582610296565b5061015e6003556658d15e17628000600455671bc16d674ec800006005556509184e72a000600755600680546001600160a01b03199081166001600160a01b03848116918217909355600880548316909117905560098054909116918416919091179055600a60205260c87f7c88ef8d7aca0318251f31c899c30b491c6eaeb9e0abc596bf1f7fc86a58b5128190557fc5a5152eb6f32112547d035859dfbd1920ac3f2633565d5b32f82ee8f48d8db3556103e87f914dccb53380563059e9e556af6a690bb3e3d2e8763db4999263479efe191eda8190557f6c6d62e8a8b03fc99bb6a42c33f29fbb7bc355fb24b55c501263cba498f989828190557ff0d06e1c676d19791845afcc57865504b6e1664144ce3e6d246a51a35a30ab6c5560305f9081526105dc7f827b43d7b5df5f84fd4b18cce10d024e57edb92595e42f215cd9b8967d5d0962555b6030816001600160401b031610156101ed576001600160401b0381165f908152600b60205260409020603290556001016101b8565b5060305b603a816001600160401b03161015610226576001600160401b0381165f908152600b60205260409020609690556001016101f1565b50603a5b6041816001600160401b03161015610260576001600160401b0381165f908152600b6020526040902061012c905560010161022a565b505060415f5250600b6020526102587fc021de4c7f43b869597a26b3aa57c4c3c93e9d2692b56abd8b3b2d59a8ef431d5561036c565b5f828152602081815260408083206001600160a01b038516845290915281205460ff16610336575f838152602081815260408083206001600160a01b03861684529091529020805460ff191660011790556102ee3390565b6001600160a01b0316826001600160a01b0316847f2f8788117e7eff1d82e926ec794901d17c78024a50270940304540a733656f0d60405160405180910390a4506001610339565b505f5b92915050565b5f6020828403121561034f575f5ffd5b81516001600160a01b0381168114610365575f5ffd5b9392505050565b6114c6806103795f395ff3fe6080604052600436106101de575f3560e01c8063881eff1e116100fd578063d272e57e11610092578063f1a2de7211610062578063f1a2de721461058d578063f3fef3a3146105ac578063fa09e630146105cb578063fdcdb06b146105ea575f5ffd5b8063d272e57e1461051b578063d547741f14610530578063eb56b7401461054f578063efdcd9741461056e575f5ffd5b8063a217fddf116100cd578063a217fddf146104ab578063b3f00674146104be578063bd7dbf89146104dd578063cc895fa514610508575f5ffd5b8063881eff1e1461041657806388ea41b91461043557806391d14854146104545780639619367d14610496575f5ffd5b806346008a0711610173578063652ed49411610143578063652ed494146103a357806372229abf146103ce578063841e6ce9146103ed5780638456cb5914610402575f5ffd5b806346008a07146103215780635c975abb146103585780635e7c5af51461036f57806364ae4ca614610384575f5ffd5b80632f2ff15d116101ae5780632f2ff15d1461028f57806336568abe146102ae5780633f4ba83a146102cd57806342f105a4146102e1575f5ffd5b806301ffc9a7146101e9578063248a9ca31461021d578063278473fd146102595780632e5b21681461027a575f5ffd5b366101e557005b5f5ffd5b3480156101f4575f5ffd5b50610208610203366004611232565b6105fe565b60405190151581526020015b60405180910390f35b348015610228575f5ffd5b5061024b610237366004611260565b5f9081526020819052604090206001015490565b604051908152602001610214565b348015610264575f5ffd5b50610278610273366004611260565b610666565b005b348015610285575f5ffd5b5061024b60055481565b34801561029a575f5ffd5b506102786102a9366004611292565b610696565b3480156102b9575f5ffd5b506102786102c8366004611292565b6106c0565b3480156102d8575f5ffd5b50610278610711565b3480156102ec575f5ffd5b506103006102fb3660046112bc565b61074e565b6040805167ffffffffffffffff938416815292909116602083015201610214565b34801561032c575f5ffd5b50600854610340906001600160a01b031681565b6040516001600160a01b039091168152602001610214565b348015610363575f5ffd5b5060015460ff16610208565b34801561037a575f5ffd5b5061024b60075481565b34801561038f575f5ffd5b5061027861039e3660046112e3565b6107e1565b3480156103ae575f5ffd5b5061024b6103bd3660046112bc565b600a6020525f908152604090205481565b3480156103d9575f5ffd5b506102786103e8366004611260565b61083b565b3480156103f8575f5ffd5b5061024b60035481565b34801561040d575f5ffd5b5061027861086b565b348015610421575f5ffd5b50610278610430366004611260565b6108a5565b348015610440575f5ffd5b5061027861044f366004611260565b61091a565b34801561045f575f5ffd5b5061020861046e366004611292565b5f918252602082815260408084206001600160a01b0393909316845291905290205460ff1690565b3480156104a1575f5ffd5b5061024b60045481565b3480156104b6575f5ffd5b5061024b5f81565b3480156104c9575f5ffd5b50600654610340906001600160a01b031681565b3480156104e8575f5ffd5b5061024b6104f73660046112bc565b600b6020525f908152604090205481565b6102786105163660046112fc565b61098a565b348015610526575f5ffd5b5061024b60025481565b34801561053b575f5ffd5b5061027861054a366004611292565b610d43565b34801561055a575f5ffd5b50600954610340906001600160a01b031681565b348015610579575f5ffd5b506102786105883660046112e3565b610d67565b348015610598575f5ffd5b506102786105a73660046112e3565b610dc1565b3480156105b7575f5ffd5b506102786105c636600461132a565b610e1b565b3480156105d6575f5ffd5b506102786105e53660046112e3565b610ed3565b3480156105f5575f5ffd5b5061024b600381565b5f6001600160e01b031982167f7965db0b00000000000000000000000000000000000000000000000000000000148061066057507f01ffc9a7000000000000000000000000000000000000000000000000000000006001600160e01b03198316145b92915050565b7fa49807205ce4d355092ef5a8a18f56e8913cf4a201fbe287825b095693c2177561069081610f31565b50600755565b5f828152602081905260409020600101546106b081610f31565b6106ba8383610f3b565b50505050565b6001600160a01b0381163314610702576040517f6697b23200000000000000000000000000000000000000000000000000000000815260040160405180910390fd5b61070c8282610fe2565b505050565b7fa49807205ce4d355092ef5a8a18f56e8913cf4a201fbe287825b095693c2177561073b81610f31565b610743611063565b61074b6110a1565b50565b5f808061075c606485611358565b90508067ffffffffffffffff1660190361077957600492506107b4565b8067ffffffffffffffff1660320361079457600292506107b4565b8067ffffffffffffffff16604b036107af57600492506107b4565b600192505b5f6107bf848661139b565b905060646107ce8260636113c5565b6107d891906113e5565b92505050915091565b7fa49807205ce4d355092ef5a8a18f56e8913cf4a201fbe287825b095693c2177561080b81610f31565b506008805473ffffffffffffffffffffffffffffffffffffffff19166001600160a01b0392909216919091179055565b7fa49807205ce4d355092ef5a8a18f56e8913cf4a201fbe287825b095693c2177561086581610f31565b50600355565b7fa49807205ce4d355092ef5a8a18f56e8913cf4a201fbe287825b095693c2177561089581610f31565b61089d6110f3565b61074b611130565b7fa49807205ce4d355092ef5a8a18f56e8913cf4a201fbe287825b095693c217756108cf81610f31565b6004548210156109145760405162461bcd60e51b815260206004820152600b60248201526a1a5b9d985b1a590818995d60aa1b60448201526064015b60405180910390fd5b50600555565b7fa49807205ce4d355092ef5a8a18f56e8913cf4a201fbe287825b095693c2177561094481610f31565b6005548211156109845760405162461bcd60e51b815260206004820152600b60248201526a1a5b9d985b1a590818995d60aa1b604482015260640161090b565b50600455565b6109926110f3565b60075433905f906109a39084611414565b6109ad903461142b565b90505f836003546127106109c1919061143e565b6109cd61271085611414565b6109d79190611451565b6109e19190611451565b905060045481101580156109f757506005548111155b610a315760405162461bcd60e51b815260206004820152600b60248201526a1a5b9d985b1a590818995d60aa1b604482015260640161090b565b5f610a3c8583611414565b610a46908461142b565b90508460025f828254610a59919061143e565b90915550506008546007546040516001600160a01b039092169181156108fc0291905f818181858888f19350505050158015610a97573d5f5f3e3d5ffd5b506006546040516001600160a01b039091169082156108fc029083905f818181858888f19350505050158015610acf573d5f5f3e3d5ffd5b505f6064610adf846105dc611414565b610ae99088611414565b610af39190611451565b905080471015610b455760405162461bcd60e51b815260206004820152601460248201527f686f757365206f7574206f662062616c616e6365000000000000000000000000604482015260640161090b565b5f87610b52576042610b55565b60315b90505f80610b6161116b565b90505f5b898167ffffffffffffffff161015610c6d575f84610b848360016113c5565b610b8e908561139b565b610b989190611358565b90505f8c610bbe5767ffffffffffffffff82165f908152600b6020526040902054610bd8565b67ffffffffffffffff82165f908152600a60205260409020545b90505f6064610be78b84611414565b610bf19190611451565b9050610bfd818761143e565b604080518c8152602081018c90526001600160a01b038f1681830152606081018590526080810184905290519197507f9d6caf39e6a1591cd96c8aa4bd03d7278baab79ae5be66a486026b1bd89e5baa919081900360a00190a15050508080610c6590611464565b915050610b65565b508115610ca9576040516001600160a01b0389169083156108fc029084905f818181858888f19350505050158015610ca7573d5f5f3e3d5ffd5b505b6009546001600160a01b0316635f4717fe600333610cc7348761142b565b610cd18e8c611414565b6040516001600160e01b031960e087901b16815260048101949094526001600160a01b039092166024840152604483015260648201526084015f604051808303815f87803b158015610d21575f5ffd5b505af1158015610d33573d5f5f3e3d5ffd5b5050505050505050505050505050565b5f82815260208190526040902060010154610d5d81610f31565b6106ba8383610fe2565b7fa49807205ce4d355092ef5a8a18f56e8913cf4a201fbe287825b095693c21775610d9181610f31565b506006805473ffffffffffffffffffffffffffffffffffffffff19166001600160a01b0392909216919091179055565b7fa49807205ce4d355092ef5a8a18f56e8913cf4a201fbe287825b095693c21775610deb81610f31565b506009805473ffffffffffffffffffffffffffffffffffffffff19166001600160a01b0392909216919091179055565b7f779b9d7b1cefd23059ce3e2b194efb3183a6685dd830e8cbb723b0cbeb982b28610e4581610f31565b4780831115610e965760405162461bcd60e51b815260206004820152600e60248201527f696e76616c696420616d6f756e74000000000000000000000000000000000000604482015260640161090b565b60405184906001600160a01b0382169085156108fc029086905f818181858888f19350505050158015610ecb573d5f5f3e3d5ffd5b505050505050565b7f779b9d7b1cefd23059ce3e2b194efb3183a6685dd830e8cbb723b0cbeb982b28610efd81610f31565b60405182906001600160a01b038216904780156108fc02915f818181858888f193505050501580156106ba573d5f5f3e3d5ffd5b61074b81336111c3565b5f828152602081815260408083206001600160a01b038516845290915281205460ff16610fdb575f838152602081815260408083206001600160a01b03861684529091529020805460ff19166001179055610f933390565b6001600160a01b0316826001600160a01b0316847f2f8788117e7eff1d82e926ec794901d17c78024a50270940304540a733656f0d60405160405180910390a4506001610660565b505f610660565b5f828152602081815260408083206001600160a01b038516845290915281205460ff1615610fdb575f838152602081815260408083206001600160a01b0386168085529252808320805460ff1916905551339286917ff6391f5c32d9c69d2a47ea670b442974b53935d1edc7fd64eb21e047a839171b9190a4506001610660565b60015460ff1661109f576040517f8dfc202b00000000000000000000000000000000000000000000000000000000815260040160405180910390fd5b565b6110a9611063565b6001805460ff191690557f5db9ee0a495bf2e6ff9c91a7834c1ba4fdd244a5e8aa4e537bd38aeae4b073aa335b6040516001600160a01b03909116815260200160405180910390a1565b60015460ff161561109f576040517fd93c066500000000000000000000000000000000000000000000000000000000815260040160405180910390fd5b6111386110f3565b6001805460ff1916811790557f62e78cea01bee320cd4e420270b5ea74000d11b0c9f74754ebdbfc544b05a258336110d6565b5f5f4244336040516020016111a593929190928352602083019190915260601b6bffffffffffffffffffffffff1916604082015260540190565b60408051601f19818403018152919052805160209091012092915050565b5f828152602081815260408083206001600160a01b038516845290915290205460ff1661122e576040517fe2517d3f0000000000000000000000000000000000000000000000000000000081526001600160a01b03821660048201526024810183905260440161090b565b5050565b5f60208284031215611242575f5ffd5b81356001600160e01b031981168114611259575f5ffd5b9392505050565b5f60208284031215611270575f5ffd5b5035919050565b80356001600160a01b038116811461128d575f5ffd5b919050565b5f5f604083850312156112a3575f5ffd5b823591506112b360208401611277565b90509250929050565b5f602082840312156112cc575f5ffd5b813567ffffffffffffffff81168114611259575f5ffd5b5f602082840312156112f3575f5ffd5b61125982611277565b5f5f6040838503121561130d575f5ffd5b8235801515811461131c575f5ffd5b946020939093013593505050565b5f5f6040838503121561133b575f5ffd5b61131c83611277565b634e487b7160e01b5f52601260045260245ffd5b5f67ffffffffffffffff83168061137157611371611344565b8067ffffffffffffffff84160691505092915050565b634e487b7160e01b5f52601160045260245ffd5b67ffffffffffffffff81811683821602908116908181146113be576113be611387565b5092915050565b67ffffffffffffffff818116838216019081111561066057610660611387565b5f67ffffffffffffffff8316806113fe576113fe611344565b8067ffffffffffffffff84160491505092915050565b808202811582820484141761066057610660611387565b8181038181111561066057610660611387565b8082018082111561066057610660611387565b5f8261145f5761145f611344565b500490565b5f67ffffffffffffffff821667ffffffffffffffff810361148757611487611387565b6001019291505056fea2646970667358221220c075c0b961486e79552835fbea7ab7972868359d694f7c1b0cfe32ab83e75e9464736f6c634300081c0033",
  "devdoc": {
    "errors": {
      "AccessControlBadConfirmation()": [
        {
          "details": "The caller of a function is not the expected one. NOTE: Don't confuse with {AccessControlUnauthorizedAccount}."
        }
      ],
      "AccessControlUnauthorizedAccount(address,bytes32)": [
        {
          "details": "The `account` is missing a role."
        }
      ],
      "EnforcedPause()": [
        {
          "details": "The operation failed because the contract is paused."
        }
      ],
      "ExpectedPause()": [
        {
          "details": "The operation failed because the contract is not paused."
        }
      ]
    },
    "events": {
      "Paused(address)": {
        "details": "Emitted when the pause is triggered by `account`."
      },
      "RoleAdminChanged(bytes32,bytes32,bytes32)": {
        "details": "Emitted when `newAdminRole` is set as ``role``'s admin role, replacing `previousAdminRole` `DEFAULT_ADMIN_ROLE` is the starting admin for all roles, despite {RoleAdminChanged} not being emitted signaling this."
      },
      "RoleGranted(bytes32,address,address)": {
        "details": "Emitted when `account` is granted `role`. `sender` is the account that originated the contract call. This account bears the admin role (for the granted role). Expected in cases where the role was granted using the internal {AccessControl-_grantRole}."
      },
      "RoleRevoked(bytes32,address,address)": {
        "details": "Emitted when `account` is revoked `role`. `sender` is the account that originated the contract call:   - if using `revokeRole`, it is the admin role bearer   - if using `renounceRole`, it is the role bearer (i.e. `account`)"
      },
      "Unpaused(address)": {
        "details": "Emitted when the pause is lifted by `account`."
      }
    },
    "kind": "dev",
    "methods": {
      "getRoleAdmin(bytes32)": {
        "details": "Returns the admin role that controls `role`. See {grantRole} and {revokeRole}. To change a role's admin, use {_setRoleAdmin}."
      },
      "grantRole(bytes32,address)": {
        "details": "Grants `role` to `account`. If `account` had not been already granted `role`, emits a {RoleGranted} event. Requirements: - the caller must have ``role``'s admin role. May emit a {RoleGranted} event."
      },
      "hasRole(bytes32,address)": {
        "details": "Returns `true` if `account` has been granted `role`."
      },
      "pause()": {
        "details": "called by the owner to pause, triggers stopped state"
      },
      "paused()": {
        "details": "Returns true if the contract is paused, and false otherwise."
      },
      "renounceRole(bytes32,address)": {
        "details": "Revokes `role` from the calling account. Roles are often managed via {grantRole} and {revokeRole}: this function's purpose is to provide a mechanism for accounts to lose their privileges if they are compromised (such as when a trusted device is misplaced). If the calling account had been revoked `role`, emits a {RoleRevoked} event. Requirements: - the caller must be `callerConfirmation`. May emit a {RoleRevoked} event."
      },
      "revokeRole(bytes32,address)": {
        "details": "Revokes `role` from `account`. If `account` had been granted `role`, emits a {RoleRevoked} event. Requirements: - the caller must have ``role``'s admin role. May emit a {RoleRevoked} event."
      },
      "supportsInterface(bytes4)": {
        "details": "See {IERC165-supportsInterface}."
      },
      "unpause()": {
        "details": "called by the owner to unpause, returns to normal state"
      }
    },
    "version": 1
  },
  "userdoc": {
    "kind": "user",
    "methods": {
      "totalGame()": {
        "notice": "Storages"
      }
    },
    "version": 1
  },
  "storageLayout": {
    "storage": [
      {
        "astId": 26,
        "contract": "contracts/Plinko/Plinko.sol:Plinko",
        "label": "_roles",
        "offset": 0,
        "slot": "0",
        "type": "t_mapping(t_bytes32,t_struct(RoleData)21_storage)"
      },
      {
        "astId": 417,
        "contract": "contracts/Plinko/Plinko.sol:Plinko",
        "label": "_paused",
        "offset": 0,
        "slot": "1",
        "type": "t_bool"
      },
      {
        "astId": 2295,
        "contract": "contracts/Plinko/Plinko.sol:Plinko",
        "label": "totalGame",
        "offset": 0,
        "slot": "2",
        "type": "t_uint256"
      },
      {
        "astId": 2297,
        "contract": "contracts/Plinko/Plinko.sol:Plinko",
        "label": "betFee",
        "offset": 0,
        "slot": "3",
        "type": "t_uint256"
      },
      {
        "astId": 2299,
        "contract": "contracts/Plinko/Plinko.sol:Plinko",
        "label": "minBet",
        "offset": 0,
        "slot": "4",
        "type": "t_uint256"
      },
      {
        "astId": 2301,
        "contract": "contracts/Plinko/Plinko.sol:Plinko",
        "label": "maxBet",
        "offset": 0,
        "slot": "5",
        "type": "t_uint256"
      },
      {
        "astId": 2303,
        "contract": "contracts/Plinko/Plinko.sol:Plinko",
        "label": "feeReceiver",
        "offset": 0,
        "slot": "6",
        "type": "t_address"
      },
      {
        "astId": 2305,
        "contract": "contracts/Plinko/Plinko.sol:Plinko",
        "label": "govFee",
        "offset": 0,
        "slot": "7",
        "type": "t_uint256"
      },
      {
        "astId": 2307,
        "contract": "contracts/Plinko/Plinko.sol:Plinko",
        "label": "govAddress",
        "offset": 0,
        "slot": "8",
        "type": "t_address"
      },
      {
        "astId": 2309,
        "contract": "contracts/Plinko/Plinko.sol:Plinko",
        "label": "leaderboard",
        "offset": 0,
        "slot": "9",
        "type": "t_address"
      },
      {
        "astId": 2313,
        "contract": "contracts/Plinko/Plinko.sol:Plinko",
        "label": "degenMultiplier",
        "offset": 0,
        "slot": "10",
        "type": "t_mapping(t_uint64,t_uint256)"
      },
      {
        "astId": 2317,
        "contract": "contracts/Plinko/Plinko.sol:Plinko",
        "label": "basicMultiplier",
        "offset": 0,
        "slot": "11",
        "type": "t_mapping(t_uint64,t_uint256)"
      }
    ],
    "types": {
      "t_address": {
        "encoding": "inplace",
        "label": "address",
        "numberOfBytes": "20"
      },
      "t_bool": {
        "encoding": "inplace",
        "label": "bool",
        "numberOfBytes": "1"
      },
      "t_bytes32": {
        "encoding": "inplace",
        "label": "bytes32",
        "numberOfBytes": "32"
      },
      "t_mapping(t_address,t_bool)": {
        "encoding": "mapping",
        "key": "t_address",
        "label": "mapping(address => bool)",
        "numberOfBytes": "32",
        "value": "t_bool"
      },
      "t_mapping(t_bytes32,t_struct(RoleData)21_storage)": {
        "encoding": "mapping",
        "key": "t_bytes32",
        "label": "mapping(bytes32 => struct AccessControl.RoleData)",
        "numberOfBytes": "32",
        "value": "t_struct(RoleData)21_storage"
      },
      "t_mapping(t_uint64,t_uint256)": {
        "encoding": "mapping",
        "key": "t_uint64",
        "label": "mapping(uint64 => uint256)",
        "numberOfBytes": "32",
        "value": "t_uint256"
      },
      "t_struct(RoleData)21_storage": {
        "encoding": "inplace",
        "label": "struct AccessControl.RoleData",
        "members": [
          {
            "astId": 18,
            "contract": "contracts/Plinko/Plinko.sol:Plinko",
            "label": "hasRole",
            "offset": 0,
            "slot": "0",
            "type": "t_mapping(t_address,t_bool)"
          },
          {
            "astId": 20,
            "contract": "contracts/Plinko/Plinko.sol:Plinko",
            "label": "adminRole",
            "offset": 0,
            "slot": "1",
            "type": "t_bytes32"
          }
        ],
        "numberOfBytes": "64"
      },
      "t_uint256": {
        "encoding": "inplace",
        "label": "uint256",
        "numberOfBytes": "32"
      },
      "t_uint64": {
        "encoding": "inplace",
        "label": "uint64",
        "numberOfBytes": "8"
      }
    }
  }
}