{
  "address": "0x216c6350a2bB1d09f76D8Bc59adAc309F2f34701",
  "abi": [
    {
      "inputs": [],
      "name": "AccessControlBadConfirmation",
      "type": "error"
    },
    {
      "inputs": [
        {
          "internalType": "address",
          "name": "account",
          "type": "address"
        },
        {
          "internalType": "bytes32",
          "name": "neededRole",
          "type": "bytes32"
        }
      ],
      "name": "AccessControlUnauthorizedAccount",
      "type": "error"
    },
    {
      "inputs": [
        {
          "internalType": "address",
          "name": "target",
          "type": "address"
        }
      ],
      "name": "AddressEmptyCode",
      "type": "error"
    },
    {
      "inputs": [
        {
          "internalType": "address",
          "name": "implementation",
          "type": "address"
        }
      ],
      "name": "ERC1967InvalidImplementation",
      "type": "error"
    },
    {
      "inputs": [],
      "name": "ERC1967NonPayable",
      "type": "error"
    },
    {
      "inputs": [],
      "name": "EnforcedPause",
      "type": "error"
    },
    {
      "inputs": [],
      "name": "ExpectedPause",
      "type": "error"
    },
    {
      "inputs": [],
      "name": "FailedCall",
      "type": "error"
    },
    {
      "inputs": [],
      "name": "InvalidInitialization",
      "type": "error"
    },
    {
      "inputs": [],
      "name": "NotInitializing",
      "type": "error"
    },
    {
      "inputs": [],
      "name": "UUPSUnauthorizedCallContext",
      "type": "error"
    },
    {
      "inputs": [
        {
          "internalType": "bytes32",
          "name": "slot",
          "type": "bytes32"
        }
      ],
      "name": "UUPSUnsupportedProxiableUUID",
      "type": "error"
    },
    {
      "anonymous": false,
      "inputs": [
        {
          "indexed": true,
          "internalType": "uint256",
          "name": "gameId",
          "type": "uint256"
        },
        {
          "indexed": false,
          "internalType": "uint256",
          "name": "multiplier",
          "type": "uint256"
        }
      ],
      "name": "Ball",
      "type": "event"
    },
    {
      "anonymous": false,
      "inputs": [
        {
          "indexed": true,
          "internalType": "address",
          "name": "user",
          "type": "address"
        },
        {
          "indexed": true,
          "internalType": "uint256",
          "name": "gameId",
          "type": "uint256"
        },
        {
          "indexed": false,
          "internalType": "uint256",
          "name": "totalBetAmount",
          "type": "uint256"
        },
        {
          "indexed": false,
          "internalType": "uint256",
          "name": "balls",
          "type": "uint256"
        },
        {
          "indexed": false,
          "internalType": "uint256",
          "name": "payout",
          "type": "uint256"
        }
      ],
      "name": "Game",
      "type": "event"
    },
    {
      "anonymous": false,
      "inputs": [
        {
          "indexed": false,
          "internalType": "uint64",
          "name": "version",
          "type": "uint64"
        }
      ],
      "name": "Initialized",
      "type": "event"
    },
    {
      "anonymous": false,
      "inputs": [
        {
          "indexed": true,
          "internalType": "address",
          "name": "user",
          "type": "address"
        },
        {
          "indexed": true,
          "internalType": "uint256",
          "name": "gameId",
          "type": "uint256"
        },
        {
          "indexed": false,
          "internalType": "uint256",
          "name": "totalBetAmount",
          "type": "uint256"
        },
        {
          "indexed": false,
          "internalType": "uint256",
          "name": "balls",
          "type": "uint256"
        },
        {
          "indexed": false,
          "internalType": "uint256",
          "name": "fee",
          "type": "uint256"
        }
      ],
      "name": "NewBet",
      "type": "event"
    },
    {
      "anonymous": false,
      "inputs": [
        {
          "indexed": false,
          "internalType": "address",
          "name": "account",
          "type": "address"
        }
      ],
      "name": "Paused",
      "type": "event"
    },
    {
      "anonymous": false,
      "inputs": [
        {
          "indexed": false,
          "internalType": "uint256",
          "name": "sequence",
          "type": "uint256"
        }
      ],
      "name": "RandomRequested",
      "type": "event"
    },
    {
      "anonymous": false,
      "inputs": [
        {
          "indexed": true,
          "internalType": "bytes32",
          "name": "role",
          "type": "bytes32"
        },
        {
          "indexed": true,
          "internalType": "bytes32",
          "name": "previousAdminRole",
          "type": "bytes32"
        },
        {
          "indexed": true,
          "internalType": "bytes32",
          "name": "newAdminRole",
          "type": "bytes32"
        }
      ],
      "name": "RoleAdminChanged",
      "type": "event"
    },
    {
      "anonymous": false,
      "inputs": [
        {
          "indexed": true,
          "internalType": "bytes32",
          "name": "role",
          "type": "bytes32"
        },
        {
          "indexed": true,
          "internalType": "address",
          "name": "account",
          "type": "address"
        },
        {
          "indexed": true,
          "internalType": "address",
          "name": "sender",
          "type": "address"
        }
      ],
      "name": "RoleGranted",
      "type": "event"
    },
    {
      "anonymous": false,
      "inputs": [
        {
          "indexed": true,
          "internalType": "bytes32",
          "name": "role",
          "type": "bytes32"
        },
        {
          "indexed": true,
          "internalType": "address",
          "name": "account",
          "type": "address"
        },
        {
          "indexed": true,
          "internalType": "address",
          "name": "sender",
          "type": "address"
        }
      ],
      "name": "RoleRevoked",
      "type": "event"
    },
    {
      "anonymous": false,
      "inputs": [
        {
          "indexed": false,
          "internalType": "address",
          "name": "account",
          "type": "address"
        }
      ],
      "name": "Unpaused",
      "type": "event"
    },
    {
      "anonymous": false,
      "inputs": [
        {
          "indexed": true,
          "internalType": "address",
          "name": "implementation",
          "type": "address"
        }
      ],
      "name": "Upgraded",
      "type": "event"
    },
    {
      "inputs": [],
      "name": "DEFAULT_ADMIN_ROLE",
      "outputs": [
        {
          "internalType": "bytes32",
          "name": "",
          "type": "bytes32"
        }
      ],
      "stateMutability": "view",
      "type": "function"
    },
    {
      "inputs": [],
      "name": "GAME_ID",
      "outputs": [
        {
          "internalType": "uint256",
          "name": "",
          "type": "uint256"
        }
      ],
      "stateMutability": "view",
      "type": "function"
    },
    {
      "inputs": [],
      "name": "UPGRADE_INTERFACE_VERSION",
      "outputs": [
        {
          "internalType": "string",
          "name": "",
          "type": "string"
        }
      ],
      "stateMutability": "view",
      "type": "function"
    },
    {
      "inputs": [
        {
          "internalType": "uint256",
          "name": "",
          "type": "uint256"
        }
      ],
      "name": "basicMultiplier",
      "outputs": [
        {
          "internalType": "uint256",
          "name": "",
          "type": "uint256"
        }
      ],
      "stateMutability": "view",
      "type": "function"
    },
    {
      "inputs": [
        {
          "internalType": "uint256",
          "name": "",
          "type": "uint256"
        }
      ],
      "name": "degenMultiplier",
      "outputs": [
        {
          "internalType": "uint256",
          "name": "",
          "type": "uint256"
        }
      ],
      "stateMutability": "view",
      "type": "function"
    },
    {
      "inputs": [
        {
          "internalType": "uint256",
          "name": "",
          "type": "uint256"
        }
      ],
      "name": "gameIdToBetInfo",
      "outputs": [
        {
          "internalType": "address",
          "name": "user",
          "type": "address"
        },
        {
          "internalType": "bool",
          "name": "degen",
          "type": "bool"
        },
        {
          "internalType": "uint256",
          "name": "balls",
          "type": "uint256"
        },
        {
          "internalType": "uint256",
          "name": "betAmount",
          "type": "uint256"
        }
      ],
      "stateMutability": "view",
      "type": "function"
    },
    {
      "inputs": [
        {
          "internalType": "bytes32",
          "name": "role",
          "type": "bytes32"
        }
      ],
      "name": "getRoleAdmin",
      "outputs": [
        {
          "internalType": "bytes32",
          "name": "",
          "type": "bytes32"
        }
      ],
      "stateMutability": "view",
      "type": "function"
    },
    {
      "inputs": [
        {
          "internalType": "bytes32",
          "name": "role",
          "type": "bytes32"
        },
        {
          "internalType": "address",
          "name": "account",
          "type": "address"
        }
      ],
      "name": "grantRole",
      "outputs": [],
      "stateMutability": "nonpayable",
      "type": "function"
    },
    {
      "inputs": [
        {
          "internalType": "bytes32",
          "name": "role",
          "type": "bytes32"
        },
        {
          "internalType": "address",
          "name": "account",
          "type": "address"
        }
      ],
      "name": "hasRole",
      "outputs": [
        {
          "internalType": "bool",
          "name": "",
          "type": "bool"
        }
      ],
      "stateMutability": "view",
      "type": "function"
    },
    {
      "inputs": [
        {
          "internalType": "address",
          "name": "leaderboard_",
          "type": "address"
        },
        {
          "internalType": "address",
          "name": "switchboard_",
          "type": "address"
        },
        {
          "internalType": "bytes32",
          "name": "swQueue_",
          "type": "bytes32"
        }
      ],
      "name": "initialize",
      "outputs": [],
      "stateMutability": "nonpayable",
      "type": "function"
    },
    {
      "inputs": [],
      "name": "leaderboard",
      "outputs": [
        {
          "internalType": "address",
          "name": "",
          "type": "address"
        }
      ],
      "stateMutability": "view",
      "type": "function"
    },
    {
      "inputs": [],
      "name": "pause",
      "outputs": [],
      "stateMutability": "nonpayable",
      "type": "function"
    },
    {
      "inputs": [],
      "name": "paused",
      "outputs": [
        {
          "internalType": "bool",
          "name": "",
          "type": "bool"
        }
      ],
      "stateMutability": "view",
      "type": "function"
    },
    {
      "inputs": [
        {
          "internalType": "bool",
          "name": "degen",
          "type": "bool"
        },
        {
          "internalType": "uint256",
          "name": "balls",
          "type": "uint256"
        }
      ],
      "name": "plinko",
      "outputs": [],
      "stateMutability": "payable",
      "type": "function"
    },
    {
      "inputs": [],
      "name": "proxiableUUID",
      "outputs": [
        {
          "internalType": "bytes32",
          "name": "",
          "type": "bytes32"
        }
      ],
      "stateMutability": "view",
      "type": "function"
    },
    {
      "inputs": [],
      "name": "queue",
      "outputs": [
        {
          "internalType": "bytes32",
          "name": "",
          "type": "bytes32"
        }
      ],
      "stateMutability": "view",
      "type": "function"
    },
    {
      "inputs": [
        {
          "internalType": "bytes32",
          "name": "role",
          "type": "bytes32"
        },
        {
          "internalType": "address",
          "name": "callerConfirmation",
          "type": "address"
        }
      ],
      "name": "renounceRole",
      "outputs": [],
      "stateMutability": "nonpayable",
      "type": "function"
    },
    {
      "inputs": [
        {
          "internalType": "bytes[]",
          "name": "switchboardUpdateFeeds",
          "type": "bytes[]"
        },
        {
          "internalType": "uint256",
          "name": "seq",
          "type": "uint256"
        }
      ],
      "name": "resolve",
      "outputs": [],
      "stateMutability": "nonpayable",
      "type": "function"
    },
    {
      "inputs": [
        {
          "internalType": "bytes32",
          "name": "role",
          "type": "bytes32"
        },
        {
          "internalType": "address",
          "name": "account",
          "type": "address"
        }
      ],
      "name": "revokeRole",
      "outputs": [],
      "stateMutability": "nonpayable",
      "type": "function"
    },
    {
      "inputs": [
        {
          "internalType": "uint256",
          "name": "",
          "type": "uint256"
        }
      ],
      "name": "seq2GameId",
      "outputs": [
        {
          "internalType": "uint256",
          "name": "",
          "type": "uint256"
        }
      ],
      "stateMutability": "view",
      "type": "function"
    },
    {
      "inputs": [],
      "name": "sequence",
      "outputs": [
        {
          "internalType": "uint256",
          "name": "",
          "type": "uint256"
        }
      ],
      "stateMutability": "view",
      "type": "function"
    },
    {
      "inputs": [
        {
          "internalType": "address",
          "name": "leaderboard_",
          "type": "address"
        }
      ],
      "name": "setLeaderboard",
      "outputs": [],
      "stateMutability": "nonpayable",
      "type": "function"
    },
    {
      "inputs": [],
      "name": "solvedSeq",
      "outputs": [
        {
          "internalType": "uint256",
          "name": "",
          "type": "uint256"
        }
      ],
      "stateMutability": "view",
      "type": "function"
    },
    {
      "inputs": [
        {
          "internalType": "bytes4",
          "name": "interfaceId",
          "type": "bytes4"
        }
      ],
      "name": "supportsInterface",
      "outputs": [
        {
          "internalType": "bool",
          "name": "",
          "type": "bool"
        }
      ],
      "stateMutability": "view",
      "type": "function"
    },
    {
      "inputs": [],
      "name": "totalGame",
      "outputs": [
        {
          "internalType": "uint256",
          "name": "",
          "type": "uint256"
        }
      ],
      "stateMutability": "view",
      "type": "function"
    },
    {
      "inputs": [],
      "name": "unpause",
      "outputs": [],
      "stateMutability": "nonpayable",
      "type": "function"
    },
    {
      "inputs": [
        {
          "internalType": "address",
          "name": "newImplementation",
          "type": "address"
        },
        {
          "internalType": "bytes",
          "name": "data",
          "type": "bytes"
        }
      ],
      "name": "upgradeToAndCall",
      "outputs": [],
      "stateMutability": "payable",
      "type": "function"
    },
    {
      "stateMutability": "payable",
      "type": "receive"
    }
  ],
  "transactionHash": "0x473202b03b1cf4b57198ca3e88549b37204ae7b8858aa74fa06e86ef357ebf4e",
  "args": [],
  "numDeployments": 2,
  "solcInputHash": "155fae5c01d3aac707cbd81bd2af8e89",
  "bytecode": "0x60a06040523060805234801561001457600080fd5b506080516122cc61003e600039600081816111bf015281816111e8015261138801526122cc6000f3fe6080604052600436106101b05760003560e01c80636d48b118116100ec578063d272e57e1161008a578063e10d29ee11610064578063e10d29ee146105a0578063eb56b740146105b6578063f1a2de72146105ee578063fdcdb06b1461060e57600080fd5b8063d272e57e146104ef578063d547741f14610505578063dfad729a1461052557600080fd5b806391d14854116100c657806391d148541461040c578063a217fddf14610471578063ad3cb1cc14610486578063cc895fa5146104dc57600080fd5b80636d48b118146103aa5780637f6a0cba146103ca5780638456cb59146103f757600080fd5b806336568abe11610159578063529d15cc11610133578063529d15cc1461032857806352d1902d1461033e5780635c975abb146103535780636133f9851461038a57600080fd5b806336568abe146102e05780633f4ba83a146103005780634f1ef2861461031557600080fd5b8063248a9ca31161018a578063248a9ca31461024257806328681024146102915780632f2ff15d146102be57600080fd5b806301ffc9a7146101bc5780630ebbe0ad146101f157806323ffc7791461022c57600080fd5b366101b757005b600080fd5b3480156101c857600080fd5b506101dc6101d7366004611ce7565b610623565b60405190151581526020015b60405180910390f35b3480156101fd57600080fd5b5061021e61020c366004611d29565b60086020526000908152604090205481565b6040519081526020016101e8565b34801561023857600080fd5b5061021e60035481565b34801561024e57600080fd5b5061021e61025d366004611d29565b60009081527f02dd7bc7dec4dceedda775e58dd541e08a116c6c53815c0bd028192f7b626800602052604090206001015490565b34801561029d57600080fd5b5061021e6102ac366004611d29565b60076020526000908152604090205481565b3480156102ca57600080fd5b506102de6102d9366004611d57565b6106bc565b005b3480156102ec57600080fd5b506102de6102fb366004611d57565b610706565b34801561030c57600080fd5b506102de610757565b6102de610323366004611df7565b610794565b34801561033457600080fd5b5061021e60025481565b34801561034a57600080fd5b5061021e6107b3565b34801561035f57600080fd5b507fcd5ed15c6e187e77e9aee88184c21f4f2182ab5827cb3b7e07fbedcd63f033005460ff166101dc565b34801561039657600080fd5b506102de6103a5366004611e9f565b6107e2565b3480156103b657600080fd5b506102de6103c5366004611ee0565b610aff565b3480156103d657600080fd5b5061021e6103e5366004611d29565b60046020526000908152604090205481565b34801561040357600080fd5b506102de610cf7565b34801561041857600080fd5b506101dc610427366004611d57565b60009182527f02dd7bc7dec4dceedda775e58dd541e08a116c6c53815c0bd028192f7b626800602090815260408084206001600160a01b0393909316845291905290205460ff1690565b34801561047d57600080fd5b5061021e600081565b34801561049257600080fd5b506104cf6040518060400160405280600581526020017f352e302e3000000000000000000000000000000000000000000000000000000081525081565b6040516101e89190611f7f565b6102de6104ea366004611fb2565b610d31565b3480156104fb57600080fd5b5061021e60055481565b34801561051157600080fd5b506102de610520366004611d57565b610ec7565b34801561053157600080fd5b50610576610540366004611d29565b6009602052600090815260409020805460018201546002909201546001600160a01b03821692600160a01b90920460ff16919084565b604080516001600160a01b03909516855292151560208501529183015260608201526080016101e8565b3480156105ac57600080fd5b5061021e60015481565b3480156105c257600080fd5b506006546105d6906001600160a01b031681565b6040516001600160a01b0390911681526020016101e8565b3480156105fa57600080fd5b506102de610609366004611fe3565b610f0b565b34801561061a57600080fd5b5061021e600381565b60007fffffffff0000000000000000000000000000000000000000000000000000000082167f7965db0b0000000000000000000000000000000000000000000000000000000014806106b657507f01ffc9a7000000000000000000000000000000000000000000000000000000007fffffffff000000000000000000000000000000000000000000000000000000008316145b92915050565b60008281527f02dd7bc7dec4dceedda775e58dd541e08a116c6c53815c0bd028192f7b62680060205260409020600101546106f681610f65565b6107008383610f6f565b50505050565b6001600160a01b0381163314610748576040517f6697b23200000000000000000000000000000000000000000000000000000000815260040160405180910390fd5b610752828261103e565b505050565b7fa49807205ce4d355092ef5a8a18f56e8913cf4a201fbe287825b095693c2177561078181610f65565b6107896110e4565b610791611141565b50565b61079c6111b4565b6107a58261126b565b6107af8282611295565b5050565b60006107bd61137d565b507f360894a13ba1a3210667c828492db98dca3e2076cc3735a920a3ca505d382bbc90565b60006107ec6113c6565b805490915060ff68010000000000000000820416159067ffffffffffffffff166000811580156108195750825b905060008267ffffffffffffffff1660011480156108365750303b155b905081158015610844575080155b156108625760405163f92ee8a960e01b815260040160405180910390fd5b845467ffffffffffffffff19166001178555831561089657845468ff00000000000000001916680100000000000000001785555b61089e6113ef565b6108a66113ef565b6108ae6113ef565b6108b66113ef565b336108c2600082610f6f565b506108ed7fa49807205ce4d355092ef5a8a18f56e8913cf4a201fbe287825b095693c2177582610f6f565b506006805473ffffffffffffffffffffffffffffffffffffffff19166001600160a01b038b16179055600760205260c87feec123b2fdbe86f4f5bc78302d7f5a15762e0c954439f75677c94278d2bcf8fd8190557fd9ba031fdb7d71bd061083980d5807d26bb2fade193f918e92821956bfdda35a556103e87ff61dffaafadc06c51bab3d00b0e2d57a6471368c7ae68dc2c923be5b2842e9208190557fa9a18f421c88b5456819057fb70bd58beec0e03163991994ad8d80ed30deeaf38190557f6ad70a4b2f0ce5a5b5e387d4bc4ae7958c0f01a0b5fba90a2c0b1a9391f068c855603060009081526105dc7f1d90d70aa2b160f0d0cfe0186ccfd5809afb328c84784403875176cf0cca882b555b6030811015610a20576000818152600860205260409020603290556001016109fd565b5060305b603a811015610a4757600081815260086020526040902060969055600101610a24565b50603a5b6041811015610a6f57600081815260086020526040902061012c9055600101610a4b565b50604160005260086020526102587f8518cb14e45c395bda28aa62494aabf636d200f9e24b1d91170bd743d557784155610aa988886113f7565b508315610af557845468ff000000000000000019168555604051600181527fc7f505b2f371ae2175ee4913f4499e1f2633a7b5936321eed1cdaeb6115181d29060200160405180910390a15b5050505050505050565b600081815260046020526040902054600354610b1c906001612016565b82148015610b2957508015155b610b7a5760405162461bcd60e51b815260206004820152600b60248201527f696e76616c69642073657100000000000000000000000000000000000000000060448201526064015b60405180910390fd5b60038290556000546040517fbc36c0a90000000000000000000000000000000000000000000000000000000081526001600160a01b039091169063bc36c0a990610bca9087908790600401612052565b600060405180830381600087803b158015610be457600080fd5b505af1158015610bf8573d6000803e3d6000fd5b5050600080546003546040517f05b1940200000000000000000000000000000000000000000000000000000000815260048101919091529193506001600160a01b031691506305b194029060240161014060405180830381865afa158015610c64573d6000803e3d6000fd5b505050506040513d601f19601f82011682018060405250810190610c88919061215f565b60c0015190508060600151600003610ce25760405162461bcd60e51b815260206004820152601b60248201527f52616e646f6d6e657373206661696c656420746f20536574746c6500000000006044820152606401610b71565b610cf082826040015161152c565b5050505050565b7fa49807205ce4d355092ef5a8a18f56e8913cf4a201fbe287825b095693c21775610d2181610f65565b610d29611756565b6107916117b2565b610d39611756565b6000336006546040517fdcb99ca10000000000000000000000000000000000000000000000000000000081526004810185905291925060009182916001600160a01b03169063dcb99ca1903490602401604080518083038185885af1158015610da6573d6000803e3d6000fd5b50505050506040513d601f19601f82011682018060405250810190610dcb91906121e8565b9150915060006005546001610de09190612016565b9050610deb8161180d565b604080516080810182526001600160a01b0386811680835289151560208085019182528486018b815260608087018b815260008a8152600985528990208851815496511515600160a01b027fffffffffffffffffffffff000000000000000000000000000000000000000000909716981697909717949094178655905160018601559151600290940193909355600586905584518881529283018a905293820186905291928492917f4fa11c75379b17cc9056d50bf3bf6c483007435626712395a1accf779e91d3be910160405180910390a350505050505050565b60008281527f02dd7bc7dec4dceedda775e58dd541e08a116c6c53815c0bd028192f7b6268006020526040902060010154610f0181610f65565b610700838361103e565b7fa49807205ce4d355092ef5a8a18f56e8913cf4a201fbe287825b095693c21775610f3581610f65565b506006805473ffffffffffffffffffffffffffffffffffffffff19166001600160a01b0392909216919091179055565b610791813361195a565b60008281527f02dd7bc7dec4dceedda775e58dd541e08a116c6c53815c0bd028192f7b626800602081815260408084206001600160a01b038616855290915282205460ff16611034576000848152602082815260408083206001600160a01b03871684529091529020805460ff19166001179055610fea3390565b6001600160a01b0316836001600160a01b0316857f2f8788117e7eff1d82e926ec794901d17c78024a50270940304540a733656f0d60405160405180910390a460019150506106b6565b60009150506106b6565b60008281527f02dd7bc7dec4dceedda775e58dd541e08a116c6c53815c0bd028192f7b626800602081815260408084206001600160a01b038616855290915282205460ff1615611034576000848152602082815260408083206001600160a01b0387168085529252808320805460ff1916905551339287917ff6391f5c32d9c69d2a47ea670b442974b53935d1edc7fd64eb21e047a839171b9190a460019150506106b6565b7fcd5ed15c6e187e77e9aee88184c21f4f2182ab5827cb3b7e07fbedcd63f033005460ff1661113f576040517f8dfc202b00000000000000000000000000000000000000000000000000000000815260040160405180910390fd5b565b6111496110e4565b7fcd5ed15c6e187e77e9aee88184c21f4f2182ab5827cb3b7e07fbedcd63f03300805460ff191681557f5db9ee0a495bf2e6ff9c91a7834c1ba4fdd244a5e8aa4e537bd38aeae4b073aa335b6040516001600160a01b0390911681526020015b60405180910390a150565b306001600160a01b037f000000000000000000000000000000000000000000000000000000000000000016148061124d57507f00000000000000000000000000000000000000000000000000000000000000006001600160a01b03166112417f360894a13ba1a3210667c828492db98dca3e2076cc3735a920a3ca505d382bbc546001600160a01b031690565b6001600160a01b031614155b1561113f5760405163703e46dd60e11b815260040160405180910390fd5b7fa49807205ce4d355092ef5a8a18f56e8913cf4a201fbe287825b095693c217756107af81610f65565b816001600160a01b03166352d1902d6040518163ffffffff1660e01b8152600401602060405180830381865afa9250505080156112ef575060408051601f3d908101601f191682019092526112ec9181019061220c565b60015b61131757604051634c9c8ce360e01b81526001600160a01b0383166004820152602401610b71565b7f360894a13ba1a3210667c828492db98dca3e2076cc3735a920a3ca505d382bbc8114611373576040517faa1d49a400000000000000000000000000000000000000000000000000000000815260048101829052602401610b71565b61075283836119e7565b306001600160a01b037f0000000000000000000000000000000000000000000000000000000000000000161461113f5760405163703e46dd60e11b815260040160405180910390fd5b6000807ff0c57e16840df040f15088dc2f81fe391c3923bec73e23a9662efc9c229c6a006106b6565b61113f611a3d565b60006114016113c6565b805490915060ff68010000000000000000820416159067ffffffffffffffff1660008115801561142e5750825b905060008267ffffffffffffffff16600114801561144b5750303b155b905081158015611459575080155b156114775760405163f92ee8a960e01b815260040160405180910390fd5b845467ffffffffffffffff1916600117855583156114ab57845468ff00000000000000001916680100000000000000001785555b60018690556000805473ffffffffffffffffffffffffffffffffffffffff19166001600160a01b038916179055831561152357845468ff000000000000000019168555604051600181527fc7f505b2f371ae2175ee4913f4499e1f2633a7b5936321eed1cdaeb6115181d29060200160405180910390a15b50505050505050565b611534611756565b60008281526009602052604081206001810154815460028301549293919260ff600160a01b8304169290916001600160a01b0316908290036115795750505050505050565b6000600286018190558361158e576042611591565b60315b90506000806115a0878661223b565b905060005b8781101561166e5760006115c16115bc838d612016565b611a7b565b905060006115cf868361224f565b90506000896115ec576000828152600860205260409020546115fc565b6000828152600760205260409020545b90506000606461160c8784612263565b611616919061223b565b90506116228188612016565b96508e7fbf2a368ad5ca26039547c3a89924d01f27caa750522e99264c6962c02708d64b8360405161165691815260200190565b60405180910390a25050600190920191506115a59050565b5060408051868152602081018990529081018390528a906001600160a01b038616907f8d6f739ebabe97de0fcfa22e9634fd6ec7f4b401fa2f959b3386299e635207be9060600160405180910390a36006546040517f83fbaae2000000000000000000000000000000000000000000000000000000008152600360048201526001600160a01b0386811660248301526044820185905260648201889052909116906383fbaae290608401600060405180830381600087803b15801561173257600080fd5b505af1158015611746573d6000803e3d6000fd5b5050505050505050505050505050565b7fcd5ed15c6e187e77e9aee88184c21f4f2182ab5827cb3b7e07fbedcd63f033005460ff161561113f576040517fd93c066500000000000000000000000000000000000000000000000000000000815260040160405180910390fd5b6117ba611756565b7fcd5ed15c6e187e77e9aee88184c21f4f2182ab5827cb3b7e07fbedcd63f03300805460ff191660011781557f62e78cea01bee320cd4e420270b5ea74000d11b0c9f74754ebdbfc544b05a25833611195565b600081815260046020526040902054156118695760405162461bcd60e51b815260206004820152600b60248201527f47616d65206578697374730000000000000000000000000000000000000000006044820152606401610b71565b60016002600082825461187c9190612016565b9091555050600054600254600180546040517ff4bc77f70000000000000000000000000000000000000000000000000000000081526004810193909352306024840152604483015260648201526001600160a01b039091169063f4bc77f790608401600060405180830381600087803b1580156118f857600080fd5b505af115801561190c573d6000803e3d6000fd5b50506002805460009081526004602052604090819020859055905490517ff81446731d23d202ea16cf590daf64c6087251171612b2adde6acbef4b37580293506111a9925090815260200190565b60008281527f02dd7bc7dec4dceedda775e58dd541e08a116c6c53815c0bd028192f7b626800602090815260408083206001600160a01b038516845290915290205460ff166107af576040517fe2517d3f0000000000000000000000000000000000000000000000000000000081526001600160a01b038216600482015260248101839052604401610b71565b6119f082611adc565b6040516001600160a01b038316907fbc7cd75a20ee27fd9adebab32041f755214dbc6bffa90cc0225b39da2e5c2d3b90600090a2805115611a35576107528282611b60565b6107af611bd6565b611a45611c0e565b61113f576040517fd7e6bcf800000000000000000000000000000000000000000000000000000000815260040160405180910390fd5b6000436005543384604051602001611abe9493929190938452602084019290925260601b6bffffffffffffffffffffffff19166040830152605482015260740190565b60408051601f19818403018152919052805160209091012092915050565b806001600160a01b03163b600003611b1257604051634c9c8ce360e01b81526001600160a01b0382166004820152602401610b71565b7f360894a13ba1a3210667c828492db98dca3e2076cc3735a920a3ca505d382bbc805473ffffffffffffffffffffffffffffffffffffffff19166001600160a01b0392909216919091179055565b6060600080846001600160a01b031684604051611b7d919061227a565b600060405180830381855af49150503d8060008114611bb8576040519150601f19603f3d011682016040523d82523d6000602084013e611bbd565b606091505b5091509150611bcd858383611c2d565b95945050505050565b341561113f576040517fb398979f00000000000000000000000000000000000000000000000000000000815260040160405180910390fd5b6000611c186113c6565b5468010000000000000000900460ff16919050565b606082611c4257611c3d82611ca5565b611c9e565b8151158015611c5957506001600160a01b0384163b155b15611c9b576040517f9996b3150000000000000000000000000000000000000000000000000000000081526001600160a01b0385166004820152602401610b71565b50805b9392505050565b805115611cb55780518082602001fd5b6040517fd6bda27500000000000000000000000000000000000000000000000000000000815260040160405180910390fd5b600060208284031215611cf957600080fd5b81357fffffffff0000000000000000000000000000000000000000000000000000000081168114611c9e57600080fd5b600060208284031215611d3b57600080fd5b5035919050565b6001600160a01b038116811461079157600080fd5b60008060408385031215611d6a57600080fd5b823591506020830135611d7c81611d42565b809150509250929050565b634e487b7160e01b600052604160045260246000fd5b60405160e0810167ffffffffffffffff81118282101715611dc057611dc0611d87565b60405290565b604051601f8201601f1916810167ffffffffffffffff81118282101715611def57611def611d87565b604052919050565b60008060408385031215611e0a57600080fd5b8235611e1581611d42565b915060208381013567ffffffffffffffff80821115611e3357600080fd5b818601915086601f830112611e4757600080fd5b813581811115611e5957611e59611d87565b611e6b601f8201601f19168501611dc6565b91508082528784828501011115611e8157600080fd5b80848401858401376000848284010152508093505050509250929050565b600080600060608486031215611eb457600080fd5b8335611ebf81611d42565b92506020840135611ecf81611d42565b929592945050506040919091013590565b600080600060408486031215611ef557600080fd5b833567ffffffffffffffff80821115611f0d57600080fd5b818601915086601f830112611f2157600080fd5b813581811115611f3057600080fd5b8760208260051b8501011115611f4557600080fd5b6020928301989097509590910135949350505050565b60005b83811015611f76578181015183820152602001611f5e565b50506000910152565b6020815260008251806020840152611f9e816040850160208701611f5b565b601f01601f19169190910160400192915050565b60008060408385031215611fc557600080fd5b82358015158114611fd557600080fd5b946020939093013593505050565b600060208284031215611ff557600080fd5b8135611c9e81611d42565b634e487b7160e01b600052601160045260246000fd5b808201808211156106b6576106b6612000565b81835281816020850137506000828201602090810191909152601f909101601f19169091010190565b60208082528181018390526000906040600585901b8401810190840186845b878110156120e157868403603f190183528135368a9003601e1901811261209757600080fd5b8901858101903567ffffffffffffffff8111156120b357600080fd5b8036038213156120c257600080fd5b6120cd868284612029565b955050509184019190840190600101612071565b5091979650505050505050565b60006080828403121561210057600080fd5b6040516080810181811067ffffffffffffffff8211171561212357612123611d87565b806040525080915082518152602083015161213d81611d42565b8060208301525060408301516040820152606083015160608201525092915050565b6000610140828403121561217257600080fd5b61217a611d9d565b82518152602083015160208201526040830151604082015260608301516121a081611d42565b60608201526080838101519082015260a083015167ffffffffffffffff811681146121ca57600080fd5b60a08201526121dc8460c085016120ee565b60c08201529392505050565b600080604083850312156121fb57600080fd5b505080516020909101519092909150565b60006020828403121561221e57600080fd5b5051919050565b634e487b7160e01b600052601260045260246000fd5b60008261224a5761224a612225565b500490565b60008261225e5761225e612225565b500690565b80820281158282048414176106b6576106b6612000565b6000825161228c818460208701611f5b565b919091019291505056fea26469706673582212208dca471626d6662480d5d0562156b628c780d3b373fa499878f7647c164202f064736f6c63430008160033",
  "devdoc": {
    "errors": {
      "AccessControlBadConfirmation()": [
        {
          "details": "The caller of a function is not the expected one. NOTE: Don't confuse with {AccessControlUnauthorizedAccount}."
        }
      ],
      "AccessControlUnauthorizedAccount(address,bytes32)": [
        {
          "details": "The `account` is missing a role."
        }
      ],
      "AddressEmptyCode(address)": [
        {
          "details": "There's no code at `target` (it is not a contract)."
        }
      ],
      "ERC1967InvalidImplementation(address)": [
        {
          "details": "The `implementation` of the proxy is invalid."
        }
      ],
      "ERC1967NonPayable()": [
        {
          "details": "An upgrade function sees `msg.value > 0` that may be lost."
        }
      ],
      "EnforcedPause()": [
        {
          "details": "The operation failed because the contract is paused."
        }
      ],
      "ExpectedPause()": [
        {
          "details": "The operation failed because the contract is not paused."
        }
      ],
      "FailedCall()": [
        {
          "details": "A call to an address target failed. The target may have reverted."
        }
      ],
      "InvalidInitialization()": [
        {
          "details": "The contract is already initialized."
        }
      ],
      "NotInitializing()": [
        {
          "details": "The contract is not initializing."
        }
      ],
      "UUPSUnauthorizedCallContext()": [
        {
          "details": "The call is from an unauthorized context."
        }
      ],
      "UUPSUnsupportedProxiableUUID(bytes32)": [
        {
          "details": "The storage `slot` is unsupported as a UUID."
        }
      ]
    },
    "events": {
      "Initialized(uint64)": {
        "details": "Triggered when the contract has been initialized or reinitialized."
      },
      "Paused(address)": {
        "details": "Emitted when the pause is triggered by `account`."
      },
      "RoleAdminChanged(bytes32,bytes32,bytes32)": {
        "details": "Emitted when `newAdminRole` is set as ``role``'s admin role, replacing `previousAdminRole` `DEFAULT_ADMIN_ROLE` is the starting admin for all roles, despite {RoleAdminChanged} not being emitted signaling this."
      },
      "RoleGranted(bytes32,address,address)": {
        "details": "Emitted when `account` is granted `role`. `sender` is the account that originated the contract call. This account bears the admin role (for the granted role). Expected in cases where the role was granted using the internal {AccessControl-_grantRole}."
      },
      "RoleRevoked(bytes32,address,address)": {
        "details": "Emitted when `account` is revoked `role`. `sender` is the account that originated the contract call:   - if using `revokeRole`, it is the admin role bearer   - if using `renounceRole`, it is the role bearer (i.e. `account`)"
      },
      "Unpaused(address)": {
        "details": "Emitted when the pause is lifted by `account`."
      },
      "Upgraded(address)": {
        "details": "Emitted when the implementation is upgraded."
      }
    },
    "kind": "dev",
    "methods": {
      "getRoleAdmin(bytes32)": {
        "details": "Returns the admin role that controls `role`. See {grantRole} and {revokeRole}. To change a role's admin, use {_setRoleAdmin}."
      },
      "grantRole(bytes32,address)": {
        "details": "Grants `role` to `account`. If `account` had not been already granted `role`, emits a {RoleGranted} event. Requirements: - the caller must have ``role``'s admin role. May emit a {RoleGranted} event."
      },
      "hasRole(bytes32,address)": {
        "details": "Returns `true` if `account` has been granted `role`."
      },
      "pause()": {
        "details": "called by the owner to pause, triggers stopped state"
      },
      "paused()": {
        "details": "Returns true if the contract is paused, and false otherwise."
      },
      "proxiableUUID()": {
        "details": "Implementation of the ERC-1822 {proxiableUUID} function. This returns the storage slot used by the implementation. It is used to validate the implementation's compatibility when performing an upgrade. IMPORTANT: A proxy pointing at a proxiable contract should not be considered proxiable itself, because this risks bricking a proxy that upgrades to it, by delegating to itself until out of gas. Thus it is critical that this function revert if invoked through a proxy. This is guaranteed by the `notDelegated` modifier."
      },
      "renounceRole(bytes32,address)": {
        "details": "Revokes `role` from the calling account. Roles are often managed via {grantRole} and {revokeRole}: this function's purpose is to provide a mechanism for accounts to lose their privileges if they are compromised (such as when a trusted device is misplaced). If the calling account had been revoked `role`, emits a {RoleRevoked} event. Requirements: - the caller must be `callerConfirmation`. May emit a {RoleRevoked} event."
      },
      "revokeRole(bytes32,address)": {
        "details": "Revokes `role` from `account`. If `account` had been granted `role`, emits a {RoleRevoked} event. Requirements: - the caller must have ``role``'s admin role. May emit a {RoleRevoked} event."
      },
      "supportsInterface(bytes4)": {
        "details": "See {IERC165-supportsInterface}."
      },
      "unpause()": {
        "details": "called by the owner to unpause, returns to normal state"
      },
      "upgradeToAndCall(address,bytes)": {
        "custom:oz-upgrades-unsafe-allow-reachable": "delegatecall",
        "details": "Upgrade the implementation of the proxy to `newImplementation`, and subsequently execute the function call encoded in `data`. Calls {_authorizeUpgrade}. Emits an {Upgraded} event."
      }
    },
    "version": 1
  },
  "userdoc": {
    "kind": "user",
    "methods": {
      "totalGame()": {
        "notice": "Storages"
      }
    },
    "version": 1
  },
  "storageLayout": {
    "storage": [
      {
        "astId": 4822,
        "contract": "contracts/Plinko/Plinko.sol:Plinko",
        "label": "_switchboard",
        "offset": 0,
        "slot": "0",
        "type": "t_address"
      },
      {
        "astId": 4824,
        "contract": "contracts/Plinko/Plinko.sol:Plinko",
        "label": "queue",
        "offset": 0,
        "slot": "1",
        "type": "t_bytes32"
      },
      {
        "astId": 4826,
        "contract": "contracts/Plinko/Plinko.sol:Plinko",
        "label": "sequence",
        "offset": 0,
        "slot": "2",
        "type": "t_uint256"
      },
      {
        "astId": 4828,
        "contract": "contracts/Plinko/Plinko.sol:Plinko",
        "label": "solvedSeq",
        "offset": 0,
        "slot": "3",
        "type": "t_uint256"
      },
      {
        "astId": 4832,
        "contract": "contracts/Plinko/Plinko.sol:Plinko",
        "label": "seq2GameId",
        "offset": 0,
        "slot": "4",
        "type": "t_mapping(t_uint256,t_uint256)"
      },
      {
        "astId": 4340,
        "contract": "contracts/Plinko/Plinko.sol:Plinko",
        "label": "totalGame",
        "offset": 0,
        "slot": "5",
        "type": "t_uint256"
      },
      {
        "astId": 4342,
        "contract": "contracts/Plinko/Plinko.sol:Plinko",
        "label": "leaderboard",
        "offset": 0,
        "slot": "6",
        "type": "t_address"
      },
      {
        "astId": 4346,
        "contract": "contracts/Plinko/Plinko.sol:Plinko",
        "label": "degenMultiplier",
        "offset": 0,
        "slot": "7",
        "type": "t_mapping(t_uint256,t_uint256)"
      },
      {
        "astId": 4350,
        "contract": "contracts/Plinko/Plinko.sol:Plinko",
        "label": "basicMultiplier",
        "offset": 0,
        "slot": "8",
        "type": "t_mapping(t_uint256,t_uint256)"
      },
      {
        "astId": 4355,
        "contract": "contracts/Plinko/Plinko.sol:Plinko",
        "label": "gameIdToBetInfo",
        "offset": 0,
        "slot": "9",
        "type": "t_mapping(t_uint256,t_struct(BetInfo)4319_storage)"
      }
    ],
    "types": {
      "t_address": {
        "encoding": "inplace",
        "label": "address",
        "numberOfBytes": "20"
      },
      "t_bool": {
        "encoding": "inplace",
        "label": "bool",
        "numberOfBytes": "1"
      },
      "t_bytes32": {
        "encoding": "inplace",
        "label": "bytes32",
        "numberOfBytes": "32"
      },
      "t_mapping(t_uint256,t_struct(BetInfo)4319_storage)": {
        "encoding": "mapping",
        "key": "t_uint256",
        "label": "mapping(uint256 => struct Plinko.BetInfo)",
        "numberOfBytes": "32",
        "value": "t_struct(BetInfo)4319_storage"
      },
      "t_mapping(t_uint256,t_uint256)": {
        "encoding": "mapping",
        "key": "t_uint256",
        "label": "mapping(uint256 => uint256)",
        "numberOfBytes": "32",
        "value": "t_uint256"
      },
      "t_struct(BetInfo)4319_storage": {
        "encoding": "inplace",
        "label": "struct Plinko.BetInfo",
        "members": [
          {
            "astId": 4312,
            "contract": "contracts/Plinko/Plinko.sol:Plinko",
            "label": "user",
            "offset": 0,
            "slot": "0",
            "type": "t_address"
          },
          {
            "astId": 4314,
            "contract": "contracts/Plinko/Plinko.sol:Plinko",
            "label": "degen",
            "offset": 20,
            "slot": "0",
            "type": "t_bool"
          },
          {
            "astId": 4316,
            "contract": "contracts/Plinko/Plinko.sol:Plinko",
            "label": "balls",
            "offset": 0,
            "slot": "1",
            "type": "t_uint256"
          },
          {
            "astId": 4318,
            "contract": "contracts/Plinko/Plinko.sol:Plinko",
            "label": "betAmount",
            "offset": 0,
            "slot": "2",
            "type": "t_uint256"
          }
        ],
        "numberOfBytes": "96"
      },
      "t_uint256": {
        "encoding": "inplace",
        "label": "uint256",
        "numberOfBytes": "32"
      }
    }
  }
}